{
  "contractName": "ApplicationManagement",
  "abi": [
    {
      "constant": true,
      "inputs": [
        {
          "name": "",
          "type": "uint256"
        }
      ],
      "name": "productVersionIds",
      "outputs": [
        {
          "name": "",
          "type": "bytes32"
        }
      ],
      "payable": false,
      "stateMutability": "view",
      "type": "function"
    },
    {
      "constant": true,
      "inputs": [
        {
          "name": "",
          "type": "bytes32"
        }
      ],
      "name": "productIdToProductStruct",
      "outputs": [
        {
          "name": "exists",
          "type": "bool"
        },
        {
          "name": "archived",
          "type": "bool"
        },
        {
          "name": "productId",
          "type": "bytes32"
        },
        {
          "name": "latestVersionId",
          "type": "bytes32"
        },
        {
          "name": "owner",
          "type": "address"
        },
        {
          "name": "name",
          "type": "string"
        },
        {
          "name": "description",
          "type": "string"
        },
        {
          "name": "temperatureAlerts",
          "type": "string"
        },
        {
          "name": "locationAlerts",
          "type": "string"
        }
      ],
      "payable": false,
      "stateMutability": "view",
      "type": "function"
    },
    {
      "constant": true,
      "inputs": [
        {
          "name": "",
          "type": "bytes32"
        }
      ],
      "name": "versionIdToVersionStruct",
      "outputs": [
        {
          "name": "versionId",
          "type": "bytes32"
        },
        {
          "name": "previousVersionId",
          "type": "bytes32"
        },
        {
          "name": "creationDate",
          "type": "uint256"
        },
        {
          "name": "owner",
          "type": "address"
        },
        {
          "name": "latitude",
          "type": "string"
        },
        {
          "name": "longitude",
          "type": "string"
        },
        {
          "name": "customJsonData",
          "type": "string"
        },
        {
          "name": "deviceClientName",
          "type": "string"
        }
      ],
      "payable": false,
      "stateMutability": "view",
      "type": "function"
    },
    {
      "constant": true,
      "inputs": [
        {
          "name": "",
          "type": "uint256"
        }
      ],
      "name": "productIds",
      "outputs": [
        {
          "name": "",
          "type": "bytes32"
        }
      ],
      "payable": false,
      "stateMutability": "view",
      "type": "function"
    },
    {
      "constant": true,
      "inputs": [
        {
          "name": "",
          "type": "address"
        },
        {
          "name": "",
          "type": "uint256"
        }
      ],
      "name": "ownerToProductsId",
      "outputs": [
        {
          "name": "",
          "type": "bytes32"
        }
      ],
      "payable": false,
      "stateMutability": "view",
      "type": "function"
    },
    {
      "anonymous": false,
      "inputs": [
        {
          "indexed": false,
          "name": "newProductId",
          "type": "bytes32"
        },
        {
          "indexed": true,
          "name": "owner",
          "type": "address"
        }
      ],
      "name": "ProductCreated",
      "type": "event"
    },
    {
      "constant": false,
      "inputs": [
        {
          "name": "_name",
          "type": "string"
        },
        {
          "name": "_description",
          "type": "string"
        },
        {
          "name": "_latitude",
          "type": "string"
        },
        {
          "name": "_longitude",
          "type": "string"
        },
        {
          "name": "_customJsonData",
          "type": "string"
        },
        {
          "name": "_deviceClientName",
          "type": "string"
        }
      ],
      "name": "createProduct",
      "outputs": [
        {
          "name": "productId",
          "type": "bytes32"
        }
      ],
      "payable": false,
      "stateMutability": "nonpayable",
      "type": "function"
    },
    {
      "constant": false,
      "inputs": [
        {
          "name": "_productId",
          "type": "bytes32"
        },
        {
          "name": "_alertData",
          "type": "string"
        }
      ],
      "name": "addTemperaturAlert",
      "outputs": [
        {
          "name": "newAlert",
          "type": "string"
        }
      ],
      "payable": false,
      "stateMutability": "nonpayable",
      "type": "function"
    },
    {
      "constant": false,
      "inputs": [
        {
          "name": "_productId",
          "type": "bytes32"
        },
        {
          "name": "_alertData",
          "type": "string"
        }
      ],
      "name": "addLocationAlert",
      "outputs": [
        {
          "name": "newAlert",
          "type": "string"
        }
      ],
      "payable": false,
      "stateMutability": "nonpayable",
      "type": "function"
    },
    {
      "constant": false,
      "inputs": [
        {
          "name": "_productId",
          "type": "bytes32"
        },
        {
          "name": "_latitude",
          "type": "string"
        },
        {
          "name": "_longitude",
          "type": "string"
        },
        {
          "name": "_customJsonData",
          "type": "string"
        },
        {
          "name": "_deviceClientName",
          "type": "string"
        }
      ],
      "name": "updateProduct",
      "outputs": [],
      "payable": false,
      "stateMutability": "nonpayable",
      "type": "function"
    },
    {
      "constant": true,
      "inputs": [
        {
          "name": "_deviceClientName",
          "type": "string"
        }
      ],
      "name": "getProductByDeviceClientName",
      "outputs": [
        {
          "name": "productId",
          "type": "bytes32"
        }
      ],
      "payable": false,
      "stateMutability": "view",
      "type": "function"
    },
    {
      "constant": true,
      "inputs": [
        {
          "name": "_productId",
          "type": "bytes32"
        },
        {
          "name": "specificVersionId",
          "type": "bytes32"
        }
      ],
      "name": "getProductByIdExtra",
      "outputs": [
        {
          "name": "deviceClientName",
          "type": "string"
        },
        {
          "name": "tempAlertStr",
          "type": "string"
        },
        {
          "name": "locAlertStr",
          "type": "string"
        }
      ],
      "payable": false,
      "stateMutability": "view",
      "type": "function"
    },
    {
      "constant": true,
      "inputs": [
        {
          "name": "_productId",
          "type": "bytes32"
        },
        {
          "name": "specificVersionId",
          "type": "bytes32"
        }
      ],
      "name": "getProductById",
      "outputs": [
        {
          "name": "name",
          "type": "string"
        },
        {
          "name": "description",
          "type": "string"
        },
        {
          "name": "_latitude",
          "type": "string"
        },
        {
          "name": "_longitude",
          "type": "string"
        },
        {
          "name": "versionCreationDate",
          "type": "uint256"
        },
        {
          "name": "versions",
          "type": "bytes32[]"
        }
      ],
      "payable": false,
      "stateMutability": "view",
      "type": "function"
    },
    {
      "constant": true,
      "inputs": [
        {
          "name": "_productId",
          "type": "bytes32"
        },
        {
          "name": "specificVersionId",
          "type": "bytes32"
        }
      ],
      "name": "getProductCustomDataById",
      "outputs": [
        {
          "name": "customJsonData",
          "type": "string"
        }
      ],
      "payable": false,
      "stateMutability": "view",
      "type": "function"
    },
    {
      "constant": true,
      "inputs": [],
      "name": "getOwnerProducts",
      "outputs": [
        {
          "name": "productsIds",
          "type": "bytes32[]"
        }
      ],
      "payable": false,
      "stateMutability": "view",
      "type": "function"
    },
    {
      "constant": true,
      "inputs": [
        {
          "name": "_versionId",
          "type": "bytes32"
        }
      ],
      "name": "getVersionLatLngById",
      "outputs": [
        {
          "name": "latitude",
          "type": "string"
        },
        {
          "name": "longitude",
          "type": "string"
        }
      ],
      "payable": false,
      "stateMutability": "view",
      "type": "function"
    }
  ],
  "bytecode": "0x608060405234801561001057600080fd5b50615198806100206000396000f3fe6080604052600436106100db576000357c0100000000000000000000000000000000000000000000000000000000900463ffffffff16806309f2f069146100e05780630f42435b146102005780632c602cec1461024f5780633873ab241461039a578063545b62a61461040657806355a53f061461055157806364aa3a48146109205780636768cee114610b6f578063802e62dd14610c09578063876359e414610e5a5780638bf2c0571461109a578063c0fd332114611230578063cb51bba9146114c7578063db2b9f1814611516578063e9baf25814611585575b600080fd5b3480156100ec57600080fd5b506101196004803603602081101561010357600080fd5b8101908080359060200190929190505050611643565b604051808060200180602001838103835285818151815260200191508051906020019080838360005b8381101561015d578082015181840152602081019050610142565b50505050905090810190601f16801561018a5780820380516001836020036101000a031916815260200191505b50838103825284818151815260200191508051906020019080838360005b838110156101c35780820151818401526020810190506101a8565b50505050905090810190601f1680156101f05780820380516001836020036101000a031916815260200191505b5094505050505060405180910390f35b34801561020c57600080fd5b506102396004803603602081101561022357600080fd5b81019080803590602001909291905050506117a7565b6040518082815260200191505060405180910390f35b34801561025b57600080fd5b5061031f6004803603604081101561027257600080fd5b81019080803590602001909291908035906020019064010000000081111561029957600080fd5b8201836020820111156102ab57600080fd5b803590602001918460018302840111640100000000831117156102cd57600080fd5b91908080601f016020809104026020016040519081016040528093929190818152602001838380828437600081840152601f19601f8201169050808301925050505050505091929192905050506117ca565b6040518080602001828103825283818151815260200191508051906020019080838360005b8381101561035f578082015181840152602081019050610344565b50505050905090810190601f16801561038c5780820380516001836020036101000a031916815260200191505b509250505060405180910390f35b3480156103a657600080fd5b506103af6118a1565b6040518080602001828103825283818151815260200191508051906020019060200280838360005b838110156103f25780820151818401526020810190506103d7565b505050509050019250505060405180910390f35b34801561041257600080fd5b506104d66004803603604081101561042957600080fd5b81019080803590602001909291908035906020019064010000000081111561045057600080fd5b82018360208201111561046257600080fd5b8035906020019184600183028401116401000000008311171561048457600080fd5b91908080601f016020809104026020016040519081016040528093929190818152602001838380828437600081840152601f19601f820116905080830192505050505050509192919290505050611a01565b6040518080602001828103825283818151815260200191508051906020019080838360005b838110156105165780820151818401526020810190506104fb565b50505050905090810190601f1680156105435780820380516001836020036101000a031916815260200191505b509250505060405180910390f35b34801561055d57600080fd5b5061090a600480360360c081101561057457600080fd5b810190808035906020019064010000000081111561059157600080fd5b8201836020820111156105a357600080fd5b803590602001918460018302840111640100000000831117156105c557600080fd5b91908080601f016020809104026020016040519081016040528093929190818152602001838380828437600081840152601f19601f8201169050808301925050505050505091929192908035906020019064010000000081111561062857600080fd5b82018360208201111561063a57600080fd5b8035906020019184600183028401116401000000008311171561065c57600080fd5b91908080601f016020809104026020016040519081016040528093929190818152602001838380828437600081840152601f19601f820116905080830192505050505050509192919290803590602001906401000000008111156106bf57600080fd5b8201836020820111156106d157600080fd5b803590602001918460018302840111640100000000831117156106f357600080fd5b91908080601f016020809104026020016040519081016040528093929190818152602001838380828437600081840152601f19601f8201169050808301925050505050505091929192908035906020019064010000000081111561075657600080fd5b82018360208201111561076857600080fd5b8035906020019184600183028401116401000000008311171561078a57600080fd5b91908080601f016020809104026020016040519081016040528093929190818152602001838380828437600081840152601f19601f820116905080830192505050505050509192919290803590602001906401000000008111156107ed57600080fd5b8201836020820111156107ff57600080fd5b8035906020019184600183028401116401000000008311171561082157600080fd5b91908080601f016020809104026020016040519081016040528093929190818152602001838380828437600081840152601f19601f8201169050808301925050505050505091929192908035906020019064010000000081111561088457600080fd5b82018360208201111561089657600080fd5b803590602001918460018302840111640100000000831117156108b857600080fd5b91908080601f016020809104026020016040519081016040528093929190818152602001838380828437600081840152601f19601f820116905080830192505050505050509192919290505050611ad8565b6040518082815260200191505060405180910390f35b34801561092c57600080fd5b506109596004803603602081101561094357600080fd5b8101908080359060200190929190505050611dd8565b604051808a151515158152602001891515151581526020018881526020018781526020018673ffffffffffffffffffffffffffffffffffffffff1673ffffffffffffffffffffffffffffffffffffffff16815260200180602001806020018060200180602001858103855289818151815260200191508051906020019080838360005b838110156109f75780820151818401526020810190506109dc565b50505050905090810190601f168015610a245780820380516001836020036101000a031916815260200191505b50858103845288818151815260200191508051906020019080838360005b83811015610a5d578082015181840152602081019050610a42565b50505050905090810190601f168015610a8a5780820380516001836020036101000a031916815260200191505b50858103835287818151815260200191508051906020019080838360005b83811015610ac3578082015181840152602081019050610aa8565b50505050905090810190601f168015610af05780820380516001836020036101000a031916815260200191505b50858103825286818151815260200191508051906020019080838360005b83811015610b29578082015181840152602081019050610b0e565b50505050905090810190601f168015610b565780820380516001836020036101000a031916815260200191505b509d505050505050505050505050505060405180910390f35b348015610b7b57600080fd5b50610bf360048036036020811015610b9257600080fd5b8101908080359060200190640100000000811115610baf57600080fd5b820183602082011115610bc157600080fd5b80359060200191846001830284011164010000000083111715610be357600080fd5b90919293919293905050506120c0565b6040518082815260200191505060405180910390f35b348015610c1557600080fd5b50610c4c60048036036040811015610c2c57600080fd5b81019080803590602001909291908035906020019092919050505061248e565b60405180806020018060200180602001806020018781526020018060200186810386528c818151815260200191508051906020019080838360005b83811015610ca2578082015181840152602081019050610c87565b50505050905090810190601f168015610ccf5780820380516001836020036101000a031916815260200191505b5086810385528b818151815260200191508051906020019080838360005b83811015610d08578082015181840152602081019050610ced565b50505050905090810190601f168015610d355780820380516001836020036101000a031916815260200191505b5086810384528a818151815260200191508051906020019080838360005b83811015610d6e578082015181840152602081019050610d53565b50505050905090810190601f168015610d9b5780820380516001836020036101000a031916815260200191505b50868103835289818151815260200191508051906020019080838360005b83811015610dd4578082015181840152602081019050610db9565b50505050905090810190601f168015610e015780820380516001836020036101000a031916815260200191505b50868103825287818151815260200191508051906020019060200280838360005b83811015610e3d578082015181840152602081019050610e22565b505050509050019b50505050505050505050505060405180910390f35b348015610e6657600080fd5b50610e9360048036036020811015610e7d57600080fd5b8101908080359060200190929190505050612ef8565b604051808981526020018881526020018781526020018673ffffffffffffffffffffffffffffffffffffffff1673ffffffffffffffffffffffffffffffffffffffff16815260200180602001806020018060200180602001858103855289818151815260200191508051906020019080838360005b83811015610f23578082015181840152602081019050610f08565b50505050905090810190601f168015610f505780820380516001836020036101000a031916815260200191505b50858103845288818151815260200191508051906020019080838360005b83811015610f89578082015181840152602081019050610f6e565b50505050905090810190601f168015610fb65780820380516001836020036101000a031916815260200191505b50858103835287818151815260200191508051906020019080838360005b83811015610fef578082015181840152602081019050610fd4565b50505050905090810190601f16801561101c5780820380516001836020036101000a031916815260200191505b50858103825286818151815260200191508051906020019080838360005b8381101561105557808201518184015260208101905061103a565b50505050905090810190601f1680156110825780820380516001836020036101000a031916815260200191505b509c5050505050505050505050505060405180910390f35b3480156110a657600080fd5b506110dd600480360360408110156110bd57600080fd5b8101908080359060200190929190803590602001909291905050506131c0565b60405180806020018060200180602001848103845287818151815260200191508051906020019080838360005b8381101561112557808201518184015260208101905061110a565b50505050905090810190601f1680156111525780820380516001836020036101000a031916815260200191505b50848103835286818151815260200191508051906020019080838360005b8381101561118b578082015181840152602081019050611170565b50505050905090810190601f1680156111b85780820380516001836020036101000a031916815260200191505b50848103825285818151815260200191508051906020019080838360005b838110156111f15780820151818401526020810190506111d6565b50505050905090810190601f16801561121e5780820380516001836020036101000a031916815260200191505b50965050505050505060405180910390f35b34801561123c57600080fd5b506114c5600480360360a081101561125357600080fd5b81019080803590602001909291908035906020019064010000000081111561127a57600080fd5b82018360208201111561128c57600080fd5b803590602001918460018302840111640100000000831117156112ae57600080fd5b91908080601f016020809104026020016040519081016040528093929190818152602001838380828437600081840152601f19601f8201169050808301925050505050505091929192908035906020019064010000000081111561131157600080fd5b82018360208201111561132357600080fd5b8035906020019184600183028401116401000000008311171561134557600080fd5b91908080601f016020809104026020016040519081016040528093929190818152602001838380828437600081840152601f19601f820116905080830192505050505050509192919290803590602001906401000000008111156113a857600080fd5b8201836020820111156113ba57600080fd5b803590602001918460018302840111640100000000831117156113dc57600080fd5b91908080601f016020809104026020016040519081016040528093929190818152602001838380828437600081840152601f19601f8201169050808301925050505050505091929192908035906020019064010000000081111561143f57600080fd5b82018360208201111561145157600080fd5b8035906020019184600183028401116401000000008311171561147357600080fd5b91908080601f016020809104026020016040519081016040528093929190818152602001838380828437600081840152601f19601f820116905080830192505050505050509192919290505050613c09565b005b3480156114d357600080fd5b50611500600480360360208110156114ea57600080fd5b810190808035906020019092919050505061408b565b6040518082815260200191505060405180910390f35b34801561152257600080fd5b5061156f6004803603604081101561153957600080fd5b81019080803573ffffffffffffffffffffffffffffffffffffffff169060200190929190803590602001909291905050506140ae565b6040518082815260200191505060405180910390f35b34801561159157600080fd5b506115c8600480360360408110156115a857600080fd5b8101908080359060200190929190803590602001909291905050506140de565b6040518080602001828103825283818151815260200191508051906020019080838360005b838110156116085780820151818401526020810190506115ed565b50505050905090810190601f1680156116355780820380516001836020036101000a031916815260200191505b509250505060405180910390f35b60608060006003600085815260200190815260200160002090508060040181600501818054600181600116156101000203166002900480601f0160208091040260200160405190810160405280929190818152602001828054600181600116156101000203166002900480156116fa5780601f106116cf576101008083540402835291602001916116fa565b820191906000526020600020905b8154815290600101906020018083116116dd57829003601f168201915b50505050509150808054600181600116156101000203166002900480601f0160208091040260200160405190810160405280929190818152602001828054600181600116156101000203166002900480156117965780601f1061176b57610100808354040283529160200191611796565b820191906000526020600020905b81548152906001019060200180831161177957829003601f168201915b505050505090509250925050915091565b6004818154811015156117b657fe5b906000526020600020016000915090505481565b606060008060008581526020019081526020016000209050828160080190805190602001906117fa929190614ea6565b50806008018054600181600116156101000203166002900480601f0160208091040260200160405190810160405280929190818152602001828054600181600116156101000203166002900480156118935780601f1061186857610100808354040283529160200191611893565b820191906000526020600020905b81548152906001019060200180831161187657829003601f168201915b505050505091505092915050565b606080600560003373ffffffffffffffffffffffffffffffffffffffff1673ffffffffffffffffffffffffffffffffffffffff16815260200190815260200160002080548060200260200160405190810160405280929190818152602001828054801561192d57602002820191906000526020600020905b815481526020019060010190808311611919575b50505050509050606081516040519080825280602002602001820160405280156119665781602001602082028038833980820191505090505b50905060008090505b82518110156119f857600080848381518110151561198957fe5b90602001906020020151815260200190815260200160002060000160019054906101000a900460ff1615156119ed5782818151811015156119c657fe5b9060200190602002015182828151811015156119de57fe5b90602001906020020181815250505b80600101905061196f565b50809250505090565b60606000806000858152602001908152602001600020905082816007019080519060200190611a31929190614ea6565b50806007018054600181600116156101000203166002900480601f016020809104026020016040519081016040528092919081815260200182805460018160011615610100020316600290048015611aca5780601f10611a9f57610100808354040283529160200191611aca565b820191906000526020600020905b815481529060010190602001808311611aad57829003601f168201915b505050505091505092915050565b6000804233604051602001808381526020018273ffffffffffffffffffffffffffffffffffffffff1673ffffffffffffffffffffffffffffffffffffffff166c0100000000000000000000000002815260140192505050604051602081830303815290604052805190602001209050600080600083815260200190815260200160002090508181600101819055507f300000000000000000000000000000000000000000000000000000000000000081600201819055506000604051908082528060200260200182016040528015611bbf5781602001602082028038833980820191505090505b50816003019080519060200190611bd7929190614f26565b5060018160000160006101000a81548160ff02191690831515021790555060008160000160016101000a81548160ff021916908315150217905550338160040160006101000a81548173ffffffffffffffffffffffffffffffffffffffff021916908373ffffffffffffffffffffffffffffffffffffffff16021790555088816005019080519060200190611c6d929190614ea6565b5087816006019080519060200190611c86929190614ea6565b506020604051908101604052806000815250816007019080519060200190611caf929190614ea6565b506020604051908101604052806000815250816008019080519060200190611cd8929190614ea6565b506001829080600181540180825580915050906001820390600052602060002001600090919290919091505550600560003373ffffffffffffffffffffffffffffffffffffffff1673ffffffffffffffffffffffffffffffffffffffff168152602001908152602001600020829080600181540180825580915050906001820390600052602060002001600090919290919091505550611d7b8288888888613c09565b3373ffffffffffffffffffffffffffffffffffffffff167f1f3cd26d22ddb1ce87773315d1a9a80f4c46a7aaf7a8d3c23827523b8976f912836040518082815260200191505060405180910390a281925050509695505050505050565b60006020528060005260406000206000915090508060000160009054906101000a900460ff16908060000160019054906101000a900460ff16908060010154908060020154908060040160009054906101000a900473ffffffffffffffffffffffffffffffffffffffff1690806005018054600181600116156101000203166002900480601f016020809104026020016040519081016040528092919081815260200182805460018160011615610100020316600290048015611edc5780601f10611eb157610100808354040283529160200191611edc565b820191906000526020600020905b815481529060010190602001808311611ebf57829003601f168201915b505050505090806006018054600181600116156101000203166002900480601f016020809104026020016040519081016040528092919081815260200182805460018160011615610100020316600290048015611f7a5780601f10611f4f57610100808354040283529160200191611f7a565b820191906000526020600020905b815481529060010190602001808311611f5d57829003601f168201915b505050505090806007018054600181600116156101000203166002900480601f0160208091040260200160405190810160405280929190818152602001828054600181600116156101000203166002900480156120185780601f10611fed57610100808354040283529160200191612018565b820191906000526020600020905b815481529060010190602001808311611ffb57829003601f168201915b505050505090806008018054600181600116156101000203166002900480601f0160208091040260200160405190810160405280929190818152602001828054600181600116156101000203166002900480156120b65780601f1061208b576101008083540402835291602001916120b6565b820191906000526020600020905b81548152906001019060200180831161209957829003601f168201915b5050505050905089565b60006120ca614f73565b60028484604051808383808284378083019250505092505050908152602001604051809103902061014060405190810160405290816000820160009054906101000a900460ff161515151581526020016000820160019054906101000a900460ff1615151515815260200160018201548152602001600282015481526020016003820180548060200260200160405190810160405280929190818152602001828054801561219757602002820191906000526020600020905b815481526020019060010190808311612183575b505050505081526020016004820160009054906101000a900473ffffffffffffffffffffffffffffffffffffffff1673ffffffffffffffffffffffffffffffffffffffff1673ffffffffffffffffffffffffffffffffffffffff168152602001600582018054600181600116156101000203166002900480601f01602080910402602001604051908101604052809291908181526020018280546001816001161561010002031660029004801561228f5780601f106122645761010080835404028352916020019161228f565b820191906000526020600020905b81548152906001019060200180831161227257829003601f168201915b50505050508152602001600682018054600181600116156101000203166002900480601f0160208091040260200160405190810160405280929190818152602001828054600181600116156101000203166002900480156123315780601f1061230657610100808354040283529160200191612331565b820191906000526020600020905b81548152906001019060200180831161231457829003601f168201915b50505050508152602001600782018054600181600116156101000203166002900480601f0160208091040260200160405190810160405280929190818152602001828054600181600116156101000203166002900480156123d35780601f106123a8576101008083540402835291602001916123d3565b820191906000526020600020905b8154815290600101906020018083116123b657829003601f168201915b50505050508152602001600882018054600181600116156101000203166002900480601f0160208091040260200160405190810160405280929190818152602001828054600181600116156101000203166002900480156124755780601f1061244a57610100808354040283529160200191612475565b820191906000526020600020905b81548152906001019060200180831161245857829003601f168201915b5050505050815250509050806040015191505092915050565b606080606080600060606124a0614f73565b6000808a815260200190815260200160002061014060405190810160405290816000820160009054906101000a900460ff161515151581526020016000820160019054906101000a900460ff1615151515815260200160018201548152602001600282015481526020016003820180548060200260200160405190810160405280929190818152602001828054801561255857602002820191906000526020600020905b815481526020019060010190808311612544575b505050505081526020016004820160009054906101000a900473ffffffffffffffffffffffffffffffffffffffff1673ffffffffffffffffffffffffffffffffffffffff1673ffffffffffffffffffffffffffffffffffffffff168152602001600582018054600181600116156101000203166002900480601f0160208091040260200160405190810160405280929190818152602001828054600181600116156101000203166002900480156126505780601f1061262557610100808354040283529160200191612650565b820191906000526020600020905b81548152906001019060200180831161263357829003601f168201915b50505050508152602001600682018054600181600116156101000203166002900480601f0160208091040260200160405190810160405280929190818152602001828054600181600116156101000203166002900480156126f25780601f106126c7576101008083540402835291602001916126f2565b820191906000526020600020905b8154815290600101906020018083116126d557829003601f168201915b50505050508152602001600782018054600181600116156101000203166002900480601f0160208091040260200160405190810160405280929190818152602001828054600181600116156101000203166002900480156127945780601f1061276957610100808354040283529160200191612794565b820191906000526020600020905b81548152906001019060200180831161277757829003601f168201915b50505050508152602001600882018054600181600116156101000203166002900480601f0160208091040260200160405190810160405280929190818152602001828054600181600116156101000203166002900480156128365780601f1061280b57610100808354040283529160200191612836565b820191906000526020600020905b81548152906001019060200180831161281957829003601f168201915b5050505050815250509050612849614fe7565b600360008360600151815260200190815260200160002061010060405190810160405290816000820154815260200160018201548152602001600282015481526020016003820160009054906101000a900473ffffffffffffffffffffffffffffffffffffffff1673ffffffffffffffffffffffffffffffffffffffff1673ffffffffffffffffffffffffffffffffffffffff168152602001600482018054600181600116156101000203166002900480601f01602080910402602001604051908101604052809291908181526020018280546001816001161561010002031660029004801561297a5780601f1061294f5761010080835404028352916020019161297a565b820191906000526020600020905b81548152906001019060200180831161295d57829003601f168201915b50505050508152602001600582018054600181600116156101000203166002900480601f016020809104026020016040519081016040528092919081815260200182805460018160011615610100020316600290048015612a1c5780601f106129f157610100808354040283529160200191612a1c565b820191906000526020600020905b8154815290600101906020018083116129ff57829003601f168201915b50505050508152602001600682018054600181600116156101000203166002900480601f016020809104026020016040519081016040528092919081815260200182805460018160011615610100020316600290048015612abe5780601f10612a9357610100808354040283529160200191612abe565b820191906000526020600020905b815481529060010190602001808311612aa157829003601f168201915b50505050508152602001600782018054600181600116156101000203166002900480601f016020809104026020016040519081016040528092919081815260200182805460018160011615610100020316600290048015612b605780601f10612b3557610100808354040283529160200191612b60565b820191906000526020600020905b815481529060010190602001808311612b4357829003601f168201915b50505050508152505090507f6c6174657374000000000000000000000000000000000000000000000000000089141515612eb357600360008a815260200190815260200160002061010060405190810160405290816000820154815260200160018201548152602001600282015481526020016003820160009054906101000a900473ffffffffffffffffffffffffffffffffffffffff1673ffffffffffffffffffffffffffffffffffffffff1673ffffffffffffffffffffffffffffffffffffffff168152602001600482018054600181600116156101000203166002900480601f016020809104026020016040519081016040528092919081815260200182805460018160011615610100020316600290048015612cc15780601f10612c9657610100808354040283529160200191612cc1565b820191906000526020600020905b815481529060010190602001808311612ca457829003601f168201915b50505050508152602001600582018054600181600116156101000203166002900480601f016020809104026020016040519081016040528092919081815260200182805460018160011615610100020316600290048015612d635780601f10612d3857610100808354040283529160200191612d63565b820191906000526020600020905b815481529060010190602001808311612d4657829003601f168201915b50505050508152602001600682018054600181600116156101000203166002900480601f016020809104026020016040519081016040528092919081815260200182805460018160011615610100020316600290048015612e055780601f10612dda57610100808354040283529160200191612e05565b820191906000526020600020905b815481529060010190602001808311612de857829003601f168201915b50505050508152602001600782018054600181600116156101000203166002900480601f016020809104026020016040519081016040528092919081815260200182805460018160011615610100020316600290048015612ea75780601f10612e7c57610100808354040283529160200191612ea7565b820191906000526020600020905b815481529060010190602001808311612e8a57829003601f168201915b50505050508152505090505b8160c001518260e0015182608001518360a001518460400151866080015185955084945083935082925080905097509750975097509750975050509295509295509295565b60036020528060005260406000206000915090508060000154908060010154908060020154908060030160009054906101000a900473ffffffffffffffffffffffffffffffffffffffff1690806004018054600181600116156101000203166002900480601f016020809104026020016040519081016040528092919081815260200182805460018160011615610100020316600290048015612fdc5780601f10612fb157610100808354040283529160200191612fdc565b820191906000526020600020905b815481529060010190602001808311612fbf57829003601f168201915b505050505090806005018054600181600116156101000203166002900480601f01602080910402602001604051908101604052809291908181526020018280546001816001161561010002031660029004801561307a5780601f1061304f5761010080835404028352916020019161307a565b820191906000526020600020905b81548152906001019060200180831161305d57829003601f168201915b505050505090806006018054600181600116156101000203166002900480601f0160208091040260200160405190810160405280929190818152602001828054600181600116156101000203166002900480156131185780601f106130ed57610100808354040283529160200191613118565b820191906000526020600020905b8154815290600101906020018083116130fb57829003601f168201915b505050505090806007018054600181600116156101000203166002900480601f0160208091040260200160405190810160405280929190818152602001828054600181600116156101000203166002900480156131b65780601f1061318b576101008083540402835291602001916131b6565b820191906000526020600020905b81548152906001019060200180831161319957829003601f168201915b5050505050905088565b60608060606131cd614f73565b60008087815260200190815260200160002061014060405190810160405290816000820160009054906101000a900460ff161515151581526020016000820160019054906101000a900460ff1615151515815260200160018201548152602001600282015481526020016003820180548060200260200160405190810160405280929190818152602001828054801561328557602002820191906000526020600020905b815481526020019060010190808311613271575b505050505081526020016004820160009054906101000a900473ffffffffffffffffffffffffffffffffffffffff1673ffffffffffffffffffffffffffffffffffffffff1673ffffffffffffffffffffffffffffffffffffffff168152602001600582018054600181600116156101000203166002900480601f01602080910402602001604051908101604052809291908181526020018280546001816001161561010002031660029004801561337d5780601f106133525761010080835404028352916020019161337d565b820191906000526020600020905b81548152906001019060200180831161336057829003601f168201915b50505050508152602001600682018054600181600116156101000203166002900480601f01602080910402602001604051908101604052809291908181526020018280546001816001161561010002031660029004801561341f5780601f106133f45761010080835404028352916020019161341f565b820191906000526020600020905b81548152906001019060200180831161340257829003601f168201915b50505050508152602001600782018054600181600116156101000203166002900480601f0160208091040260200160405190810160405280929190818152602001828054600181600116156101000203166002900480156134c15780601f10613496576101008083540402835291602001916134c1565b820191906000526020600020905b8154815290600101906020018083116134a457829003601f168201915b50505050508152602001600882018054600181600116156101000203166002900480601f0160208091040260200160405190810160405280929190818152602001828054600181600116156101000203166002900480156135635780601f1061353857610100808354040283529160200191613563565b820191906000526020600020905b81548152906001019060200180831161354657829003601f168201915b5050505050815250509050613576614fe7565b600360008360600151815260200190815260200160002061010060405190810160405290816000820154815260200160018201548152602001600282015481526020016003820160009054906101000a900473ffffffffffffffffffffffffffffffffffffffff1673ffffffffffffffffffffffffffffffffffffffff1673ffffffffffffffffffffffffffffffffffffffff168152602001600482018054600181600116156101000203166002900480601f0160208091040260200160405190810160405280929190818152602001828054600181600116156101000203166002900480156136a75780601f1061367c576101008083540402835291602001916136a7565b820191906000526020600020905b81548152906001019060200180831161368a57829003601f168201915b50505050508152602001600582018054600181600116156101000203166002900480601f0160208091040260200160405190810160405280929190818152602001828054600181600116156101000203166002900480156137495780601f1061371e57610100808354040283529160200191613749565b820191906000526020600020905b81548152906001019060200180831161372c57829003601f168201915b50505050508152602001600682018054600181600116156101000203166002900480601f0160208091040260200160405190810160405280929190818152602001828054600181600116156101000203166002900480156137eb5780601f106137c0576101008083540402835291602001916137eb565b820191906000526020600020905b8154815290600101906020018083116137ce57829003601f168201915b50505050508152602001600782018054600181600116156101000203166002900480601f01602080910402602001604051908101604052809291908181526020018280546001816001161561010002031660029004801561388d5780601f106138625761010080835404028352916020019161388d565b820191906000526020600020905b81548152906001019060200180831161387057829003601f168201915b50505050508152505090507f6c6174657374000000000000000000000000000000000000000000000000000086141515613be0576003600087815260200190815260200160002061010060405190810160405290816000820154815260200160018201548152602001600282015481526020016003820160009054906101000a900473ffffffffffffffffffffffffffffffffffffffff1673ffffffffffffffffffffffffffffffffffffffff1673ffffffffffffffffffffffffffffffffffffffff168152602001600482018054600181600116156101000203166002900480601f0160208091040260200160405190810160405280929190818152602001828054600181600116156101000203166002900480156139ee5780601f106139c3576101008083540402835291602001916139ee565b820191906000526020600020905b8154815290600101906020018083116139d157829003601f168201915b50505050508152602001600582018054600181600116156101000203166002900480601f016020809104026020016040519081016040528092919081815260200182805460018160011615610100020316600290048015613a905780601f10613a6557610100808354040283529160200191613a90565b820191906000526020600020905b815481529060010190602001808311613a7357829003601f168201915b50505050508152602001600682018054600181600116156101000203166002900480601f016020809104026020016040519081016040528092919081815260200182805460018160011615610100020316600290048015613b325780601f10613b0757610100808354040283529160200191613b32565b820191906000526020600020905b815481529060010190602001808311613b1557829003601f168201915b50505050508152602001600782018054600181600116156101000203166002900480601f016020809104026020016040519081016040528092919081815260200182805460018160011615610100020316600290048015613bd45780601f10613ba957610100808354040283529160200191613bd4565b820191906000526020600020905b815481529060010190602001808311613bb757829003601f168201915b50505050508152505090505b8060e0015182610100015183610120015182925081915080905094509450945050509250925092565b6000806000878152602001908152602001600020905060008251141515613ea7576060613c746040805190810160405280600181526020017f3b0000000000000000000000000000000000000000000000000000000000000081525084614b0a90919063ffffffff16565b905060008090505b8151811015613ea4578260028383815181101515613c9657fe5b906020019060200201516040518082805190602001908083835b602083101515613cd55780518252602082019150602081019050602083039250613cb0565b6001836020036101000a03801982511681845116808217855250505050505090500191505090815260200160405180910390206000820160009054906101000a900460ff168160000160006101000a81548160ff0219169083151502179055506000820160019054906101000a900460ff168160000160016101000a81548160ff02191690831515021790555060018201548160010155600282015481600201556003820181600301908054613d8c929190615049565b506004820160009054906101000a900473ffffffffffffffffffffffffffffffffffffffff168160040160006101000a81548173ffffffffffffffffffffffffffffffffffffffff021916908373ffffffffffffffffffffffffffffffffffffffff16021790555060058201816005019080546001816001161561010002031660029004613e1b92919061509b565b5060068201816006019080546001816001161561010002031660029004613e4392919061509b565b5060078201816007019080546001816001161561010002031660029004613e6b92919061509b565b5060088201816008019080546001816001161561010002031660029004613e9392919061509b565b509050508080600101915050613c7c565b50505b6000423388604051602001808481526020018373ffffffffffffffffffffffffffffffffffffffff1673ffffffffffffffffffffffffffffffffffffffff166c0100000000000000000000000002815260140182815260200193505050506040516020818303038152906040528051906020012090506000600360008381526020019081526020016000209050818160000181905550428160020181905550826002015481600101819055508260040160009054906101000a900473ffffffffffffffffffffffffffffffffffffffff168160030160006101000a81548173ffffffffffffffffffffffffffffffffffffffff021916908373ffffffffffffffffffffffffffffffffffffffff16021790555086816004019080519060200190613fd2929190614ea6565b5085816005019080519060200190613feb929190614ea6565b5084816006019080519060200190614004929190614ea6565b508381600701908051906020019061401d929190614ea6565b506004829080600181540180825580915050906001820390600052602060002001600090919290919091505550826003018290806001815401808255809150509060018203906000526020600020016000909192909190915055508183600201819055505050505050505050565b60018181548110151561409a57fe5b906000526020600020016000915090505481565b6005602052816000526040600020818154811015156140c957fe5b90600052602060002001600091509150505481565b60606140e8614f73565b60008085815260200190815260200160002061014060405190810160405290816000820160009054906101000a900460ff161515151581526020016000820160019054906101000a900460ff161515151581526020016001820154815260200160028201548152602001600382018054806020026020016040519081016040528092919081815260200182805480156141a057602002820191906000526020600020905b81548152602001906001019080831161418c575b505050505081526020016004820160009054906101000a900473ffffffffffffffffffffffffffffffffffffffff1673ffffffffffffffffffffffffffffffffffffffff1673ffffffffffffffffffffffffffffffffffffffff168152602001600582018054600181600116156101000203166002900480601f0160208091040260200160405190810160405280929190818152602001828054600181600116156101000203166002900480156142985780601f1061426d57610100808354040283529160200191614298565b820191906000526020600020905b81548152906001019060200180831161427b57829003601f168201915b50505050508152602001600682018054600181600116156101000203166002900480601f01602080910402602001604051908101604052809291908181526020018280546001816001161561010002031660029004801561433a5780601f1061430f5761010080835404028352916020019161433a565b820191906000526020600020905b81548152906001019060200180831161431d57829003601f168201915b50505050508152602001600782018054600181600116156101000203166002900480601f0160208091040260200160405190810160405280929190818152602001828054600181600116156101000203166002900480156143dc5780601f106143b1576101008083540402835291602001916143dc565b820191906000526020600020905b8154815290600101906020018083116143bf57829003601f168201915b50505050508152602001600882018054600181600116156101000203166002900480601f01602080910402602001604051908101604052809291908181526020018280546001816001161561010002031660029004801561447e5780601f106144535761010080835404028352916020019161447e565b820191906000526020600020905b81548152906001019060200180831161446157829003601f168201915b5050505050815250509050614491614fe7565b600360008360600151815260200190815260200160002061010060405190810160405290816000820154815260200160018201548152602001600282015481526020016003820160009054906101000a900473ffffffffffffffffffffffffffffffffffffffff1673ffffffffffffffffffffffffffffffffffffffff1673ffffffffffffffffffffffffffffffffffffffff168152602001600482018054600181600116156101000203166002900480601f0160208091040260200160405190810160405280929190818152602001828054600181600116156101000203166002900480156145c25780601f10614597576101008083540402835291602001916145c2565b820191906000526020600020905b8154815290600101906020018083116145a557829003601f168201915b50505050508152602001600582018054600181600116156101000203166002900480601f0160208091040260200160405190810160405280929190818152602001828054600181600116156101000203166002900480156146645780601f1061463957610100808354040283529160200191614664565b820191906000526020600020905b81548152906001019060200180831161464757829003601f168201915b50505050508152602001600682018054600181600116156101000203166002900480601f0160208091040260200160405190810160405280929190818152602001828054600181600116156101000203166002900480156147065780601f106146db57610100808354040283529160200191614706565b820191906000526020600020905b8154815290600101906020018083116146e957829003601f168201915b50505050508152602001600782018054600181600116156101000203166002900480601f0160208091040260200160405190810160405280929190818152602001828054600181600116156101000203166002900480156147a85780601f1061477d576101008083540402835291602001916147a8565b820191906000526020600020905b81548152906001019060200180831161478b57829003601f168201915b50505050508152505090507f6c6174657374000000000000000000000000000000000000000000000000000084141515614afb576003600085815260200190815260200160002061010060405190810160405290816000820154815260200160018201548152602001600282015481526020016003820160009054906101000a900473ffffffffffffffffffffffffffffffffffffffff1673ffffffffffffffffffffffffffffffffffffffff1673ffffffffffffffffffffffffffffffffffffffff168152602001600482018054600181600116156101000203166002900480601f0160208091040260200160405190810160405280929190818152602001828054600181600116156101000203166002900480156149095780601f106148de57610100808354040283529160200191614909565b820191906000526020600020905b8154815290600101906020018083116148ec57829003601f168201915b50505050508152602001600582018054600181600116156101000203166002900480601f0160208091040260200160405190810160405280929190818152602001828054600181600116156101000203166002900480156149ab5780601f10614980576101008083540402835291602001916149ab565b820191906000526020600020905b81548152906001019060200180831161498e57829003601f168201915b50505050508152602001600682018054600181600116156101000203166002900480601f016020809104026020016040519081016040528092919081815260200182805460018160011615610100020316600290048015614a4d5780601f10614a2257610100808354040283529160200191614a4d565b820191906000526020600020905b815481529060010190602001808311614a3057829003601f168201915b50505050508152602001600782018054600181600116156101000203166002900480601f016020809104026020016040519081016040528092919081815260200182805460018160011615610100020316600290048015614aef5780601f10614ac457610100808354040283529160200191614aef565b820191906000526020600020905b815481529060010190602001808311614ad257829003601f168201915b50505050508152505090505b8060c001519250505092915050565b60608083905060008090506000600190505b6001835103821015614b79576000614b35878785614d3b565b90507fffffffffffffffffffffffffffffffffffffffffffffffffffffffffffffffff811415614b655750614b79565b818060010192505060018101925050614b1c565b80604051908082528060200260200182016040528015614bad57816020015b6060815260200190600190039081614b985790505b50935060009150600090505b6001835103821015614d2f576000614bd2878785614d3b565b90507fffffffffffffffffffffffffffffffffffffffffffffffffffffffffffffffff811415614c0157835190505b60608382036040519080825280601f01601f191660200182016040528015614c385781602001600182028038833980820191505090505b5090506060819050600080905060008690505b84811015614cfd578781815181101515614c6157fe5b9060200101517f010000000000000000000000000000000000000000000000000000000000000090047f0100000000000000000000000000000000000000000000000000000000000000028383806001019450815181101515614cc057fe5b9060200101907effffffffffffffffffffffffffffffffffffffffffffffffffffffffffffff1916908160001a9053508080600101915050614c4b565b50600184019550818886806001019750815181101515614d1957fe5b9060200190602002018190525050505050614bb9565b83935050505092915050565b60006060849050606084905060018151141515614d5457fe5b60008490505b8251811015614e7857816000815181101515614d7257fe5b9060200101517f010000000000000000000000000000000000000000000000000000000000000090047f0100000000000000000000000000000000000000000000000000000000000000027effffffffffffffffffffffffffffffffffffffffffffffffffffffffffffff19168382815181101515614ded57fe5b9060200101517f010000000000000000000000000000000000000000000000000000000000000090047f0100000000000000000000000000000000000000000000000000000000000000027effffffffffffffffffffffffffffffffffffffffffffffffffffffffffffff19161415614e6b57809350505050614e9f565b8080600101915050614d5a565b507fffffffffffffffffffffffffffffffffffffffffffffffffffffffffffffffff925050505b9392505050565b828054600181600116156101000203166002900490600052602060002090601f016020900481019282601f10614ee757805160ff1916838001178555614f15565b82800160010185558215614f15579182015b82811115614f14578251825591602001919060010190614ef9565b5b509050614f229190615122565b5090565b828054828255906000526020600020908101928215614f62579160200282015b82811115614f61578251825591602001919060010190614f46565b5b509050614f6f9190615147565b5090565b61014060405190810160405280600015158152602001600015158152602001600080191681526020016000801916815260200160608152602001600073ffffffffffffffffffffffffffffffffffffffff168152602001606081526020016060815260200160608152602001606081525090565b61010060405190810160405280600080191681526020016000801916815260200160008152602001600073ffffffffffffffffffffffffffffffffffffffff168152602001606081526020016060815260200160608152602001606081525090565b82805482825590600052602060002090810192821561508a5760005260206000209182015b8281111561508957825482559160010191906001019061506e565b5b5090506150979190615147565b5090565b828054600181600116156101000203166002900490600052602060002090601f016020900481019282601f106150d45780548555615111565b8280016001018555821561511157600052602060002091601f016020900482015b828111156151105782548255916001019190600101906150f5565b5b50905061511e9190615122565b5090565b61514491905b80821115615140576000816000905550600101615128565b5090565b90565b61516991905b8082111561516557600081600090555060010161514d565b5090565b9056fea165627a7a7230582007f2ce1a89a1643e66f6b7bf2e84550668ae72fd582583dd35095c1552162d440029",
  "source": "pragma solidity ^0.5.0;\n\nimport \"solidity-util/lib/Strings.sol\";\nimport \"solidity-util/lib/Integers.sol\";\nimport \"solidity-util/lib/Addresses.sol\";\nimport \"./EventManager.sol\";\n\ncontract ApplicationManagement{\n\n    using Strings for string;\n\n\n    /***********************\n      STRUCT DEFINITIONS\n    ***********************/\n//    struct Actor {\n//        bytes32 actorId;\n//        string name;\n//        address accountAddress; // Ethereum address\n//        string physicalAddress; // Physical address, may be separated (more costly)\n//        // TODO: actor certification? ISO:9001?\n//    }\n\n    struct ApplicationVersion {\n        bytes32 versionId;\n        bytes32 previousVersionId;\n        uint creationDate;\n        address owner; // used to keep track of who owned the product at that version (could be a \"bytes32 actorId\")\n        string latitude;\n        string longitude;\n        string customJsonData;\n        string deviceClientName;\n    }\n\n    struct AppContent {\n        bool exists; // always true! (used to check if the product exists)\n        bool archived; // set to true when product gets merged/split\n        bytes32 productId;\n        bytes32 latestVersionId;\n        bytes32[] versions;\n        address owner;\n        string name;\n        string description;\n        string temperatureAlerts;\n        string locationAlerts;\n    }\n\n    /***********************\n      MAPPINGS & STORAGE\n    ***********************/\n    mapping (bytes32 => AppContent) public productIdToProductStruct; // access a product struct directly from an ID\n    bytes32[] public productIds; // access all product IDs\n\n    mapping (string => AppContent) deviceClientNameToProductStruct; // access a product struct directly from a device client name\n\n    mapping (bytes32 => ApplicationVersion) public versionIdToVersionStruct; // access a version struct from a version ID\n    bytes32[] public productVersionIds; // access all version IDs\n\n    mapping (address => bytes32[]) public ownerToProductsId; // access an account's products\n\n//    mapping (address => Actor) public actorAddressToActorStruct; // access an actor struct from its Eth address\n//    address[] public actorAddresses; // access all actor addresses\n\n    function createProduct(\n      string memory _name,\n      string memory _description,\n      string memory _latitude,\n      string memory _longitude,\n      string memory _customJsonData,\n      string memory _deviceClientName\n    ) public returns (bytes32 productId) {\n    \n        // Generate a pseudo-random product ID\n        // from the current time and the sender's address\n        bytes32 newProductId = keccak256(abi.encodePacked(now, msg.sender));\n\n        // Create product\n        AppContent storage product = productIdToProductStruct[newProductId];\n\n        // Define product\n        product.productId = newProductId;\n        product.latestVersionId = \"0\"; // temporary value that gets replaced in updateProduct()\n        product.versions = new bytes32[](0); // empty array at first\n        product.exists = true;\n        product.archived = false;\n        product.owner = msg.sender;\n\n        product.name = _name;\n        product.description = _description;\n        product.temperatureAlerts = \"\";\n        product.locationAlerts = \"\";\n\n        // Add new product ID\n        productIds.push(newProductId);\n\n        // Add product ID to account\n        ownerToProductsId[msg.sender].push(newProductId);\n\n        // Create initial product version\n        updateProduct(newProductId, _latitude, _longitude, _customJsonData, _deviceClientName);\n\n        // Fire an event to announce the creation of the product\n        emit ProductCreated(newProductId, msg.sender);\n        return newProductId;\n    }\n\n    function addTemperaturAlert(\n        bytes32 _productId,\n        string memory _alertData\n    ) public returns (string memory newAlert) {\n        // Get base product from storage\n        AppContent storage product = productIdToProductStruct[_productId];\n        product.temperatureAlerts = _alertData;\n        return product.temperatureAlerts;\n    }\n\n    function addLocationAlert(\n        bytes32 _productId,\n        string memory _alertData\n    ) public returns (string memory newAlert) {\n        // Get base product from storage\n        AppContent storage product = productIdToProductStruct[_productId];\n        product.locationAlerts = _alertData;\n        return product.locationAlerts;\n    }\n\n//    event productAlertAdded(bytes32 productId, bytes32 deviceID, );\n\n    function updateProduct(\n      bytes32 _productId, \n      string memory _latitude,\n      string memory _longitude,\n      string memory _customJsonData,\n      string memory _deviceClientName\n    ) public {\n        AppContent storage product = productIdToProductStruct[_productId];\n        if (bytes(_deviceClientName).length != 0) {\n            string[] memory linkedDevices = _deviceClientName.split(\";\");\n            for (uint i = 0; i < linkedDevices.length; i++) {\n                deviceClientNameToProductStruct[linkedDevices[i]] = product;\n            }\n        }\n        bytes32 newVersionId = keccak256(abi.encodePacked(now, msg.sender, _productId));\n        ApplicationVersion storage version = versionIdToVersionStruct[newVersionId];\n        version.versionId = newVersionId;\n        version.creationDate = now;\n        version.previousVersionId = product.latestVersionId;\n        version.owner = product.owner;\n        version.latitude = _latitude;\n        version.longitude = _longitude;\n        version.customJsonData = _customJsonData;\n        version.deviceClientName = _deviceClientName;\n        productVersionIds.push(newVersionId);\n        product.versions.push(newVersionId);\n        product.latestVersionId = newVersionId;\n    }\n    function getProductByDeviceClientName(string calldata _deviceClientName) external view returns (bytes32 productId) {\n        // Get the requested product from storage\n        AppContent memory product = deviceClientNameToProductStruct[_deviceClientName];\n        return product.productId;\n    }\n\n    function getProductByIdExtra(bytes32 _productId, bytes32 specificVersionId) external view returns (string memory deviceClientName, string memory tempAlertStr, string memory locAlertStr) {\n        AppContent memory product = productIdToProductStruct[_productId];\n        ApplicationVersion memory requestedVersion = versionIdToVersionStruct[product.latestVersionId];\n        if (specificVersionId != \"latest\") {\n            // Get the requested product version\n            requestedVersion = versionIdToVersionStruct[specificVersionId];\n        }\n        return (requestedVersion.deviceClientName, product.temperatureAlerts, product.locationAlerts);\n    }\n\n    function getProductById(bytes32 _productId, bytes32 specificVersionId) external view returns (string memory name, string memory description, string memory _latitude, string memory _longitude, uint versionCreationDate, bytes32[] memory versions) {\n//        returns (string name, string description, string _latitude, string _longitude, uint versionCreationDate, bytes32[] versions, bytes32[] certificationsIds) {\n\n      // Get the requested product from storage\n      AppContent memory product = productIdToProductStruct[_productId];\n\n      // Initialize a variable that will hold the requested product version struct\n      ApplicationVersion memory requestedVersion = versionIdToVersionStruct[product.latestVersionId];\n      if (specificVersionId != \"latest\") {\n        // Get the requested product version\n        requestedVersion = versionIdToVersionStruct[specificVersionId];\n      }\n\n      // Return the requested data\n      return (product.name, product.description, requestedVersion.latitude, requestedVersion.longitude, requestedVersion.creationDate, product.versions);\n    }\n\n    function getProductCustomDataById(bytes32 _productId, bytes32 specificVersionId) external view returns (string memory customJsonData) {\n\n        // Get the requested product from storage\n        AppContent memory product = productIdToProductStruct[_productId];\n\n        // Initialize a variable that will hold the requested product version struct\n        ApplicationVersion memory requestedVersion = versionIdToVersionStruct[product.latestVersionId];\n\n        if (specificVersionId != \"latest\") {\n          // Get the requested product version\n          requestedVersion = versionIdToVersionStruct[specificVersionId];\n        }\n\n        // Return the requested data\n        return (requestedVersion.customJsonData);\n    }\n\n\n    function getOwnerProducts() external view returns (bytes32[] memory productsIds) {\n\n        bytes32[] memory ownedProductsIds = ownerToProductsId[msg.sender];\n        bytes32[] memory activeProducts = new bytes32[](ownedProductsIds.length);\n\n        for (uint i = 0; i < ownedProductsIds.length; ++i) {\n            if (!productIdToProductStruct[ownedProductsIds[i]].archived) {\n                activeProducts[i] = ownedProductsIds[i];\n            }\n        }\n\n        return activeProducts;\n    }\n\n    function getVersionLatLngById(bytes32 _versionId) external view returns (string memory latitude, string memory longitude) {\n\n        // Get the requested version from storage\n        ApplicationVersion storage version = versionIdToVersionStruct[_versionId];\n\n        // Return the requested data\n        return (version.latitude, version.longitude);\n    }\n\n    event ProductCreated(bytes32 newProductId, address indexed owner);\n}\n\n",
  "sourcePath": "/Users/kimwang/Desktop/895/leshan/blockchain-integration/contracts/ApplicationManagement.sol",
  "compiler": {
    "name": "solc",
    "version": "0.5.0+commit.1d4f565a.Emscripten.clang"
  },
  "schemaVersion": "3.0.20",
  "updatedAt": "2020-06-11T07:04:38.971Z",
  "networkType": "ethereum",
  "devdoc": {
    "methods": {}
  },
  "userdoc": {
    "methods": {}
  }
}