{
  "contractName": "ApplicationManagement",
  "abi": [
    {
      "constant": true,
      "inputs": [
        {
          "name": "",
          "type": "uint256"
        }
      ],
      "name": "productVersionIds",
      "outputs": [
        {
          "name": "",
          "type": "bytes32"
        }
      ],
      "payable": false,
      "stateMutability": "view",
      "type": "function"
    },
    {
      "constant": true,
      "inputs": [
        {
          "name": "",
          "type": "bytes32"
        }
      ],
      "name": "productIdToProductStruct",
      "outputs": [
        {
          "name": "exists",
          "type": "bool"
        },
        {
          "name": "archived",
          "type": "bool"
        },
        {
          "name": "productId",
          "type": "bytes32"
        },
        {
          "name": "latestVersionId",
          "type": "bytes32"
        },
        {
          "name": "owner",
          "type": "address"
        },
        {
          "name": "name",
          "type": "string"
        },
        {
          "name": "description",
          "type": "string"
        },
        {
          "name": "temperatureAlerts",
          "type": "string"
        },
        {
          "name": "locationAlerts",
          "type": "string"
        }
      ],
      "payable": false,
      "stateMutability": "view",
      "type": "function"
    },
    {
      "constant": true,
      "inputs": [
        {
          "name": "",
          "type": "bytes32"
        }
      ],
      "name": "versionIdToVersionStruct",
      "outputs": [
        {
          "name": "versionId",
          "type": "bytes32"
        },
        {
          "name": "previousVersionId",
          "type": "bytes32"
        },
        {
          "name": "creationDate",
          "type": "uint256"
        },
        {
          "name": "owner",
          "type": "address"
        },
        {
          "name": "latitude",
          "type": "string"
        },
        {
          "name": "longitude",
          "type": "string"
        },
        {
          "name": "customJsonData",
          "type": "string"
        },
        {
          "name": "deviceClientName",
          "type": "string"
        }
      ],
      "payable": false,
      "stateMutability": "view",
      "type": "function"
    },
    {
      "constant": true,
      "inputs": [
        {
          "name": "",
          "type": "uint256"
        }
      ],
      "name": "productIds",
      "outputs": [
        {
          "name": "",
          "type": "bytes32"
        }
      ],
      "payable": false,
      "stateMutability": "view",
      "type": "function"
    },
    {
      "constant": true,
      "inputs": [
        {
          "name": "",
          "type": "address"
        },
        {
          "name": "",
          "type": "uint256"
        }
      ],
      "name": "ownerToProductsId",
      "outputs": [
        {
          "name": "",
          "type": "bytes32"
        }
      ],
      "payable": false,
      "stateMutability": "view",
      "type": "function"
    },
    {
      "anonymous": false,
      "inputs": [
        {
          "indexed": false,
          "name": "newProductId",
          "type": "bytes32"
        },
        {
          "indexed": true,
          "name": "owner",
          "type": "address"
        }
      ],
      "name": "ProductCreated",
      "type": "event"
    },
    {
      "constant": false,
      "inputs": [
        {
          "name": "deviceId",
          "type": "bytes32"
        },
        {
          "name": "applicationId",
          "type": "bytes32"
        },
        {
          "name": "curCategory",
          "type": "string"
        },
        {
          "name": "message",
          "type": "string"
        },
        {
          "name": "timestamp",
          "type": "string"
        },
        {
          "name": "allCategories",
          "type": "string"
        },
        {
          "name": "appCategory",
          "type": "string"
        }
      ],
      "name": "addAlert",
      "outputs": [],
      "payable": false,
      "stateMutability": "nonpayable",
      "type": "function"
    },
    {
      "constant": true,
      "inputs": [
        {
          "name": "applicationId",
          "type": "bytes32"
        }
      ],
      "name": "getAlertCategoriesByApplicationId",
      "outputs": [
        {
          "name": "categories",
          "type": "string"
        }
      ],
      "payable": false,
      "stateMutability": "view",
      "type": "function"
    },
    {
      "constant": true,
      "inputs": [
        {
          "name": "appCategory",
          "type": "string"
        }
      ],
      "name": "getAlertMessageByAppCategory",
      "outputs": [
        {
          "name": "messages",
          "type": "string"
        },
        {
          "name": "timestamp",
          "type": "string"
        }
      ],
      "payable": false,
      "stateMutability": "view",
      "type": "function"
    },
    {
      "constant": false,
      "inputs": [
        {
          "name": "_name",
          "type": "string"
        },
        {
          "name": "_description",
          "type": "string"
        },
        {
          "name": "_latitude",
          "type": "string"
        },
        {
          "name": "_longitude",
          "type": "string"
        },
        {
          "name": "_customJsonData",
          "type": "string"
        },
        {
          "name": "_deviceClientName",
          "type": "string"
        }
      ],
      "name": "createProduct",
      "outputs": [
        {
          "name": "productId",
          "type": "bytes32"
        }
      ],
      "payable": false,
      "stateMutability": "nonpayable",
      "type": "function"
    },
    {
      "constant": false,
      "inputs": [
        {
          "name": "_productId",
          "type": "bytes32"
        },
        {
          "name": "_alertData",
          "type": "string"
        }
      ],
      "name": "addTemperaturAlert",
      "outputs": [
        {
          "name": "newAlert",
          "type": "string"
        }
      ],
      "payable": false,
      "stateMutability": "nonpayable",
      "type": "function"
    },
    {
      "constant": false,
      "inputs": [
        {
          "name": "_productId",
          "type": "bytes32"
        },
        {
          "name": "_alertData",
          "type": "string"
        }
      ],
      "name": "addLocationAlert",
      "outputs": [
        {
          "name": "newAlert",
          "type": "string"
        }
      ],
      "payable": false,
      "stateMutability": "nonpayable",
      "type": "function"
    },
    {
      "constant": false,
      "inputs": [
        {
          "name": "_productId",
          "type": "bytes32"
        },
        {
          "name": "_latitude",
          "type": "string"
        },
        {
          "name": "_longitude",
          "type": "string"
        },
        {
          "name": "_customJsonData",
          "type": "string"
        },
        {
          "name": "_deviceClientName",
          "type": "string"
        }
      ],
      "name": "updateProduct",
      "outputs": [],
      "payable": false,
      "stateMutability": "nonpayable",
      "type": "function"
    },
    {
      "constant": true,
      "inputs": [
        {
          "name": "_deviceClientName",
          "type": "string"
        }
      ],
      "name": "getProductByDeviceClientName",
      "outputs": [
        {
          "name": "productId",
          "type": "bytes32"
        }
      ],
      "payable": false,
      "stateMutability": "view",
      "type": "function"
    },
    {
      "constant": true,
      "inputs": [
        {
          "name": "_productId",
          "type": "bytes32"
        },
        {
          "name": "specificVersionId",
          "type": "bytes32"
        }
      ],
      "name": "getProductByIdExtra",
      "outputs": [
        {
          "name": "deviceClientName",
          "type": "string"
        },
        {
          "name": "tempAlertStr",
          "type": "string"
        },
        {
          "name": "locAlertStr",
          "type": "string"
        }
      ],
      "payable": false,
      "stateMutability": "view",
      "type": "function"
    },
    {
      "constant": true,
      "inputs": [
        {
          "name": "_productId",
          "type": "bytes32"
        },
        {
          "name": "specificVersionId",
          "type": "bytes32"
        }
      ],
      "name": "getProductById",
      "outputs": [
        {
          "name": "name",
          "type": "string"
        },
        {
          "name": "description",
          "type": "string"
        },
        {
          "name": "_latitude",
          "type": "string"
        },
        {
          "name": "_longitude",
          "type": "string"
        },
        {
          "name": "versionCreationDate",
          "type": "uint256"
        },
        {
          "name": "versions",
          "type": "bytes32[]"
        }
      ],
      "payable": false,
      "stateMutability": "view",
      "type": "function"
    },
    {
      "constant": true,
      "inputs": [
        {
          "name": "_productId",
          "type": "bytes32"
        },
        {
          "name": "specificVersionId",
          "type": "bytes32"
        }
      ],
      "name": "getProductCustomDataById",
      "outputs": [
        {
          "name": "customJsonData",
          "type": "string"
        }
      ],
      "payable": false,
      "stateMutability": "view",
      "type": "function"
    },
    {
      "constant": true,
      "inputs": [],
      "name": "getOwnerProducts",
      "outputs": [
        {
          "name": "productsIds",
          "type": "bytes32[]"
        }
      ],
      "payable": false,
      "stateMutability": "view",
      "type": "function"
    },
    {
      "constant": true,
      "inputs": [
        {
          "name": "_versionId",
          "type": "bytes32"
        }
      ],
      "name": "getVersionLatLngById",
      "outputs": [
        {
          "name": "latitude",
          "type": "string"
        },
        {
          "name": "longitude",
          "type": "string"
        }
      ],
      "payable": false,
      "stateMutability": "view",
      "type": "function"
    }
  ],
  "bytecode": "0x608060405234801561001057600080fd5b50615a6580620000216000396000f3fe6080604052600436106100fc576000357c0100000000000000000000000000000000000000000000000000000000900463ffffffff16806309f2f069146101015780630f42435b146102215780632c602cec146102705780633873ab24146103bb578063545b62a61461042757806355a53f061461057257806360e207801461094157806364aa3a48146109f55780636768cee114610c445780636c4bfed114610cde5780637440d97d14611016578063802e62dd14611181578063876359e4146113d25780638bf2c05714611612578063c0fd3321146117a8578063cb51bba914611a3f578063db2b9f1814611a8e578063e9baf25814611afd575b600080fd5b34801561010d57600080fd5b5061013a6004803603602081101561012457600080fd5b8101908080359060200190929190505050611bbb565b604051808060200180602001838103835285818151815260200191508051906020019080838360005b8381101561017e578082015181840152602081019050610163565b50505050905090810190601f1680156101ab5780820380516001836020036101000a031916815260200191505b50838103825284818151815260200191508051906020019080838360005b838110156101e45780820151818401526020810190506101c9565b50505050905090810190601f1680156102115780820380516001836020036101000a031916815260200191505b5094505050505060405180910390f35b34801561022d57600080fd5b5061025a6004803603602081101561024457600080fd5b8101908080359060200190929190505050611d1f565b6040518082815260200191505060405180910390f35b34801561027c57600080fd5b506103406004803603604081101561029357600080fd5b8101908080359060200190929190803590602001906401000000008111156102ba57600080fd5b8201836020820111156102cc57600080fd5b803590602001918460018302840111640100000000831117156102ee57600080fd5b91908080601f016020809104026020016040519081016040528093929190818152602001838380828437600081840152601f19601f820116905080830192505050505050509192919290505050611d42565b6040518080602001828103825283818151815260200191508051906020019080838360005b83811015610380578082015181840152602081019050610365565b50505050905090810190601f1680156103ad5780820380516001836020036101000a031916815260200191505b509250505060405180910390f35b3480156103c757600080fd5b506103d0611e1a565b6040518080602001828103825283818151815260200191508051906020019060200280838360005b838110156104135780820151818401526020810190506103f8565b505050509050019250505060405180910390f35b34801561043357600080fd5b506104f76004803603604081101561044a57600080fd5b81019080803590602001909291908035906020019064010000000081111561047157600080fd5b82018360208201111561048357600080fd5b803590602001918460018302840111640100000000831117156104a557600080fd5b91908080601f016020809104026020016040519081016040528093929190818152602001838380828437600081840152601f19601f820116905080830192505050505050509192919290505050611f7b565b6040518080602001828103825283818151815260200191508051906020019080838360005b8381101561053757808201518184015260208101905061051c565b50505050905090810190601f1680156105645780820380516001836020036101000a031916815260200191505b509250505060405180910390f35b34801561057e57600080fd5b5061092b600480360360c081101561059557600080fd5b81019080803590602001906401000000008111156105b257600080fd5b8201836020820111156105c457600080fd5b803590602001918460018302840111640100000000831117156105e657600080fd5b91908080601f016020809104026020016040519081016040528093929190818152602001838380828437600081840152601f19601f8201169050808301925050505050505091929192908035906020019064010000000081111561064957600080fd5b82018360208201111561065b57600080fd5b8035906020019184600183028401116401000000008311171561067d57600080fd5b91908080601f016020809104026020016040519081016040528093929190818152602001838380828437600081840152601f19601f820116905080830192505050505050509192919290803590602001906401000000008111156106e057600080fd5b8201836020820111156106f257600080fd5b8035906020019184600183028401116401000000008311171561071457600080fd5b91908080601f016020809104026020016040519081016040528093929190818152602001838380828437600081840152601f19601f8201169050808301925050505050505091929192908035906020019064010000000081111561077757600080fd5b82018360208201111561078957600080fd5b803590602001918460018302840111640100000000831117156107ab57600080fd5b91908080601f016020809104026020016040519081016040528093929190818152602001838380828437600081840152601f19601f8201169050808301925050505050505091929192908035906020019064010000000081111561080e57600080fd5b82018360208201111561082057600080fd5b8035906020019184600183028401116401000000008311171561084257600080fd5b91908080601f016020809104026020016040519081016040528093929190818152602001838380828437600081840152601f19601f820116905080830192505050505050509192919290803590602001906401000000008111156108a557600080fd5b8201836020820111156108b757600080fd5b803590602001918460018302840111640100000000831117156108d957600080fd5b91908080601f016020809104026020016040519081016040528093929190818152602001838380828437600081840152601f19601f820116905080830192505050505050509192919290505050612053565b6040518082815260200191505060405180910390f35b34801561094d57600080fd5b5061097a6004803603602081101561096457600080fd5b8101908080359060200190929190505050612354565b6040518080602001828103825283818151815260200191508051906020019080838360005b838110156109ba57808201518184015260208101905061099f565b50505050905090810190601f1680156109e75780820380516001836020036101000a031916815260200191505b509250505060405180910390f35b348015610a0157600080fd5b50610a2e60048036036020811015610a1857600080fd5b8101908080359060200190929190505050612409565b604051808a151515158152602001891515151581526020018881526020018781526020018673ffffffffffffffffffffffffffffffffffffffff1673ffffffffffffffffffffffffffffffffffffffff16815260200180602001806020018060200180602001858103855289818151815260200191508051906020019080838360005b83811015610acc578082015181840152602081019050610ab1565b50505050905090810190601f168015610af95780820380516001836020036101000a031916815260200191505b50858103845288818151815260200191508051906020019080838360005b83811015610b32578082015181840152602081019050610b17565b50505050905090810190601f168015610b5f5780820380516001836020036101000a031916815260200191505b50858103835287818151815260200191508051906020019080838360005b83811015610b98578082015181840152602081019050610b7d565b50505050905090810190601f168015610bc55780820380516001836020036101000a031916815260200191505b50858103825286818151815260200191508051906020019080838360005b83811015610bfe578082015181840152602081019050610be3565b50505050905090810190601f168015610c2b5780820380516001836020036101000a031916815260200191505b509d505050505050505050505050505060405180910390f35b348015610c5057600080fd5b50610cc860048036036020811015610c6757600080fd5b8101908080359060200190640100000000811115610c8457600080fd5b820183602082011115610c9657600080fd5b80359060200191846001830284011164010000000083111715610cb857600080fd5b90919293919293905050506126f1565b6040518082815260200191505060405180910390f35b348015610cea57600080fd5b50611014600480360360e0811015610d0157600080fd5b81019080803590602001909291908035906020019092919080359060200190640100000000811115610d3257600080fd5b820183602082011115610d4457600080fd5b80359060200191846001830284011164010000000083111715610d6657600080fd5b91908080601f016020809104026020016040519081016040528093929190818152602001838380828437600081840152601f19601f82011690508083019250505050505050919291929080359060200190640100000000811115610dc957600080fd5b820183602082011115610ddb57600080fd5b80359060200191846001830284011164010000000083111715610dfd57600080fd5b91908080601f016020809104026020016040519081016040528093929190818152602001838380828437600081840152601f19601f82011690508083019250505050505050919291929080359060200190640100000000811115610e6057600080fd5b820183602082011115610e7257600080fd5b80359060200191846001830284011164010000000083111715610e9457600080fd5b91908080601f016020809104026020016040519081016040528093929190818152602001838380828437600081840152601f19601f82011690508083019250505050505050919291929080359060200190640100000000811115610ef757600080fd5b820183602082011115610f0957600080fd5b80359060200191846001830284011164010000000083111715610f2b57600080fd5b91908080601f016020809104026020016040519081016040528093929190818152602001838380828437600081840152601f19601f82011690508083019250505050505050919291929080359060200190640100000000811115610f8e57600080fd5b820183602082011115610fa057600080fd5b80359060200191846001830284011164010000000083111715610fc257600080fd5b91908080601f016020809104026020016040519081016040528093929190818152602001838380828437600081840152601f19601f820116905080830192505050505050509192919290505050612abf565b005b34801561102257600080fd5b5061109a6004803603602081101561103957600080fd5b810190808035906020019064010000000081111561105657600080fd5b82018360208201111561106857600080fd5b8035906020019184600183028401116401000000008311171561108a57600080fd5b9091929391929390505050612bbd565b604051808060200180602001838103835285818151815260200191508051906020019080838360005b838110156110de5780820151818401526020810190506110c3565b50505050905090810190601f16801561110b5780820380516001836020036101000a031916815260200191505b50838103825284818151815260200191508051906020019080838360005b83811015611144578082015181840152602081019050611129565b50505050905090810190601f1680156111715780820380516001836020036101000a031916815260200191505b5094505050505060405180910390f35b34801561118d57600080fd5b506111c4600480360360408110156111a457600080fd5b810190808035906020019092919080359060200190929190505050612d57565b60405180806020018060200180602001806020018781526020018060200186810386528c818151815260200191508051906020019080838360005b8381101561121a5780820151818401526020810190506111ff565b50505050905090810190601f1680156112475780820380516001836020036101000a031916815260200191505b5086810385528b818151815260200191508051906020019080838360005b83811015611280578082015181840152602081019050611265565b50505050905090810190601f1680156112ad5780820380516001836020036101000a031916815260200191505b5086810384528a818151815260200191508051906020019080838360005b838110156112e65780820151818401526020810190506112cb565b50505050905090810190601f1680156113135780820380516001836020036101000a031916815260200191505b50868103835289818151815260200191508051906020019080838360005b8381101561134c578082015181840152602081019050611331565b50505050905090810190601f1680156113795780820380516001836020036101000a031916815260200191505b50868103825287818151815260200191508051906020019060200280838360005b838110156113b557808201518184015260208101905061139a565b505050509050019b50505050505050505050505060405180910390f35b3480156113de57600080fd5b5061140b600480360360208110156113f557600080fd5b81019080803590602001909291905050506137c2565b604051808981526020018881526020018781526020018673ffffffffffffffffffffffffffffffffffffffff1673ffffffffffffffffffffffffffffffffffffffff16815260200180602001806020018060200180602001858103855289818151815260200191508051906020019080838360005b8381101561149b578082015181840152602081019050611480565b50505050905090810190601f1680156114c85780820380516001836020036101000a031916815260200191505b50858103845288818151815260200191508051906020019080838360005b838110156115015780820151818401526020810190506114e6565b50505050905090810190601f16801561152e5780820380516001836020036101000a031916815260200191505b50858103835287818151815260200191508051906020019080838360005b8381101561156757808201518184015260208101905061154c565b50505050905090810190601f1680156115945780820380516001836020036101000a031916815260200191505b50858103825286818151815260200191508051906020019080838360005b838110156115cd5780820151818401526020810190506115b2565b50505050905090810190601f1680156115fa5780820380516001836020036101000a031916815260200191505b509c5050505050505050505050505060405180910390f35b34801561161e57600080fd5b506116556004803603604081101561163557600080fd5b810190808035906020019092919080359060200190929190505050613a8a565b60405180806020018060200180602001848103845287818151815260200191508051906020019080838360005b8381101561169d578082015181840152602081019050611682565b50505050905090810190601f1680156116ca5780820380516001836020036101000a031916815260200191505b50848103835286818151815260200191508051906020019080838360005b838110156117035780820151818401526020810190506116e8565b50505050905090810190601f1680156117305780820380516001836020036101000a031916815260200191505b50848103825285818151815260200191508051906020019080838360005b8381101561176957808201518184015260208101905061174e565b50505050905090810190601f1680156117965780820380516001836020036101000a031916815260200191505b50965050505050505060405180910390f35b3480156117b457600080fd5b50611a3d600480360360a08110156117cb57600080fd5b8101908080359060200190929190803590602001906401000000008111156117f257600080fd5b82018360208201111561180457600080fd5b8035906020019184600183028401116401000000008311171561182657600080fd5b91908080601f016020809104026020016040519081016040528093929190818152602001838380828437600081840152601f19601f8201169050808301925050505050505091929192908035906020019064010000000081111561188957600080fd5b82018360208201111561189b57600080fd5b803590602001918460018302840111640100000000831117156118bd57600080fd5b91908080601f016020809104026020016040519081016040528093929190818152602001838380828437600081840152601f19601f8201169050808301925050505050505091929192908035906020019064010000000081111561192057600080fd5b82018360208201111561193257600080fd5b8035906020019184600183028401116401000000008311171561195457600080fd5b91908080601f016020809104026020016040519081016040528093929190818152602001838380828437600081840152601f19601f820116905080830192505050505050509192919290803590602001906401000000008111156119b757600080fd5b8201836020820111156119c957600080fd5b803590602001918460018302840111640100000000831117156119eb57600080fd5b91908080601f016020809104026020016040519081016040528093929190818152602001838380828437600081840152601f19601f8201169050808301925050505050505091929192905050506144d4565b005b348015611a4b57600080fd5b50611a7860048036036020811015611a6257600080fd5b8101908080359060200190929190505050614957565b6040518082815260200191505060405180910390f35b348015611a9a57600080fd5b50611ae760048036036040811015611ab157600080fd5b81019080803573ffffffffffffffffffffffffffffffffffffffff1690602001909291908035906020019092919050505061497a565b6040518082815260200191505060405180910390f35b348015611b0957600080fd5b50611b4060048036036040811015611b2057600080fd5b8101908080359060200190929190803590602001909291905050506149aa565b6040518080602001828103825283818151815260200191508051906020019080838360005b83811015611b80578082015181840152602081019050611b65565b50505050905090810190601f168015611bad5780820380516001836020036101000a031916815260200191505b509250505060405180910390f35b60608060006007600085815260200190815260200160002090508060040181600501818054600181600116156101000203166002900480601f016020809104026020016040519081016040528092919081815260200182805460018160011615610100020316600290048015611c725780601f10611c4757610100808354040283529160200191611c72565b820191906000526020600020905b815481529060010190602001808311611c5557829003601f168201915b50505050509150808054600181600116156101000203166002900480601f016020809104026020016040519081016040528092919081815260200182805460018160011615610100020316600290048015611d0e5780601f10611ce357610100808354040283529160200191611d0e565b820191906000526020600020905b815481529060010190602001808311611cf157829003601f168201915b505050505090509250925050915091565b600881815481101515611d2e57fe5b906000526020600020016000915090505481565b6060600060046000858152602001908152602001600020905082816008019080519060200190611d73929190615773565b50806008018054600181600116156101000203166002900480601f016020809104026020016040519081016040528092919081815260200182805460018160011615610100020316600290048015611e0c5780601f10611de157610100808354040283529160200191611e0c565b820191906000526020600020905b815481529060010190602001808311611def57829003601f168201915b505050505091505092915050565b606080600960003373ffffffffffffffffffffffffffffffffffffffff1673ffffffffffffffffffffffffffffffffffffffff168152602001908152602001600020805480602002602001604051908101604052809291908181526020018280548015611ea657602002820191906000526020600020905b815481526020019060010190808311611e92575b5050505050905060608151604051908082528060200260200182016040528015611edf5781602001602082028038833980820191505090505b50905060008090505b8251811015611f7257600460008483815181101515611f0357fe5b90602001906020020151815260200190815260200160002060000160019054906101000a900460ff161515611f67578281815181101515611f4057fe5b906020019060200201518282815181101515611f5857fe5b90602001906020020181815250505b806001019050611ee8565b50809250505090565b6060600060046000858152602001908152602001600020905082816007019080519060200190611fac929190615773565b50806007018054600181600116156101000203166002900480601f0160208091040260200160405190810160405280929190818152602001828054600181600116156101000203166002900480156120455780601f1061201a57610100808354040283529160200191612045565b820191906000526020600020905b81548152906001019060200180831161202857829003601f168201915b505050505091505092915050565b6000804233604051602001808381526020018273ffffffffffffffffffffffffffffffffffffffff1673ffffffffffffffffffffffffffffffffffffffff166c010000000000000000000000000281526014019250505060405160208183030381529060405280519060200120905060006004600083815260200190815260200160002090508181600101819055507f30000000000000000000000000000000000000000000000000000000000000008160020181905550600060405190808252806020026020018201604052801561213b5781602001602082028038833980820191505090505b508160030190805190602001906121539291906157f3565b5060018160000160006101000a81548160ff02191690831515021790555060008160000160016101000a81548160ff021916908315150217905550338160040160006101000a81548173ffffffffffffffffffffffffffffffffffffffff021916908373ffffffffffffffffffffffffffffffffffffffff160217905550888160050190805190602001906121e9929190615773565b5087816006019080519060200190612202929190615773565b50602060405190810160405280600081525081600701908051906020019061222b929190615773565b506020604051908101604052806000815250816008019080519060200190612254929190615773565b506005829080600181540180825580915050906001820390600052602060002001600090919290919091505550600960003373ffffffffffffffffffffffffffffffffffffffff1673ffffffffffffffffffffffffffffffffffffffff1681526020019081526020016000208290806001815401808255809150509060018203906000526020600020016000909192909190915055506122f782888888886144d4565b3373ffffffffffffffffffffffffffffffffffffffff167f1f3cd26d22ddb1ce87773315d1a9a80f4c46a7aaf7a8d3c23827523b8976f912836040518082815260200191505060405180910390a281925050509695505050505050565b6060600260008381526020019081526020016000208054600181600116156101000203166002900480601f0160208091040260200160405190810160405280929190818152602001828054600181600116156101000203166002900480156123fd5780601f106123d2576101008083540402835291602001916123fd565b820191906000526020600020905b8154815290600101906020018083116123e057829003601f168201915b50505050509050919050565b60046020528060005260406000206000915090508060000160009054906101000a900460ff16908060000160019054906101000a900460ff16908060010154908060020154908060040160009054906101000a900473ffffffffffffffffffffffffffffffffffffffff1690806005018054600181600116156101000203166002900480601f01602080910402602001604051908101604052809291908181526020018280546001816001161561010002031660029004801561250d5780601f106124e25761010080835404028352916020019161250d565b820191906000526020600020905b8154815290600101906020018083116124f057829003601f168201915b505050505090806006018054600181600116156101000203166002900480601f0160208091040260200160405190810160405280929190818152602001828054600181600116156101000203166002900480156125ab5780601f10612580576101008083540402835291602001916125ab565b820191906000526020600020905b81548152906001019060200180831161258e57829003601f168201915b505050505090806007018054600181600116156101000203166002900480601f0160208091040260200160405190810160405280929190818152602001828054600181600116156101000203166002900480156126495780601f1061261e57610100808354040283529160200191612649565b820191906000526020600020905b81548152906001019060200180831161262c57829003601f168201915b505050505090806008018054600181600116156101000203166002900480601f0160208091040260200160405190810160405280929190818152602001828054600181600116156101000203166002900480156126e75780601f106126bc576101008083540402835291602001916126e7565b820191906000526020600020905b8154815290600101906020018083116126ca57829003601f168201915b5050505050905089565b60006126fb615840565b60068484604051808383808284378083019250505092505050908152602001604051809103902061014060405190810160405290816000820160009054906101000a900460ff161515151581526020016000820160019054906101000a900460ff161515151581526020016001820154815260200160028201548152602001600382018054806020026020016040519081016040528092919081815260200182805480156127c857602002820191906000526020600020905b8154815260200190600101908083116127b4575b505050505081526020016004820160009054906101000a900473ffffffffffffffffffffffffffffffffffffffff1673ffffffffffffffffffffffffffffffffffffffff1673ffffffffffffffffffffffffffffffffffffffff168152602001600582018054600181600116156101000203166002900480601f0160208091040260200160405190810160405280929190818152602001828054600181600116156101000203166002900480156128c05780601f10612895576101008083540402835291602001916128c0565b820191906000526020600020905b8154815290600101906020018083116128a357829003601f168201915b50505050508152602001600682018054600181600116156101000203166002900480601f0160208091040260200160405190810160405280929190818152602001828054600181600116156101000203166002900480156129625780601f1061293757610100808354040283529160200191612962565b820191906000526020600020905b81548152906001019060200180831161294557829003601f168201915b50505050508152602001600782018054600181600116156101000203166002900480601f016020809104026020016040519081016040528092919081815260200182805460018160011615610100020316600290048015612a045780601f106129d957610100808354040283529160200191612a04565b820191906000526020600020905b8154815290600101906020018083116129e757829003601f168201915b50505050508152602001600882018054600181600116156101000203166002900480601f016020809104026020016040519081016040528092919081815260200182805460018160011615610100020316600290048015612aa65780601f10612a7b57610100808354040283529160200191612aa6565b820191906000526020600020905b815481529060010190602001808311612a8957829003601f168201915b5050505050815250509050806040015191505092915050565b81600260008881526020019081526020016000209080519060200190612ae6929190615773565b5060006003826040518082805190602001908083835b602083101515612b215780518252602082019150602081019050602083039250612afc565b6001836020036101000a0380198251168184511680821785525050505050509050019150509081526020016040518091039020905087816000018190555086816001018190555085816002019080519060200190612b80929190615773565b5084816003019080519060200190612b99929190615773565b5083816004019080519060200190612bb2929190615773565b505050505050505050565b606080600384846040518083838082843780830192505050925050509081526020016040518091039020600301600385856040518083838082843780830192505050925050509081526020016040518091039020600401818054600181600116156101000203166002900480601f016020809104026020016040519081016040528092919081815260200182805460018160011615610100020316600290048015612ca95780601f10612c7e57610100808354040283529160200191612ca9565b820191906000526020600020905b815481529060010190602001808311612c8c57829003601f168201915b50505050509150808054600181600116156101000203166002900480601f016020809104026020016040519081016040528092919081815260200182805460018160011615610100020316600290048015612d455780601f10612d1a57610100808354040283529160200191612d45565b820191906000526020600020905b815481529060010190602001808311612d2857829003601f168201915b50505050509050915091509250929050565b60608060608060006060612d69615840565b600460008a815260200190815260200160002061014060405190810160405290816000820160009054906101000a900460ff161515151581526020016000820160019054906101000a900460ff16151515158152602001600182015481526020016002820154815260200160038201805480602002602001604051908101604052809291908181526020018280548015612e2257602002820191906000526020600020905b815481526020019060010190808311612e0e575b505050505081526020016004820160009054906101000a900473ffffffffffffffffffffffffffffffffffffffff1673ffffffffffffffffffffffffffffffffffffffff1673ffffffffffffffffffffffffffffffffffffffff168152602001600582018054600181600116156101000203166002900480601f016020809104026020016040519081016040528092919081815260200182805460018160011615610100020316600290048015612f1a5780601f10612eef57610100808354040283529160200191612f1a565b820191906000526020600020905b815481529060010190602001808311612efd57829003601f168201915b50505050508152602001600682018054600181600116156101000203166002900480601f016020809104026020016040519081016040528092919081815260200182805460018160011615610100020316600290048015612fbc5780601f10612f9157610100808354040283529160200191612fbc565b820191906000526020600020905b815481529060010190602001808311612f9f57829003601f168201915b50505050508152602001600782018054600181600116156101000203166002900480601f01602080910402602001604051908101604052809291908181526020018280546001816001161561010002031660029004801561305e5780601f106130335761010080835404028352916020019161305e565b820191906000526020600020905b81548152906001019060200180831161304157829003601f168201915b50505050508152602001600882018054600181600116156101000203166002900480601f0160208091040260200160405190810160405280929190818152602001828054600181600116156101000203166002900480156131005780601f106130d557610100808354040283529160200191613100565b820191906000526020600020905b8154815290600101906020018083116130e357829003601f168201915b50505050508152505090506131136158b4565b600760008360600151815260200190815260200160002061010060405190810160405290816000820154815260200160018201548152602001600282015481526020016003820160009054906101000a900473ffffffffffffffffffffffffffffffffffffffff1673ffffffffffffffffffffffffffffffffffffffff1673ffffffffffffffffffffffffffffffffffffffff168152602001600482018054600181600116156101000203166002900480601f0160208091040260200160405190810160405280929190818152602001828054600181600116156101000203166002900480156132445780601f1061321957610100808354040283529160200191613244565b820191906000526020600020905b81548152906001019060200180831161322757829003601f168201915b50505050508152602001600582018054600181600116156101000203166002900480601f0160208091040260200160405190810160405280929190818152602001828054600181600116156101000203166002900480156132e65780601f106132bb576101008083540402835291602001916132e6565b820191906000526020600020905b8154815290600101906020018083116132c957829003601f168201915b50505050508152602001600682018054600181600116156101000203166002900480601f0160208091040260200160405190810160405280929190818152602001828054600181600116156101000203166002900480156133885780601f1061335d57610100808354040283529160200191613388565b820191906000526020600020905b81548152906001019060200180831161336b57829003601f168201915b50505050508152602001600782018054600181600116156101000203166002900480601f01602080910402602001604051908101604052809291908181526020018280546001816001161561010002031660029004801561342a5780601f106133ff5761010080835404028352916020019161342a565b820191906000526020600020905b81548152906001019060200180831161340d57829003601f168201915b50505050508152505090507f6c617465737400000000000000000000000000000000000000000000000000008914151561377d57600760008a815260200190815260200160002061010060405190810160405290816000820154815260200160018201548152602001600282015481526020016003820160009054906101000a900473ffffffffffffffffffffffffffffffffffffffff1673ffffffffffffffffffffffffffffffffffffffff1673ffffffffffffffffffffffffffffffffffffffff168152602001600482018054600181600116156101000203166002900480601f01602080910402602001604051908101604052809291908181526020018280546001816001161561010002031660029004801561358b5780601f106135605761010080835404028352916020019161358b565b820191906000526020600020905b81548152906001019060200180831161356e57829003601f168201915b50505050508152602001600582018054600181600116156101000203166002900480601f01602080910402602001604051908101604052809291908181526020018280546001816001161561010002031660029004801561362d5780601f106136025761010080835404028352916020019161362d565b820191906000526020600020905b81548152906001019060200180831161361057829003601f168201915b50505050508152602001600682018054600181600116156101000203166002900480601f0160208091040260200160405190810160405280929190818152602001828054600181600116156101000203166002900480156136cf5780601f106136a4576101008083540402835291602001916136cf565b820191906000526020600020905b8154815290600101906020018083116136b257829003601f168201915b50505050508152602001600782018054600181600116156101000203166002900480601f0160208091040260200160405190810160405280929190818152602001828054600181600116156101000203166002900480156137715780601f1061374657610100808354040283529160200191613771565b820191906000526020600020905b81548152906001019060200180831161375457829003601f168201915b50505050508152505090505b8160c001518260e0015182608001518360a001518460400151866080015185955084945083935082925080905097509750975097509750975050509295509295509295565b60076020528060005260406000206000915090508060000154908060010154908060020154908060030160009054906101000a900473ffffffffffffffffffffffffffffffffffffffff1690806004018054600181600116156101000203166002900480601f0160208091040260200160405190810160405280929190818152602001828054600181600116156101000203166002900480156138a65780601f1061387b576101008083540402835291602001916138a6565b820191906000526020600020905b81548152906001019060200180831161388957829003601f168201915b505050505090806005018054600181600116156101000203166002900480601f0160208091040260200160405190810160405280929190818152602001828054600181600116156101000203166002900480156139445780601f1061391957610100808354040283529160200191613944565b820191906000526020600020905b81548152906001019060200180831161392757829003601f168201915b505050505090806006018054600181600116156101000203166002900480601f0160208091040260200160405190810160405280929190818152602001828054600181600116156101000203166002900480156139e25780601f106139b7576101008083540402835291602001916139e2565b820191906000526020600020905b8154815290600101906020018083116139c557829003601f168201915b505050505090806007018054600181600116156101000203166002900480601f016020809104026020016040519081016040528092919081815260200182805460018160011615610100020316600290048015613a805780601f10613a5557610100808354040283529160200191613a80565b820191906000526020600020905b815481529060010190602001808311613a6357829003601f168201915b5050505050905088565b6060806060613a97615840565b6004600087815260200190815260200160002061014060405190810160405290816000820160009054906101000a900460ff161515151581526020016000820160019054906101000a900460ff16151515158152602001600182015481526020016002820154815260200160038201805480602002602001604051908101604052809291908181526020018280548015613b5057602002820191906000526020600020905b815481526020019060010190808311613b3c575b505050505081526020016004820160009054906101000a900473ffffffffffffffffffffffffffffffffffffffff1673ffffffffffffffffffffffffffffffffffffffff1673ffffffffffffffffffffffffffffffffffffffff168152602001600582018054600181600116156101000203166002900480601f016020809104026020016040519081016040528092919081815260200182805460018160011615610100020316600290048015613c485780601f10613c1d57610100808354040283529160200191613c48565b820191906000526020600020905b815481529060010190602001808311613c2b57829003601f168201915b50505050508152602001600682018054600181600116156101000203166002900480601f016020809104026020016040519081016040528092919081815260200182805460018160011615610100020316600290048015613cea5780601f10613cbf57610100808354040283529160200191613cea565b820191906000526020600020905b815481529060010190602001808311613ccd57829003601f168201915b50505050508152602001600782018054600181600116156101000203166002900480601f016020809104026020016040519081016040528092919081815260200182805460018160011615610100020316600290048015613d8c5780601f10613d6157610100808354040283529160200191613d8c565b820191906000526020600020905b815481529060010190602001808311613d6f57829003601f168201915b50505050508152602001600882018054600181600116156101000203166002900480601f016020809104026020016040519081016040528092919081815260200182805460018160011615610100020316600290048015613e2e5780601f10613e0357610100808354040283529160200191613e2e565b820191906000526020600020905b815481529060010190602001808311613e1157829003601f168201915b5050505050815250509050613e416158b4565b600760008360600151815260200190815260200160002061010060405190810160405290816000820154815260200160018201548152602001600282015481526020016003820160009054906101000a900473ffffffffffffffffffffffffffffffffffffffff1673ffffffffffffffffffffffffffffffffffffffff1673ffffffffffffffffffffffffffffffffffffffff168152602001600482018054600181600116156101000203166002900480601f016020809104026020016040519081016040528092919081815260200182805460018160011615610100020316600290048015613f725780601f10613f4757610100808354040283529160200191613f72565b820191906000526020600020905b815481529060010190602001808311613f5557829003601f168201915b50505050508152602001600582018054600181600116156101000203166002900480601f0160208091040260200160405190810160405280929190818152602001828054600181600116156101000203166002900480156140145780601f10613fe957610100808354040283529160200191614014565b820191906000526020600020905b815481529060010190602001808311613ff757829003601f168201915b50505050508152602001600682018054600181600116156101000203166002900480601f0160208091040260200160405190810160405280929190818152602001828054600181600116156101000203166002900480156140b65780601f1061408b576101008083540402835291602001916140b6565b820191906000526020600020905b81548152906001019060200180831161409957829003601f168201915b50505050508152602001600782018054600181600116156101000203166002900480601f0160208091040260200160405190810160405280929190818152602001828054600181600116156101000203166002900480156141585780601f1061412d57610100808354040283529160200191614158565b820191906000526020600020905b81548152906001019060200180831161413b57829003601f168201915b50505050508152505090507f6c61746573740000000000000000000000000000000000000000000000000000861415156144ab576007600087815260200190815260200160002061010060405190810160405290816000820154815260200160018201548152602001600282015481526020016003820160009054906101000a900473ffffffffffffffffffffffffffffffffffffffff1673ffffffffffffffffffffffffffffffffffffffff1673ffffffffffffffffffffffffffffffffffffffff168152602001600482018054600181600116156101000203166002900480601f0160208091040260200160405190810160405280929190818152602001828054600181600116156101000203166002900480156142b95780601f1061428e576101008083540402835291602001916142b9565b820191906000526020600020905b81548152906001019060200180831161429c57829003601f168201915b50505050508152602001600582018054600181600116156101000203166002900480601f01602080910402602001604051908101604052809291908181526020018280546001816001161561010002031660029004801561435b5780601f106143305761010080835404028352916020019161435b565b820191906000526020600020905b81548152906001019060200180831161433e57829003601f168201915b50505050508152602001600682018054600181600116156101000203166002900480601f0160208091040260200160405190810160405280929190818152602001828054600181600116156101000203166002900480156143fd5780601f106143d2576101008083540402835291602001916143fd565b820191906000526020600020905b8154815290600101906020018083116143e057829003601f168201915b50505050508152602001600782018054600181600116156101000203166002900480601f01602080910402602001604051908101604052809291908181526020018280546001816001161561010002031660029004801561449f5780601f106144745761010080835404028352916020019161449f565b820191906000526020600020905b81548152906001019060200180831161448257829003601f168201915b50505050508152505090505b8060e0015182610100015183610120015182925081915080905094509450945050509250925092565b6000600460008781526020019081526020016000209050600082511415156147735760606145406040805190810160405280600181526020017f3b00000000000000000000000000000000000000000000000000000000000000815250846153d790919063ffffffff16565b905060008090505b815181101561477057826006838381518110151561456257fe5b906020019060200201516040518082805190602001908083835b6020831015156145a1578051825260208201915060208101905060208303925061457c565b6001836020036101000a03801982511681845116808217855250505050505090500191505090815260200160405180910390206000820160009054906101000a900460ff168160000160006101000a81548160ff0219169083151502179055506000820160019054906101000a900460ff168160000160016101000a81548160ff02191690831515021790555060018201548160010155600282015481600201556003820181600301908054614658929190615916565b506004820160009054906101000a900473ffffffffffffffffffffffffffffffffffffffff168160040160006101000a81548173ffffffffffffffffffffffffffffffffffffffff021916908373ffffffffffffffffffffffffffffffffffffffff160217905550600582018160050190805460018160011615610100020316600290046146e7929190615968565b506006820181600601908054600181600116156101000203166002900461470f929190615968565b5060078201816007019080546001816001161561010002031660029004614737929190615968565b506008820181600801908054600181600116156101000203166002900461475f929190615968565b509050508080600101915050614548565b50505b6000423388604051602001808481526020018373ffffffffffffffffffffffffffffffffffffffff1673ffffffffffffffffffffffffffffffffffffffff166c0100000000000000000000000002815260140182815260200193505050506040516020818303038152906040528051906020012090506000600760008381526020019081526020016000209050818160000181905550428160020181905550826002015481600101819055508260040160009054906101000a900473ffffffffffffffffffffffffffffffffffffffff168160030160006101000a81548173ffffffffffffffffffffffffffffffffffffffff021916908373ffffffffffffffffffffffffffffffffffffffff1602179055508681600401908051906020019061489e929190615773565b50858160050190805190602001906148b7929190615773565b50848160060190805190602001906148d0929190615773565b50838160070190805190602001906148e9929190615773565b506008829080600181540180825580915050906001820390600052602060002001600090919290919091505550826003018290806001815401808255809150509060018203906000526020600020016000909192909190915055508183600201819055505050505050505050565b60058181548110151561496657fe5b906000526020600020016000915090505481565b60096020528160005260406000208181548110151561499557fe5b90600052602060002001600091509150505481565b60606149b4615840565b6004600085815260200190815260200160002061014060405190810160405290816000820160009054906101000a900460ff161515151581526020016000820160019054906101000a900460ff16151515158152602001600182015481526020016002820154815260200160038201805480602002602001604051908101604052809291908181526020018280548015614a6d57602002820191906000526020600020905b815481526020019060010190808311614a59575b505050505081526020016004820160009054906101000a900473ffffffffffffffffffffffffffffffffffffffff1673ffffffffffffffffffffffffffffffffffffffff1673ffffffffffffffffffffffffffffffffffffffff168152602001600582018054600181600116156101000203166002900480601f016020809104026020016040519081016040528092919081815260200182805460018160011615610100020316600290048015614b655780601f10614b3a57610100808354040283529160200191614b65565b820191906000526020600020905b815481529060010190602001808311614b4857829003601f168201915b50505050508152602001600682018054600181600116156101000203166002900480601f016020809104026020016040519081016040528092919081815260200182805460018160011615610100020316600290048015614c075780601f10614bdc57610100808354040283529160200191614c07565b820191906000526020600020905b815481529060010190602001808311614bea57829003601f168201915b50505050508152602001600782018054600181600116156101000203166002900480601f016020809104026020016040519081016040528092919081815260200182805460018160011615610100020316600290048015614ca95780601f10614c7e57610100808354040283529160200191614ca9565b820191906000526020600020905b815481529060010190602001808311614c8c57829003601f168201915b50505050508152602001600882018054600181600116156101000203166002900480601f016020809104026020016040519081016040528092919081815260200182805460018160011615610100020316600290048015614d4b5780601f10614d2057610100808354040283529160200191614d4b565b820191906000526020600020905b815481529060010190602001808311614d2e57829003601f168201915b5050505050815250509050614d5e6158b4565b600760008360600151815260200190815260200160002061010060405190810160405290816000820154815260200160018201548152602001600282015481526020016003820160009054906101000a900473ffffffffffffffffffffffffffffffffffffffff1673ffffffffffffffffffffffffffffffffffffffff1673ffffffffffffffffffffffffffffffffffffffff168152602001600482018054600181600116156101000203166002900480601f016020809104026020016040519081016040528092919081815260200182805460018160011615610100020316600290048015614e8f5780601f10614e6457610100808354040283529160200191614e8f565b820191906000526020600020905b815481529060010190602001808311614e7257829003601f168201915b50505050508152602001600582018054600181600116156101000203166002900480601f016020809104026020016040519081016040528092919081815260200182805460018160011615610100020316600290048015614f315780601f10614f0657610100808354040283529160200191614f31565b820191906000526020600020905b815481529060010190602001808311614f1457829003601f168201915b50505050508152602001600682018054600181600116156101000203166002900480601f016020809104026020016040519081016040528092919081815260200182805460018160011615610100020316600290048015614fd35780601f10614fa857610100808354040283529160200191614fd3565b820191906000526020600020905b815481529060010190602001808311614fb657829003601f168201915b50505050508152602001600782018054600181600116156101000203166002900480601f0160208091040260200160405190810160405280929190818152602001828054600181600116156101000203166002900480156150755780601f1061504a57610100808354040283529160200191615075565b820191906000526020600020905b81548152906001019060200180831161505857829003601f168201915b50505050508152505090507f6c61746573740000000000000000000000000000000000000000000000000000841415156153c8576007600085815260200190815260200160002061010060405190810160405290816000820154815260200160018201548152602001600282015481526020016003820160009054906101000a900473ffffffffffffffffffffffffffffffffffffffff1673ffffffffffffffffffffffffffffffffffffffff1673ffffffffffffffffffffffffffffffffffffffff168152602001600482018054600181600116156101000203166002900480601f0160208091040260200160405190810160405280929190818152602001828054600181600116156101000203166002900480156151d65780601f106151ab576101008083540402835291602001916151d6565b820191906000526020600020905b8154815290600101906020018083116151b957829003601f168201915b50505050508152602001600582018054600181600116156101000203166002900480601f0160208091040260200160405190810160405280929190818152602001828054600181600116156101000203166002900480156152785780601f1061524d57610100808354040283529160200191615278565b820191906000526020600020905b81548152906001019060200180831161525b57829003601f168201915b50505050508152602001600682018054600181600116156101000203166002900480601f01602080910402602001604051908101604052809291908181526020018280546001816001161561010002031660029004801561531a5780601f106152ef5761010080835404028352916020019161531a565b820191906000526020600020905b8154815290600101906020018083116152fd57829003601f168201915b50505050508152602001600782018054600181600116156101000203166002900480601f0160208091040260200160405190810160405280929190818152602001828054600181600116156101000203166002900480156153bc5780601f10615391576101008083540402835291602001916153bc565b820191906000526020600020905b81548152906001019060200180831161539f57829003601f168201915b50505050508152505090505b8060c001519250505092915050565b60608083905060008090506000600190505b6001835103821015615446576000615402878785615608565b90507fffffffffffffffffffffffffffffffffffffffffffffffffffffffffffffffff8114156154325750615446565b8180600101925050600181019250506153e9565b8060405190808252806020026020018201604052801561547a57816020015b60608152602001906001900390816154655790505b50935060009150600090505b60018351038210156155fc57600061549f878785615608565b90507fffffffffffffffffffffffffffffffffffffffffffffffffffffffffffffffff8114156154ce57835190505b60608382036040519080825280601f01601f1916602001820160405280156155055781602001600182028038833980820191505090505b5090506060819050600080905060008690505b848110156155ca57878181518110151561552e57fe5b9060200101517f010000000000000000000000000000000000000000000000000000000000000090047f010000000000000000000000000000000000000000000000000000000000000002838380600101945081518110151561558d57fe5b9060200101907effffffffffffffffffffffffffffffffffffffffffffffffffffffffffffff1916908160001a9053508080600101915050615518565b506001840195508188868060010197508151811015156155e657fe5b9060200190602002018190525050505050615486565b83935050505092915050565b6000606084905060608490506001815114151561562157fe5b60008490505b82518110156157455781600081518110151561563f57fe5b9060200101517f010000000000000000000000000000000000000000000000000000000000000090047f0100000000000000000000000000000000000000000000000000000000000000027effffffffffffffffffffffffffffffffffffffffffffffffffffffffffffff191683828151811015156156ba57fe5b9060200101517f010000000000000000000000000000000000000000000000000000000000000090047f0100000000000000000000000000000000000000000000000000000000000000027effffffffffffffffffffffffffffffffffffffffffffffffffffffffffffff191614156157385780935050505061576c565b8080600101915050615627565b507fffffffffffffffffffffffffffffffffffffffffffffffffffffffffffffffff925050505b9392505050565b828054600181600116156101000203166002900490600052602060002090601f016020900481019282601f106157b457805160ff19168380011785556157e2565b828001600101855582156157e2579182015b828111156157e15782518255916020019190600101906157c6565b5b5090506157ef91906159ef565b5090565b82805482825590600052602060002090810192821561582f579160200282015b8281111561582e578251825591602001919060010190615813565b5b50905061583c9190615a14565b5090565b61014060405190810160405280600015158152602001600015158152602001600080191681526020016000801916815260200160608152602001600073ffffffffffffffffffffffffffffffffffffffff168152602001606081526020016060815260200160608152602001606081525090565b61010060405190810160405280600080191681526020016000801916815260200160008152602001600073ffffffffffffffffffffffffffffffffffffffff168152602001606081526020016060815260200160608152602001606081525090565b8280548282559060005260206000209081019282156159575760005260206000209182015b8281111561595657825482559160010191906001019061593b565b5b5090506159649190615a14565b5090565b828054600181600116156101000203166002900490600052602060002090601f016020900481019282601f106159a157805485556159de565b828001600101855582156159de57600052602060002091601f016020900482015b828111156159dd5782548255916001019190600101906159c2565b5b5090506159eb91906159ef565b5090565b615a1191905b80821115615a0d5760008160009055506001016159f5565b5090565b90565b615a3691905b80821115615a32576000816000905550600101615a1a565b5090565b9056fea165627a7a7230582053273cc877b599f3ff07bbc8da65a357f3c833219e6a22d741ac764d7c357f420029",
  "source": "pragma solidity ^0.5.0;\n\nimport \"solidity-util/lib/Strings.sol\";\nimport \"solidity-util/lib/Integers.sol\";\nimport \"solidity-util/lib/Addresses.sol\";\nimport \"./EventManager.sol\";\n\ncontract ApplicationManagement is EventManager{\n//    struct AlertEvent {\n//        bytes32 deviceId;\n//        bytes32 applicationId;\n//        string category;\n//        string message;\n//        string timestamp;\n//    }\n    /// @notice Maps app to a category string.\n    mapping (bytes32 => string) appToCategories;\n\n    /// @notice Maps app+category string to an AlertEvent struct.\n    mapping (string => AlertEvent) appCategoryToMessage;\n\n    ///curCategory is the current category\n    ///allCategories is the string of all categories\n    ///appCategory is the combination of appId and curCategory\n    function addAlert (bytes32 deviceId, bytes32 applicationId, string memory curCategory, string memory message, string memory timestamp, string memory allCategories, string memory appCategory) public {\n        appToCategories[applicationId] = allCategories;\n        // Create alertEvent\n        AlertEvent storage alertEvent = appCategoryToMessage[appCategory];\n        alertEvent.deviceId = deviceId;\n        alertEvent.applicationId = applicationId;\n        alertEvent.category = curCategory;\n        alertEvent.message = message;\n        alertEvent.timestamp = timestamp;\n    }\n    function getAlertCategoriesByApplicationId (bytes32 applicationId) external view returns (string memory categories) {\n        return appToCategories[applicationId];\n    }\n    function getAlertMessageByAppCategory (string calldata appCategory) external view returns (string memory messages, string memory timestamp){\n        return (appCategoryToMessage[appCategory].message, appCategoryToMessage[appCategory].timestamp);\n    }\n\n//contract ApplicationManagement is PassageModel{\n\n    using Strings for string;\n\n\n    /***********************\n      STRUCT DEFINITIONS\n    ***********************/\n//    struct Actor {\n//        bytes32 actorId;\n//        string name;\n//        address accountAddress; // Ethereum address\n//        string physicalAddress; // Physical address, may be separated (more costly)\n//        // TODO: actor certification? ISO:9001?\n//    }\n\n    struct ProductVersion {\n        bytes32 versionId;\n        bytes32 previousVersionId;\n        uint creationDate;\n        address owner; // used to keep track of who owned the product at that version (could be a \"bytes32 actorId\")\n        string latitude;\n        string longitude;\n        string customJsonData;\n        string deviceClientName;\n    }\n\n    struct Product {\n        bool exists; // always true! (used to check if the product exists)\n        bool archived; // set to true when product gets merged/split\n        bytes32 productId;\n        bytes32 latestVersionId;\n        bytes32[] versions;\n        address owner;\n        string name;\n        string description;\n        string temperatureAlerts;\n        string locationAlerts;\n    }\n\n    /***********************\n      MAPPINGS & STORAGE\n    ***********************/\n    mapping (bytes32 => Product) public productIdToProductStruct; // access a product struct directly from an ID\n    bytes32[] public productIds; // access all product IDs\n\n    mapping (string => Product) deviceClientNameToProductStruct; // access a product struct directly from a device client name\n\n    mapping (bytes32 => ProductVersion) public versionIdToVersionStruct; // access a version struct from a version ID\n    bytes32[] public productVersionIds; // access all version IDs\n\n    mapping (address => bytes32[]) public ownerToProductsId; // access an account's products\n\n//    mapping (address => Actor) public actorAddressToActorStruct; // access an actor struct from its Eth address\n//    address[] public actorAddresses; // access all actor addresses\n\n    function createProduct(\n      string memory _name,\n      string memory _description,\n      string memory _latitude,\n      string memory _longitude,\n      string memory _customJsonData,\n      string memory _deviceClientName\n    ) public returns (bytes32 productId) {\n    \n        // Generate a pseudo-random product ID\n        // from the current time and the sender's address\n        bytes32 newProductId = keccak256(abi.encodePacked(now, msg.sender));\n\n        // Create product\n        Product storage product = productIdToProductStruct[newProductId];\n\n        // Define product\n        product.productId = newProductId;\n        product.latestVersionId = \"0\"; // temporary value that gets replaced in updateProduct()\n        product.versions = new bytes32[](0); // empty array at first\n        product.exists = true;\n        product.archived = false;\n        product.owner = msg.sender;\n\n        product.name = _name;\n        product.description = _description;\n        product.temperatureAlerts = \"\";\n        product.locationAlerts = \"\";\n\n        // Add new product ID\n        productIds.push(newProductId);\n\n        // Add product ID to account\n        ownerToProductsId[msg.sender].push(newProductId);\n\n        // Create initial product version\n        updateProduct(newProductId, _latitude, _longitude, _customJsonData, _deviceClientName);\n\n        // Fire an event to announce the creation of the product\n        emit ProductCreated(newProductId, msg.sender);\n        return newProductId;\n    }\n\n    function addTemperaturAlert(\n        bytes32 _productId,\n        string memory _alertData\n    ) public returns (string memory newAlert) {\n        // Get base product from storage\n        Product storage product = productIdToProductStruct[_productId];\n        product.temperatureAlerts = _alertData;\n        return product.temperatureAlerts;\n    }\n\n    function addLocationAlert(\n        bytes32 _productId,\n        string memory _alertData\n    ) public returns (string memory newAlert) {\n        // Get base product from storage\n        Product storage product = productIdToProductStruct[_productId];\n        product.locationAlerts = _alertData;\n        return product.locationAlerts;\n    }\n\n//    event productAlertAdded(bytes32 productId, bytes32 deviceID, );\n\n    function updateProduct(\n      bytes32 _productId, \n      string memory _latitude,\n      string memory _longitude,\n      string memory _customJsonData,\n      string memory _deviceClientName\n    ) public {\n        Product storage product = productIdToProductStruct[_productId];\n        if (bytes(_deviceClientName).length != 0) {\n            string[] memory linkedDevices = _deviceClientName.split(\";\");\n            for (uint i = 0; i < linkedDevices.length; i++) {\n                deviceClientNameToProductStruct[linkedDevices[i]] = product;\n            }\n        }\n        bytes32 newVersionId = keccak256(abi.encodePacked(now, msg.sender, _productId));\n        ProductVersion storage version = versionIdToVersionStruct[newVersionId];\n        version.versionId = newVersionId;\n        version.creationDate = now;\n        version.previousVersionId = product.latestVersionId;\n        version.owner = product.owner;\n        version.latitude = _latitude;\n        version.longitude = _longitude;\n        version.customJsonData = _customJsonData;\n        version.deviceClientName = _deviceClientName;\n        productVersionIds.push(newVersionId);\n        product.versions.push(newVersionId);\n        product.latestVersionId = newVersionId;\n    }\n    function getProductByDeviceClientName(string calldata _deviceClientName) external view returns (bytes32 productId) {\n        // Get the requested product from storage\n        Product memory product = deviceClientNameToProductStruct[_deviceClientName];\n        return product.productId;\n    }\n\n    function getProductByIdExtra(bytes32 _productId, bytes32 specificVersionId) external view returns (string memory deviceClientName, string memory tempAlertStr, string memory locAlertStr) {\n        Product memory product = productIdToProductStruct[_productId];\n        ProductVersion memory requestedVersion = versionIdToVersionStruct[product.latestVersionId];\n        if (specificVersionId != \"latest\") {\n            // Get the requested product version\n            requestedVersion = versionIdToVersionStruct[specificVersionId];\n        }\n        return (requestedVersion.deviceClientName, product.temperatureAlerts, product.locationAlerts);\n    }\n\n    function getProductById(bytes32 _productId, bytes32 specificVersionId) external view returns (string memory name, string memory description, string memory _latitude, string memory _longitude, uint versionCreationDate, bytes32[] memory versions) {\n//        returns (string name, string description, string _latitude, string _longitude, uint versionCreationDate, bytes32[] versions, bytes32[] certificationsIds) {\n\n      // Get the requested product from storage\n      Product memory product = productIdToProductStruct[_productId];\n\n      // Initialize a variable that will hold the requested product version struct\n      ProductVersion memory requestedVersion = versionIdToVersionStruct[product.latestVersionId];\n      if (specificVersionId != \"latest\") {\n        // Get the requested product version\n        requestedVersion = versionIdToVersionStruct[specificVersionId];\n      }\n\n      // Return the requested data\n      return (product.name, product.description, requestedVersion.latitude, requestedVersion.longitude, requestedVersion.creationDate, product.versions);\n    }\n\n    function getProductCustomDataById(bytes32 _productId, bytes32 specificVersionId) external view returns (string memory customJsonData) {\n\n        // Get the requested product from storage\n        Product memory product = productIdToProductStruct[_productId];\n\n        // Initialize a variable that will hold the requested product version struct\n        ProductVersion memory requestedVersion = versionIdToVersionStruct[product.latestVersionId];\n\n        if (specificVersionId != \"latest\") {\n          // Get the requested product version\n          requestedVersion = versionIdToVersionStruct[specificVersionId];\n        }\n\n        // Return the requested data\n        return (requestedVersion.customJsonData);\n    }\n\n\n    function getOwnerProducts() external view returns (bytes32[] memory productsIds) {\n\n        bytes32[] memory ownedProductsIds = ownerToProductsId[msg.sender];\n        bytes32[] memory activeProducts = new bytes32[](ownedProductsIds.length);\n\n        for (uint i = 0; i < ownedProductsIds.length; ++i) {\n            if (!productIdToProductStruct[ownedProductsIds[i]].archived) {\n                activeProducts[i] = ownedProductsIds[i];\n            }\n        }\n\n        return activeProducts;\n    }\n\n    function getVersionLatLngById(bytes32 _versionId) external view returns (string memory latitude, string memory longitude) {\n\n        // Get the requested version from storage\n        ProductVersion storage version = versionIdToVersionStruct[_versionId];\n\n        // Return the requested data\n        return (version.latitude, version.longitude);\n    }\n\n    event ProductCreated(bytes32 newProductId, address indexed owner);\n}\n\n",
  "sourcePath": "/Users/kimwang/Desktop/895/leshan/blockchain-integration/contracts/ApplicationManagement.sol",
  "compiler": {
    "name": "solc",
    "version": "0.5.0+commit.1d4f565a.Emscripten.clang"
  },
  "schemaVersion": "3.0.20",
  "updatedAt": "2020-06-23T00:01:51.006Z",
  "networkType": "ethereum",
  "devdoc": {
    "methods": {}
  },
  "userdoc": {
    "methods": {
      "addAlert(bytes32,bytes32,string,string,string,string,string)": {
        "notice": "curCategory is the current category allCategories is the string of all categories appCategory is the combination of appId and curCategory"
      }
    }
  }
}