{
  "contractName": "ApplicationManagement",
  "abi": [
    {
      "constant": true,
      "inputs": [
        {
          "name": "",
          "type": "uint256"
        }
      ],
      "name": "productVersionIds",
      "outputs": [
        {
          "name": "",
          "type": "bytes32"
        }
      ],
      "payable": false,
      "stateMutability": "view",
      "type": "function"
    },
    {
      "constant": true,
      "inputs": [
        {
          "name": "",
          "type": "address"
        }
      ],
      "name": "actorAddressToActorStruct",
      "outputs": [
        {
          "name": "actorId",
          "type": "bytes32"
        },
        {
          "name": "name",
          "type": "string"
        },
        {
          "name": "accountAddress",
          "type": "address"
        },
        {
          "name": "physicalAddress",
          "type": "string"
        }
      ],
      "payable": false,
      "stateMutability": "view",
      "type": "function"
    },
    {
      "constant": true,
      "inputs": [
        {
          "name": "",
          "type": "bytes32"
        }
      ],
      "name": "productIdToProductStruct",
      "outputs": [
        {
          "name": "exists",
          "type": "bool"
        },
        {
          "name": "archived",
          "type": "bool"
        },
        {
          "name": "productId",
          "type": "bytes32"
        },
        {
          "name": "latestVersionId",
          "type": "bytes32"
        },
        {
          "name": "owner",
          "type": "address"
        },
        {
          "name": "name",
          "type": "string"
        },
        {
          "name": "description",
          "type": "string"
        },
        {
          "name": "temperatureAlerts",
          "type": "string"
        },
        {
          "name": "locationAlerts",
          "type": "string"
        }
      ],
      "payable": false,
      "stateMutability": "view",
      "type": "function"
    },
    {
      "constant": true,
      "inputs": [
        {
          "name": "",
          "type": "bytes32"
        }
      ],
      "name": "versionIdToVersionStruct",
      "outputs": [
        {
          "name": "versionId",
          "type": "bytes32"
        },
        {
          "name": "previousVersionId",
          "type": "bytes32"
        },
        {
          "name": "creationDate",
          "type": "uint256"
        },
        {
          "name": "owner",
          "type": "address"
        },
        {
          "name": "latitude",
          "type": "string"
        },
        {
          "name": "longitude",
          "type": "string"
        },
        {
          "name": "customJsonData",
          "type": "string"
        },
        {
          "name": "deviceClientName",
          "type": "string"
        }
      ],
      "payable": false,
      "stateMutability": "view",
      "type": "function"
    },
    {
      "constant": true,
      "inputs": [
        {
          "name": "",
          "type": "uint256"
        }
      ],
      "name": "actorAddresses",
      "outputs": [
        {
          "name": "",
          "type": "address"
        }
      ],
      "payable": false,
      "stateMutability": "view",
      "type": "function"
    },
    {
      "constant": true,
      "inputs": [
        {
          "name": "",
          "type": "uint256"
        }
      ],
      "name": "productIds",
      "outputs": [
        {
          "name": "",
          "type": "bytes32"
        }
      ],
      "payable": false,
      "stateMutability": "view",
      "type": "function"
    },
    {
      "constant": true,
      "inputs": [
        {
          "name": "",
          "type": "address"
        },
        {
          "name": "",
          "type": "uint256"
        }
      ],
      "name": "ownerToProductsId",
      "outputs": [
        {
          "name": "",
          "type": "bytes32"
        }
      ],
      "payable": false,
      "stateMutability": "view",
      "type": "function"
    },
    {
      "anonymous": false,
      "inputs": [
        {
          "indexed": false,
          "name": "newProductId",
          "type": "bytes32"
        },
        {
          "indexed": true,
          "name": "owner",
          "type": "address"
        }
      ],
      "name": "ProductCreated",
      "type": "event"
    },
    {
      "constant": false,
      "inputs": [
        {
          "name": "_name",
          "type": "string"
        },
        {
          "name": "_description",
          "type": "string"
        },
        {
          "name": "_latitude",
          "type": "string"
        },
        {
          "name": "_longitude",
          "type": "string"
        },
        {
          "name": "_customJsonData",
          "type": "string"
        },
        {
          "name": "_deviceClientName",
          "type": "string"
        }
      ],
      "name": "createProduct",
      "outputs": [
        {
          "name": "productId",
          "type": "bytes32"
        }
      ],
      "payable": false,
      "stateMutability": "nonpayable",
      "type": "function"
    },
    {
      "constant": false,
      "inputs": [
        {
          "name": "_productId",
          "type": "bytes32"
        },
        {
          "name": "_alertData",
          "type": "string"
        }
      ],
      "name": "addTemperaturAlert",
      "outputs": [
        {
          "name": "newAlert",
          "type": "string"
        }
      ],
      "payable": false,
      "stateMutability": "nonpayable",
      "type": "function"
    },
    {
      "constant": false,
      "inputs": [
        {
          "name": "_productId",
          "type": "bytes32"
        },
        {
          "name": "_alertData",
          "type": "string"
        }
      ],
      "name": "addLocationAlert",
      "outputs": [
        {
          "name": "newAlert",
          "type": "string"
        }
      ],
      "payable": false,
      "stateMutability": "nonpayable",
      "type": "function"
    },
    {
      "constant": false,
      "inputs": [
        {
          "name": "_productId",
          "type": "bytes32"
        },
        {
          "name": "_latitude",
          "type": "string"
        },
        {
          "name": "_longitude",
          "type": "string"
        },
        {
          "name": "_customJsonData",
          "type": "string"
        },
        {
          "name": "_deviceClientName",
          "type": "string"
        }
      ],
      "name": "updateProduct",
      "outputs": [],
      "payable": false,
      "stateMutability": "nonpayable",
      "type": "function"
    },
    {
      "constant": true,
      "inputs": [
        {
          "name": "_deviceClientName",
          "type": "string"
        }
      ],
      "name": "getProductByDeviceClientName",
      "outputs": [
        {
          "name": "productId",
          "type": "bytes32"
        }
      ],
      "payable": false,
      "stateMutability": "view",
      "type": "function"
    },
    {
      "constant": true,
      "inputs": [
        {
          "name": "_productId",
          "type": "bytes32"
        },
        {
          "name": "specificVersionId",
          "type": "bytes32"
        }
      ],
      "name": "getProductByIdExtra",
      "outputs": [
        {
          "name": "deviceClientName",
          "type": "string"
        },
        {
          "name": "tempAlertStr",
          "type": "string"
        },
        {
          "name": "locAlertStr",
          "type": "string"
        }
      ],
      "payable": false,
      "stateMutability": "view",
      "type": "function"
    },
    {
      "constant": true,
      "inputs": [
        {
          "name": "_productId",
          "type": "bytes32"
        },
        {
          "name": "specificVersionId",
          "type": "bytes32"
        }
      ],
      "name": "getProductById",
      "outputs": [
        {
          "name": "name",
          "type": "string"
        },
        {
          "name": "description",
          "type": "string"
        },
        {
          "name": "_latitude",
          "type": "string"
        },
        {
          "name": "_longitude",
          "type": "string"
        },
        {
          "name": "versionCreationDate",
          "type": "uint256"
        },
        {
          "name": "versions",
          "type": "bytes32[]"
        }
      ],
      "payable": false,
      "stateMutability": "view",
      "type": "function"
    },
    {
      "constant": true,
      "inputs": [
        {
          "name": "_productId",
          "type": "bytes32"
        },
        {
          "name": "specificVersionId",
          "type": "bytes32"
        }
      ],
      "name": "getProductCustomDataById",
      "outputs": [
        {
          "name": "customJsonData",
          "type": "string"
        }
      ],
      "payable": false,
      "stateMutability": "view",
      "type": "function"
    },
    {
      "constant": true,
      "inputs": [],
      "name": "getOwnerProducts",
      "outputs": [
        {
          "name": "productsIds",
          "type": "bytes32[]"
        }
      ],
      "payable": false,
      "stateMutability": "view",
      "type": "function"
    },
    {
      "constant": true,
      "inputs": [
        {
          "name": "_versionId",
          "type": "bytes32"
        }
      ],
      "name": "getVersionLatLngById",
      "outputs": [
        {
          "name": "latitude",
          "type": "string"
        },
        {
          "name": "longitude",
          "type": "string"
        }
      ],
      "payable": false,
      "stateMutability": "view",
      "type": "function"
    }
  ],
  "bytecode": "0x608060405234801561001057600080fd5b50615557806100206000396000f3fe6080604052600436106100f1576000357c0100000000000000000000000000000000000000000000000000000000900463ffffffff16806309f2f069146100f65780630f42435b146102165780632c602cec146102655780633873ab24146103b05780634a9011111461041c578063545b62a61461058c57806355a53f06146106d757806364aa3a4814610aa65780636768cee114610cf5578063802e62dd14610d8f578063876359e414610fe05780638bf2c057146112205780639482300a146113b6578063c0fd332114611431578063cb51bba9146116c8578063db2b9f1814611717578063e9baf25814611786575b600080fd5b34801561010257600080fd5b5061012f6004803603602081101561011957600080fd5b8101908080359060200190929190505050611844565b604051808060200180602001838103835285818151815260200191508051906020019080838360005b83811015610173578082015181840152602081019050610158565b50505050905090810190601f1680156101a05780820380516001836020036101000a031916815260200191505b50838103825284818151815260200191508051906020019080838360005b838110156101d95780820151818401526020810190506101be565b50505050905090810190601f1680156102065780820380516001836020036101000a031916815260200191505b5094505050505060405180910390f35b34801561022257600080fd5b5061024f6004803603602081101561023957600080fd5b81019080803590602001909291905050506119a8565b6040518082815260200191505060405180910390f35b34801561027157600080fd5b506103356004803603604081101561028857600080fd5b8101908080359060200190929190803590602001906401000000008111156102af57600080fd5b8201836020820111156102c157600080fd5b803590602001918460018302840111640100000000831117156102e357600080fd5b91908080601f016020809104026020016040519081016040528093929190818152602001838380828437600081840152601f19601f8201169050808301925050505050505091929192905050506119cb565b6040518080602001828103825283818151815260200191508051906020019080838360005b8381101561037557808201518184015260208101905061035a565b50505050905090810190601f1680156103a25780820380516001836020036101000a031916815260200191505b509250505060405180910390f35b3480156103bc57600080fd5b506103c5611aa2565b6040518080602001828103825283818151815260200191508051906020019060200280838360005b838110156104085780820151818401526020810190506103ed565b505050509050019250505060405180910390f35b34801561042857600080fd5b5061046b6004803603602081101561043f57600080fd5b81019080803573ffffffffffffffffffffffffffffffffffffffff169060200190929190505050611c02565b60405180858152602001806020018473ffffffffffffffffffffffffffffffffffffffff1673ffffffffffffffffffffffffffffffffffffffff16815260200180602001838103835286818151815260200191508051906020019080838360005b838110156104e75780820151818401526020810190506104cc565b50505050905090810190601f1680156105145780820380516001836020036101000a031916815260200191505b50838103825284818151815260200191508051906020019080838360005b8381101561054d578082015181840152602081019050610532565b50505050905090810190601f16801561057a5780820380516001836020036101000a031916815260200191505b50965050505050505060405180910390f35b34801561059857600080fd5b5061065c600480360360408110156105af57600080fd5b8101908080359060200190929190803590602001906401000000008111156105d657600080fd5b8201836020820111156105e857600080fd5b8035906020019184600183028401116401000000008311171561060a57600080fd5b91908080601f016020809104026020016040519081016040528093929190818152602001838380828437600081840152601f19601f820116905080830192505050505050509192919290505050611d82565b6040518080602001828103825283818151815260200191508051906020019080838360005b8381101561069c578082015181840152602081019050610681565b50505050905090810190601f1680156106c95780820380516001836020036101000a031916815260200191505b509250505060405180910390f35b3480156106e357600080fd5b50610a90600480360360c08110156106fa57600080fd5b810190808035906020019064010000000081111561071757600080fd5b82018360208201111561072957600080fd5b8035906020019184600183028401116401000000008311171561074b57600080fd5b91908080601f016020809104026020016040519081016040528093929190818152602001838380828437600081840152601f19601f820116905080830192505050505050509192919290803590602001906401000000008111156107ae57600080fd5b8201836020820111156107c057600080fd5b803590602001918460018302840111640100000000831117156107e257600080fd5b91908080601f016020809104026020016040519081016040528093929190818152602001838380828437600081840152601f19601f8201169050808301925050505050505091929192908035906020019064010000000081111561084557600080fd5b82018360208201111561085757600080fd5b8035906020019184600183028401116401000000008311171561087957600080fd5b91908080601f016020809104026020016040519081016040528093929190818152602001838380828437600081840152601f19601f820116905080830192505050505050509192919290803590602001906401000000008111156108dc57600080fd5b8201836020820111156108ee57600080fd5b8035906020019184600183028401116401000000008311171561091057600080fd5b91908080601f016020809104026020016040519081016040528093929190818152602001838380828437600081840152601f19601f8201169050808301925050505050505091929192908035906020019064010000000081111561097357600080fd5b82018360208201111561098557600080fd5b803590602001918460018302840111640100000000831117156109a757600080fd5b91908080601f016020809104026020016040519081016040528093929190818152602001838380828437600081840152601f19601f82011690508083019250505050505050919291929080359060200190640100000000811115610a0a57600080fd5b820183602082011115610a1c57600080fd5b80359060200191846001830284011164010000000083111715610a3e57600080fd5b91908080601f016020809104026020016040519081016040528093929190818152602001838380828437600081840152601f19601f820116905080830192505050505050509192919290505050611e59565b6040518082815260200191505060405180910390f35b348015610ab257600080fd5b50610adf60048036036020811015610ac957600080fd5b8101908080359060200190929190505050612159565b604051808a151515158152602001891515151581526020018881526020018781526020018673ffffffffffffffffffffffffffffffffffffffff1673ffffffffffffffffffffffffffffffffffffffff16815260200180602001806020018060200180602001858103855289818151815260200191508051906020019080838360005b83811015610b7d578082015181840152602081019050610b62565b50505050905090810190601f168015610baa5780820380516001836020036101000a031916815260200191505b50858103845288818151815260200191508051906020019080838360005b83811015610be3578082015181840152602081019050610bc8565b50505050905090810190601f168015610c105780820380516001836020036101000a031916815260200191505b50858103835287818151815260200191508051906020019080838360005b83811015610c49578082015181840152602081019050610c2e565b50505050905090810190601f168015610c765780820380516001836020036101000a031916815260200191505b50858103825286818151815260200191508051906020019080838360005b83811015610caf578082015181840152602081019050610c94565b50505050905090810190601f168015610cdc5780820380516001836020036101000a031916815260200191505b509d505050505050505050505050505060405180910390f35b348015610d0157600080fd5b50610d7960048036036020811015610d1857600080fd5b8101908080359060200190640100000000811115610d3557600080fd5b820183602082011115610d4757600080fd5b80359060200191846001830284011164010000000083111715610d6957600080fd5b9091929391929390505050612441565b6040518082815260200191505060405180910390f35b348015610d9b57600080fd5b50610dd260048036036040811015610db257600080fd5b81019080803590602001909291908035906020019092919050505061280f565b60405180806020018060200180602001806020018781526020018060200186810386528c818151815260200191508051906020019080838360005b83811015610e28578082015181840152602081019050610e0d565b50505050905090810190601f168015610e555780820380516001836020036101000a031916815260200191505b5086810385528b818151815260200191508051906020019080838360005b83811015610e8e578082015181840152602081019050610e73565b50505050905090810190601f168015610ebb5780820380516001836020036101000a031916815260200191505b5086810384528a818151815260200191508051906020019080838360005b83811015610ef4578082015181840152602081019050610ed9565b50505050905090810190601f168015610f215780820380516001836020036101000a031916815260200191505b50868103835289818151815260200191508051906020019080838360005b83811015610f5a578082015181840152602081019050610f3f565b50505050905090810190601f168015610f875780820380516001836020036101000a031916815260200191505b50868103825287818151815260200191508051906020019060200280838360005b83811015610fc3578082015181840152602081019050610fa8565b505050509050019b50505050505050505050505060405180910390f35b348015610fec57600080fd5b506110196004803603602081101561100357600080fd5b8101908080359060200190929190505050613279565b604051808981526020018881526020018781526020018673ffffffffffffffffffffffffffffffffffffffff1673ffffffffffffffffffffffffffffffffffffffff16815260200180602001806020018060200180602001858103855289818151815260200191508051906020019080838360005b838110156110a957808201518184015260208101905061108e565b50505050905090810190601f1680156110d65780820380516001836020036101000a031916815260200191505b50858103845288818151815260200191508051906020019080838360005b8381101561110f5780820151818401526020810190506110f4565b50505050905090810190601f16801561113c5780820380516001836020036101000a031916815260200191505b50858103835287818151815260200191508051906020019080838360005b8381101561117557808201518184015260208101905061115a565b50505050905090810190601f1680156111a25780820380516001836020036101000a031916815260200191505b50858103825286818151815260200191508051906020019080838360005b838110156111db5780820151818401526020810190506111c0565b50505050905090810190601f1680156112085780820380516001836020036101000a031916815260200191505b509c5050505050505050505050505060405180910390f35b34801561122c57600080fd5b506112636004803603604081101561124357600080fd5b810190808035906020019092919080359060200190929190505050613541565b60405180806020018060200180602001848103845287818151815260200191508051906020019080838360005b838110156112ab578082015181840152602081019050611290565b50505050905090810190601f1680156112d85780820380516001836020036101000a031916815260200191505b50848103835286818151815260200191508051906020019080838360005b838110156113115780820151818401526020810190506112f6565b50505050905090810190601f16801561133e5780820380516001836020036101000a031916815260200191505b50848103825285818151815260200191508051906020019080838360005b8381101561137757808201518184015260208101905061135c565b50505050905090810190601f1680156113a45780820380516001836020036101000a031916815260200191505b50965050505050505060405180910390f35b3480156113c257600080fd5b506113ef600480360360208110156113d957600080fd5b8101908080359060200190929190505050613f8a565b604051808273ffffffffffffffffffffffffffffffffffffffff1673ffffffffffffffffffffffffffffffffffffffff16815260200191505060405180910390f35b34801561143d57600080fd5b506116c6600480360360a081101561145457600080fd5b81019080803590602001909291908035906020019064010000000081111561147b57600080fd5b82018360208201111561148d57600080fd5b803590602001918460018302840111640100000000831117156114af57600080fd5b91908080601f016020809104026020016040519081016040528093929190818152602001838380828437600081840152601f19601f8201169050808301925050505050505091929192908035906020019064010000000081111561151257600080fd5b82018360208201111561152457600080fd5b8035906020019184600183028401116401000000008311171561154657600080fd5b91908080601f016020809104026020016040519081016040528093929190818152602001838380828437600081840152601f19601f820116905080830192505050505050509192919290803590602001906401000000008111156115a957600080fd5b8201836020820111156115bb57600080fd5b803590602001918460018302840111640100000000831117156115dd57600080fd5b91908080601f016020809104026020016040519081016040528093929190818152602001838380828437600081840152601f19601f8201169050808301925050505050505091929192908035906020019064010000000081111561164057600080fd5b82018360208201111561165257600080fd5b8035906020019184600183028401116401000000008311171561167457600080fd5b91908080601f016020809104026020016040519081016040528093929190818152602001838380828437600081840152601f19601f820116905080830192505050505050509192919290505050613fc8565b005b3480156116d457600080fd5b50611701600480360360208110156116eb57600080fd5b810190808035906020019092919050505061444a565b6040518082815260200191505060405180910390f35b34801561172357600080fd5b506117706004803603604081101561173a57600080fd5b81019080803573ffffffffffffffffffffffffffffffffffffffff1690602001909291908035906020019092919050505061446d565b6040518082815260200191505060405180910390f35b34801561179257600080fd5b506117c9600480360360408110156117a957600080fd5b81019080803590602001909291908035906020019092919050505061449d565b6040518080602001828103825283818151815260200191508051906020019080838360005b838110156118095780820151818401526020810190506117ee565b50505050905090810190601f1680156118365780820380516001836020036101000a031916815260200191505b509250505060405180910390f35b60608060006003600085815260200190815260200160002090508060040181600501818054600181600116156101000203166002900480601f0160208091040260200160405190810160405280929190818152602001828054600181600116156101000203166002900480156118fb5780601f106118d0576101008083540402835291602001916118fb565b820191906000526020600020905b8154815290600101906020018083116118de57829003601f168201915b50505050509150808054600181600116156101000203166002900480601f0160208091040260200160405190810160405280929190818152602001828054600181600116156101000203166002900480156119975780601f1061196c57610100808354040283529160200191611997565b820191906000526020600020905b81548152906001019060200180831161197a57829003601f168201915b505050505090509250925050915091565b6004818154811015156119b757fe5b906000526020600020016000915090505481565b606060008060008581526020019081526020016000209050828160080190805190602001906119fb929190615265565b50806008018054600181600116156101000203166002900480601f016020809104026020016040519081016040528092919081815260200182805460018160011615610100020316600290048015611a945780601f10611a6957610100808354040283529160200191611a94565b820191906000526020600020905b815481529060010190602001808311611a7757829003601f168201915b505050505091505092915050565b606080600560003373ffffffffffffffffffffffffffffffffffffffff1673ffffffffffffffffffffffffffffffffffffffff168152602001908152602001600020805480602002602001604051908101604052809291908181526020018280548015611b2e57602002820191906000526020600020905b815481526020019060010190808311611b1a575b5050505050905060608151604051908082528060200260200182016040528015611b675781602001602082028038833980820191505090505b50905060008090505b8251811015611bf9576000808483815181101515611b8a57fe5b90602001906020020151815260200190815260200160002060000160019054906101000a900460ff161515611bee578281815181101515611bc757fe5b906020019060200201518282815181101515611bdf57fe5b90602001906020020181815250505b806001019050611b70565b50809250505090565b6006602052806000526040600020600091509050806000015490806001018054600181600116156101000203166002900480601f016020809104026020016040519081016040528092919081815260200182805460018160011615610100020316600290048015611cb45780601f10611c8957610100808354040283529160200191611cb4565b820191906000526020600020905b815481529060010190602001808311611c9757829003601f168201915b5050505050908060020160009054906101000a900473ffffffffffffffffffffffffffffffffffffffff1690806003018054600181600116156101000203166002900480601f016020809104026020016040519081016040528092919081815260200182805460018160011615610100020316600290048015611d785780601f10611d4d57610100808354040283529160200191611d78565b820191906000526020600020905b815481529060010190602001808311611d5b57829003601f168201915b5050505050905084565b60606000806000858152602001908152602001600020905082816007019080519060200190611db2929190615265565b50806007018054600181600116156101000203166002900480601f016020809104026020016040519081016040528092919081815260200182805460018160011615610100020316600290048015611e4b5780601f10611e2057610100808354040283529160200191611e4b565b820191906000526020600020905b815481529060010190602001808311611e2e57829003601f168201915b505050505091505092915050565b6000804233604051602001808381526020018273ffffffffffffffffffffffffffffffffffffffff1673ffffffffffffffffffffffffffffffffffffffff166c0100000000000000000000000002815260140192505050604051602081830303815290604052805190602001209050600080600083815260200190815260200160002090508181600101819055507f300000000000000000000000000000000000000000000000000000000000000081600201819055506000604051908082528060200260200182016040528015611f405781602001602082028038833980820191505090505b50816003019080519060200190611f589291906152e5565b5060018160000160006101000a81548160ff02191690831515021790555060008160000160016101000a81548160ff021916908315150217905550338160040160006101000a81548173ffffffffffffffffffffffffffffffffffffffff021916908373ffffffffffffffffffffffffffffffffffffffff16021790555088816005019080519060200190611fee929190615265565b5087816006019080519060200190612007929190615265565b506020604051908101604052806000815250816007019080519060200190612030929190615265565b506020604051908101604052806000815250816008019080519060200190612059929190615265565b506001829080600181540180825580915050906001820390600052602060002001600090919290919091505550600560003373ffffffffffffffffffffffffffffffffffffffff1673ffffffffffffffffffffffffffffffffffffffff1681526020019081526020016000208290806001815401808255809150509060018203906000526020600020016000909192909190915055506120fc8288888888613fc8565b3373ffffffffffffffffffffffffffffffffffffffff167f1f3cd26d22ddb1ce87773315d1a9a80f4c46a7aaf7a8d3c23827523b8976f912836040518082815260200191505060405180910390a281925050509695505050505050565b60006020528060005260406000206000915090508060000160009054906101000a900460ff16908060000160019054906101000a900460ff16908060010154908060020154908060040160009054906101000a900473ffffffffffffffffffffffffffffffffffffffff1690806005018054600181600116156101000203166002900480601f01602080910402602001604051908101604052809291908181526020018280546001816001161561010002031660029004801561225d5780601f106122325761010080835404028352916020019161225d565b820191906000526020600020905b81548152906001019060200180831161224057829003601f168201915b505050505090806006018054600181600116156101000203166002900480601f0160208091040260200160405190810160405280929190818152602001828054600181600116156101000203166002900480156122fb5780601f106122d0576101008083540402835291602001916122fb565b820191906000526020600020905b8154815290600101906020018083116122de57829003601f168201915b505050505090806007018054600181600116156101000203166002900480601f0160208091040260200160405190810160405280929190818152602001828054600181600116156101000203166002900480156123995780601f1061236e57610100808354040283529160200191612399565b820191906000526020600020905b81548152906001019060200180831161237c57829003601f168201915b505050505090806008018054600181600116156101000203166002900480601f0160208091040260200160405190810160405280929190818152602001828054600181600116156101000203166002900480156124375780601f1061240c57610100808354040283529160200191612437565b820191906000526020600020905b81548152906001019060200180831161241a57829003601f168201915b5050505050905089565b600061244b615332565b60028484604051808383808284378083019250505092505050908152602001604051809103902061014060405190810160405290816000820160009054906101000a900460ff161515151581526020016000820160019054906101000a900460ff1615151515815260200160018201548152602001600282015481526020016003820180548060200260200160405190810160405280929190818152602001828054801561251857602002820191906000526020600020905b815481526020019060010190808311612504575b505050505081526020016004820160009054906101000a900473ffffffffffffffffffffffffffffffffffffffff1673ffffffffffffffffffffffffffffffffffffffff1673ffffffffffffffffffffffffffffffffffffffff168152602001600582018054600181600116156101000203166002900480601f0160208091040260200160405190810160405280929190818152602001828054600181600116156101000203166002900480156126105780601f106125e557610100808354040283529160200191612610565b820191906000526020600020905b8154815290600101906020018083116125f357829003601f168201915b50505050508152602001600682018054600181600116156101000203166002900480601f0160208091040260200160405190810160405280929190818152602001828054600181600116156101000203166002900480156126b25780601f10612687576101008083540402835291602001916126b2565b820191906000526020600020905b81548152906001019060200180831161269557829003601f168201915b50505050508152602001600782018054600181600116156101000203166002900480601f0160208091040260200160405190810160405280929190818152602001828054600181600116156101000203166002900480156127545780601f1061272957610100808354040283529160200191612754565b820191906000526020600020905b81548152906001019060200180831161273757829003601f168201915b50505050508152602001600882018054600181600116156101000203166002900480601f0160208091040260200160405190810160405280929190818152602001828054600181600116156101000203166002900480156127f65780601f106127cb576101008083540402835291602001916127f6565b820191906000526020600020905b8154815290600101906020018083116127d957829003601f168201915b5050505050815250509050806040015191505092915050565b60608060608060006060612821615332565b6000808a815260200190815260200160002061014060405190810160405290816000820160009054906101000a900460ff161515151581526020016000820160019054906101000a900460ff161515151581526020016001820154815260200160028201548152602001600382018054806020026020016040519081016040528092919081815260200182805480156128d957602002820191906000526020600020905b8154815260200190600101908083116128c5575b505050505081526020016004820160009054906101000a900473ffffffffffffffffffffffffffffffffffffffff1673ffffffffffffffffffffffffffffffffffffffff1673ffffffffffffffffffffffffffffffffffffffff168152602001600582018054600181600116156101000203166002900480601f0160208091040260200160405190810160405280929190818152602001828054600181600116156101000203166002900480156129d15780601f106129a6576101008083540402835291602001916129d1565b820191906000526020600020905b8154815290600101906020018083116129b457829003601f168201915b50505050508152602001600682018054600181600116156101000203166002900480601f016020809104026020016040519081016040528092919081815260200182805460018160011615610100020316600290048015612a735780601f10612a4857610100808354040283529160200191612a73565b820191906000526020600020905b815481529060010190602001808311612a5657829003601f168201915b50505050508152602001600782018054600181600116156101000203166002900480601f016020809104026020016040519081016040528092919081815260200182805460018160011615610100020316600290048015612b155780601f10612aea57610100808354040283529160200191612b15565b820191906000526020600020905b815481529060010190602001808311612af857829003601f168201915b50505050508152602001600882018054600181600116156101000203166002900480601f016020809104026020016040519081016040528092919081815260200182805460018160011615610100020316600290048015612bb75780601f10612b8c57610100808354040283529160200191612bb7565b820191906000526020600020905b815481529060010190602001808311612b9a57829003601f168201915b5050505050815250509050612bca6153a6565b600360008360600151815260200190815260200160002061010060405190810160405290816000820154815260200160018201548152602001600282015481526020016003820160009054906101000a900473ffffffffffffffffffffffffffffffffffffffff1673ffffffffffffffffffffffffffffffffffffffff1673ffffffffffffffffffffffffffffffffffffffff168152602001600482018054600181600116156101000203166002900480601f016020809104026020016040519081016040528092919081815260200182805460018160011615610100020316600290048015612cfb5780601f10612cd057610100808354040283529160200191612cfb565b820191906000526020600020905b815481529060010190602001808311612cde57829003601f168201915b50505050508152602001600582018054600181600116156101000203166002900480601f016020809104026020016040519081016040528092919081815260200182805460018160011615610100020316600290048015612d9d5780601f10612d7257610100808354040283529160200191612d9d565b820191906000526020600020905b815481529060010190602001808311612d8057829003601f168201915b50505050508152602001600682018054600181600116156101000203166002900480601f016020809104026020016040519081016040528092919081815260200182805460018160011615610100020316600290048015612e3f5780601f10612e1457610100808354040283529160200191612e3f565b820191906000526020600020905b815481529060010190602001808311612e2257829003601f168201915b50505050508152602001600782018054600181600116156101000203166002900480601f016020809104026020016040519081016040528092919081815260200182805460018160011615610100020316600290048015612ee15780601f10612eb657610100808354040283529160200191612ee1565b820191906000526020600020905b815481529060010190602001808311612ec457829003601f168201915b50505050508152505090507f6c617465737400000000000000000000000000000000000000000000000000008914151561323457600360008a815260200190815260200160002061010060405190810160405290816000820154815260200160018201548152602001600282015481526020016003820160009054906101000a900473ffffffffffffffffffffffffffffffffffffffff1673ffffffffffffffffffffffffffffffffffffffff1673ffffffffffffffffffffffffffffffffffffffff168152602001600482018054600181600116156101000203166002900480601f0160208091040260200160405190810160405280929190818152602001828054600181600116156101000203166002900480156130425780601f1061301757610100808354040283529160200191613042565b820191906000526020600020905b81548152906001019060200180831161302557829003601f168201915b50505050508152602001600582018054600181600116156101000203166002900480601f0160208091040260200160405190810160405280929190818152602001828054600181600116156101000203166002900480156130e45780601f106130b9576101008083540402835291602001916130e4565b820191906000526020600020905b8154815290600101906020018083116130c757829003601f168201915b50505050508152602001600682018054600181600116156101000203166002900480601f0160208091040260200160405190810160405280929190818152602001828054600181600116156101000203166002900480156131865780601f1061315b57610100808354040283529160200191613186565b820191906000526020600020905b81548152906001019060200180831161316957829003601f168201915b50505050508152602001600782018054600181600116156101000203166002900480601f0160208091040260200160405190810160405280929190818152602001828054600181600116156101000203166002900480156132285780601f106131fd57610100808354040283529160200191613228565b820191906000526020600020905b81548152906001019060200180831161320b57829003601f168201915b50505050508152505090505b8160c001518260e0015182608001518360a001518460400151866080015185955084945083935082925080905097509750975097509750975050509295509295509295565b60036020528060005260406000206000915090508060000154908060010154908060020154908060030160009054906101000a900473ffffffffffffffffffffffffffffffffffffffff1690806004018054600181600116156101000203166002900480601f01602080910402602001604051908101604052809291908181526020018280546001816001161561010002031660029004801561335d5780601f106133325761010080835404028352916020019161335d565b820191906000526020600020905b81548152906001019060200180831161334057829003601f168201915b505050505090806005018054600181600116156101000203166002900480601f0160208091040260200160405190810160405280929190818152602001828054600181600116156101000203166002900480156133fb5780601f106133d0576101008083540402835291602001916133fb565b820191906000526020600020905b8154815290600101906020018083116133de57829003601f168201915b505050505090806006018054600181600116156101000203166002900480601f0160208091040260200160405190810160405280929190818152602001828054600181600116156101000203166002900480156134995780601f1061346e57610100808354040283529160200191613499565b820191906000526020600020905b81548152906001019060200180831161347c57829003601f168201915b505050505090806007018054600181600116156101000203166002900480601f0160208091040260200160405190810160405280929190818152602001828054600181600116156101000203166002900480156135375780601f1061350c57610100808354040283529160200191613537565b820191906000526020600020905b81548152906001019060200180831161351a57829003601f168201915b5050505050905088565b606080606061354e615332565b60008087815260200190815260200160002061014060405190810160405290816000820160009054906101000a900460ff161515151581526020016000820160019054906101000a900460ff1615151515815260200160018201548152602001600282015481526020016003820180548060200260200160405190810160405280929190818152602001828054801561360657602002820191906000526020600020905b8154815260200190600101908083116135f2575b505050505081526020016004820160009054906101000a900473ffffffffffffffffffffffffffffffffffffffff1673ffffffffffffffffffffffffffffffffffffffff1673ffffffffffffffffffffffffffffffffffffffff168152602001600582018054600181600116156101000203166002900480601f0160208091040260200160405190810160405280929190818152602001828054600181600116156101000203166002900480156136fe5780601f106136d3576101008083540402835291602001916136fe565b820191906000526020600020905b8154815290600101906020018083116136e157829003601f168201915b50505050508152602001600682018054600181600116156101000203166002900480601f0160208091040260200160405190810160405280929190818152602001828054600181600116156101000203166002900480156137a05780601f10613775576101008083540402835291602001916137a0565b820191906000526020600020905b81548152906001019060200180831161378357829003601f168201915b50505050508152602001600782018054600181600116156101000203166002900480601f0160208091040260200160405190810160405280929190818152602001828054600181600116156101000203166002900480156138425780601f1061381757610100808354040283529160200191613842565b820191906000526020600020905b81548152906001019060200180831161382557829003601f168201915b50505050508152602001600882018054600181600116156101000203166002900480601f0160208091040260200160405190810160405280929190818152602001828054600181600116156101000203166002900480156138e45780601f106138b9576101008083540402835291602001916138e4565b820191906000526020600020905b8154815290600101906020018083116138c757829003601f168201915b50505050508152505090506138f76153a6565b600360008360600151815260200190815260200160002061010060405190810160405290816000820154815260200160018201548152602001600282015481526020016003820160009054906101000a900473ffffffffffffffffffffffffffffffffffffffff1673ffffffffffffffffffffffffffffffffffffffff1673ffffffffffffffffffffffffffffffffffffffff168152602001600482018054600181600116156101000203166002900480601f016020809104026020016040519081016040528092919081815260200182805460018160011615610100020316600290048015613a285780601f106139fd57610100808354040283529160200191613a28565b820191906000526020600020905b815481529060010190602001808311613a0b57829003601f168201915b50505050508152602001600582018054600181600116156101000203166002900480601f016020809104026020016040519081016040528092919081815260200182805460018160011615610100020316600290048015613aca5780601f10613a9f57610100808354040283529160200191613aca565b820191906000526020600020905b815481529060010190602001808311613aad57829003601f168201915b50505050508152602001600682018054600181600116156101000203166002900480601f016020809104026020016040519081016040528092919081815260200182805460018160011615610100020316600290048015613b6c5780601f10613b4157610100808354040283529160200191613b6c565b820191906000526020600020905b815481529060010190602001808311613b4f57829003601f168201915b50505050508152602001600782018054600181600116156101000203166002900480601f016020809104026020016040519081016040528092919081815260200182805460018160011615610100020316600290048015613c0e5780601f10613be357610100808354040283529160200191613c0e565b820191906000526020600020905b815481529060010190602001808311613bf157829003601f168201915b50505050508152505090507f6c6174657374000000000000000000000000000000000000000000000000000086141515613f61576003600087815260200190815260200160002061010060405190810160405290816000820154815260200160018201548152602001600282015481526020016003820160009054906101000a900473ffffffffffffffffffffffffffffffffffffffff1673ffffffffffffffffffffffffffffffffffffffff1673ffffffffffffffffffffffffffffffffffffffff168152602001600482018054600181600116156101000203166002900480601f016020809104026020016040519081016040528092919081815260200182805460018160011615610100020316600290048015613d6f5780601f10613d4457610100808354040283529160200191613d6f565b820191906000526020600020905b815481529060010190602001808311613d5257829003601f168201915b50505050508152602001600582018054600181600116156101000203166002900480601f016020809104026020016040519081016040528092919081815260200182805460018160011615610100020316600290048015613e115780601f10613de657610100808354040283529160200191613e11565b820191906000526020600020905b815481529060010190602001808311613df457829003601f168201915b50505050508152602001600682018054600181600116156101000203166002900480601f016020809104026020016040519081016040528092919081815260200182805460018160011615610100020316600290048015613eb35780601f10613e8857610100808354040283529160200191613eb3565b820191906000526020600020905b815481529060010190602001808311613e9657829003601f168201915b50505050508152602001600782018054600181600116156101000203166002900480601f016020809104026020016040519081016040528092919081815260200182805460018160011615610100020316600290048015613f555780601f10613f2a57610100808354040283529160200191613f55565b820191906000526020600020905b815481529060010190602001808311613f3857829003601f168201915b50505050508152505090505b8060e0015182610100015183610120015182925081915080905094509450945050509250925092565b600781815481101515613f9957fe5b906000526020600020016000915054906101000a900473ffffffffffffffffffffffffffffffffffffffff1681565b60008060008781526020019081526020016000209050600082511415156142665760606140336040805190810160405280600181526020017f3b0000000000000000000000000000000000000000000000000000000000000081525084614ec990919063ffffffff16565b905060008090505b815181101561426357826002838381518110151561405557fe5b906020019060200201516040518082805190602001908083835b602083101515614094578051825260208201915060208101905060208303925061406f565b6001836020036101000a03801982511681845116808217855250505050505090500191505090815260200160405180910390206000820160009054906101000a900460ff168160000160006101000a81548160ff0219169083151502179055506000820160019054906101000a900460ff168160000160016101000a81548160ff0219169083151502179055506001820154816001015560028201548160020155600382018160030190805461414b929190615408565b506004820160009054906101000a900473ffffffffffffffffffffffffffffffffffffffff168160040160006101000a81548173ffffffffffffffffffffffffffffffffffffffff021916908373ffffffffffffffffffffffffffffffffffffffff160217905550600582018160050190805460018160011615610100020316600290046141da92919061545a565b506006820181600601908054600181600116156101000203166002900461420292919061545a565b506007820181600701908054600181600116156101000203166002900461422a92919061545a565b506008820181600801908054600181600116156101000203166002900461425292919061545a565b50905050808060010191505061403b565b50505b6000423388604051602001808481526020018373ffffffffffffffffffffffffffffffffffffffff1673ffffffffffffffffffffffffffffffffffffffff166c0100000000000000000000000002815260140182815260200193505050506040516020818303038152906040528051906020012090506000600360008381526020019081526020016000209050818160000181905550428160020181905550826002015481600101819055508260040160009054906101000a900473ffffffffffffffffffffffffffffffffffffffff168160030160006101000a81548173ffffffffffffffffffffffffffffffffffffffff021916908373ffffffffffffffffffffffffffffffffffffffff16021790555086816004019080519060200190614391929190615265565b50858160050190805190602001906143aa929190615265565b50848160060190805190602001906143c3929190615265565b50838160070190805190602001906143dc929190615265565b506004829080600181540180825580915050906001820390600052602060002001600090919290919091505550826003018290806001815401808255809150509060018203906000526020600020016000909192909190915055508183600201819055505050505050505050565b60018181548110151561445957fe5b906000526020600020016000915090505481565b60056020528160005260406000208181548110151561448857fe5b90600052602060002001600091509150505481565b60606144a7615332565b60008085815260200190815260200160002061014060405190810160405290816000820160009054906101000a900460ff161515151581526020016000820160019054906101000a900460ff1615151515815260200160018201548152602001600282015481526020016003820180548060200260200160405190810160405280929190818152602001828054801561455f57602002820191906000526020600020905b81548152602001906001019080831161454b575b505050505081526020016004820160009054906101000a900473ffffffffffffffffffffffffffffffffffffffff1673ffffffffffffffffffffffffffffffffffffffff1673ffffffffffffffffffffffffffffffffffffffff168152602001600582018054600181600116156101000203166002900480601f0160208091040260200160405190810160405280929190818152602001828054600181600116156101000203166002900480156146575780601f1061462c57610100808354040283529160200191614657565b820191906000526020600020905b81548152906001019060200180831161463a57829003601f168201915b50505050508152602001600682018054600181600116156101000203166002900480601f0160208091040260200160405190810160405280929190818152602001828054600181600116156101000203166002900480156146f95780601f106146ce576101008083540402835291602001916146f9565b820191906000526020600020905b8154815290600101906020018083116146dc57829003601f168201915b50505050508152602001600782018054600181600116156101000203166002900480601f01602080910402602001604051908101604052809291908181526020018280546001816001161561010002031660029004801561479b5780601f106147705761010080835404028352916020019161479b565b820191906000526020600020905b81548152906001019060200180831161477e57829003601f168201915b50505050508152602001600882018054600181600116156101000203166002900480601f01602080910402602001604051908101604052809291908181526020018280546001816001161561010002031660029004801561483d5780601f106148125761010080835404028352916020019161483d565b820191906000526020600020905b81548152906001019060200180831161482057829003601f168201915b50505050508152505090506148506153a6565b600360008360600151815260200190815260200160002061010060405190810160405290816000820154815260200160018201548152602001600282015481526020016003820160009054906101000a900473ffffffffffffffffffffffffffffffffffffffff1673ffffffffffffffffffffffffffffffffffffffff1673ffffffffffffffffffffffffffffffffffffffff168152602001600482018054600181600116156101000203166002900480601f0160208091040260200160405190810160405280929190818152602001828054600181600116156101000203166002900480156149815780601f1061495657610100808354040283529160200191614981565b820191906000526020600020905b81548152906001019060200180831161496457829003601f168201915b50505050508152602001600582018054600181600116156101000203166002900480601f016020809104026020016040519081016040528092919081815260200182805460018160011615610100020316600290048015614a235780601f106149f857610100808354040283529160200191614a23565b820191906000526020600020905b815481529060010190602001808311614a0657829003601f168201915b50505050508152602001600682018054600181600116156101000203166002900480601f016020809104026020016040519081016040528092919081815260200182805460018160011615610100020316600290048015614ac55780601f10614a9a57610100808354040283529160200191614ac5565b820191906000526020600020905b815481529060010190602001808311614aa857829003601f168201915b50505050508152602001600782018054600181600116156101000203166002900480601f016020809104026020016040519081016040528092919081815260200182805460018160011615610100020316600290048015614b675780601f10614b3c57610100808354040283529160200191614b67565b820191906000526020600020905b815481529060010190602001808311614b4a57829003601f168201915b50505050508152505090507f6c6174657374000000000000000000000000000000000000000000000000000084141515614eba576003600085815260200190815260200160002061010060405190810160405290816000820154815260200160018201548152602001600282015481526020016003820160009054906101000a900473ffffffffffffffffffffffffffffffffffffffff1673ffffffffffffffffffffffffffffffffffffffff1673ffffffffffffffffffffffffffffffffffffffff168152602001600482018054600181600116156101000203166002900480601f016020809104026020016040519081016040528092919081815260200182805460018160011615610100020316600290048015614cc85780601f10614c9d57610100808354040283529160200191614cc8565b820191906000526020600020905b815481529060010190602001808311614cab57829003601f168201915b50505050508152602001600582018054600181600116156101000203166002900480601f016020809104026020016040519081016040528092919081815260200182805460018160011615610100020316600290048015614d6a5780601f10614d3f57610100808354040283529160200191614d6a565b820191906000526020600020905b815481529060010190602001808311614d4d57829003601f168201915b50505050508152602001600682018054600181600116156101000203166002900480601f016020809104026020016040519081016040528092919081815260200182805460018160011615610100020316600290048015614e0c5780601f10614de157610100808354040283529160200191614e0c565b820191906000526020600020905b815481529060010190602001808311614def57829003601f168201915b50505050508152602001600782018054600181600116156101000203166002900480601f016020809104026020016040519081016040528092919081815260200182805460018160011615610100020316600290048015614eae5780601f10614e8357610100808354040283529160200191614eae565b820191906000526020600020905b815481529060010190602001808311614e9157829003601f168201915b50505050508152505090505b8060c001519250505092915050565b60608083905060008090506000600190505b6001835103821015614f38576000614ef48787856150fa565b90507fffffffffffffffffffffffffffffffffffffffffffffffffffffffffffffffff811415614f245750614f38565b818060010192505060018101925050614edb565b80604051908082528060200260200182016040528015614f6c57816020015b6060815260200190600190039081614f575790505b50935060009150600090505b60018351038210156150ee576000614f918787856150fa565b90507fffffffffffffffffffffffffffffffffffffffffffffffffffffffffffffffff811415614fc057835190505b60608382036040519080825280601f01601f191660200182016040528015614ff75781602001600182028038833980820191505090505b5090506060819050600080905060008690505b848110156150bc57878181518110151561502057fe5b9060200101517f010000000000000000000000000000000000000000000000000000000000000090047f010000000000000000000000000000000000000000000000000000000000000002838380600101945081518110151561507f57fe5b9060200101907effffffffffffffffffffffffffffffffffffffffffffffffffffffffffffff1916908160001a905350808060010191505061500a565b506001840195508188868060010197508151811015156150d857fe5b9060200190602002018190525050505050614f78565b83935050505092915050565b6000606084905060608490506001815114151561511357fe5b60008490505b82518110156152375781600081518110151561513157fe5b9060200101517f010000000000000000000000000000000000000000000000000000000000000090047f0100000000000000000000000000000000000000000000000000000000000000027effffffffffffffffffffffffffffffffffffffffffffffffffffffffffffff191683828151811015156151ac57fe5b9060200101517f010000000000000000000000000000000000000000000000000000000000000090047f0100000000000000000000000000000000000000000000000000000000000000027effffffffffffffffffffffffffffffffffffffffffffffffffffffffffffff1916141561522a5780935050505061525e565b8080600101915050615119565b507fffffffffffffffffffffffffffffffffffffffffffffffffffffffffffffffff925050505b9392505050565b828054600181600116156101000203166002900490600052602060002090601f016020900481019282601f106152a657805160ff19168380011785556152d4565b828001600101855582156152d4579182015b828111156152d35782518255916020019190600101906152b8565b5b5090506152e191906154e1565b5090565b828054828255906000526020600020908101928215615321579160200282015b82811115615320578251825591602001919060010190615305565b5b50905061532e9190615506565b5090565b61014060405190810160405280600015158152602001600015158152602001600080191681526020016000801916815260200160608152602001600073ffffffffffffffffffffffffffffffffffffffff168152602001606081526020016060815260200160608152602001606081525090565b61010060405190810160405280600080191681526020016000801916815260200160008152602001600073ffffffffffffffffffffffffffffffffffffffff168152602001606081526020016060815260200160608152602001606081525090565b8280548282559060005260206000209081019282156154495760005260206000209182015b8281111561544857825482559160010191906001019061542d565b5b5090506154569190615506565b5090565b828054600181600116156101000203166002900490600052602060002090601f016020900481019282601f1061549357805485556154d0565b828001600101855582156154d057600052602060002091601f016020900482015b828111156154cf5782548255916001019190600101906154b4565b5b5090506154dd91906154e1565b5090565b61550391905b808211156154ff5760008160009055506001016154e7565b5090565b90565b61552891905b8082111561552457600081600090555060010161550c565b5090565b9056fea165627a7a72305820b895b6f26735ecc078d1613726c8d2daa8319333f4e43e90c2e13f32e193c80e0029",
  "source": "pragma solidity ^0.5.0;\n\nimport \"./PassageModel.sol\";\nimport \"solidity-util/lib/Strings.sol\";\nimport \"solidity-util/lib/Integers.sol\";\nimport \"solidity-util/lib/Addresses.sol\";\n\ncontract ApplicationManagement is PassageModel{\n    using Strings for string;\n\n\n    function createProduct(\n      string memory _name,\n      string memory _description,\n      string memory _latitude,\n      string memory _longitude,\n      string memory _customJsonData,\n      string memory _deviceClientName\n    ) public returns (bytes32 productId) {\n    \n        // Generate a pseudo-random product ID\n        // from the current time and the sender's address\n        bytes32 newProductId = keccak256(abi.encodePacked(now, msg.sender));\n\n        // Create product\n        Product storage product = productIdToProductStruct[newProductId];\n\n        // Define product\n        product.productId = newProductId;\n        product.latestVersionId = \"0\"; // temporary value that gets replaced in updateProduct()\n        product.versions = new bytes32[](0); // empty array at first\n        product.exists = true;\n        product.archived = false;\n        product.owner = msg.sender;\n\n        product.name = _name;\n        product.description = _description;\n        product.temperatureAlerts = \"\";\n        product.locationAlerts = \"\";\n\n        // Add new product ID\n        productIds.push(newProductId);\n\n        // Add product ID to account\n        ownerToProductsId[msg.sender].push(newProductId);\n\n        // Create initial product version\n        updateProduct(newProductId, _latitude, _longitude, _customJsonData, _deviceClientName);\n\n        // Fire an event to announce the creation of the product\n        emit ProductCreated(newProductId, msg.sender);\n        return newProductId;\n    }\n\n    function addTemperaturAlert(\n        bytes32 _productId,\n        string memory _alertData\n    ) public returns (string memory newAlert) {\n        // Get base product from storage\n        Product storage product = productIdToProductStruct[_productId];\n        product.temperatureAlerts = _alertData;\n        return product.temperatureAlerts;\n    }\n\n    function addLocationAlert(\n        bytes32 _productId,\n        string memory _alertData\n    ) public returns (string memory newAlert) {\n        // Get base product from storage\n        Product storage product = productIdToProductStruct[_productId];\n        product.locationAlerts = _alertData;\n        return product.locationAlerts;\n    }\n\n//    event productAlertAdded(bytes32 productId, bytes32 deviceID, );\n\n    function updateProduct(\n      bytes32 _productId, \n      string memory _latitude,\n      string memory _longitude,\n      string memory _customJsonData,\n      string memory _deviceClientName\n    ) public {\n        Product storage product = productIdToProductStruct[_productId];\n        if (bytes(_deviceClientName).length != 0) {\n            string[] memory linkedDevices = _deviceClientName.split(\";\");\n            for (uint i = 0; i < linkedDevices.length; i++) {\n                deviceClientNameToProductStruct[linkedDevices[i]] = product;\n            }\n        }\n        bytes32 newVersionId = keccak256(abi.encodePacked(now, msg.sender, _productId));\n        ProductVersion storage version = versionIdToVersionStruct[newVersionId];\n        version.versionId = newVersionId;\n        version.creationDate = now;\n        version.previousVersionId = product.latestVersionId;\n        version.owner = product.owner;\n        version.latitude = _latitude;\n        version.longitude = _longitude;\n        version.customJsonData = _customJsonData;\n        version.deviceClientName = _deviceClientName;\n        productVersionIds.push(newVersionId);\n        product.versions.push(newVersionId);\n        product.latestVersionId = newVersionId;\n    }\n    function getProductByDeviceClientName(string calldata _deviceClientName) external view returns (bytes32 productId) {\n        // Get the requested product from storage\n        Product memory product = deviceClientNameToProductStruct[_deviceClientName];\n        return product.productId;\n    }\n\n    function getProductByIdExtra(bytes32 _productId, bytes32 specificVersionId) external view returns (string memory deviceClientName, string memory tempAlertStr, string memory locAlertStr) {\n        Product memory product = productIdToProductStruct[_productId];\n        ProductVersion memory requestedVersion = versionIdToVersionStruct[product.latestVersionId];\n        if (specificVersionId != \"latest\") {\n            // Get the requested product version\n            requestedVersion = versionIdToVersionStruct[specificVersionId];\n        }\n        return (requestedVersion.deviceClientName, product.temperatureAlerts, product.locationAlerts);\n    }\n\n    function getProductById(bytes32 _productId, bytes32 specificVersionId) external view returns (string memory name, string memory description, string memory _latitude, string memory _longitude, uint versionCreationDate, bytes32[] memory versions) {\n//        returns (string name, string description, string _latitude, string _longitude, uint versionCreationDate, bytes32[] versions, bytes32[] certificationsIds) {\n\n      // Get the requested product from storage\n      Product memory product = productIdToProductStruct[_productId];\n\n      // Initialize a variable that will hold the requested product version struct\n      ProductVersion memory requestedVersion = versionIdToVersionStruct[product.latestVersionId];\n      if (specificVersionId != \"latest\") {\n        // Get the requested product version\n        requestedVersion = versionIdToVersionStruct[specificVersionId];\n      }\n\n      // Return the requested data\n      return (product.name, product.description, requestedVersion.latitude, requestedVersion.longitude, requestedVersion.creationDate, product.versions);\n    }\n\n    function getProductCustomDataById(bytes32 _productId, bytes32 specificVersionId) external view returns (string memory customJsonData) {\n\n        // Get the requested product from storage\n        Product memory product = productIdToProductStruct[_productId];\n\n        // Initialize a variable that will hold the requested product version struct\n        ProductVersion memory requestedVersion = versionIdToVersionStruct[product.latestVersionId];\n\n        if (specificVersionId != \"latest\") {\n          // Get the requested product version\n          requestedVersion = versionIdToVersionStruct[specificVersionId];\n        }\n\n        // Return the requested data\n        return (requestedVersion.customJsonData);\n    }\n\n\n    function getOwnerProducts() external view returns (bytes32[] memory productsIds) {\n\n        bytes32[] memory ownedProductsIds = ownerToProductsId[msg.sender];\n        bytes32[] memory activeProducts = new bytes32[](ownedProductsIds.length);\n\n        for (uint i = 0; i < ownedProductsIds.length; ++i) {\n            if (!productIdToProductStruct[ownedProductsIds[i]].archived) {\n                activeProducts[i] = ownedProductsIds[i];\n            }\n        }\n\n        return activeProducts;\n    }\n\n    function getVersionLatLngById(bytes32 _versionId) external view returns (string memory latitude, string memory longitude) {\n\n        // Get the requested version from storage\n        ProductVersion storage version = versionIdToVersionStruct[_versionId];\n\n        // Return the requested data\n        return (version.latitude, version.longitude);\n    }\n\n    event ProductCreated(bytes32 newProductId, address indexed owner);\n}\n\n",
  "sourcePath": "/Users/kimwang/Desktop/895/leshan/blockchain-integration/contracts/ApplicationManagement.sol",
  "compiler": {
    "name": "solc",
    "version": "0.5.0+commit.1d4f565a.Emscripten.clang"
  },
  "schemaVersion": "3.0.20",
  "updatedAt": "2020-06-06T06:05:57.221Z",
  "networkType": "ethereum",
  "devdoc": {
    "methods": {}
  },
  "userdoc": {
    "methods": {}
  }
}