{
  "contractName": "DeviceManager",
  "abi": [
    {
      "anonymous": false,
      "inputs": [
        {
          "indexed": true,
          "internalType": "uint256",
          "name": "deviceId",
          "type": "uint256"
        },
        {
          "indexed": true,
          "internalType": "address",
          "name": "owner",
          "type": "address"
        },
        {
          "indexed": false,
          "internalType": "bytes32",
          "name": "identifier",
          "type": "bytes32"
        },
        {
          "indexed": false,
          "internalType": "bytes32",
          "name": "metadataHash",
          "type": "bytes32"
        },
        {
          "indexed": false,
          "internalType": "bytes32",
          "name": "firmwareHash",
          "type": "bytes32"
        }
      ],
      "name": "DeviceCreated",
      "type": "event"
    },
    {
      "anonymous": false,
      "inputs": [
        {
          "indexed": true,
          "internalType": "uint256",
          "name": "deviceId",
          "type": "uint256"
        },
        {
          "indexed": true,
          "internalType": "bytes32",
          "name": "property",
          "type": "bytes32"
        },
        {
          "indexed": false,
          "internalType": "bytes32",
          "name": "newValue",
          "type": "bytes32"
        }
      ],
      "name": "DevicePropertyUpdated",
      "type": "event"
    },
    {
      "anonymous": false,
      "inputs": [
        {
          "indexed": true,
          "internalType": "uint256",
          "name": "signatureId",
          "type": "uint256"
        },
        {
          "indexed": true,
          "internalType": "uint256",
          "name": "deviceId",
          "type": "uint256"
        },
        {
          "indexed": true,
          "internalType": "address",
          "name": "signer",
          "type": "address"
        },
        {
          "indexed": false,
          "internalType": "uint256",
          "name": "expiryTime",
          "type": "uint256"
        }
      ],
      "name": "DeviceSigned",
      "type": "event"
    },
    {
      "anonymous": false,
      "inputs": [
        {
          "indexed": true,
          "internalType": "uint256",
          "name": "deviceId",
          "type": "uint256"
        },
        {
          "indexed": false,
          "internalType": "address",
          "name": "oldOwner",
          "type": "address"
        },
        {
          "indexed": false,
          "internalType": "address",
          "name": "newOwner",
          "type": "address"
        }
      ],
      "name": "DeviceTransfered",
      "type": "event"
    },
    {
      "anonymous": false,
      "inputs": [
        {
          "indexed": true,
          "internalType": "address",
          "name": "owner",
          "type": "address"
        },
        {
          "indexed": false,
          "internalType": "string",
          "name": "newData",
          "type": "string"
        }
      ],
      "name": "EntityDataUpdated",
      "type": "event"
    },
    {
      "anonymous": false,
      "inputs": [
        {
          "indexed": true,
          "internalType": "uint256",
          "name": "signatureId",
          "type": "uint256"
        },
        {
          "indexed": true,
          "internalType": "uint256",
          "name": "deviceId",
          "type": "uint256"
        }
      ],
      "name": "SignatureRevoked",
      "type": "event"
    },
    {
      "constant": false,
      "inputs": [
        {
          "internalType": "bytes32",
          "name": "_identifier",
          "type": "bytes32"
        },
        {
          "internalType": "bytes32",
          "name": "_metadataHash",
          "type": "bytes32"
        },
        {
          "internalType": "bytes32",
          "name": "_firmwareHash",
          "type": "bytes32"
        },
        {
          "internalType": "bytes32",
          "name": "_productID",
          "type": "bytes32"
        }
      ],
      "name": "createDevice",
      "outputs": [
        {
          "internalType": "uint256",
          "name": "",
          "type": "uint256"
        }
      ],
      "payable": false,
      "stateMutability": "nonpayable",
      "type": "function"
    },
    {
      "constant": true,
      "inputs": [
        {
          "internalType": "uint256",
          "name": "",
          "type": "uint256"
        }
      ],
      "name": "deviceSignatureCount",
      "outputs": [
        {
          "internalType": "uint256",
          "name": "",
          "type": "uint256"
        }
      ],
      "payable": false,
      "stateMutability": "view",
      "type": "function"
    },
    {
      "constant": true,
      "inputs": [
        {
          "internalType": "uint256",
          "name": "",
          "type": "uint256"
        }
      ],
      "name": "devices",
      "outputs": [
        {
          "internalType": "address",
          "name": "owner",
          "type": "address"
        },
        {
          "internalType": "bytes32",
          "name": "identifier",
          "type": "bytes32"
        },
        {
          "internalType": "bytes32",
          "name": "metadataHash",
          "type": "bytes32"
        },
        {
          "internalType": "bytes32",
          "name": "firmwareHash",
          "type": "bytes32"
        },
        {
          "internalType": "bytes32",
          "name": "productID",
          "type": "bytes32"
        }
      ],
      "payable": false,
      "stateMutability": "view",
      "type": "function"
    },
    {
      "constant": true,
      "inputs": [
        {
          "internalType": "uint256",
          "name": "_deviceId",
          "type": "uint256"
        }
      ],
      "name": "getActiveSignaturesForDevice",
      "outputs": [
        {
          "internalType": "uint256[]",
          "name": "",
          "type": "uint256[]"
        }
      ],
      "payable": false,
      "stateMutability": "view",
      "type": "function"
    },
    {
      "constant": true,
      "inputs": [
        {
          "internalType": "address",
          "name": "_owner",
          "type": "address"
        }
      ],
      "name": "getDevicesByOwner",
      "outputs": [
        {
          "internalType": "uint256[]",
          "name": "",
          "type": "uint256[]"
        }
      ],
      "payable": false,
      "stateMutability": "view",
      "type": "function"
    },
    {
      "constant": true,
      "inputs": [
        {
          "internalType": "uint256",
          "name": "_deviceId",
          "type": "uint256"
        }
      ],
      "name": "getFirmwarehash",
      "outputs": [
        {
          "internalType": "bytes32",
          "name": "",
          "type": "bytes32"
        }
      ],
      "payable": false,
      "stateMutability": "view",
      "type": "function"
    },
    {
      "constant": true,
      "inputs": [
        {
          "internalType": "uint256",
          "name": "_deviceId",
          "type": "uint256"
        }
      ],
      "name": "getLinkedProductId",
      "outputs": [
        {
          "internalType": "bytes32",
          "name": "",
          "type": "bytes32"
        }
      ],
      "payable": false,
      "stateMutability": "view",
      "type": "function"
    },
    {
      "constant": true,
      "inputs": [
        {
          "internalType": "uint256",
          "name": "_deviceId",
          "type": "uint256"
        }
      ],
      "name": "isDeviceAnEntity",
      "outputs": [
        {
          "internalType": "bool",
          "name": "",
          "type": "bool"
        }
      ],
      "payable": false,
      "stateMutability": "view",
      "type": "function"
    },
    {
      "constant": true,
      "inputs": [
        {
          "internalType": "uint256",
          "name": "_deviceId",
          "type": "uint256"
        },
        {
          "internalType": "bytes32",
          "name": "_messageHash",
          "type": "bytes32"
        },
        {
          "internalType": "bytes",
          "name": "_signature",
          "type": "bytes"
        }
      ],
      "name": "isValidEthMessage",
      "outputs": [
        {
          "internalType": "bool",
          "name": "",
          "type": "bool"
        }
      ],
      "payable": false,
      "stateMutability": "view",
      "type": "function"
    },
    {
      "constant": true,
      "inputs": [
        {
          "internalType": "uint256",
          "name": "_deviceId",
          "type": "uint256"
        },
        {
          "internalType": "bytes32",
          "name": "_firmwareHash",
          "type": "bytes32"
        }
      ],
      "name": "isValidFirmwareHash",
      "outputs": [
        {
          "internalType": "bool",
          "name": "",
          "type": "bool"
        }
      ],
      "payable": false,
      "stateMutability": "view",
      "type": "function"
    },
    {
      "constant": true,
      "inputs": [
        {
          "internalType": "uint256",
          "name": "_deviceId",
          "type": "uint256"
        },
        {
          "internalType": "bytes32[]",
          "name": "_proof",
          "type": "bytes32[]"
        },
        {
          "internalType": "bytes32",
          "name": "_leaf",
          "type": "bytes32"
        }
      ],
      "name": "isValidMetadataMember",
      "outputs": [
        {
          "internalType": "bool",
          "name": "",
          "type": "bool"
        }
      ],
      "payable": false,
      "stateMutability": "view",
      "type": "function"
    },
    {
      "constant": true,
      "inputs": [
        {
          "internalType": "address",
          "name": "",
          "type": "address"
        }
      ],
      "name": "ownerDeviceCount",
      "outputs": [
        {
          "internalType": "uint256",
          "name": "",
          "type": "uint256"
        }
      ],
      "payable": false,
      "stateMutability": "view",
      "type": "function"
    },
    {
      "constant": true,
      "inputs": [
        {
          "internalType": "address",
          "name": "",
          "type": "address"
        }
      ],
      "name": "ownerToEntity",
      "outputs": [
        {
          "internalType": "string",
          "name": "data",
          "type": "string"
        }
      ],
      "payable": false,
      "stateMutability": "view",
      "type": "function"
    },
    {
      "constant": false,
      "inputs": [
        {
          "internalType": "uint256",
          "name": "_signatureId",
          "type": "uint256"
        }
      ],
      "name": "revokeSignature",
      "outputs": [],
      "payable": false,
      "stateMutability": "nonpayable",
      "type": "function"
    },
    {
      "constant": false,
      "inputs": [
        {
          "internalType": "uint256",
          "name": "_deviceId",
          "type": "uint256"
        },
        {
          "internalType": "uint256",
          "name": "_expiryTime",
          "type": "uint256"
        }
      ],
      "name": "signDevice",
      "outputs": [
        {
          "internalType": "uint256",
          "name": "",
          "type": "uint256"
        }
      ],
      "payable": false,
      "stateMutability": "nonpayable",
      "type": "function"
    },
    {
      "constant": true,
      "inputs": [
        {
          "internalType": "uint256",
          "name": "",
          "type": "uint256"
        }
      ],
      "name": "signatures",
      "outputs": [
        {
          "internalType": "address",
          "name": "signer",
          "type": "address"
        },
        {
          "internalType": "uint256",
          "name": "deviceId",
          "type": "uint256"
        },
        {
          "internalType": "uint256",
          "name": "expiryTime",
          "type": "uint256"
        },
        {
          "internalType": "bool",
          "name": "revoked",
          "type": "bool"
        }
      ],
      "payable": false,
      "stateMutability": "view",
      "type": "function"
    },
    {
      "constant": false,
      "inputs": [
        {
          "internalType": "uint256",
          "name": "_deviceId",
          "type": "uint256"
        },
        {
          "internalType": "address",
          "name": "_to",
          "type": "address"
        }
      ],
      "name": "transferDevice",
      "outputs": [],
      "payable": false,
      "stateMutability": "nonpayable",
      "type": "function"
    },
    {
      "constant": false,
      "inputs": [
        {
          "internalType": "string",
          "name": "_data",
          "type": "string"
        }
      ],
      "name": "updateEntityData",
      "outputs": [],
      "payable": false,
      "stateMutability": "nonpayable",
      "type": "function"
    },
    {
      "constant": false,
      "inputs": [
        {
          "internalType": "uint256",
          "name": "_deviceId",
          "type": "uint256"
        },
        {
          "internalType": "bytes32",
          "name": "_newFirmwareHash",
          "type": "bytes32"
        }
      ],
      "name": "updateFirmwareHash",
      "outputs": [],
      "payable": false,
      "stateMutability": "nonpayable",
      "type": "function"
    },
    {
      "constant": false,
      "inputs": [
        {
          "internalType": "uint256",
          "name": "_deviceId",
          "type": "uint256"
        },
        {
          "internalType": "bytes32",
          "name": "_newIdentifier",
          "type": "bytes32"
        }
      ],
      "name": "updateIdentifier",
      "outputs": [],
      "payable": false,
      "stateMutability": "nonpayable",
      "type": "function"
    },
    {
      "constant": false,
      "inputs": [
        {
          "internalType": "uint256",
          "name": "_deviceId",
          "type": "uint256"
        },
        {
          "internalType": "bytes32",
          "name": "_newMetadataHash",
          "type": "bytes32"
        }
      ],
      "name": "updateMetadataHash",
      "outputs": [],
      "payable": false,
      "stateMutability": "nonpayable",
      "type": "function"
    },
    {
      "constant": false,
      "inputs": [
        {
          "internalType": "uint256",
          "name": "_deviceId",
          "type": "uint256"
        },
        {
          "internalType": "bytes32",
          "name": "_newProductID",
          "type": "bytes32"
        }
      ],
      "name": "updateProductID",
      "outputs": [],
      "payable": false,
      "stateMutability": "nonpayable",
      "type": "function"
    }
  ],
  "bytecode": "0x608060405234801561001057600080fd5b50612420806100206000396000f3fe608060405234801561001057600080fd5b50600436106101425760003560e01c80636480907c116100b8578063aa554c9d1161007c578063aa554c9d146107a6578063acbcb507146107f2578063b0bd9fda146108af578063b22d439d146108f1578063c40613df14610941578063ee23578314610a2557610142565b80636480907c146105315780637b33bc65146105735780638be10194146105b55780638e9075be1461063c5780639de9662d1461072357610142565b806333cd0eb11161010a57806333cd0eb1146102df5780633da1f79a1461033f57806351b0e9871461036d578063533293ab146104065780635a3f79d21461043e5780636231fb0b146104f957610142565b8063038531df1461014757806307f637001461017f5780630bcb88e8146101b757806310ff8e31146101fd5780632a08e60114610287575b600080fd5b61017d6004803603604081101561015d57600080fd5b810190808035906020019092919080359060200190929190505050610a73565b005b6101b56004803603604081101561019557600080fd5b810190808035906020019092919080359060200190929190505050610c06565b005b6101e3600480360360208110156101cd57600080fd5b8101908080359060200190929190505050610df2565b604051808215151515815260200191505060405180910390f35b6102296004803603602081101561021357600080fd5b8101908080359060200190929190505050610e89565b604051808673ffffffffffffffffffffffffffffffffffffffff1673ffffffffffffffffffffffffffffffffffffffff1681526020018581526020018481526020018381526020018281526020019550505050505060405180910390f35b6102c96004803603602081101561029d57600080fd5b81019080803573ffffffffffffffffffffffffffffffffffffffff169060200190929190505050610eec565b6040518082815260200191505060405180910390f35b610329600480360360808110156102f557600080fd5b8101908080359060200190929190803590602001909291908035906020019092919080359060200190929190505050610f04565b6040518082815260200191505060405180910390f35b61036b6004803603602081101561035557600080fd5b81019080803590602001909291905050506110ad565b005b6103af6004803603602081101561038357600080fd5b81019080803573ffffffffffffffffffffffffffffffffffffffff169060200190929190505050611291565b6040518080602001828103825283818151815260200191508051906020019060200280838360005b838110156103f25780820151818401526020810190506103d7565b505050509050019250505060405180910390f35b61043c6004803603604081101561041c57600080fd5b8101908080359060200190929190803590602001909291905050506113c9565b005b6104f76004803603602081101561045457600080fd5b810190808035906020019064010000000081111561047157600080fd5b82018360208201111561048357600080fd5b803590602001918460018302840111640100000000831117156104a557600080fd5b91908080601f016020809104026020016040519081016040528093929190818152602001838380828437600081840152601f19601f8201169050808301925050505050505091929192905050506115b5565b005b61052f6004803603604081101561050f57600080fd5b8101908080359060200190929190803590602001909291905050506116c1565b005b61055d6004803603602081101561054757600080fd5b81019080803590602001909291905050506118ad565b6040518082815260200191505060405180910390f35b61059f6004803603602081101561058957600080fd5b81019080803590602001909291905050506118d5565b6040518082815260200191505060405180910390f35b6105e1600480360360208110156105cb57600080fd5b81019080803590602001909291905050506118fd565b604051808573ffffffffffffffffffffffffffffffffffffffff1673ffffffffffffffffffffffffffffffffffffffff1681526020018481526020018381526020018215151515815260200194505050505060405180910390f35b6107096004803603606081101561065257600080fd5b8101908080359060200190929190803590602001909291908035906020019064010000000081111561068357600080fd5b82018360208201111561069557600080fd5b803590602001918460018302840111640100000000831117156106b757600080fd5b91908080601f016020809104026020016040519081016040528093929190818152602001838380828437600081840152601f19601f820116905080830192505050505050509192919290505050611967565b604051808215151515815260200191505060405180910390f35b61074f6004803603602081101561073957600080fd5b81019080803590602001909291905050506119cb565b6040518080602001828103825283818151815260200191508051906020019060200280838360005b83811015610792578082015181840152602081019050610777565b505050509050019250505060405180910390f35b6107dc600480360360408110156107bc57600080fd5b810190808035906020019092919080359060200190929190505050611ac6565b6040518082815260200191505060405180910390f35b6108346004803603602081101561080857600080fd5b81019080803573ffffffffffffffffffffffffffffffffffffffff169060200190929190505050611c3c565b6040518080602001828103825283818151815260200191508051906020019080838360005b83811015610874578082015181840152602081019050610859565b50505050905090810190601f1680156108a15780820380516001836020036101000a031916815260200191505b509250505060405180910390f35b6108db600480360360208110156108c557600080fd5b8101908080359060200190929190505050611cf2565b6040518082815260200191505060405180910390f35b6109276004803603604081101561090757600080fd5b810190808035906020019092919080359060200190929190505050611d0a565b604051808215151515815260200191505060405180910390f35b610a0b6004803603606081101561095757600080fd5b81019080803590602001909291908035906020019064010000000081111561097e57600080fd5b82018360208201111561099057600080fd5b803590602001918460208302840111640100000000831117156109b257600080fd5b919080806020026020016040519081016040528093929190818152602001838360200280828437600081840152601f19601f82011690508083019250505050505050919291929080359060200190929190505050611d59565b604051808215151515815260200191505060405180910390f35b610a7160048036036040811015610a3b57600080fd5b8101908080359060200190929190803573ffffffffffffffffffffffffffffffffffffffff169060200190929190505050611d8d565b005b813373ffffffffffffffffffffffffffffffffffffffff1660018281548110610a9857fe5b906000526020600020906005020160000160009054906101000a900473ffffffffffffffffffffffffffffffffffffffff1673ffffffffffffffffffffffffffffffffffffffff1614610b53576040517f08c379a00000000000000000000000000000000000000000000000000000000081526004018080602001828103825260158152602001807f4f6e6c7920666f7220646576696365206f776e6572000000000000000000000081525060200191505060405180910390fd5b826000600460008381526020019081526020016000205414610bdd576040517f08c379a00000000000000000000000000000000000000000000000000000000081526004018080602001828103825260128152602001807f4d757374206e6f74206265207369676e6564000000000000000000000000000081525060200191505060405180910390fd5b8260018581548110610beb57fe5b90600052602060002090600502016004018190555050505050565b813373ffffffffffffffffffffffffffffffffffffffff1660018281548110610c2b57fe5b906000526020600020906005020160000160009054906101000a900473ffffffffffffffffffffffffffffffffffffffff1673ffffffffffffffffffffffffffffffffffffffff1614610ce6576040517f08c379a00000000000000000000000000000000000000000000000000000000081526004018080602001828103825260158152602001807f4f6e6c7920666f7220646576696365206f776e6572000000000000000000000081525060200191505060405180910390fd5b826000600460008381526020019081526020016000205414610d70576040517f08c379a00000000000000000000000000000000000000000000000000000000081526004018080602001828103825260128152602001807f4d757374206e6f74206265207369676e6564000000000000000000000000000081525060200191505060405180910390fd5b8260018581548110610d7e57fe5b9060005260206000209060050201600201819055507f6d65746164617461000000000000000000000000000000000000000000000000847f67ace838aca3988a026b61036d72b93a8316d05feecb6ee10316e8d59f0e687f856040518082815260200191505060405180910390a350505050565b600060018281548110610e0157fe5b90600052602060002090600502016001015460001c73ffffffffffffffffffffffffffffffffffffffff1660018381548110610e3957fe5b906000526020600020906005020160000160009054906101000a900473ffffffffffffffffffffffffffffffffffffffff1673ffffffffffffffffffffffffffffffffffffffff16149050919050565b60018181548110610e9657fe5b90600052602060002090600502016000915090508060000160009054906101000a900473ffffffffffffffffffffffffffffffffffffffff16908060010154908060020154908060030154908060040154905085565b60026020528060005260406000206000915090505481565b6000610f0e612270565b6040518060a001604052803373ffffffffffffffffffffffffffffffffffffffff1681526020018781526020018681526020018581526020018481525090506000600180839080600181540180825580915050906001820390600052602060002090600502016000909192909190915060008201518160000160006101000a81548173ffffffffffffffffffffffffffffffffffffffff021916908373ffffffffffffffffffffffffffffffffffffffff160217905550602082015181600101556040820151816002015560608201518160030155608082015181600401555050039050600260003373ffffffffffffffffffffffffffffffffffffffff1673ffffffffffffffffffffffffffffffffffffffff168152602001908152602001600020600081548092919060010191905055503373ffffffffffffffffffffffffffffffffffffffff16817f093aad13dfa930f4f2311a7f59be1c3674ccc072b729756c22447948a2c0520089898960405180848152602001838152602001828152602001935050505060405180910390a38092505050949350505050565b3373ffffffffffffffffffffffffffffffffffffffff16600382815481106110d157fe5b906000526020600020906004020160000160009054906101000a900473ffffffffffffffffffffffffffffffffffffffff1673ffffffffffffffffffffffffffffffffffffffff161461116f576040517f08c379a00000000000000000000000000000000000000000000000000000000081526004018080602001828103825260218152602001806123a76021913960400191505060405180910390fd5b600015156003828154811061118057fe5b906000526020600020906004020160030160009054906101000a900460ff161515146111f7576040517f08c379a00000000000000000000000000000000000000000000000000000000081526004018080602001828103825260248152602001806123c86024913960400191505060405180910390fd5b60006003828154811061120657fe5b9060005260206000209060040201905060018160030160006101000a81548160ff021916908315150217905550600460008260010154815260200190815260200160002060008154809291906001900391905055508060010154827ff93d5095ac7696e643e1fa0aa35d622f4a13e11f4e199f30794679dcdcdb973760405160405180910390a35050565b606080600260008473ffffffffffffffffffffffffffffffffffffffff1673ffffffffffffffffffffffffffffffffffffffff168152602001908152602001600020546040519080825280602002602001820160405280156113025781602001602082028038833980820191505090505b509050600080905060008090505b6001805490508110156113be578473ffffffffffffffffffffffffffffffffffffffff166001828154811061134157fe5b906000526020600020906005020160000160009054906101000a900473ffffffffffffffffffffffffffffffffffffffff1673ffffffffffffffffffffffffffffffffffffffff1614156113b1578083838151811061139c57fe5b60200260200101818152505081806001019250505b8080600101915050611310565b508192505050919050565b813373ffffffffffffffffffffffffffffffffffffffff16600182815481106113ee57fe5b906000526020600020906005020160000160009054906101000a900473ffffffffffffffffffffffffffffffffffffffff1673ffffffffffffffffffffffffffffffffffffffff16146114a9576040517f08c379a00000000000000000000000000000000000000000000000000000000081526004018080602001828103825260158152602001807f4f6e6c7920666f7220646576696365206f776e6572000000000000000000000081525060200191505060405180910390fd5b826000600460008381526020019081526020016000205414611533576040517f08c379a00000000000000000000000000000000000000000000000000000000081526004018080602001828103825260128152602001807f4d757374206e6f74206265207369676e6564000000000000000000000000000081525060200191505060405180910390fd5b826001858154811061154157fe5b9060005260206000209060050201600101819055507f6964656e74696669657200000000000000000000000000000000000000000000847f67ace838aca3988a026b61036d72b93a8316d05feecb6ee10316e8d59f0e687f856040518082815260200191505060405180910390a350505050565b806000803373ffffffffffffffffffffffffffffffffffffffff1673ffffffffffffffffffffffffffffffffffffffff168152602001908152602001600020600001908051906020019061160a9291906122c1565b503373ffffffffffffffffffffffffffffffffffffffff167f53d207b6cf416d44764c48a52a7e64ffa2793f67215d452a032a11e0dd34bd2c826040518080602001828103825283818151815260200191508051906020019080838360005b83811015611684578082015181840152602081019050611669565b50505050905090810190601f1680156116b15780820380516001836020036101000a031916815260200191505b509250505060405180910390a250565b813373ffffffffffffffffffffffffffffffffffffffff16600182815481106116e657fe5b906000526020600020906005020160000160009054906101000a900473ffffffffffffffffffffffffffffffffffffffff1673ffffffffffffffffffffffffffffffffffffffff16146117a1576040517f08c379a00000000000000000000000000000000000000000000000000000000081526004018080602001828103825260158152602001807f4f6e6c7920666f7220646576696365206f776e6572000000000000000000000081525060200191505060405180910390fd5b82600060046000838152602001908152602001600020541461182b576040517f08c379a00000000000000000000000000000000000000000000000000000000081526004018080602001828103825260128152602001807f4d757374206e6f74206265207369676e6564000000000000000000000000000081525060200191505060405180910390fd5b826001858154811061183957fe5b9060005260206000209060050201600301819055507f6669726d77617265000000000000000000000000000000000000000000000000847f67ace838aca3988a026b61036d72b93a8316d05feecb6ee10316e8d59f0e687f856040518082815260200191505060405180910390a350505050565b6000600182815481106118bc57fe5b9060005260206000209060050201600301549050919050565b6000600182815481106118e457fe5b9060005260206000209060050201600401549050919050565b6003818154811061190a57fe5b90600052602060002090600402016000915090508060000160009054906101000a900473ffffffffffffffffffffffffffffffffffffffff16908060010154908060020154908060030160009054906101000a900460ff16905084565b60006001848154811061197657fe5b90600052602060002090600502016001015460001c73ffffffffffffffffffffffffffffffffffffffff166119ab84846120d5565b73ffffffffffffffffffffffffffffffffffffffff161490509392505050565b6060806004600084815260200190815260200160002054604051908082528060200260200182016040528015611a105781602001602082028038833980820191505090505b509050600080905060008090505b600380549050811015611abb578460038281548110611a3957fe5b906000526020600020906004020160010154148015611a8757506000151560038281548110611a6457fe5b906000526020600020906004020160030160009054906101000a900460ff161515145b15611aae5780838381518110611a9957fe5b60200260200101818152505081806001019250505b8080600101915050611a1e565b508192505050919050565b6000611ad0612341565b60405180608001604052803373ffffffffffffffffffffffffffffffffffffffff168152602001858152602001848152602001600015158152509050600060016003839080600181540180825580915050906001820390600052602060002090600402016000909192909190915060008201518160000160006101000a81548173ffffffffffffffffffffffffffffffffffffffff021916908373ffffffffffffffffffffffffffffffffffffffff160217905550602082015181600101556040820151816002015560608201518160030160006101000a81548160ff021916908315150217905550505003905060046000868152602001908152602001600020600081548092919060010191905055503373ffffffffffffffffffffffffffffffffffffffff1685827f3739f348a11e3a029a385b4746ea6edba7f01ceec207010638e9d17862b78c40876040518082815260200191505060405180910390a4809250505092915050565b6000602052806000526040600020600091509050806000018054600181600116156101000203166002900480601f016020809104026020016040519081016040528092919081815260200182805460018160011615610100020316600290048015611ce85780601f10611cbd57610100808354040283529160200191611ce8565b820191906000526020600020905b815481529060010190602001808311611ccb57829003601f168201915b5050505050905081565b60046020528060005260406000206000915090505481565b60008060018481548110611d1a57fe5b90600052602060002090600502016003015490508260018581548110611d3c57fe5b906000526020600020906005020160030154141591505092915050565b6000611d848360018681548110611d6c57fe5b906000526020600020906005020160020154846121b7565b90509392505050565b813373ffffffffffffffffffffffffffffffffffffffff1660018281548110611db257fe5b906000526020600020906005020160000160009054906101000a900473ffffffffffffffffffffffffffffffffffffffff1673ffffffffffffffffffffffffffffffffffffffff1614611e6d576040517f08c379a00000000000000000000000000000000000000000000000000000000081526004018080602001828103825260158152602001807f4f6e6c7920666f7220646576696365206f776e6572000000000000000000000081525060200191505060405180910390fd5b826000600460008381526020019081526020016000205414611ef7576040517f08c379a00000000000000000000000000000000000000000000000000000000081526004018080602001828103825260128152602001807f4d757374206e6f74206265207369676e6564000000000000000000000000000081525060200191505060405180910390fd5b600060018581548110611f0657fe5b906000526020600020906005020160000160009054906101000a900473ffffffffffffffffffffffffffffffffffffffff1690508360018681548110611f4857fe5b906000526020600020906005020160000160006101000a81548173ffffffffffffffffffffffffffffffffffffffff021916908373ffffffffffffffffffffffffffffffffffffffff160217905550600260003373ffffffffffffffffffffffffffffffffffffffff1673ffffffffffffffffffffffffffffffffffffffff1681526020019081526020016000206000815480929190600190039190505550600260008573ffffffffffffffffffffffffffffffffffffffff1673ffffffffffffffffffffffffffffffffffffffff16815260200190815260200160002060008154809291906001019190505550847f848155b8e733cfd6e7258639111d906437ddb051818f4061fc4c7cfbc575cb2e8286604051808373ffffffffffffffffffffffffffffffffffffffff1673ffffffffffffffffffffffffffffffffffffffff1681526020018273ffffffffffffffffffffffffffffffffffffffff1673ffffffffffffffffffffffffffffffffffffffff1681526020019250505060405180910390a25050505050565b60008060008060418551146120f057600093505050506121b1565b6020850151925060408501519150606085015160001a9050601b8160ff16101561211b57601b810190505b601b8160ff16141580156121335750601c8160ff1614155b1561214457600093505050506121b1565b60018682858560405160008152602001604052604051808581526020018460ff1660ff1681526020018381526020018281526020019450505050506020604051602081039080840390855afa1580156121a1573d6000803e3d6000fd5b5050506020604051035193505050505b92915050565b60008082905060008090505b85518110156122625760008682815181106121da57fe5b60200260200101519050808310156122225782816040516020018083815260200182815260200192505050604051602081830303815290604052805190602001209250612254565b808360405160200180838152602001828152602001925050506040516020818303038152906040528051906020012092505b5080806001019150506121c3565b508381149150509392505050565b6040518060a00160405280600073ffffffffffffffffffffffffffffffffffffffff168152602001600080191681526020016000801916815260200160008019168152602001600080191681525090565b828054600181600116156101000203166002900490600052602060002090601f016020900481019282601f1061230257805160ff1916838001178555612330565b82800160010185558215612330579182015b8281111561232f578251825591602001919060010190612314565b5b50905061233d9190612381565b5090565b6040518060800160405280600073ffffffffffffffffffffffffffffffffffffffff16815260200160008152602001600081526020016000151581525090565b6123a391905b8082111561239f576000816000905550600101612387565b5090565b9056fe4f6e6c7920666f722063726561746f72206f6620746865207369676e61747572655369676e6174757265206d7573746e2774206265207265766f6b656420616c7265616479a265627a7a72315820f736f5ddd2d3ad3e5c19808feb794c33c0475aa80a5b3aad39d7c1af948b348364736f6c634300050c0032",
  "source": "pragma solidity ^0.5.0;\n\nimport \"./MerkleProof.sol\";\nimport \"./ECRecovery.sol\";\n\n/**\n * @title Provides base functionalities for entities.\n */\ncontract EntityBase {\n    /// @dev Entity in the device management system.\n    struct Entity {\n        // Arbitary data in case entity wants to have some public information available.\n        string data;\n    }\n\n    /// @notice Maps owner to an Entity structure.\n    mapping (address => Entity) public ownerToEntity;\n\n    /// @dev Fired on entity data update.\n    event EntityDataUpdated(address indexed owner, string newData);\n\n    /**\n     * @notice Update entity data.\n     * @param _data Entity data.\n     */\n    function updateEntityData(string memory _data) public {\n        ownerToEntity[msg.sender].data = _data;\n\n        emit EntityDataUpdated(msg.sender, _data);\n    }\n}\n\n/**\n * @title Provides base functionalities for devices.\n */\ncontract DeviceBase {\n    /// @dev Main device structucture.\n    struct Device {\n        // Ethereum address of a device owner.\n        address owner;\n\n        // Unique device identifier. Can hold anything that fits into 32 bytes. Different from device ID.\n        // Supposed to be a public key or a representation of one, such as fingerprint of RSA/ECC \n        // public key or simply an Ethereum address. To make identifier be an Ethereum address, \n        // use secp256k1 curve to generate public and private key pair, run keccak256 hash function\n        // on public key and take last 20 bytes of generated hash to get Ethereum address.\n        // If a device wants to be it's own entity, use same address as in owner property.\n        bytes32 identifier;\n        \n        // Merkle root hash of metadata or simple hash of concatenated data.\n        // It is recommended to use Merkle tree to store information on device as it enables to \n        // prove membership of specific data by providing Merkle proof without revealing whole dataset.\n        bytes32 metadataHash;\n\n        // Holds a hash of actual firmware hash. Actual firmware hash is not supposed to be stored.\n        // Plain text or hash would expose data that is meant to be private, so \"hash of hash\" principle \n        // gives privacy and makes integrity verification possible.\n        bytes32 firmwareHash;\n\n        //product ID that the device is linked to\n        bytes32 productID;\n\n        // Additional data linked to device. Can be used to store hash of encrypted firmware on IPFS.\n        //string offchainLink;\n\n        // Full public key (even though parties can exchange public key other ways then use\n        // blockchain to verify.)\n        //string publicKey;\n    }\n    \n    /// @notice State variable for storing devices. Index in the array is also a device ID.\n    /// Array can hold a maximum of 2^256-1 entries.\n    Device[] public devices;\n\n    /// @notice Keeps track of total devices for each owner.\n    mapping (address => uint) public ownerDeviceCount;\n\n    /// @dev Fired on creation of new device.\n    event DeviceCreated(uint indexed deviceId, address indexed owner, bytes32 identifier, bytes32 metadataHash, bytes32 firmwareHash);\n\n    /// @dev Modifier for ensuring that the message sender is owner of provided device ID.\n    modifier onlyOwnerOf(uint _deviceId) {\n        require(devices[_deviceId].owner == msg.sender, \"Only for device owner\");\n        _;\n    }\n\n    /**\n     * @notice Creates and saves device into storage. Emits DeviceCreated. \n     * @param _identifier Unique device identifier, such as fingerprint of RSA/ECC public key or Ethereum address (recommended).\n     * @param _metadataHash Merkle root hash of metadata (recommended) or simple hash of concatenated metadata.\n     * @param _firmwareHash Hash of actual firmware hash.\n     * @return Created device ID.\n     */\n    function createDevice(bytes32 _identifier, bytes32 _metadataHash, bytes32 _firmwareHash, bytes32 _productID) public returns (uint) {\n        Device memory newDevice = Device(msg.sender, _identifier, _metadataHash, _firmwareHash, _productID);\n        uint deviceId = devices.push(newDevice) - 1;\n        ownerDeviceCount[msg.sender]++;\n\n        emit DeviceCreated(deviceId, msg.sender, _identifier, _metadataHash, _firmwareHash);\n        return deviceId;\n    }\n}\n\n/**\n * @title Provides extra functionalities for devices.\n */\ncontract DeviceHelper is DeviceBase {\n   /**\n     * @notice Gets all devices owned by specified address. \n     * @dev Use this function instead of filtering DeviceCreated event since devices could have been transferred between owners.\n     * @param _owner Owner address.\n     * @return Array of device IDs.\n     */\n    function getDevicesByOwner(address _owner) public view returns (uint[] memory) {\n        uint[] memory deviceIds = new uint[](ownerDeviceCount[_owner]);\n        uint counter = 0;\n        for (uint i = 0; i < devices.length; i++) {\n            if (devices[i].owner == _owner) {\n                deviceIds[counter] = i;\n                counter++;\n            }\n        }\n        return deviceIds;\n    }\n\n    function getLinkedProductId(uint _deviceId) public view returns (bytes32) {\n        return devices[_deviceId].productID;\n    }\n\n    function getFirmwarehash(uint _deviceId) public view returns (bytes32) {\n        return devices[_deviceId].firmwareHash;\n    }\n    /**\n     * @notice Checks if device is also an entity. \n     * @param _deviceId ID of a  device.\n     * @return Boolean status.\n     */\n    function isDeviceAnEntity(uint _deviceId) public view returns (bool) {\n        return devices[_deviceId].owner == address(uint160(uint256(devices[_deviceId].identifier)));\n    }\n\n    /**\n     * @notice Checks if provided leaves are members of metadata contained in Merkle tree.\n     * Assumes that each pair of leaves and each pair of pre-images are sorted.\n     * @param _deviceId ID of a device containing metadata hash.\n     * @param _proof Merkle proof containing sibling hashes on the branch from the leaf to the root of the Merkle tree.\n     * @param _leaf Leaf of Merkle tree.\n     * @return Boolean status.\n     */\n    function isValidMetadataMember(uint _deviceId, bytes32[] memory _proof, bytes32 _leaf) public view returns (bool) {\n        return MerkleProof.verifyProof(_proof, devices[_deviceId].metadataHash, _leaf);\n    }\n\n    /**\n     * @notice Checks if provided firmware hash is equal to firmware hash device property. \n     * @param _deviceId ID of a device containing firmware hash.\n     * @param _firmwareHash Firmware hash (not the actual hash).\n     * @return Boolean status.\n     */\n    function isValidFirmwareHash(uint _deviceId, bytes32 _firmwareHash) public view returns (bool) {\n        bytes32 current = devices[_deviceId].firmwareHash;\n        return devices[_deviceId].firmwareHash != _firmwareHash;\n    }\n\n//\n//    function printFirmwareHashCurrent(uint _deviceId, bytes32 _firmwareHash) public view returns (bytes32) {\n//        bytes32 current = devices[_deviceId].firmwareHash;\n//        return current;\n//    }\n//    function printFirmwareHash(uint _deviceId, bytes32 _firmwareHash) public view returns (bytes32) {\n//        return _firmwareHash;\n//    }\n\n    /**\n     * @notice Validate authenticity of message signed by Etherium private key.\n     * On-chain validation is available only for Ethereum signed messages.\n     * @param _deviceId ID of a device that signed the message.\n     * @param _messageHash Hash of sent message.\n     * @param _signature Signature generated using web3.eth.sign().\n     * @return Boolean status.\n     */\n    function isValidEthMessage(uint _deviceId, bytes32 _messageHash, bytes memory _signature) public view returns (bool) {\n        return ECRecovery.recover(_messageHash, _signature) == address(uint160(uint256(devices[_deviceId].identifier)));\n    }\n}\n\n/**\n * @title Provides base functionalities for signatures.\n */\ncontract SignatureBase {\n    /// @dev Main signature structucture.\n    struct Signature {\n        // Ethereum address of the signer.\n        address signer;\n\n        // ID of device to sign.\n        uint deviceId;\n\n        // Using 256 bits ensures no overflow on year 2038 (Unix seconds).\n        uint expiryTime;\n\n        // Updates to true once signer decides to revoke signature.\n        bool revoked;\n    }\n\n    /// @notice State variable for storing signatures. Index in the array is also a signature ID.\n    /// Array can hold a maximum of 2^256-1 entries.\n    Signature[] public signatures;\n\n    /// @notice Keeps track of total signatures for each device.\n    mapping (uint => uint) public deviceSignatureCount;\n    \n    /// @dev Fired when an address signs a device.\n    event DeviceSigned(uint indexed signatureId, uint indexed deviceId, address indexed signer, uint expiryTime);\n\n    /// @dev Fired when signature is revoked.\n    event SignatureRevoked(uint indexed signatureId, uint indexed deviceId);\n\n    /// @dev Modifier for ensuring that the device hasn't been signed already.\n    modifier notSigned(uint _deviceId) {\n        require(deviceSignatureCount[_deviceId] == 0, \"Must not be signed\");\n        _;\n    }\n\n    /**\n     * @notice Signs a device and signature into storage. Emits DeviceSigned. \n     * @param _deviceId ID of to be signed device.\n     * @param _expiryTime Expiry time in Unix seconds.\n     * @return Created signature ID.\n     */\n    function signDevice(uint _deviceId, uint _expiryTime) public returns (uint) {\n        Signature memory signature = Signature(msg.sender, _deviceId, _expiryTime, false);\n        uint signatureId = signatures.push(signature) - 1;\n        deviceSignatureCount[_deviceId]++;\n\n        emit DeviceSigned(signatureId, _deviceId, msg.sender, _expiryTime);\n        return signatureId;\n    }\n\n    /**\n     * @notice Revokes a signature. Emits SignatureRevoked. \n     * @param _signatureId ID of to be revoked signature.\n     */\n    function revokeSignature(uint _signatureId) public {\n        require(signatures[_signatureId].signer == msg.sender, \"Only for creator of the signature\");\n        require(signatures[_signatureId].revoked == false, \"Signature mustn't be revoked already\");\n        Signature storage signature = signatures[_signatureId];\n        signature.revoked = true;\n        deviceSignatureCount[signature.deviceId]--;\n\n        emit SignatureRevoked(_signatureId, signature.deviceId);\n    }\n}\n\n/**\n * @title Provides extra functionalities for signatures.\n */\ncontract SignatureHelper is SignatureBase {\n    /**\n     * @notice Gets all signatures for specific device. \n     * @dev Use this function instead of filtering DeviceSigned event since signatures could have been revoked.\n     * @param _deviceId ID of a device.\n     * @return Array of signature IDs.\n     */\n    function getActiveSignaturesForDevice(uint _deviceId) public view returns (uint[] memory) {\n        uint[] memory signatureIds = new uint[](deviceSignatureCount[_deviceId]);\n        uint counter = 0;\n        for (uint i = 0; i < signatures.length; i++) {\n            if (signatures[i].deviceId == _deviceId && signatures[i].revoked == false) {\n                signatureIds[counter] = i;\n                counter++;\n            }\n        }\n        return signatureIds;\n    }\n}\n\n/**\n * @title Enriches devices giving them option to be updated only if not signed already.\n */\ncontract DeviceUpdatable is DeviceHelper, SignatureHelper {\n    /// @dev Fired on device ownership transfer, keeps track of historical device owners.\n    event DeviceTransfered(uint indexed deviceId, address oldOwner, address newOwner);\n    \n    /// @dev Fired on device property update, keeps track of historical property values.\n    event DevicePropertyUpdated(uint indexed deviceId, bytes32 indexed property, bytes32 newValue);\n\n    /**\n     * @notice Transfer device ownership from one external account to another. Emits DeviceTransfered.\n     * @param _deviceId ID of to be transfered device.\n     * @param _to Address of new owner.\n     */\n    function transferDevice(uint _deviceId, address _to) public onlyOwnerOf(_deviceId) notSigned(_deviceId) {\n        address currentOwner = devices[_deviceId].owner;\n        devices[_deviceId].owner = _to;\n        ownerDeviceCount[msg.sender]--;\n        ownerDeviceCount[_to]++;\n\n        emit DeviceTransfered(_deviceId, currentOwner, _to);\n    } \n\n    /**\n     * @notice Update device with new identifier. Emits DevicePropertyUpdated.\n     * @param _deviceId ID of a device.\n     * @param _newIdentifier New identifier.\n     */\n    function updateIdentifier(uint _deviceId, bytes32 _newIdentifier) public onlyOwnerOf(_deviceId) notSigned(_deviceId) {\n        devices[_deviceId].identifier = _newIdentifier;\n\n        emit DevicePropertyUpdated(_deviceId, \"identifier\", _newIdentifier);\n    }\n\n    /**\n     * @notice Update device with new metadata hash. Emits DevicePropertyUpdated.\n     * @param _deviceId ID of a device.\n     * @param _newMetadataHash New metadata hash.\n     */\n    function updateMetadataHash(uint _deviceId, bytes32 _newMetadataHash) public onlyOwnerOf(_deviceId) notSigned(_deviceId) {\n        devices[_deviceId].metadataHash = _newMetadataHash;\n\n        emit DevicePropertyUpdated(_deviceId, \"metadata\", _newMetadataHash);\n    }\n\n    /**\n     * @notice Update device with new firmware hash. Emits DevicePropertyUpdated.\n     * @param _deviceId ID of a device.\n     * @param _newFirmwareHash New firmware hash.\n     */\n    function updateFirmwareHash(uint _deviceId, bytes32 _newFirmwareHash) public onlyOwnerOf(_deviceId) notSigned(_deviceId) {\n        devices[_deviceId].firmwareHash = _newFirmwareHash;\n\n        emit DevicePropertyUpdated(_deviceId, \"firmware\", _newFirmwareHash);\n    }\n\n    function updateProductID(uint _deviceId, bytes32 _newProductID) public onlyOwnerOf(_deviceId) notSigned(_deviceId) {\n        devices[_deviceId].productID = _newProductID;\n\n    }\n\n}\n\n/// @title Device manager core contract.\ncontract DeviceManager is EntityBase, DeviceUpdatable {\n    /// @dev Merges contracts.\n}\n",
  "sourcePath": "/Users/kimwang/Desktop/foodtrace/food-trace/deviceManagement/contracts/DeviceManager.sol",
  "compiler": {
    "name": "solc",
    "version": "0.5.12+commit.7709ece9.Emscripten.clang"
  },
  "schemaVersion": "3.0.20",
  "updatedAt": "2020-04-25T01:54:16.672Z",
  "networkType": "ethereum",
  "devdoc": {
    "methods": {
      "createDevice(bytes32,bytes32,bytes32,bytes32)": {
        "params": {
          "_firmwareHash": "Hash of actual firmware hash.",
          "_identifier": "Unique device identifier, such as fingerprint of RSA/ECC public key or Ethereum address (recommended).",
          "_metadataHash": "Merkle root hash of metadata (recommended) or simple hash of concatenated metadata."
        },
        "return": "Created device ID."
      },
      "getActiveSignaturesForDevice(uint256)": {
        "details": "Use this function instead of filtering DeviceSigned event since signatures could have been revoked.",
        "params": {
          "_deviceId": "ID of a device."
        },
        "return": "Array of signature IDs."
      },
      "getDevicesByOwner(address)": {
        "details": "Use this function instead of filtering DeviceCreated event since devices could have been transferred between owners.",
        "params": {
          "_owner": "Owner address."
        },
        "return": "Array of device IDs."
      },
      "isDeviceAnEntity(uint256)": {
        "params": {
          "_deviceId": "ID of a  device."
        },
        "return": "Boolean status."
      },
      "isValidEthMessage(uint256,bytes32,bytes)": {
        "params": {
          "_deviceId": "ID of a device that signed the message.",
          "_messageHash": "Hash of sent message.",
          "_signature": "Signature generated using web3.eth.sign()."
        },
        "return": "Boolean status."
      },
      "isValidFirmwareHash(uint256,bytes32)": {
        "params": {
          "_deviceId": "ID of a device containing firmware hash.",
          "_firmwareHash": "Firmware hash (not the actual hash)."
        },
        "return": "Boolean status."
      },
      "isValidMetadataMember(uint256,bytes32[],bytes32)": {
        "params": {
          "_deviceId": "ID of a device containing metadata hash.",
          "_leaf": "Leaf of Merkle tree.",
          "_proof": "Merkle proof containing sibling hashes on the branch from the leaf to the root of the Merkle tree."
        },
        "return": "Boolean status."
      },
      "revokeSignature(uint256)": {
        "params": {
          "_signatureId": "ID of to be revoked signature."
        }
      },
      "signDevice(uint256,uint256)": {
        "params": {
          "_deviceId": "ID of to be signed device.",
          "_expiryTime": "Expiry time in Unix seconds."
        },
        "return": "Created signature ID."
      },
      "transferDevice(uint256,address)": {
        "params": {
          "_deviceId": "ID of to be transfered device.",
          "_to": "Address of new owner."
        }
      },
      "updateEntityData(string)": {
        "params": {
          "_data": "Entity data."
        }
      },
      "updateFirmwareHash(uint256,bytes32)": {
        "params": {
          "_deviceId": "ID of a device.",
          "_newFirmwareHash": "New firmware hash."
        }
      },
      "updateIdentifier(uint256,bytes32)": {
        "params": {
          "_deviceId": "ID of a device.",
          "_newIdentifier": "New identifier."
        }
      },
      "updateMetadataHash(uint256,bytes32)": {
        "params": {
          "_deviceId": "ID of a device.",
          "_newMetadataHash": "New metadata hash."
        }
      }
    },
    "title": "Device manager core contract."
  },
  "userdoc": {
    "methods": {
      "createDevice(bytes32,bytes32,bytes32,bytes32)": {
        "notice": "Creates and saves device into storage. Emits DeviceCreated. "
      },
      "getActiveSignaturesForDevice(uint256)": {
        "notice": "Gets all signatures for specific device. "
      },
      "getDevicesByOwner(address)": {
        "notice": "Gets all devices owned by specified address. "
      },
      "isDeviceAnEntity(uint256)": {
        "notice": "Checks if device is also an entity. "
      },
      "isValidEthMessage(uint256,bytes32,bytes)": {
        "notice": "Validate authenticity of message signed by Etherium private key. On-chain validation is available only for Ethereum signed messages."
      },
      "isValidFirmwareHash(uint256,bytes32)": {
        "notice": "Checks if provided firmware hash is equal to firmware hash device property. "
      },
      "isValidMetadataMember(uint256,bytes32[],bytes32)": {
        "notice": "Checks if provided leaves are members of metadata contained in Merkle tree. Assumes that each pair of leaves and each pair of pre-images are sorted."
      },
      "revokeSignature(uint256)": {
        "notice": "Revokes a signature. Emits SignatureRevoked. "
      },
      "signDevice(uint256,uint256)": {
        "notice": "Signs a device and signature into storage. Emits DeviceSigned. "
      },
      "transferDevice(uint256,address)": {
        "notice": "Transfer device ownership from one external account to another. Emits DeviceTransfered."
      },
      "updateEntityData(string)": {
        "notice": "Update entity data."
      },
      "updateFirmwareHash(uint256,bytes32)": {
        "notice": "Update device with new firmware hash. Emits DevicePropertyUpdated."
      },
      "updateIdentifier(uint256,bytes32)": {
        "notice": "Update device with new identifier. Emits DevicePropertyUpdated."
      },
      "updateMetadataHash(uint256,bytes32)": {
        "notice": "Update device with new metadata hash. Emits DevicePropertyUpdated."
      }
    }
  }
}