{
  "contractName": "Application",
  "abi": [
    {
      "constant": true,
      "inputs": [
        {
          "name": "",
          "type": "uint256"
        }
      ],
      "name": "devices",
      "outputs": [
        {
          "name": "owner",
          "type": "address"
        },
        {
          "name": "identifier",
          "type": "bytes32"
        },
        {
          "name": "publicKey",
          "type": "string"
        },
        {
          "name": "applicationId",
          "type": "bytes32"
        },
        {
          "name": "applicationName",
          "type": "string"
        },
        {
          "name": "endpointClientName",
          "type": "string"
        },
        {
          "name": "deactivated",
          "type": "bool"
        },
        {
          "name": "index",
          "type": "uint256"
        }
      ],
      "payable": false,
      "stateMutability": "view",
      "type": "function"
    },
    {
      "constant": true,
      "inputs": [
        {
          "name": "",
          "type": "address"
        }
      ],
      "name": "ownerDeviceCount",
      "outputs": [
        {
          "name": "",
          "type": "uint256"
        }
      ],
      "payable": false,
      "stateMutability": "view",
      "type": "function"
    },
    {
      "constant": true,
      "inputs": [
        {
          "name": "applicationId",
          "type": "bytes32"
        }
      ],
      "name": "getAlertCategoriesByApplicationId",
      "outputs": [
        {
          "name": "categories",
          "type": "string"
        }
      ],
      "payable": false,
      "stateMutability": "view",
      "type": "function"
    },
    {
      "constant": false,
      "inputs": [
        {
          "name": "deviceId",
          "type": "bytes32"
        },
        {
          "name": "applicationId",
          "type": "bytes32"
        },
        {
          "name": "curCategory",
          "type": "string"
        },
        {
          "name": "message",
          "type": "string"
        },
        {
          "name": "timestamp",
          "type": "string"
        },
        {
          "name": "allCategories",
          "type": "string"
        },
        {
          "name": "appCategory",
          "type": "string"
        }
      ],
      "name": "addAlert",
      "outputs": [],
      "payable": false,
      "stateMutability": "nonpayable",
      "type": "function"
    },
    {
      "constant": true,
      "inputs": [
        {
          "name": "appCategory",
          "type": "string"
        }
      ],
      "name": "getAlertMessageByAppCategory",
      "outputs": [
        {
          "name": "messages",
          "type": "string"
        },
        {
          "name": "timestamp",
          "type": "string"
        }
      ],
      "payable": false,
      "stateMutability": "view",
      "type": "function"
    },
    {
      "constant": true,
      "inputs": [
        {
          "name": "",
          "type": "bytes32"
        }
      ],
      "name": "applicationToLinkedDevices",
      "outputs": [
        {
          "name": "",
          "type": "string"
        }
      ],
      "payable": false,
      "stateMutability": "view",
      "type": "function"
    },
    {
      "anonymous": false,
      "inputs": [
        {
          "indexed": true,
          "name": "deviceId",
          "type": "uint256"
        },
        {
          "indexed": true,
          "name": "owner",
          "type": "address"
        },
        {
          "indexed": false,
          "name": "identifier",
          "type": "bytes32"
        },
        {
          "indexed": false,
          "name": "publicKey",
          "type": "string"
        },
        {
          "indexed": false,
          "name": "applicationId",
          "type": "bytes32"
        },
        {
          "indexed": false,
          "name": "applicationName",
          "type": "string"
        },
        {
          "indexed": false,
          "name": "endpointClientName",
          "type": "string"
        },
        {
          "indexed": false,
          "name": "allDevices",
          "type": "string"
        }
      ],
      "name": "DeviceCreated",
      "type": "event"
    },
    {
      "constant": false,
      "inputs": [
        {
          "name": "_identifier",
          "type": "bytes32"
        },
        {
          "name": "_publicKey",
          "type": "string"
        },
        {
          "name": "_applicationId",
          "type": "bytes32"
        },
        {
          "name": "_applicationName",
          "type": "string"
        },
        {
          "name": "_endpointClientName",
          "type": "string"
        },
        {
          "name": "_allDevices",
          "type": "string"
        }
      ],
      "name": "createDevice",
      "outputs": [
        {
          "name": "",
          "type": "uint256"
        }
      ],
      "payable": false,
      "stateMutability": "nonpayable",
      "type": "function"
    },
    {
      "constant": true,
      "inputs": [
        {
          "name": "_appId",
          "type": "bytes32"
        }
      ],
      "name": "getDevicesByAppId",
      "outputs": [
        {
          "name": "",
          "type": "string"
        }
      ],
      "payable": false,
      "stateMutability": "view",
      "type": "function"
    },
    {
      "constant": true,
      "inputs": [
        {
          "name": "_deviceClientName",
          "type": "string"
        }
      ],
      "name": "getAppIdByDeviceClientName",
      "outputs": [
        {
          "name": "",
          "type": "bytes32"
        }
      ],
      "payable": false,
      "stateMutability": "view",
      "type": "function"
    }
  ],
  "bytecode": "0x608060405234801561001057600080fd5b50611ae9806100206000396000f3fe608060405260043610610099576000357c0100000000000000000000000000000000000000000000000000000000900463ffffffff16806310ff8e311461009e5780632a08e6011461027d5780635bbd710b146102e257806360e207801461039657806367bcfdf11461044a5780636c4bfed1146105265780637440d97d1461085e578063ad352e09146109c9578063fe227ff914610a7d575b600080fd5b3480156100aa57600080fd5b506100d7600480360360208110156100c157600080fd5b8101908080359060200190929190505050610d32565b604051808973ffffffffffffffffffffffffffffffffffffffff1673ffffffffffffffffffffffffffffffffffffffff1681526020018881526020018060200187815260200180602001806020018615151515815260200185815260200184810384528a818151815260200191508051906020019080838360005b8381101561016d578082015181840152602081019050610152565b50505050905090810190601f16801561019a5780820380516001836020036101000a031916815260200191505b50848103835288818151815260200191508051906020019080838360005b838110156101d35780820151818401526020810190506101b8565b50505050905090810190601f1680156102005780820380516001836020036101000a031916815260200191505b50848103825287818151815260200191508051906020019080838360005b8381101561023957808201518184015260208101905061021e565b50505050905090810190601f1680156102665780820380516001836020036101000a031916815260200191505b509b50505050505050505050505060405180910390f35b34801561028957600080fd5b506102cc600480360360208110156102a057600080fd5b81019080803573ffffffffffffffffffffffffffffffffffffffff169060200190929190505050610f7e565b6040518082815260200191505060405180910390f35b3480156102ee57600080fd5b5061031b6004803603602081101561030557600080fd5b8101908080359060200190929190505050610f96565b6040518080602001828103825283818151815260200191508051906020019080838360005b8381101561035b578082015181840152602081019050610340565b50505050905090810190601f1680156103885780820380516001836020036101000a031916815260200191505b509250505060405180910390f35b3480156103a257600080fd5b506103cf600480360360208110156103b957600080fd5b810190808035906020019092919050505061104b565b6040518080602001828103825283818151815260200191508051906020019080838360005b8381101561040f5780820151818401526020810190506103f4565b50505050905090810190601f16801561043c5780820380516001836020036101000a031916815260200191505b509250505060405180910390f35b34801561045657600080fd5b506105106004803603602081101561046d57600080fd5b810190808035906020019064010000000081111561048a57600080fd5b82018360208201111561049c57600080fd5b803590602001918460018302840111640100000000831117156104be57600080fd5b91908080601f016020809104026020016040519081016040528093929190818152602001838380828437600081840152601f19601f8201169050808301925050505050505091929192905050506110ff565b6040518082815260200191505060405180910390f35b34801561053257600080fd5b5061085c600480360360e081101561054957600080fd5b8101908080359060200190929190803590602001909291908035906020019064010000000081111561057a57600080fd5b82018360208201111561058c57600080fd5b803590602001918460018302840111640100000000831117156105ae57600080fd5b91908080601f016020809104026020016040519081016040528093929190818152602001838380828437600081840152601f19601f8201169050808301925050505050505091929192908035906020019064010000000081111561061157600080fd5b82018360208201111561062357600080fd5b8035906020019184600183028401116401000000008311171561064557600080fd5b91908080601f016020809104026020016040519081016040528093929190818152602001838380828437600081840152601f19601f820116905080830192505050505050509192919290803590602001906401000000008111156106a857600080fd5b8201836020820111156106ba57600080fd5b803590602001918460018302840111640100000000831117156106dc57600080fd5b91908080601f016020809104026020016040519081016040528093929190818152602001838380828437600081840152601f19601f8201169050808301925050505050505091929192908035906020019064010000000081111561073f57600080fd5b82018360208201111561075157600080fd5b8035906020019184600183028401116401000000008311171561077357600080fd5b91908080601f016020809104026020016040519081016040528093929190818152602001838380828437600081840152601f19601f820116905080830192505050505050509192919290803590602001906401000000008111156107d657600080fd5b8201836020820111156107e857600080fd5b8035906020019184600183028401116401000000008311171561080a57600080fd5b91908080601f016020809104026020016040519081016040528093929190818152602001838380828437600081840152601f19601f820116905080830192505050505050509192919290505050611174565b005b34801561086a57600080fd5b506108e26004803603602081101561088157600080fd5b810190808035906020019064010000000081111561089e57600080fd5b8201836020820111156108b057600080fd5b803590602001918460018302840111640100000000831117156108d257600080fd5b9091929391929390505050611271565b604051808060200180602001838103835285818151815260200191508051906020019080838360005b8381101561092657808201518184015260208101905061090b565b50505050905090810190601f1680156109535780820380516001836020036101000a031916815260200191505b50838103825284818151815260200191508051906020019080838360005b8381101561098c578082015181840152602081019050610971565b50505050905090810190601f1680156109b95780820380516001836020036101000a031916815260200191505b5094505050505060405180910390f35b3480156109d557600080fd5b50610a02600480360360208110156109ec57600080fd5b810190808035906020019092919050505061140b565b6040518080602001828103825283818151815260200191508051906020019080838360005b83811015610a42578082015181840152602081019050610a27565b50505050905090810190601f168015610a6f5780820380516001836020036101000a031916815260200191505b509250505060405180910390f35b348015610a8957600080fd5b50610d1c600480360360c0811015610aa057600080fd5b810190808035906020019092919080359060200190640100000000811115610ac757600080fd5b820183602082011115610ad957600080fd5b80359060200191846001830284011164010000000083111715610afb57600080fd5b91908080601f016020809104026020016040519081016040528093929190818152602001838380828437600081840152601f19601f8201169050808301925050505050505091929192908035906020019092919080359060200190640100000000811115610b6857600080fd5b820183602082011115610b7a57600080fd5b80359060200191846001830284011164010000000083111715610b9c57600080fd5b91908080601f016020809104026020016040519081016040528093929190818152602001838380828437600081840152601f19601f82011690508083019250505050505050919291929080359060200190640100000000811115610bff57600080fd5b820183602082011115610c1157600080fd5b80359060200191846001830284011164010000000083111715610c3357600080fd5b91908080601f016020809104026020016040519081016040528093929190818152602001838380828437600081840152601f19601f82011690508083019250505050505050919291929080359060200190640100000000811115610c9657600080fd5b820183602082011115610ca857600080fd5b80359060200191846001830284011164010000000083111715610cca57600080fd5b91908080601f016020809104026020016040519081016040528093929190818152602001838380828437600081840152601f19601f8201169050808301925050505050505091929192905050506114bb565b6040518082815260200191505060405180910390f35b600281815481101515610d4157fe5b90600052602060002090600802016000915090508060000160009054906101000a900473ffffffffffffffffffffffffffffffffffffffff1690806001015490806002018054600181600116156101000203166002900480601f016020809104026020016040519081016040528092919081815260200182805460018160011615610100020316600290048015610e195780601f10610dee57610100808354040283529160200191610e19565b820191906000526020600020905b815481529060010190602001808311610dfc57829003601f168201915b505050505090806003015490806004018054600181600116156101000203166002900480601f016020809104026020016040519081016040528092919081815260200182805460018160011615610100020316600290048015610ebd5780601f10610e9257610100808354040283529160200191610ebd565b820191906000526020600020905b815481529060010190602001808311610ea057829003601f168201915b505050505090806005018054600181600116156101000203166002900480601f016020809104026020016040519081016040528092919081815260200182805460018160011615610100020316600290048015610f5b5780601f10610f3057610100808354040283529160200191610f5b565b820191906000526020600020905b815481529060010190602001808311610f3e57829003601f168201915b5050505050908060060160009054906101000a900460ff16908060070154905088565b60036020528060005260406000206000915090505481565b6060600460008381526020019081526020016000208054600181600116156101000203166002900480601f01602080910402602001604051908101604052809291908181526020018280546001816001161561010002031660029004801561103f5780601f106110145761010080835404028352916020019161103f565b820191906000526020600020905b81548152906001019060200180831161102257829003601f168201915b50505050509050919050565b60606000808381526020019081526020016000208054600181600116156101000203166002900480601f0160208091040260200160405190810160405280929190818152602001828054600181600116156101000203166002900480156110f35780601f106110c8576101008083540402835291602001916110f3565b820191906000526020600020905b8154815290600101906020018083116110d657829003601f168201915b50505050509050919050565b60006005826040518082805190602001908083835b6020831015156111395780518252602082019150602081019050602083039250611114565b6001836020036101000a0380198251168184511680821785525050505050509050019150509081526020016040518091039020549050919050565b81600080888152602001908152602001600020908051906020019061119a929190611934565b5060006001826040518082805190602001908083835b6020831015156111d557805182526020820191506020810190506020830392506111b0565b6001836020036101000a0380198251168184511680821785525050505050509050019150509081526020016040518091039020905087816000018190555086816001018190555085816002019080519060200190611234929190611934565b508481600301908051906020019061124d929190611934565b5083816004019080519060200190611266929190611934565b505050505050505050565b606080600184846040518083838082843780830192505050925050509081526020016040518091039020600301600185856040518083838082843780830192505050925050509081526020016040518091039020600401818054600181600116156101000203166002900480601f01602080910402602001604051908101604052809291908181526020018280546001816001161561010002031660029004801561135d5780601f106113325761010080835404028352916020019161135d565b820191906000526020600020905b81548152906001019060200180831161134057829003601f168201915b50505050509150808054600181600116156101000203166002900480601f0160208091040260200160405190810160405280929190818152602001828054600181600116156101000203166002900480156113f95780601f106113ce576101008083540402835291602001916113f9565b820191906000526020600020905b8154815290600101906020018083116113dc57829003601f168201915b50505050509050915091509250929050565b60046020528060005260406000206000915090508054600181600116156101000203166002900480601f0160208091040260200160405190810160405280929190818152602001828054600181600116156101000203166002900480156114b35780601f10611488576101008083540402835291602001916114b3565b820191906000526020600020905b81548152906001019060200180831161149657829003601f168201915b505050505081565b60006114c56119b4565b610100604051908101604052803373ffffffffffffffffffffffffffffffffffffffff1681526020018981526020018881526020018781526020018681526020018581526020016000151581526020016002805490508152509050856005856040518082805190602001908083835b6020831015156115595780518252602082019150602081019050602083039250611534565b6001836020036101000a038019825116818451168082178552505050505050905001915050908152602001604051809103902081905550826004600088815260200190815260200160002090805190602001906115b7929190611934565b50600060016002839080600181540180825580915050906001820390600052602060002090600802016000909192909190915060008201518160000160006101000a81548173ffffffffffffffffffffffffffffffffffffffff021916908373ffffffffffffffffffffffffffffffffffffffff160217905550602082015181600101556040820151816002019080519060200190611657929190611a18565b5060608201518160030155608082015181600401908051906020019061167e929190611a18565b5060a082015181600501908051906020019061169b929190611a18565b5060c08201518160060160006101000a81548160ff02191690831515021790555060e082015181600701555050039050600360003373ffffffffffffffffffffffffffffffffffffffff1673ffffffffffffffffffffffffffffffffffffffff168152602001908152602001600020600081548092919060010191905055503373ffffffffffffffffffffffffffffffffffffffff16817fde4ee6b3ca944eadd6dffc1090db8df6b871245d6fedeee94222fa27798479538b8b8b8b8b8b604051808781526020018060200186815260200180602001806020018060200185810385528a818151815260200191508051906020019080838360005b838110156117b1578082015181840152602081019050611796565b50505050905090810190601f1680156117de5780820380516001836020036101000a031916815260200191505b50858103845288818151815260200191508051906020019080838360005b838110156118175780820151818401526020810190506117fc565b50505050905090810190601f1680156118445780820380516001836020036101000a031916815260200191505b50858103835287818151815260200191508051906020019080838360005b8381101561187d578082015181840152602081019050611862565b50505050905090810190601f1680156118aa5780820380516001836020036101000a031916815260200191505b50858103825286818151815260200191508051906020019080838360005b838110156118e35780820151818401526020810190506118c8565b50505050905090810190601f1680156119105780820380516001836020036101000a031916815260200191505b509a505050505050505050505060405180910390a380925050509695505050505050565b828054600181600116156101000203166002900490600052602060002090601f016020900481019282601f1061197557805160ff19168380011785556119a3565b828001600101855582156119a3579182015b828111156119a2578251825591602001919060010190611987565b5b5090506119b09190611a98565b5090565b61010060405190810160405280600073ffffffffffffffffffffffffffffffffffffffff1681526020016000801916815260200160608152602001600080191681526020016060815260200160608152602001600015158152602001600081525090565b828054600181600116156101000203166002900490600052602060002090601f016020900481019282601f10611a5957805160ff1916838001178555611a87565b82800160010185558215611a87579182015b82811115611a86578251825591602001919060010190611a6b565b5b509050611a949190611a98565b5090565b611aba91905b80821115611ab6576000816000905550600101611a9e565b5090565b9056fea165627a7a723058203944f6f1d5072014956d0724e34b51f46bb7ae60b2bdde007734b7237f7eb0a70029",
  "source": "pragma solidity ^0.5.0;\n\nimport \"./MerkleProof.sol\";\nimport \"./ECRecovery.sol\";\nimport \"./EventManager.sol\";\n\n\n/**\n * @title Provides base functionalities for entities.\n */\ncontract EntityBase {\n    /// @dev Entity in the device management system.\n    struct Entity {\n        // Arbitary data in case entity wants to have some public information available.\n        string data;\n    }\n\n    /// @notice Maps owner to an Entity structure.\n    mapping (address => Entity) public ownerToEntity;\n\n    /// @dev Fired on entity data update.\n    event EntityDataUpdated(address indexed owner, string newData);\n\n    /**\n     * @notice Update entity data.\n     * @param _data Entity data.\n     */\n    function updateEntityData(string memory _data) public {\n        ownerToEntity[msg.sender].data = _data;\n\n        emit EntityDataUpdated(msg.sender, _data);\n    }\n}\n\n/**\n * @title Provides base functionalities for devices.\n */\ncontract Application is EventManager {\n    /// @dev Main device structucture.\n    struct Device {\n        // Ethereum address of a device owner.\n        address owner;\n\n        // Unique device identifier. Can hold anything that fits into 32 bytes. Different from device ID.\n        // Supposed to be a public key or a representation of one, such as fingerprint of RSA/ECC\n        // public key or simply an Ethereum address. To make identifier be an Ethereum address,\n        // use secp256k1 curve to generate public and private key pair, run keccak256 hash function\n        // on public key and take last 20 bytes of generated hash to get Ethereum address.\n        // If a device wants to be it's own entity, use same address as in owner property.\n        bytes32 identifier;\n\n        // Merkle root hash of metadata or simple hash of concatenated data.\n        // It is recommended to use Merkle tree to store information on device as it enables to\n        // prove membership of specific data by providing Merkle proof without revealing whole dataset.\n        string publicKey;\n\n        // Holds a hash of actual firmware hash. Actual firmware hash is not supposed to be stored.\n        // Plain text or hash would expose data that is meant to be private, so \"hash of hash\" principle\n        // gives privacy and makes integrity verification possible.\n        bytes32 applicationId;\n        string applicationName;\n\n        string endpointClientName;\n        bool deactivated;\n        uint index;\n        // Additional data linked to device. Can be used to store hash of encrypted firmware on IPFS.\n        //string offchainLink;\n\n        // Full public key (even though parties can exchange public key other ways then use\n        // blockchain to verify.)\n        //string publicKey;\n    }\n\n    /// @notice State variable for storing devices. Index in the array is also a device ID.\n    /// Array can hold a maximum of 2^256-1 entries.\n    Device[] public devices;\n\n    /// @notice Keeps track of total devices for each owner.\n    mapping (address => uint) public ownerDeviceCount;\n\n    /// @notice Keeps track of total devices for each owner.\n    mapping (bytes32 => string) public applicationToLinkedDevices;\n\n    /// @notice deviceClientName to linkedAPP id\n    mapping (string => bytes32) deviceClientNameToAppId;\n    /// @dev Fired on creation of new device.\n    event DeviceCreated(uint indexed deviceId, address indexed owner, bytes32 identifier, string publicKey, bytes32 applicationId, string applicationName, string endpointClientName, string allDevices);\n\n    /// @dev Modifier for ensuring that the message sender is owner of provided device ID.\n    modifier onlyOwnerOf(uint _deviceId) {\n        require(devices[_deviceId].owner == msg.sender, \"Only for device owner\");\n        _;\n    }\n\n    /**\n     * @notice Creates and saves device into storage. Emits DeviceCreated.\n     * @param _identifier Unique device identifier, such as fingerprint of RSA/ECC public key or Ethereum address (recommended).\n     * @param _publicKey Merkle root hash of metadata (recommended) or simple hash of concatenated metadata.\n     * @param _applicationId App linked to.\n     * @param _endpointClientName Endpoint Client Name.\n     * @return Created device ID.\n     */\n    function createDevice(bytes32 _identifier, string memory _publicKey, bytes32 _applicationId, string memory _applicationName, string memory _endpointClientName, string memory _allDevices) public returns (uint) {\n        Device memory newDevice = Device(msg.sender, _identifier, _publicKey, _applicationId, _applicationName, _endpointClientName, false, devices.length);\n//        applicationToLinkedDevices[_applicationId] = _applicationName;\n        deviceClientNameToAppId[_endpointClientName] = _applicationId;\n        applicationToLinkedDevices[_applicationId] = _allDevices;\n        uint deviceId = devices.push(newDevice) - 1;\n        ownerDeviceCount[msg.sender]++;\n        emit DeviceCreated(deviceId, msg.sender, _identifier, _publicKey, _applicationId, _applicationName, _endpointClientName, _allDevices);\n        return deviceId;\n    }\n\n    function getDevicesByAppId(bytes32 _appId) public view returns (string memory) {\n        return applicationToLinkedDevices[_appId];\n    }\n    function getAppIdByDeviceClientName(string memory _deviceClientName) public view returns (bytes32) {\n        return deviceClientNameToAppId[_deviceClientName];\n    }\n\n}\n\n/**\n * @title Provides extra functionalities for devices.\n */\ncontract DeviceHelper is Application {\n    /**\n      * @notice Gets all devices owned by specified address.\n      * @dev Use this function instead of filtering DeviceCreated event since devices could have been transferred between owners.\n      * @param _owner Owner address.\n      * @return Array of device IDs.\n      */\n    function getDevicesByOwner(address _owner) public view returns (uint[] memory) {\n        uint[] memory deviceIds = new uint[](ownerDeviceCount[_owner]);\n        uint counter = 0;\n        for (uint i = 0; i < devices.length; i++) {\n            if (devices[i].owner == _owner) {\n                deviceIds[counter] = i;\n                counter++;\n            }\n        }\n        return deviceIds;\n    }\n\n    /**\n     * @notice Checks if device is also an entity.\n     * @param _deviceId ID of a  device.\n     * @return Boolean status.\n     */\n    function isDeviceAnEntity(uint _deviceId) public view returns (bool) {\n        return devices[_deviceId].owner == address(uint160(uint256(devices[_deviceId].identifier)));\n    }\n\n    function isValidEthMessage(uint _deviceId, bytes32 _messageHash, bytes memory _signature) public view returns (bool) {\n        return ECRecovery.recover(_messageHash, _signature) == address(uint160(uint256(devices[_deviceId].identifier)));\n    }\n}\n\n/**\n * @title Provides base functionalities for signatures.\n */\ncontract SignatureBase {\n    /// @dev Main signature structucture.\n    struct Signature {\n        // Ethereum address of the signer.\n        address signer;\n\n        // ID of device to sign.\n        uint deviceId;\n\n        // Using 256 bits ensures no overflow on year 2038 (Unix seconds).\n        uint expiryTime;\n\n        // Updates to true once signer decides to revoke signature.\n        bool revoked;\n    }\n\n    /// @notice State variable for storing signatures. Index in the array is also a signature ID.\n    /// Array can hold a maximum of 2^256-1 entries.\n    Signature[] public signatures;\n\n    /// @notice Keeps track of total signatures for each device.\n    mapping (uint => uint) public deviceSignatureCount;\n\n    /// @dev Fired when an address signs a device.\n    event DeviceSigned(uint indexed signatureId, uint indexed deviceId, address indexed signer, uint expiryTime);\n\n    /// @dev Fired when signature is revoked.\n    event SignatureRevoked(uint indexed signatureId, uint indexed deviceId);\n\n    /// @dev Modifier for ensuring that the device hasn't been signed already.\n    modifier notSigned(uint _deviceId) {\n        require(deviceSignatureCount[_deviceId] == 0, \"Must not be signed\");\n        _;\n    }\n\n    /**\n     * @notice Signs a device and signature into storage. Emits DeviceSigned.\n     * @param _deviceId ID of to be signed device.\n     * @param _expiryTime Expiry time in Unix seconds.\n     * @return Created signature ID.\n     */\n    function signDevice(uint _deviceId, uint _expiryTime) public returns (uint) {\n        Signature memory signature = Signature(msg.sender, _deviceId, _expiryTime, false);\n        uint signatureId = signatures.push(signature) - 1;\n        deviceSignatureCount[_deviceId]++;\n\n        emit DeviceSigned(signatureId, _deviceId, msg.sender, _expiryTime);\n        return signatureId;\n    }\n\n    /**\n     * @notice Revokes a signature. Emits SignatureRevoked.\n     * @param _signatureId ID of to be revoked signature.\n     */\n    function revokeSignature(uint _signatureId) public {\n        require(signatures[_signatureId].signer == msg.sender, \"Only for creator of the signature\");\n        require(signatures[_signatureId].revoked == false, \"Signature mustn't be revoked already\");\n        Signature storage signature = signatures[_signatureId];\n        signature.revoked = true;\n        deviceSignatureCount[signature.deviceId]--;\n\n        emit SignatureRevoked(_signatureId, signature.deviceId);\n    }\n}\n\n/**\n * @title Provides extra functionalities for signatures.\n */\ncontract SignatureHelper is SignatureBase {\n    /**\n     * @notice Gets all signatures for specific device.\n     * @dev Use this function instead of filtering DeviceSigned event since signatures could have been revoked.\n     * @param _deviceId ID of a device.\n     * @return Array of signature IDs.\n     */\n    function getActiveSignaturesForDevice(uint _deviceId) public view returns (uint[] memory) {\n        uint[] memory signatureIds = new uint[](deviceSignatureCount[_deviceId]);\n        uint counter = 0;\n        for (uint i = 0; i < signatures.length; i++) {\n            if (signatures[i].deviceId == _deviceId && signatures[i].revoked == false) {\n                signatureIds[counter] = i;\n                counter++;\n            }\n        }\n        return signatureIds;\n    }\n}\n\n/**\n * @title Enriches devices giving them option to be updated only if not signed already.\n */\ncontract DeviceUpdatable is DeviceHelper, SignatureHelper {\n    /// @dev Fired on device ownership transfer, keeps track of historical device owners.\n    event DeviceTransfered(uint indexed deviceId, address oldOwner, address newOwner);\n\n    /// @dev Fired on device property update, keeps track of historical property values.\n    event DevicePropertyUpdated(uint indexed deviceId, bytes32 indexed property, bytes32 newValue);\n\n    /// @dev Fired on device property update, keeps track of historical property values.\n    event DeviceActivityStatusUpdated(uint indexed deviceId, bool newValue);\n    /**\n     * @notice Transfer device ownership from one external account to another. Emits DeviceTransfered.\n     * @param _deviceId ID of to be transfered device.\n     * @param _to Address of new owner.\n     */\n    function transferDevice(uint _deviceId, address _to) public onlyOwnerOf(_deviceId) notSigned(_deviceId) {\n        address currentOwner = devices[_deviceId].owner;\n        devices[_deviceId].owner = _to;\n        ownerDeviceCount[msg.sender]--;\n        ownerDeviceCount[_to]++;\n\n        emit DeviceTransfered(_deviceId, currentOwner, _to);\n    }\n\n    function changeActivityStatus(uint _deviceId) public {\n        devices[_deviceId].deactivated = !devices[_deviceId].deactivated;\n        emit DeviceActivityStatusUpdated(_deviceId, devices[_deviceId].deactivated);\n    }\n\n    function updateAppConnectedDevices(bytes32 _applicationId, string memory _allDevices) public {\n        applicationToLinkedDevices[_applicationId] = _allDevices;\n    }\n    /**\n     * @notice Update device with new identifier. Emits DevicePropertyUpdated.\n     * @param _deviceId ID of a device.\n     * @param _newIdentifier New identifier.\n     */\n    function updateIdentifier(uint _deviceId, bytes32 _newIdentifier) public onlyOwnerOf(_deviceId) notSigned(_deviceId) {\n        devices[_deviceId].identifier = _newIdentifier;\n\n        emit DevicePropertyUpdated(_deviceId, \"identifier\", _newIdentifier);\n    }\n\n    /**\n     * @notice Update device with new metadata hash. Emits DevicePropertyUpdated.\n     * @param _deviceId ID of a device.\n     * @param _newPublicKey New PublicKey\n     */\n    function updateMetadataHash(uint _deviceId, string memory _newPublicKey) public onlyOwnerOf(_deviceId) notSigned(_deviceId) {\n        devices[_deviceId].publicKey = _newPublicKey;\n\n//        emit DevicePropertyUpdated(_deviceId, \"metadata\", _newMetadataHash);\n    }\n\n    /**\n     * @notice Update device with new firmware hash. Emits DevicePropertyUpdated.\n     * @param _deviceId ID of a device.\n     * @param _newApplicationId New _newApplicationId.\n     */\n    function updateApplicationId(uint _deviceId, bytes32 _newApplicationId) public onlyOwnerOf(_deviceId) notSigned(_deviceId) {\n        devices[_deviceId].applicationId = _newApplicationId;\n\n//        emit DevicePropertyUpdated(_deviceId, \"firmware\", _newFirmwareHash);\n    }\n}\n\n/// @title Device manager core contract.\n//contract Application is EntityBase, DeviceUpdatable {\n//    /// @dev Merges contracts.\n//}",
  "sourcePath": "/Users/kimwang/Desktop/895/leshan/blockchain-integration/contracts/Application.sol",
  "compiler": {
    "name": "solc",
    "version": "0.5.0+commit.1d4f565a.Emscripten.clang"
  },
  "schemaVersion": "3.0.20",
  "updatedAt": "2020-06-11T07:04:38.984Z",
  "networkType": "ethereum",
  "devdoc": {
    "methods": {
      "createDevice(bytes32,string,bytes32,string,string,string)": {
        "params": {
          "_applicationId": "App linked to.",
          "_endpointClientName": "Endpoint Client Name.",
          "_identifier": "Unique device identifier, such as fingerprint of RSA/ECC public key or Ethereum address (recommended).",
          "_publicKey": "Merkle root hash of metadata (recommended) or simple hash of concatenated metadata."
        },
        "return": "Created device ID."
      }
    },
    "title": "Provides base functionalities for devices."
  },
  "userdoc": {
    "methods": {
      "addAlert(bytes32,bytes32,string,string,string,string,string)": {
        "notice": "curCategory is the current category allCategories is the string of all categories appCategory is the combination of appId and curCategory"
      },
      "createDevice(bytes32,string,bytes32,string,string,string)": {
        "notice": "Creates and saves device into storage. Emits DeviceCreated."
      }
    }
  }
}