{
  "contractName": "Application",
  "abi": [
    {
      "constant": false,
      "inputs": [
        {
          "name": "_deviceId",
          "type": "uint256"
        },
        {
          "name": "_newPublicKey",
          "type": "string"
        }
      ],
      "name": "updateMetadataHash",
      "outputs": [],
      "payable": false,
      "stateMutability": "nonpayable",
      "type": "function"
    },
    {
      "constant": true,
      "inputs": [
        {
          "name": "_deviceId",
          "type": "uint256"
        }
      ],
      "name": "isDeviceAnEntity",
      "outputs": [
        {
          "name": "",
          "type": "bool"
        }
      ],
      "payable": false,
      "stateMutability": "view",
      "type": "function"
    },
    {
      "constant": true,
      "inputs": [
        {
          "name": "",
          "type": "uint256"
        }
      ],
      "name": "devices",
      "outputs": [
        {
          "name": "owner",
          "type": "address"
        },
        {
          "name": "identifier",
          "type": "bytes32"
        },
        {
          "name": "publicKey",
          "type": "string"
        },
        {
          "name": "applicationId",
          "type": "bytes32"
        },
        {
          "name": "applicationName",
          "type": "string"
        },
        {
          "name": "endpointClientName",
          "type": "string"
        },
        {
          "name": "deactivated",
          "type": "bool"
        }
      ],
      "payable": false,
      "stateMutability": "view",
      "type": "function"
    },
    {
      "constant": false,
      "inputs": [
        {
          "name": "_deviceId",
          "type": "uint256"
        },
        {
          "name": "_newApplicationId",
          "type": "bytes32"
        }
      ],
      "name": "updateApplicationId",
      "outputs": [],
      "payable": false,
      "stateMutability": "nonpayable",
      "type": "function"
    },
    {
      "constant": true,
      "inputs": [
        {
          "name": "",
          "type": "address"
        }
      ],
      "name": "ownerDeviceCount",
      "outputs": [
        {
          "name": "",
          "type": "uint256"
        }
      ],
      "payable": false,
      "stateMutability": "view",
      "type": "function"
    },
    {
      "constant": false,
      "inputs": [
        {
          "name": "_signatureId",
          "type": "uint256"
        }
      ],
      "name": "revokeSignature",
      "outputs": [],
      "payable": false,
      "stateMutability": "nonpayable",
      "type": "function"
    },
    {
      "constant": true,
      "inputs": [
        {
          "name": "_owner",
          "type": "address"
        }
      ],
      "name": "getDevicesByOwner",
      "outputs": [
        {
          "name": "",
          "type": "uint256[]"
        }
      ],
      "payable": false,
      "stateMutability": "view",
      "type": "function"
    },
    {
      "constant": false,
      "inputs": [
        {
          "name": "_deviceId",
          "type": "uint256"
        }
      ],
      "name": "changeActivityStatus",
      "outputs": [],
      "payable": false,
      "stateMutability": "nonpayable",
      "type": "function"
    },
    {
      "constant": false,
      "inputs": [
        {
          "name": "_deviceId",
          "type": "uint256"
        },
        {
          "name": "_newIdentifier",
          "type": "bytes32"
        }
      ],
      "name": "updateIdentifier",
      "outputs": [],
      "payable": false,
      "stateMutability": "nonpayable",
      "type": "function"
    },
    {
      "constant": false,
      "inputs": [
        {
          "name": "_data",
          "type": "string"
        }
      ],
      "name": "updateEntityData",
      "outputs": [],
      "payable": false,
      "stateMutability": "nonpayable",
      "type": "function"
    },
    {
      "constant": true,
      "inputs": [
        {
          "name": "_appId",
          "type": "bytes32"
        }
      ],
      "name": "getDevicesByAppId",
      "outputs": [
        {
          "name": "",
          "type": "string"
        }
      ],
      "payable": false,
      "stateMutability": "view",
      "type": "function"
    },
    {
      "constant": true,
      "inputs": [
        {
          "name": "_deviceClientName",
          "type": "string"
        }
      ],
      "name": "getAppIdByDeviceClientName",
      "outputs": [
        {
          "name": "",
          "type": "bytes32"
        }
      ],
      "payable": false,
      "stateMutability": "view",
      "type": "function"
    },
    {
      "constant": true,
      "inputs": [
        {
          "name": "",
          "type": "uint256"
        }
      ],
      "name": "signatures",
      "outputs": [
        {
          "name": "signer",
          "type": "address"
        },
        {
          "name": "deviceId",
          "type": "uint256"
        },
        {
          "name": "expiryTime",
          "type": "uint256"
        },
        {
          "name": "revoked",
          "type": "bool"
        }
      ],
      "payable": false,
      "stateMutability": "view",
      "type": "function"
    },
    {
      "constant": true,
      "inputs": [
        {
          "name": "_deviceId",
          "type": "uint256"
        },
        {
          "name": "_messageHash",
          "type": "bytes32"
        },
        {
          "name": "_signature",
          "type": "bytes"
        }
      ],
      "name": "isValidEthMessage",
      "outputs": [
        {
          "name": "",
          "type": "bool"
        }
      ],
      "payable": false,
      "stateMutability": "view",
      "type": "function"
    },
    {
      "constant": true,
      "inputs": [
        {
          "name": "_deviceId",
          "type": "uint256"
        }
      ],
      "name": "getActiveSignaturesForDevice",
      "outputs": [
        {
          "name": "",
          "type": "uint256[]"
        }
      ],
      "payable": false,
      "stateMutability": "view",
      "type": "function"
    },
    {
      "constant": false,
      "inputs": [
        {
          "name": "_deviceId",
          "type": "uint256"
        },
        {
          "name": "_expiryTime",
          "type": "uint256"
        }
      ],
      "name": "signDevice",
      "outputs": [
        {
          "name": "",
          "type": "uint256"
        }
      ],
      "payable": false,
      "stateMutability": "nonpayable",
      "type": "function"
    },
    {
      "constant": true,
      "inputs": [
        {
          "name": "",
          "type": "address"
        }
      ],
      "name": "ownerToEntity",
      "outputs": [
        {
          "name": "data",
          "type": "string"
        }
      ],
      "payable": false,
      "stateMutability": "view",
      "type": "function"
    },
    {
      "constant": true,
      "inputs": [
        {
          "name": "",
          "type": "bytes32"
        }
      ],
      "name": "applicationToLinkedDevices",
      "outputs": [
        {
          "name": "",
          "type": "string"
        }
      ],
      "payable": false,
      "stateMutability": "view",
      "type": "function"
    },
    {
      "constant": true,
      "inputs": [
        {
          "name": "",
          "type": "uint256"
        }
      ],
      "name": "deviceSignatureCount",
      "outputs": [
        {
          "name": "",
          "type": "uint256"
        }
      ],
      "payable": false,
      "stateMutability": "view",
      "type": "function"
    },
    {
      "constant": false,
      "inputs": [
        {
          "name": "_applicationId",
          "type": "bytes32"
        },
        {
          "name": "_allDevices",
          "type": "string"
        }
      ],
      "name": "updateAppConnectedDevices",
      "outputs": [],
      "payable": false,
      "stateMutability": "nonpayable",
      "type": "function"
    },
    {
      "constant": false,
      "inputs": [
        {
          "name": "_deviceId",
          "type": "uint256"
        },
        {
          "name": "_to",
          "type": "address"
        }
      ],
      "name": "transferDevice",
      "outputs": [],
      "payable": false,
      "stateMutability": "nonpayable",
      "type": "function"
    },
    {
      "constant": false,
      "inputs": [
        {
          "name": "_identifier",
          "type": "bytes32"
        },
        {
          "name": "_publicKey",
          "type": "string"
        },
        {
          "name": "_applicationId",
          "type": "bytes32"
        },
        {
          "name": "_applicationName",
          "type": "string"
        },
        {
          "name": "_endpointClientName",
          "type": "string"
        },
        {
          "name": "_allDevices",
          "type": "string"
        }
      ],
      "name": "createDevice",
      "outputs": [
        {
          "name": "",
          "type": "uint256"
        }
      ],
      "payable": false,
      "stateMutability": "nonpayable",
      "type": "function"
    },
    {
      "anonymous": false,
      "inputs": [
        {
          "indexed": true,
          "name": "deviceId",
          "type": "uint256"
        },
        {
          "indexed": false,
          "name": "oldOwner",
          "type": "address"
        },
        {
          "indexed": false,
          "name": "newOwner",
          "type": "address"
        }
      ],
      "name": "DeviceTransfered",
      "type": "event"
    },
    {
      "anonymous": false,
      "inputs": [
        {
          "indexed": true,
          "name": "deviceId",
          "type": "uint256"
        },
        {
          "indexed": true,
          "name": "property",
          "type": "bytes32"
        },
        {
          "indexed": false,
          "name": "newValue",
          "type": "bytes32"
        }
      ],
      "name": "DevicePropertyUpdated",
      "type": "event"
    },
    {
      "anonymous": false,
      "inputs": [
        {
          "indexed": true,
          "name": "deviceId",
          "type": "uint256"
        },
        {
          "indexed": false,
          "name": "newValue",
          "type": "bool"
        }
      ],
      "name": "DeviceActivityStatusUpdated",
      "type": "event"
    },
    {
      "anonymous": false,
      "inputs": [
        {
          "indexed": true,
          "name": "signatureId",
          "type": "uint256"
        },
        {
          "indexed": true,
          "name": "deviceId",
          "type": "uint256"
        },
        {
          "indexed": true,
          "name": "signer",
          "type": "address"
        },
        {
          "indexed": false,
          "name": "expiryTime",
          "type": "uint256"
        }
      ],
      "name": "DeviceSigned",
      "type": "event"
    },
    {
      "anonymous": false,
      "inputs": [
        {
          "indexed": true,
          "name": "signatureId",
          "type": "uint256"
        },
        {
          "indexed": true,
          "name": "deviceId",
          "type": "uint256"
        }
      ],
      "name": "SignatureRevoked",
      "type": "event"
    },
    {
      "anonymous": false,
      "inputs": [
        {
          "indexed": true,
          "name": "deviceId",
          "type": "uint256"
        },
        {
          "indexed": true,
          "name": "owner",
          "type": "address"
        },
        {
          "indexed": false,
          "name": "identifier",
          "type": "bytes32"
        },
        {
          "indexed": false,
          "name": "publicKey",
          "type": "string"
        },
        {
          "indexed": false,
          "name": "applicationId",
          "type": "bytes32"
        },
        {
          "indexed": false,
          "name": "applicationName",
          "type": "string"
        },
        {
          "indexed": false,
          "name": "endpointClientName",
          "type": "string"
        },
        {
          "indexed": false,
          "name": "allDevices",
          "type": "string"
        }
      ],
      "name": "DeviceCreated",
      "type": "event"
    },
    {
      "anonymous": false,
      "inputs": [
        {
          "indexed": true,
          "name": "owner",
          "type": "address"
        },
        {
          "indexed": false,
          "name": "newData",
          "type": "string"
        }
      ],
      "name": "EntityDataUpdated",
      "type": "event"
    }
  ],
  "bytecode": "0x608060405234801561001057600080fd5b50612f18806100206000396000f3fe608060405260043610610128576000357c0100000000000000000000000000000000000000000000000000000000900463ffffffff16806307d88a8b1461012d5780630bcb88e8146101ff57806310ff8e31146102525780631b44ac701461042a5780632a08e6011461046f5780633da1f79a146104d457806351b0e9871461050f578063526b134a146105b5578063533293ab146105f05780635a3f79d2146106355780635bbd710b146106fd57806367bcfdf1146107b15780638be101941461088d5780638e9075be146109215780639de9662d14610a15578063aa554c9d14610aa5578063acbcb50714610afe578063ad352e0914610bc8578063b0bd9fda14610c7c578063b9b5c6a014610ccb578063ee23578314610d9d578063fe227ff914610df8575b600080fd5b34801561013957600080fd5b506101fd6004803603604081101561015057600080fd5b81019080803590602001909291908035906020019064010000000081111561017757600080fd5b82018360208201111561018957600080fd5b803590602001918460018302840111640100000000831117156101ab57600080fd5b91908080601f016020809104026020016040519081016040528093929190818152602001838380828437600081840152601f19601f8201169050808301925050505050505091929192905050506110ad565b005b34801561020b57600080fd5b506102386004803603602081101561022257600080fd5b8101908080359060200190929190505050611258565b604051808215151515815260200191505060405180910390f35b34801561025e57600080fd5b5061028b6004803603602081101561027557600080fd5b81019080803590602001909291905050506112f4565b604051808873ffffffffffffffffffffffffffffffffffffffff1673ffffffffffffffffffffffffffffffffffffffff16815260200187815260200180602001868152602001806020018060200185151515158152602001848103845289818151815260200191508051906020019080838360005b8381101561031b578082015181840152602081019050610300565b50505050905090810190601f1680156103485780820380516001836020036101000a031916815260200191505b50848103835287818151815260200191508051906020019080838360005b83811015610381578082015181840152602081019050610366565b50505050905090810190601f1680156103ae5780820380516001836020036101000a031916815260200191505b50848103825286818151815260200191508051906020019080838360005b838110156103e75780820151818401526020810190506103cc565b50505050905090810190601f1680156104145780820380516001836020036101000a031916815260200191505b509a505050505050505050505060405180910390f35b34801561043657600080fd5b5061046d6004803603604081101561044d57600080fd5b81019080803590602001909291908035906020019092919050505061153a565b005b34801561047b57600080fd5b506104be6004803603602081101561049257600080fd5b81019080803573ffffffffffffffffffffffffffffffffffffffff1690602001909291905050506116d5565b6040518082815260200191505060405180910390f35b3480156104e057600080fd5b5061050d600480360360208110156104f757600080fd5b81019080803590602001909291905050506116ed565b005b34801561051b57600080fd5b5061055e6004803603602081101561053257600080fd5b81019080803573ffffffffffffffffffffffffffffffffffffffff169060200190929190505050611961565b6040518080602001828103825283818151815260200191508051906020019060200280838360005b838110156105a1578082015181840152602081019050610586565b505050509050019250505060405180910390f35b3480156105c157600080fd5b506105ee600480360360208110156105d857600080fd5b8101908080359060200190929190505050611a9f565b005b3480156105fc57600080fd5b506106336004803603604081101561061357600080fd5b810190808035906020019092919080359060200190929190505050611b71565b005b34801561064157600080fd5b506106fb6004803603602081101561065857600080fd5b810190808035906020019064010000000081111561067557600080fd5b82018360208201111561068757600080fd5b803590602001918460018302840111640100000000831117156106a957600080fd5b91908080601f016020809104026020016040519081016040528093929190818152602001838380828437600081840152601f19601f820116905080830192505050505050509192919290505050611d65565b005b34801561070957600080fd5b506107366004803603602081101561072057600080fd5b8101908080359060200190929190505050611e71565b6040518080602001828103825283818151815260200191508051906020019080838360005b8381101561077657808201518184015260208101905061075b565b50505050905090810190601f1680156107a35780820380516001836020036101000a031916815260200191505b509250505060405180910390f35b3480156107bd57600080fd5b50610877600480360360208110156107d457600080fd5b81019080803590602001906401000000008111156107f157600080fd5b82018360208201111561080357600080fd5b8035906020019184600183028401116401000000008311171561082557600080fd5b91908080601f016020809104026020016040519081016040528093929190818152602001838380828437600081840152601f19601f820116905080830192505050505050509192919290505050611f26565b6040518082815260200191505060405180910390f35b34801561089957600080fd5b506108c6600480360360208110156108b057600080fd5b8101908080359060200190929190505050611f9b565b604051808573ffffffffffffffffffffffffffffffffffffffff1673ffffffffffffffffffffffffffffffffffffffff1681526020018481526020018381526020018215151515815260200194505050505060405180910390f35b34801561092d57600080fd5b506109fb6004803603606081101561094457600080fd5b8101908080359060200190929190803590602001909291908035906020019064010000000081111561097557600080fd5b82018360208201111561098757600080fd5b803590602001918460018302840111640100000000831117156109a957600080fd5b91908080601f016020809104026020016040519081016040528093929190818152602001838380828437600081840152601f19601f820116905080830192505050505050509192919290505050612007565b604051808215151515815260200191505060405180910390f35b348015610a2157600080fd5b50610a4e60048036036020811015610a3857600080fd5b810190808035906020019092919050505061206e565b6040518080602001828103825283818151815260200191508051906020019060200280838360005b83811015610a91578082015181840152602081019050610a76565b505050509050019250505060405180910390f35b348015610ab157600080fd5b50610ae860048036036040811015610ac857600080fd5b810190808035906020019092919080359060200190929190505050612171565b6040518082815260200191505060405180910390f35b348015610b0a57600080fd5b50610b4d60048036036020811015610b2157600080fd5b81019080803573ffffffffffffffffffffffffffffffffffffffff1690602001909291905050506122e8565b6040518080602001828103825283818151815260200191508051906020019080838360005b83811015610b8d578082015181840152602081019050610b72565b50505050905090810190601f168015610bba5780820380516001836020036101000a031916815260200191505b509250505060405180910390f35b348015610bd457600080fd5b50610c0160048036036020811015610beb57600080fd5b810190808035906020019092919050505061239e565b6040518080602001828103825283818151815260200191508051906020019080838360005b83811015610c41578082015181840152602081019050610c26565b50505050905090810190601f168015610c6e5780820380516001836020036101000a031916815260200191505b509250505060405180910390f35b348015610c8857600080fd5b50610cb560048036036020811015610c9f57600080fd5b810190808035906020019092919050505061244e565b6040518082815260200191505060405180910390f35b348015610cd757600080fd5b50610d9b60048036036040811015610cee57600080fd5b810190808035906020019092919080359060200190640100000000811115610d1557600080fd5b820183602082011115610d2757600080fd5b80359060200191846001830284011164010000000083111715610d4957600080fd5b91908080601f016020809104026020016040519081016040528093929190818152602001838380828437600081840152601f19601f820116905080830192505050505050509192919290505050612466565b005b348015610da957600080fd5b50610df660048036036040811015610dc057600080fd5b8101908080359060200190929190803573ffffffffffffffffffffffffffffffffffffffff169060200190929190505050612492565b005b348015610e0457600080fd5b50611097600480360360c0811015610e1b57600080fd5b810190808035906020019092919080359060200190640100000000811115610e4257600080fd5b820183602082011115610e5457600080fd5b80359060200191846001830284011164010000000083111715610e7657600080fd5b91908080601f016020809104026020016040519081016040528093929190818152602001838380828437600081840152601f19601f8201169050808301925050505050505091929192908035906020019092919080359060200190640100000000811115610ee357600080fd5b820183602082011115610ef557600080fd5b80359060200191846001830284011164010000000083111715610f1757600080fd5b91908080601f016020809104026020016040519081016040528093929190818152602001838380828437600081840152601f19601f82011690508083019250505050505050919291929080359060200190640100000000811115610f7a57600080fd5b820183602082011115610f8c57600080fd5b80359060200191846001830284011164010000000083111715610fae57600080fd5b91908080601f016020809104026020016040519081016040528093929190818152602001838380828437600081840152601f19601f8201169050808301925050505050505091929192908035906020019064010000000081111561101157600080fd5b82018360208201111561102357600080fd5b8035906020019184600183028401116401000000008311171561104557600080fd5b91908080601f016020809104026020016040519081016040528093929190818152602001838380828437600081840152601f19601f8201169050808301925050505050505091929192905050506127e4565b6040518082815260200191505060405180910390f35b813373ffffffffffffffffffffffffffffffffffffffff166001828154811015156110d457fe5b906000526020600020906007020160000160009054906101000a900473ffffffffffffffffffffffffffffffffffffffff1673ffffffffffffffffffffffffffffffffffffffff16141515611191576040517f08c379a00000000000000000000000000000000000000000000000000000000081526004018080602001828103825260158152602001807f4f6e6c7920666f7220646576696365206f776e6572000000000000000000000081525060200191505060405180910390fd5b826000600660008381526020019081526020016000205414151561121d576040517f08c379a00000000000000000000000000000000000000000000000000000000081526004018080602001828103825260128152602001807f4d757374206e6f74206265207369676e6564000000000000000000000000000081525060200191505060405180910390fd5b8260018581548110151561122d57fe5b90600052602060002090600702016002019080519060200190611251929190612d2a565b5050505050565b600060018281548110151561126957fe5b9060005260206000209060070201600101546001900473ffffffffffffffffffffffffffffffffffffffff166001838154811015156112a457fe5b906000526020600020906007020160000160009054906101000a900473ffffffffffffffffffffffffffffffffffffffff1673ffffffffffffffffffffffffffffffffffffffff16149050919050565b60018181548110151561130357fe5b90600052602060002090600702016000915090508060000160009054906101000a900473ffffffffffffffffffffffffffffffffffffffff1690806001015490806002018054600181600116156101000203166002900480601f0160208091040260200160405190810160405280929190818152602001828054600181600116156101000203166002900480156113db5780601f106113b0576101008083540402835291602001916113db565b820191906000526020600020905b8154815290600101906020018083116113be57829003601f168201915b505050505090806003015490806004018054600181600116156101000203166002900480601f01602080910402602001604051908101604052809291908181526020018280546001816001161561010002031660029004801561147f5780601f106114545761010080835404028352916020019161147f565b820191906000526020600020905b81548152906001019060200180831161146257829003601f168201915b505050505090806005018054600181600116156101000203166002900480601f01602080910402602001604051908101604052809291908181526020018280546001816001161561010002031660029004801561151d5780601f106114f25761010080835404028352916020019161151d565b820191906000526020600020905b81548152906001019060200180831161150057829003601f168201915b5050505050908060060160009054906101000a900460ff16905087565b813373ffffffffffffffffffffffffffffffffffffffff1660018281548110151561156157fe5b906000526020600020906007020160000160009054906101000a900473ffffffffffffffffffffffffffffffffffffffff1673ffffffffffffffffffffffffffffffffffffffff1614151561161e576040517f08c379a00000000000000000000000000000000000000000000000000000000081526004018080602001828103825260158152602001807f4f6e6c7920666f7220646576696365206f776e6572000000000000000000000081525060200191505060405180910390fd5b82600060066000838152602001908152602001600020541415156116aa576040517f08c379a00000000000000000000000000000000000000000000000000000000081526004018080602001828103825260128152602001807f4d757374206e6f74206265207369676e6564000000000000000000000000000081525060200191505060405180910390fd5b826001858154811015156116ba57fe5b90600052602060002090600702016003018190555050505050565b60026020528060005260406000206000915090505481565b3373ffffffffffffffffffffffffffffffffffffffff1660058281548110151561171357fe5b906000526020600020906004020160000160009054906101000a900473ffffffffffffffffffffffffffffffffffffffff1673ffffffffffffffffffffffffffffffffffffffff161415156117f6576040517f08c379a00000000000000000000000000000000000000000000000000000000081526004018080602001828103825260218152602001807f4f6e6c7920666f722063726561746f72206f6620746865207369676e6174757281526020017f650000000000000000000000000000000000000000000000000000000000000081525060400191505060405180910390fd5b6000151560058281548110151561180957fe5b906000526020600020906004020160030160009054906101000a900460ff1615151415156118c5576040517f08c379a00000000000000000000000000000000000000000000000000000000081526004018080602001828103825260248152602001807f5369676e6174757265206d7573746e2774206265207265766f6b656420616c7281526020017f656164790000000000000000000000000000000000000000000000000000000081525060400191505060405180910390fd5b60006005828154811015156118d657fe5b9060005260206000209060040201905060018160030160006101000a81548160ff021916908315150217905550600660008260010154815260200190815260200160002060008154809291906001900391905055508060010154827ff93d5095ac7696e643e1fa0aa35d622f4a13e11f4e199f30794679dcdcdb973760405160405180910390a35050565b606080600260008473ffffffffffffffffffffffffffffffffffffffff1673ffffffffffffffffffffffffffffffffffffffff168152602001908152602001600020546040519080825280602002602001820160405280156119d25781602001602082028038833980820191505090505b509050600080905060008090505b600180549050811015611a94578473ffffffffffffffffffffffffffffffffffffffff16600182815481101515611a1357fe5b906000526020600020906007020160000160009054906101000a900473ffffffffffffffffffffffffffffffffffffffff1673ffffffffffffffffffffffffffffffffffffffff161415611a8757808383815181101515611a7057fe5b906020019060200201818152505081806001019250505b80806001019150506119e0565b508192505050919050565b600181815481101515611aae57fe5b906000526020600020906007020160060160009054906101000a900460ff1615600182815481101515611add57fe5b906000526020600020906007020160060160006101000a81548160ff021916908315150217905550807fc42d776a60a63800640db76194dbf8c0dfa12284194ce44fdc2e0248ccc40f48600183815481101515611b3657fe5b906000526020600020906007020160060160009054906101000a900460ff16604051808215151515815260200191505060405180910390a250565b813373ffffffffffffffffffffffffffffffffffffffff16600182815481101515611b9857fe5b906000526020600020906007020160000160009054906101000a900473ffffffffffffffffffffffffffffffffffffffff1673ffffffffffffffffffffffffffffffffffffffff16141515611c55576040517f08c379a00000000000000000000000000000000000000000000000000000000081526004018080602001828103825260158152602001807f4f6e6c7920666f7220646576696365206f776e6572000000000000000000000081525060200191505060405180910390fd5b8260006006600083815260200190815260200160002054141515611ce1576040517f08c379a00000000000000000000000000000000000000000000000000000000081526004018080602001828103825260128152602001807f4d757374206e6f74206265207369676e6564000000000000000000000000000081525060200191505060405180910390fd5b82600185815481101515611cf157fe5b9060005260206000209060070201600101819055507f6964656e74696669657200000000000000000000000000000000000000000000847f67ace838aca3988a026b61036d72b93a8316d05feecb6ee10316e8d59f0e687f856040518082815260200191505060405180910390a350505050565b806000803373ffffffffffffffffffffffffffffffffffffffff1673ffffffffffffffffffffffffffffffffffffffff1681526020019081526020016000206000019080519060200190611dba929190612d2a565b503373ffffffffffffffffffffffffffffffffffffffff167f53d207b6cf416d44764c48a52a7e64ffa2793f67215d452a032a11e0dd34bd2c826040518080602001828103825283818151815260200191508051906020019080838360005b83811015611e34578082015181840152602081019050611e19565b50505050905090810190601f168015611e615780820380516001836020036101000a031916815260200191505b509250505060405180910390a250565b6060600360008381526020019081526020016000208054600181600116156101000203166002900480601f016020809104026020016040519081016040528092919081815260200182805460018160011615610100020316600290048015611f1a5780601f10611eef57610100808354040283529160200191611f1a565b820191906000526020600020905b815481529060010190602001808311611efd57829003601f168201915b50505050509050919050565b60006004826040518082805190602001908083835b602083101515611f605780518252602082019150602081019050602083039250611f3b565b6001836020036101000a0380198251168184511680821785525050505050509050019150509081526020016040518091039020549050919050565b600581815481101515611faa57fe5b90600052602060002090600402016000915090508060000160009054906101000a900473ffffffffffffffffffffffffffffffffffffffff16908060010154908060020154908060030160009054906101000a900460ff16905084565b600060018481548110151561201857fe5b9060005260206000209060070201600101546001900473ffffffffffffffffffffffffffffffffffffffff1661204e8484612c46565b73ffffffffffffffffffffffffffffffffffffffff161490509392505050565b60608060066000848152602001908152602001600020546040519080825280602002602001820160405280156120b35781602001602082028038833980820191505090505b509050600080905060008090505b60058054905081101561216657846005828154811015156120de57fe5b90600052602060002090600402016001015414801561212e57506000151560058281548110151561210b57fe5b906000526020600020906004020160030160009054906101000a900460ff161515145b156121595780838381518110151561214257fe5b906020019060200201818152505081806001019250505b80806001019150506120c1565b508192505050919050565b600061217b612daa565b6080604051908101604052803373ffffffffffffffffffffffffffffffffffffffff168152602001858152602001848152602001600015158152509050600060016005839080600181540180825580915050906001820390600052602060002090600402016000909192909190915060008201518160000160006101000a81548173ffffffffffffffffffffffffffffffffffffffff021916908373ffffffffffffffffffffffffffffffffffffffff160217905550602082015181600101556040820151816002015560608201518160030160006101000a81548160ff021916908315150217905550505003905060066000868152602001908152602001600020600081548092919060010191905055503373ffffffffffffffffffffffffffffffffffffffff1685827f3739f348a11e3a029a385b4746ea6edba7f01ceec207010638e9d17862b78c40876040518082815260200191505060405180910390a4809250505092915050565b6000602052806000526040600020600091509050806000018054600181600116156101000203166002900480601f0160208091040260200160405190810160405280929190818152602001828054600181600116156101000203166002900480156123945780601f1061236957610100808354040283529160200191612394565b820191906000526020600020905b81548152906001019060200180831161237757829003601f168201915b5050505050905081565b60036020528060005260406000206000915090508054600181600116156101000203166002900480601f0160208091040260200160405190810160405280929190818152602001828054600181600116156101000203166002900480156124465780601f1061241b57610100808354040283529160200191612446565b820191906000526020600020905b81548152906001019060200180831161242957829003601f168201915b505050505081565b60066020528060005260406000206000915090505481565b8060036000848152602001908152602001600020908051906020019061248d929190612d2a565b505050565b813373ffffffffffffffffffffffffffffffffffffffff166001828154811015156124b957fe5b906000526020600020906007020160000160009054906101000a900473ffffffffffffffffffffffffffffffffffffffff1673ffffffffffffffffffffffffffffffffffffffff16141515612576576040517f08c379a00000000000000000000000000000000000000000000000000000000081526004018080602001828103825260158152602001807f4f6e6c7920666f7220646576696365206f776e6572000000000000000000000081525060200191505060405180910390fd5b8260006006600083815260200190815260200160002054141515612602576040517f08c379a00000000000000000000000000000000000000000000000000000000081526004018080602001828103825260128152602001807f4d757374206e6f74206265207369676e6564000000000000000000000000000081525060200191505060405180910390fd5b600060018581548110151561261357fe5b906000526020600020906007020160000160009054906101000a900473ffffffffffffffffffffffffffffffffffffffff1690508360018681548110151561265757fe5b906000526020600020906007020160000160006101000a81548173ffffffffffffffffffffffffffffffffffffffff021916908373ffffffffffffffffffffffffffffffffffffffff160217905550600260003373ffffffffffffffffffffffffffffffffffffffff1673ffffffffffffffffffffffffffffffffffffffff1681526020019081526020016000206000815480929190600190039190505550600260008573ffffffffffffffffffffffffffffffffffffffff1673ffffffffffffffffffffffffffffffffffffffff16815260200190815260200160002060008154809291906001019190505550847f848155b8e733cfd6e7258639111d906437ddb051818f4061fc4c7cfbc575cb2e8286604051808373ffffffffffffffffffffffffffffffffffffffff1673ffffffffffffffffffffffffffffffffffffffff1681526020018273ffffffffffffffffffffffffffffffffffffffff1673ffffffffffffffffffffffffffffffffffffffff1681526020019250505060405180910390a25050505050565b60006127ee612deb565b60e0604051908101604052803373ffffffffffffffffffffffffffffffffffffffff168152602001898152602001888152602001878152602001868152602001858152602001600015158152509050856004856040518082805190602001908083835b6020831015156128765780518252602082019150602081019050602083039250612851565b6001836020036101000a038019825116818451168082178552505050505050905001915050908152602001604051809103902081905550826003600088815260200190815260200160002090805190602001906128d4929190612d2a565b506000600180839080600181540180825580915050906001820390600052602060002090600702016000909192909190915060008201518160000160006101000a81548173ffffffffffffffffffffffffffffffffffffffff021916908373ffffffffffffffffffffffffffffffffffffffff160217905550602082015181600101556040820151816002019080519060200190612973929190612e47565b5060608201518160030155608082015181600401908051906020019061299a929190612e47565b5060a08201518160050190805190602001906129b7929190612e47565b5060c08201518160060160006101000a81548160ff0219169083151502179055505050039050600260003373ffffffffffffffffffffffffffffffffffffffff1673ffffffffffffffffffffffffffffffffffffffff168152602001908152602001600020600081548092919060010191905055503373ffffffffffffffffffffffffffffffffffffffff16817fde4ee6b3ca944eadd6dffc1090db8df6b871245d6fedeee94222fa27798479538b8b8b8b8b8b604051808781526020018060200186815260200180602001806020018060200185810385528a818151815260200191508051906020019080838360005b83811015612ac3578082015181840152602081019050612aa8565b50505050905090810190601f168015612af05780820380516001836020036101000a031916815260200191505b50858103845288818151815260200191508051906020019080838360005b83811015612b29578082015181840152602081019050612b0e565b50505050905090810190601f168015612b565780820380516001836020036101000a031916815260200191505b50858103835287818151815260200191508051906020019080838360005b83811015612b8f578082015181840152602081019050612b74565b50505050905090810190601f168015612bbc5780820380516001836020036101000a031916815260200191505b50858103825286818151815260200191508051906020019080838360005b83811015612bf5578082015181840152602081019050612bda565b50505050905090810190601f168015612c225780820380516001836020036101000a031916815260200191505b509a505050505050505050505060405180910390a380925050509695505050505050565b60008060008060418551141515612c635760009350505050612d24565b6020850151925060408501519150606085015160001a9050601b8160ff161015612c8e57601b810190505b601b8160ff1614158015612ca65750601c8160ff1614155b15612cb75760009350505050612d24565b60018682858560405160008152602001604052604051808581526020018460ff1660ff1681526020018381526020018281526020019450505050506020604051602081039080840390855afa158015612d14573d6000803e3d6000fd5b5050506020604051035193505050505b92915050565b828054600181600116156101000203166002900490600052602060002090601f016020900481019282601f10612d6b57805160ff1916838001178555612d99565b82800160010185558215612d99579182015b82811115612d98578251825591602001919060010190612d7d565b5b509050612da69190612ec7565b5090565b608060405190810160405280600073ffffffffffffffffffffffffffffffffffffffff16815260200160008152602001600081526020016000151581525090565b60e060405190810160405280600073ffffffffffffffffffffffffffffffffffffffff16815260200160008019168152602001606081526020016000801916815260200160608152602001606081526020016000151581525090565b828054600181600116156101000203166002900490600052602060002090601f016020900481019282601f10612e8857805160ff1916838001178555612eb6565b82800160010185558215612eb6579182015b82811115612eb5578251825591602001919060010190612e9a565b5b509050612ec39190612ec7565b5090565b612ee991905b80821115612ee5576000816000905550600101612ecd565b5090565b9056fea165627a7a72305820b85260aa87fd3aa9e292b2e8ecad44fd515813f75cddfede5cdf1684b192760b0029",
  "source": "pragma solidity ^0.5.0;\n\nimport \"./MerkleProof.sol\";\nimport \"./ECRecovery.sol\";\n\n/**\n * @title Provides base functionalities for entities.\n */\ncontract EntityBase {\n    /// @dev Entity in the device management system.\n    struct Entity {\n        // Arbitary data in case entity wants to have some public information available.\n        string data;\n    }\n\n    /// @notice Maps owner to an Entity structure.\n    mapping (address => Entity) public ownerToEntity;\n\n    /// @dev Fired on entity data update.\n    event EntityDataUpdated(address indexed owner, string newData);\n\n    /**\n     * @notice Update entity data.\n     * @param _data Entity data.\n     */\n    function updateEntityData(string memory _data) public {\n        ownerToEntity[msg.sender].data = _data;\n\n        emit EntityDataUpdated(msg.sender, _data);\n    }\n}\n\n/**\n * @title Provides base functionalities for devices.\n */\ncontract DeviceBase {\n    /// @dev Main device structucture.\n    struct Device {\n        // Ethereum address of a device owner.\n        address owner;\n\n        // Unique device identifier. Can hold anything that fits into 32 bytes. Different from device ID.\n        // Supposed to be a public key or a representation of one, such as fingerprint of RSA/ECC\n        // public key or simply an Ethereum address. To make identifier be an Ethereum address,\n        // use secp256k1 curve to generate public and private key pair, run keccak256 hash function\n        // on public key and take last 20 bytes of generated hash to get Ethereum address.\n        // If a device wants to be it's own entity, use same address as in owner property.\n        bytes32 identifier;\n\n        // Merkle root hash of metadata or simple hash of concatenated data.\n        // It is recommended to use Merkle tree to store information on device as it enables to\n        // prove membership of specific data by providing Merkle proof without revealing whole dataset.\n        string publicKey;\n\n        // Holds a hash of actual firmware hash. Actual firmware hash is not supposed to be stored.\n        // Plain text or hash would expose data that is meant to be private, so \"hash of hash\" principle\n        // gives privacy and makes integrity verification possible.\n        bytes32 applicationId;\n        string applicationName;\n\n        string endpointClientName;\n        bool deactivated;\n        // Additional data linked to device. Can be used to store hash of encrypted firmware on IPFS.\n        //string offchainLink;\n\n        // Full public key (even though parties can exchange public key other ways then use\n        // blockchain to verify.)\n        //string publicKey;\n    }\n\n    /// @notice State variable for storing devices. Index in the array is also a device ID.\n    /// Array can hold a maximum of 2^256-1 entries.\n    Device[] public devices;\n\n    /// @notice Keeps track of total devices for each owner.\n    mapping (address => uint) public ownerDeviceCount;\n\n    /// @notice Keeps track of total devices for each owner.\n    mapping (bytes32 => string) public applicationToLinkedDevices;\n\n    /// @notice deviceClientName to linkedAPP id\n    mapping (string => bytes32) deviceClientNameToAppId;\n    /// @dev Fired on creation of new device.\n    event DeviceCreated(uint indexed deviceId, address indexed owner, bytes32 identifier, string publicKey, bytes32 applicationId, string applicationName, string endpointClientName, string allDevices);\n\n    /// @dev Modifier for ensuring that the message sender is owner of provided device ID.\n    modifier onlyOwnerOf(uint _deviceId) {\n        require(devices[_deviceId].owner == msg.sender, \"Only for device owner\");\n        _;\n    }\n\n    /**\n     * @notice Creates and saves device into storage. Emits DeviceCreated.\n     * @param _identifier Unique device identifier, such as fingerprint of RSA/ECC public key or Ethereum address (recommended).\n     * @param _publicKey Merkle root hash of metadata (recommended) or simple hash of concatenated metadata.\n     * @param _applicationId App linked to.\n     * @param _endpointClientName Endpoint Client Name.\n     * @return Created device ID.\n     */\n    function createDevice(bytes32 _identifier, string memory _publicKey, bytes32 _applicationId, string memory _applicationName, string memory _endpointClientName, string memory _allDevices) public returns (uint) {\n        Device memory newDevice = Device(msg.sender, _identifier, _publicKey, _applicationId, _applicationName, _endpointClientName, false);\n//        applicationToLinkedDevices[_applicationId] = _applicationName;\n        deviceClientNameToAppId[_endpointClientName] = _applicationId;\n        applicationToLinkedDevices[_applicationId] = _allDevices;\n        uint deviceId = devices.push(newDevice) - 1;\n        ownerDeviceCount[msg.sender]++;\n        emit DeviceCreated(deviceId, msg.sender, _identifier, _publicKey, _applicationId, _applicationName, _endpointClientName, _allDevices);\n        return deviceId;\n    }\n\n    function getDevicesByAppId(bytes32 _appId) public view returns (string memory) {\n        return applicationToLinkedDevices[_appId];\n    }\n    function getAppIdByDeviceClientName(string memory _deviceClientName) public view returns (bytes32) {\n        return deviceClientNameToAppId[_deviceClientName];\n    }\n\n}\n\n/**\n * @title Provides extra functionalities for devices.\n */\ncontract DeviceHelper is DeviceBase {\n    /**\n      * @notice Gets all devices owned by specified address.\n      * @dev Use this function instead of filtering DeviceCreated event since devices could have been transferred between owners.\n      * @param _owner Owner address.\n      * @return Array of device IDs.\n      */\n    function getDevicesByOwner(address _owner) public view returns (uint[] memory) {\n        uint[] memory deviceIds = new uint[](ownerDeviceCount[_owner]);\n        uint counter = 0;\n        for (uint i = 0; i < devices.length; i++) {\n            if (devices[i].owner == _owner) {\n                deviceIds[counter] = i;\n                counter++;\n            }\n        }\n        return deviceIds;\n    }\n\n    /**\n     * @notice Checks if device is also an entity.\n     * @param _deviceId ID of a  device.\n     * @return Boolean status.\n     */\n    function isDeviceAnEntity(uint _deviceId) public view returns (bool) {\n        return devices[_deviceId].owner == address(uint160(uint256(devices[_deviceId].identifier)));\n    }\n\n    function isValidEthMessage(uint _deviceId, bytes32 _messageHash, bytes memory _signature) public view returns (bool) {\n        return ECRecovery.recover(_messageHash, _signature) == address(uint160(uint256(devices[_deviceId].identifier)));\n    }\n}\n\n/**\n * @title Provides base functionalities for signatures.\n */\ncontract SignatureBase {\n    /// @dev Main signature structucture.\n    struct Signature {\n        // Ethereum address of the signer.\n        address signer;\n\n        // ID of device to sign.\n        uint deviceId;\n\n        // Using 256 bits ensures no overflow on year 2038 (Unix seconds).\n        uint expiryTime;\n\n        // Updates to true once signer decides to revoke signature.\n        bool revoked;\n    }\n\n    /// @notice State variable for storing signatures. Index in the array is also a signature ID.\n    /// Array can hold a maximum of 2^256-1 entries.\n    Signature[] public signatures;\n\n    /// @notice Keeps track of total signatures for each device.\n    mapping (uint => uint) public deviceSignatureCount;\n\n    /// @dev Fired when an address signs a device.\n    event DeviceSigned(uint indexed signatureId, uint indexed deviceId, address indexed signer, uint expiryTime);\n\n    /// @dev Fired when signature is revoked.\n    event SignatureRevoked(uint indexed signatureId, uint indexed deviceId);\n\n    /// @dev Modifier for ensuring that the device hasn't been signed already.\n    modifier notSigned(uint _deviceId) {\n        require(deviceSignatureCount[_deviceId] == 0, \"Must not be signed\");\n        _;\n    }\n\n    /**\n     * @notice Signs a device and signature into storage. Emits DeviceSigned.\n     * @param _deviceId ID of to be signed device.\n     * @param _expiryTime Expiry time in Unix seconds.\n     * @return Created signature ID.\n     */\n    function signDevice(uint _deviceId, uint _expiryTime) public returns (uint) {\n        Signature memory signature = Signature(msg.sender, _deviceId, _expiryTime, false);\n        uint signatureId = signatures.push(signature) - 1;\n        deviceSignatureCount[_deviceId]++;\n\n        emit DeviceSigned(signatureId, _deviceId, msg.sender, _expiryTime);\n        return signatureId;\n    }\n\n    /**\n     * @notice Revokes a signature. Emits SignatureRevoked.\n     * @param _signatureId ID of to be revoked signature.\n     */\n    function revokeSignature(uint _signatureId) public {\n        require(signatures[_signatureId].signer == msg.sender, \"Only for creator of the signature\");\n        require(signatures[_signatureId].revoked == false, \"Signature mustn't be revoked already\");\n        Signature storage signature = signatures[_signatureId];\n        signature.revoked = true;\n        deviceSignatureCount[signature.deviceId]--;\n\n        emit SignatureRevoked(_signatureId, signature.deviceId);\n    }\n}\n\n/**\n * @title Provides extra functionalities for signatures.\n */\ncontract SignatureHelper is SignatureBase {\n    /**\n     * @notice Gets all signatures for specific device.\n     * @dev Use this function instead of filtering DeviceSigned event since signatures could have been revoked.\n     * @param _deviceId ID of a device.\n     * @return Array of signature IDs.\n     */\n    function getActiveSignaturesForDevice(uint _deviceId) public view returns (uint[] memory) {\n        uint[] memory signatureIds = new uint[](deviceSignatureCount[_deviceId]);\n        uint counter = 0;\n        for (uint i = 0; i < signatures.length; i++) {\n            if (signatures[i].deviceId == _deviceId && signatures[i].revoked == false) {\n                signatureIds[counter] = i;\n                counter++;\n            }\n        }\n        return signatureIds;\n    }\n}\n\n/**\n * @title Enriches devices giving them option to be updated only if not signed already.\n */\ncontract DeviceUpdatable is DeviceHelper, SignatureHelper {\n    /// @dev Fired on device ownership transfer, keeps track of historical device owners.\n    event DeviceTransfered(uint indexed deviceId, address oldOwner, address newOwner);\n\n    /// @dev Fired on device property update, keeps track of historical property values.\n    event DevicePropertyUpdated(uint indexed deviceId, bytes32 indexed property, bytes32 newValue);\n\n    /// @dev Fired on device property update, keeps track of historical property values.\n    event DeviceActivityStatusUpdated(uint indexed deviceId, bool newValue);\n    /**\n     * @notice Transfer device ownership from one external account to another. Emits DeviceTransfered.\n     * @param _deviceId ID of to be transfered device.\n     * @param _to Address of new owner.\n     */\n    function transferDevice(uint _deviceId, address _to) public onlyOwnerOf(_deviceId) notSigned(_deviceId) {\n        address currentOwner = devices[_deviceId].owner;\n        devices[_deviceId].owner = _to;\n        ownerDeviceCount[msg.sender]--;\n        ownerDeviceCount[_to]++;\n\n        emit DeviceTransfered(_deviceId, currentOwner, _to);\n    }\n\n    function changeActivityStatus(uint _deviceId) public {\n        devices[_deviceId].deactivated = !devices[_deviceId].deactivated;\n        emit DeviceActivityStatusUpdated(_deviceId, devices[_deviceId].deactivated);\n    }\n\n    function updateAppConnectedDevices(bytes32 _applicationId, string memory _allDevices) public {\n        applicationToLinkedDevices[_applicationId] = _allDevices;\n    }\n    /**\n     * @notice Update device with new identifier. Emits DevicePropertyUpdated.\n     * @param _deviceId ID of a device.\n     * @param _newIdentifier New identifier.\n     */\n    function updateIdentifier(uint _deviceId, bytes32 _newIdentifier) public onlyOwnerOf(_deviceId) notSigned(_deviceId) {\n        devices[_deviceId].identifier = _newIdentifier;\n\n        emit DevicePropertyUpdated(_deviceId, \"identifier\", _newIdentifier);\n    }\n\n    /**\n     * @notice Update device with new metadata hash. Emits DevicePropertyUpdated.\n     * @param _deviceId ID of a device.\n     * @param _newPublicKey New PublicKey\n     */\n    function updateMetadataHash(uint _deviceId, string memory _newPublicKey) public onlyOwnerOf(_deviceId) notSigned(_deviceId) {\n        devices[_deviceId].publicKey = _newPublicKey;\n\n//        emit DevicePropertyUpdated(_deviceId, \"metadata\", _newMetadataHash);\n    }\n\n    /**\n     * @notice Update device with new firmware hash. Emits DevicePropertyUpdated.\n     * @param _deviceId ID of a device.\n     * @param _newApplicationId New _newApplicationId.\n     */\n    function updateApplicationId(uint _deviceId, bytes32 _newApplicationId) public onlyOwnerOf(_deviceId) notSigned(_deviceId) {\n        devices[_deviceId].applicationId = _newApplicationId;\n\n//        emit DevicePropertyUpdated(_deviceId, \"firmware\", _newFirmwareHash);\n    }\n}\n\n/// @title Device manager core contract.\ncontract Application is EntityBase, DeviceUpdatable {\n    /// @dev Merges contracts.\n}",
  "sourcePath": "/Users/kimwang/Desktop/895/leshan/blockchain-integration/contracts/Application.sol",
  "compiler": {
    "name": "solc",
    "version": "0.5.0+commit.1d4f565a.Emscripten.clang"
  },
  "schemaVersion": "3.0.20",
  "updatedAt": "2020-06-06T07:51:31.690Z",
  "networkType": "ethereum",
  "devdoc": {
    "methods": {
      "createDevice(bytes32,string,bytes32,string,string,string)": {
        "params": {
          "_applicationId": "App linked to.",
          "_endpointClientName": "Endpoint Client Name.",
          "_identifier": "Unique device identifier, such as fingerprint of RSA/ECC public key or Ethereum address (recommended).",
          "_publicKey": "Merkle root hash of metadata (recommended) or simple hash of concatenated metadata."
        },
        "return": "Created device ID."
      },
      "getActiveSignaturesForDevice(uint256)": {
        "details": "Use this function instead of filtering DeviceSigned event since signatures could have been revoked.",
        "params": {
          "_deviceId": "ID of a device."
        },
        "return": "Array of signature IDs."
      },
      "getDevicesByOwner(address)": {
        "details": "Use this function instead of filtering DeviceCreated event since devices could have been transferred between owners.",
        "params": {
          "_owner": "Owner address."
        },
        "return": "Array of device IDs."
      },
      "isDeviceAnEntity(uint256)": {
        "params": {
          "_deviceId": "ID of a  device."
        },
        "return": "Boolean status."
      },
      "revokeSignature(uint256)": {
        "params": {
          "_signatureId": "ID of to be revoked signature."
        }
      },
      "signDevice(uint256,uint256)": {
        "params": {
          "_deviceId": "ID of to be signed device.",
          "_expiryTime": "Expiry time in Unix seconds."
        },
        "return": "Created signature ID."
      },
      "transferDevice(uint256,address)": {
        "params": {
          "_deviceId": "ID of to be transfered device.",
          "_to": "Address of new owner."
        }
      },
      "updateApplicationId(uint256,bytes32)": {
        "params": {
          "_deviceId": "ID of a device.",
          "_newApplicationId": "New _newApplicationId."
        }
      },
      "updateEntityData(string)": {
        "params": {
          "_data": "Entity data."
        }
      },
      "updateIdentifier(uint256,bytes32)": {
        "params": {
          "_deviceId": "ID of a device.",
          "_newIdentifier": "New identifier."
        }
      },
      "updateMetadataHash(uint256,string)": {
        "params": {
          "_deviceId": "ID of a device.",
          "_newPublicKey": "New PublicKey"
        }
      }
    },
    "title": "Device manager core contract."
  },
  "userdoc": {
    "methods": {
      "createDevice(bytes32,string,bytes32,string,string,string)": {
        "notice": "Creates and saves device into storage. Emits DeviceCreated."
      },
      "getActiveSignaturesForDevice(uint256)": {
        "notice": "Gets all signatures for specific device."
      },
      "getDevicesByOwner(address)": {
        "notice": "Gets all devices owned by specified address."
      },
      "isDeviceAnEntity(uint256)": {
        "notice": "Checks if device is also an entity."
      },
      "revokeSignature(uint256)": {
        "notice": "Revokes a signature. Emits SignatureRevoked."
      },
      "signDevice(uint256,uint256)": {
        "notice": "Signs a device and signature into storage. Emits DeviceSigned."
      },
      "transferDevice(uint256,address)": {
        "notice": "Transfer device ownership from one external account to another. Emits DeviceTransfered."
      },
      "updateApplicationId(uint256,bytes32)": {
        "notice": "Update device with new firmware hash. Emits DevicePropertyUpdated."
      },
      "updateEntityData(string)": {
        "notice": "Update entity data."
      },
      "updateIdentifier(uint256,bytes32)": {
        "notice": "Update device with new identifier. Emits DevicePropertyUpdated."
      },
      "updateMetadataHash(uint256,string)": {
        "notice": "Update device with new metadata hash. Emits DevicePropertyUpdated."
      }
    }
  }
}