{
  "contractName": "Application",
  "abi": [
    {
      "constant": true,
      "inputs": [
        {
          "name": "_deviceClientName",
          "type": "string"
        }
      ],
      "name": "getThresholdByDeviceClientName",
      "outputs": [
        {
          "name": "",
          "type": "string"
        }
      ],
      "payable": false,
      "stateMutability": "view",
      "type": "function"
    },
    {
      "constant": false,
      "inputs": [
        {
          "name": "_deviceId",
          "type": "uint256"
        },
        {
          "name": "_newPublicKey",
          "type": "string"
        }
      ],
      "name": "updateMetadataHash",
      "outputs": [],
      "payable": false,
      "stateMutability": "nonpayable",
      "type": "function"
    },
    {
      "constant": true,
      "inputs": [
        {
          "name": "_deviceId",
          "type": "uint256"
        }
      ],
      "name": "isDeviceAnEntity",
      "outputs": [
        {
          "name": "",
          "type": "bool"
        }
      ],
      "payable": false,
      "stateMutability": "view",
      "type": "function"
    },
    {
      "constant": true,
      "inputs": [
        {
          "name": "",
          "type": "uint256"
        }
      ],
      "name": "devices",
      "outputs": [
        {
          "name": "owner",
          "type": "address"
        },
        {
          "name": "identifier",
          "type": "bytes32"
        },
        {
          "name": "publicKey",
          "type": "string"
        },
        {
          "name": "applicationId",
          "type": "bytes32"
        },
        {
          "name": "applicationName",
          "type": "string"
        },
        {
          "name": "endpointClientName",
          "type": "string"
        },
        {
          "name": "deactivated",
          "type": "bool"
        },
        {
          "name": "index",
          "type": "uint256"
        },
        {
          "name": "deviceType",
          "type": "string"
        }
      ],
      "payable": false,
      "stateMutability": "view",
      "type": "function"
    },
    {
      "constant": false,
      "inputs": [
        {
          "name": "_deviceId",
          "type": "uint256"
        },
        {
          "name": "_newApplicationId",
          "type": "bytes32"
        }
      ],
      "name": "updateApplicationId",
      "outputs": [],
      "payable": false,
      "stateMutability": "nonpayable",
      "type": "function"
    },
    {
      "constant": true,
      "inputs": [
        {
          "name": "",
          "type": "address"
        }
      ],
      "name": "ownerDeviceCount",
      "outputs": [
        {
          "name": "",
          "type": "uint256"
        }
      ],
      "payable": false,
      "stateMutability": "view",
      "type": "function"
    },
    {
      "constant": false,
      "inputs": [
        {
          "name": "_signatureId",
          "type": "uint256"
        }
      ],
      "name": "revokeSignature",
      "outputs": [],
      "payable": false,
      "stateMutability": "nonpayable",
      "type": "function"
    },
    {
      "constant": true,
      "inputs": [
        {
          "name": "_owner",
          "type": "address"
        }
      ],
      "name": "getDevicesByOwner",
      "outputs": [
        {
          "name": "",
          "type": "uint256[]"
        }
      ],
      "payable": false,
      "stateMutability": "view",
      "type": "function"
    },
    {
      "constant": false,
      "inputs": [
        {
          "name": "_deviceId",
          "type": "uint256"
        }
      ],
      "name": "changeActivityStatus",
      "outputs": [],
      "payable": false,
      "stateMutability": "nonpayable",
      "type": "function"
    },
    {
      "constant": false,
      "inputs": [
        {
          "name": "_deviceId",
          "type": "uint256"
        },
        {
          "name": "_newIdentifier",
          "type": "bytes32"
        }
      ],
      "name": "updateIdentifier",
      "outputs": [],
      "payable": false,
      "stateMutability": "nonpayable",
      "type": "function"
    },
    {
      "constant": false,
      "inputs": [
        {
          "name": "_data",
          "type": "string"
        }
      ],
      "name": "updateEntityData",
      "outputs": [],
      "payable": false,
      "stateMutability": "nonpayable",
      "type": "function"
    },
    {
      "constant": true,
      "inputs": [
        {
          "name": "_appId",
          "type": "bytes32"
        }
      ],
      "name": "getDevicesByAppId",
      "outputs": [
        {
          "name": "",
          "type": "string"
        }
      ],
      "payable": false,
      "stateMutability": "view",
      "type": "function"
    },
    {
      "constant": false,
      "inputs": [
        {
          "name": "_deviceClientName",
          "type": "string"
        },
        {
          "name": "_threshold",
          "type": "string"
        }
      ],
      "name": "updateThreshold",
      "outputs": [],
      "payable": false,
      "stateMutability": "nonpayable",
      "type": "function"
    },
    {
      "constant": true,
      "inputs": [
        {
          "name": "_deviceClientName",
          "type": "string"
        }
      ],
      "name": "getAppIdByDeviceClientName",
      "outputs": [
        {
          "name": "",
          "type": "bytes32"
        }
      ],
      "payable": false,
      "stateMutability": "view",
      "type": "function"
    },
    {
      "constant": true,
      "inputs": [
        {
          "name": "",
          "type": "uint256"
        }
      ],
      "name": "signatures",
      "outputs": [
        {
          "name": "signer",
          "type": "address"
        },
        {
          "name": "deviceId",
          "type": "uint256"
        },
        {
          "name": "expiryTime",
          "type": "uint256"
        },
        {
          "name": "revoked",
          "type": "bool"
        }
      ],
      "payable": false,
      "stateMutability": "view",
      "type": "function"
    },
    {
      "constant": true,
      "inputs": [
        {
          "name": "_deviceId",
          "type": "uint256"
        },
        {
          "name": "_messageHash",
          "type": "bytes32"
        },
        {
          "name": "_signature",
          "type": "bytes"
        }
      ],
      "name": "isValidEthMessage",
      "outputs": [
        {
          "name": "",
          "type": "bool"
        }
      ],
      "payable": false,
      "stateMutability": "view",
      "type": "function"
    },
    {
      "constant": true,
      "inputs": [
        {
          "name": "_deviceId",
          "type": "uint256"
        }
      ],
      "name": "getActiveSignaturesForDevice",
      "outputs": [
        {
          "name": "",
          "type": "uint256[]"
        }
      ],
      "payable": false,
      "stateMutability": "view",
      "type": "function"
    },
    {
      "constant": false,
      "inputs": [
        {
          "name": "_deviceId",
          "type": "uint256"
        },
        {
          "name": "_expiryTime",
          "type": "uint256"
        }
      ],
      "name": "signDevice",
      "outputs": [
        {
          "name": "",
          "type": "uint256"
        }
      ],
      "payable": false,
      "stateMutability": "nonpayable",
      "type": "function"
    },
    {
      "constant": true,
      "inputs": [
        {
          "name": "",
          "type": "address"
        }
      ],
      "name": "ownerToEntity",
      "outputs": [
        {
          "name": "data",
          "type": "string"
        }
      ],
      "payable": false,
      "stateMutability": "view",
      "type": "function"
    },
    {
      "constant": true,
      "inputs": [
        {
          "name": "",
          "type": "bytes32"
        }
      ],
      "name": "applicationToLinkedDevices",
      "outputs": [
        {
          "name": "",
          "type": "string"
        }
      ],
      "payable": false,
      "stateMutability": "view",
      "type": "function"
    },
    {
      "constant": true,
      "inputs": [
        {
          "name": "",
          "type": "uint256"
        }
      ],
      "name": "deviceSignatureCount",
      "outputs": [
        {
          "name": "",
          "type": "uint256"
        }
      ],
      "payable": false,
      "stateMutability": "view",
      "type": "function"
    },
    {
      "constant": false,
      "inputs": [
        {
          "name": "_applicationId",
          "type": "bytes32"
        },
        {
          "name": "_allDevices",
          "type": "string"
        }
      ],
      "name": "updateAppConnectedDevices",
      "outputs": [],
      "payable": false,
      "stateMutability": "nonpayable",
      "type": "function"
    },
    {
      "constant": false,
      "inputs": [
        {
          "name": "_deviceId",
          "type": "uint256"
        },
        {
          "name": "_to",
          "type": "address"
        }
      ],
      "name": "transferDevice",
      "outputs": [],
      "payable": false,
      "stateMutability": "nonpayable",
      "type": "function"
    },
    {
      "constant": false,
      "inputs": [
        {
          "name": "_identifier",
          "type": "bytes32"
        },
        {
          "name": "_publicKey",
          "type": "string"
        },
        {
          "name": "_applicationId",
          "type": "bytes32"
        },
        {
          "name": "_applicationName",
          "type": "string"
        },
        {
          "name": "_endpointClientName",
          "type": "string"
        },
        {
          "name": "_allDevices",
          "type": "string"
        },
        {
          "name": "_type",
          "type": "string"
        },
        {
          "name": "_threshold",
          "type": "string"
        }
      ],
      "name": "createDevice",
      "outputs": [
        {
          "name": "",
          "type": "uint256"
        }
      ],
      "payable": false,
      "stateMutability": "nonpayable",
      "type": "function"
    },
    {
      "anonymous": false,
      "inputs": [
        {
          "indexed": true,
          "name": "deviceId",
          "type": "uint256"
        },
        {
          "indexed": false,
          "name": "oldOwner",
          "type": "address"
        },
        {
          "indexed": false,
          "name": "newOwner",
          "type": "address"
        }
      ],
      "name": "DeviceTransfered",
      "type": "event"
    },
    {
      "anonymous": false,
      "inputs": [
        {
          "indexed": true,
          "name": "deviceId",
          "type": "uint256"
        },
        {
          "indexed": true,
          "name": "property",
          "type": "bytes32"
        },
        {
          "indexed": false,
          "name": "newValue",
          "type": "bytes32"
        }
      ],
      "name": "DevicePropertyUpdated",
      "type": "event"
    },
    {
      "anonymous": false,
      "inputs": [
        {
          "indexed": true,
          "name": "deviceId",
          "type": "uint256"
        },
        {
          "indexed": false,
          "name": "newValue",
          "type": "bool"
        }
      ],
      "name": "DeviceActivityStatusUpdated",
      "type": "event"
    },
    {
      "anonymous": false,
      "inputs": [
        {
          "indexed": false,
          "name": "clientName",
          "type": "string"
        },
        {
          "indexed": false,
          "name": "thresholdStr",
          "type": "string"
        }
      ],
      "name": "DeviceThresholdUpdated",
      "type": "event"
    },
    {
      "anonymous": false,
      "inputs": [
        {
          "indexed": true,
          "name": "signatureId",
          "type": "uint256"
        },
        {
          "indexed": true,
          "name": "deviceId",
          "type": "uint256"
        },
        {
          "indexed": true,
          "name": "signer",
          "type": "address"
        },
        {
          "indexed": false,
          "name": "expiryTime",
          "type": "uint256"
        }
      ],
      "name": "DeviceSigned",
      "type": "event"
    },
    {
      "anonymous": false,
      "inputs": [
        {
          "indexed": true,
          "name": "signatureId",
          "type": "uint256"
        },
        {
          "indexed": true,
          "name": "deviceId",
          "type": "uint256"
        }
      ],
      "name": "SignatureRevoked",
      "type": "event"
    },
    {
      "anonymous": false,
      "inputs": [
        {
          "indexed": true,
          "name": "deviceId",
          "type": "uint256"
        },
        {
          "indexed": true,
          "name": "owner",
          "type": "address"
        },
        {
          "indexed": false,
          "name": "identifier",
          "type": "bytes32"
        },
        {
          "indexed": false,
          "name": "publicKey",
          "type": "string"
        },
        {
          "indexed": false,
          "name": "applicationId",
          "type": "bytes32"
        },
        {
          "indexed": false,
          "name": "applicationName",
          "type": "string"
        },
        {
          "indexed": false,
          "name": "endpointClientName",
          "type": "string"
        },
        {
          "indexed": false,
          "name": "allDevices",
          "type": "string"
        }
      ],
      "name": "DeviceCreated",
      "type": "event"
    },
    {
      "anonymous": false,
      "inputs": [
        {
          "indexed": true,
          "name": "owner",
          "type": "address"
        },
        {
          "indexed": false,
          "name": "newData",
          "type": "string"
        }
      ],
      "name": "EntityDataUpdated",
      "type": "event"
    }
  ],
  "bytecode": "0x608060405234801561001057600080fd5b50613779806100206000396000f3fe60806040526004361061013e576000357c0100000000000000000000000000000000000000000000000000000000900463ffffffff1680630188073d1461014357806307d88a8b146102845780630bcb88e81461035657806310ff8e31146103a95780631b44ac70146105f45780632a08e601146106395780633da1f79a1461069e57806351b0e987146106d9578063526b134a1461077f578063533293ab146107ba5780635a3f79d2146107ff5780635bbd710b146108c75780635dbaef011461097b57806367bcfdf114610ada5780638be1019414610bb65780638e9075be14610c4a5780639de9662d14610d3e578063aa554c9d14610dce578063acbcb50714610e27578063ad352e0914610ef1578063b0bd9fda14610fa5578063b9b5c6a014610ff4578063ee235783146110c6578063f330797e14611121575b600080fd5b34801561014f57600080fd5b506102096004803603602081101561016657600080fd5b810190808035906020019064010000000081111561018357600080fd5b82018360208201111561019557600080fd5b803590602001918460018302840111640100000000831117156101b757600080fd5b91908080601f016020809104026020016040519081016040528093929190818152602001838380828437600081840152601f19601f820116905080830192505050505050509192919290505050611505565b6040518080602001828103825283818151815260200191508051906020019080838360005b8381101561024957808201518184015260208101905061022e565b50505050905090810190601f1680156102765780820380516001836020036101000a031916815260200191505b509250505060405180910390f35b34801561029057600080fd5b50610354600480360360408110156102a757600080fd5b8101908080359060200190929190803590602001906401000000008111156102ce57600080fd5b8201836020820111156102e057600080fd5b8035906020019184600183028401116401000000008311171561030257600080fd5b91908080601f016020809104026020016040519081016040528093929190818152602001838380828437600081840152601f19601f820116905080830192505050505050509192919290505050611612565b005b34801561036257600080fd5b5061038f6004803603602081101561037957600080fd5b81019080803590602001909291905050506117bd565b604051808215151515815260200191505060405180910390f35b3480156103b557600080fd5b506103e2600480360360208110156103cc57600080fd5b8101908080359060200190929190505050611859565b604051808a73ffffffffffffffffffffffffffffffffffffffff1673ffffffffffffffffffffffffffffffffffffffff168152602001898152602001806020018881526020018060200180602001871515151581526020018681526020018060200185810385528c818151815260200191508051906020019080838360005b8381101561047c578082015181840152602081019050610461565b50505050905090810190601f1680156104a95780820380516001836020036101000a031916815260200191505b5085810384528a818151815260200191508051906020019080838360005b838110156104e25780820151818401526020810190506104c7565b50505050905090810190601f16801561050f5780820380516001836020036101000a031916815260200191505b50858103835289818151815260200191508051906020019080838360005b8381101561054857808201518184015260208101905061052d565b50505050905090810190601f1680156105755780820380516001836020036101000a031916815260200191505b50858103825286818151815260200191508051906020019080838360005b838110156105ae578082015181840152602081019050610593565b50505050905090810190601f1680156105db5780820380516001836020036101000a031916815260200191505b509d505050505050505050505050505060405180910390f35b34801561060057600080fd5b506106376004803603604081101561061757600080fd5b810190808035906020019092919080359060200190929190505050611b43565b005b34801561064557600080fd5b506106886004803603602081101561065c57600080fd5b81019080803573ffffffffffffffffffffffffffffffffffffffff169060200190929190505050611cde565b6040518082815260200191505060405180910390f35b3480156106aa57600080fd5b506106d7600480360360208110156106c157600080fd5b8101908080359060200190929190505050611cf6565b005b3480156106e557600080fd5b50610728600480360360208110156106fc57600080fd5b81019080803573ffffffffffffffffffffffffffffffffffffffff169060200190929190505050611f6a565b6040518080602001828103825283818151815260200191508051906020019060200280838360005b8381101561076b578082015181840152602081019050610750565b505050509050019250505060405180910390f35b34801561078b57600080fd5b506107b8600480360360208110156107a257600080fd5b81019080803590602001909291905050506120a8565b005b3480156107c657600080fd5b506107fd600480360360408110156107dd57600080fd5b81019080803590602001909291908035906020019092919050505061217a565b005b34801561080b57600080fd5b506108c56004803603602081101561082257600080fd5b810190808035906020019064010000000081111561083f57600080fd5b82018360208201111561085157600080fd5b8035906020019184600183028401116401000000008311171561087357600080fd5b91908080601f016020809104026020016040519081016040528093929190818152602001838380828437600081840152601f19601f82011690508083019250505050505050919291929050505061236e565b005b3480156108d357600080fd5b50610900600480360360208110156108ea57600080fd5b810190808035906020019092919050505061247a565b6040518080602001828103825283818151815260200191508051906020019080838360005b83811015610940578082015181840152602081019050610925565b50505050905090810190601f16801561096d5780820380516001836020036101000a031916815260200191505b509250505060405180910390f35b34801561098757600080fd5b50610ad86004803603604081101561099e57600080fd5b81019080803590602001906401000000008111156109bb57600080fd5b8201836020820111156109cd57600080fd5b803590602001918460018302840111640100000000831117156109ef57600080fd5b91908080601f016020809104026020016040519081016040528093929190818152602001838380828437600081840152601f19601f82011690508083019250505050505050919291929080359060200190640100000000811115610a5257600080fd5b820183602082011115610a6457600080fd5b80359060200191846001830284011164010000000083111715610a8657600080fd5b91908080601f016020809104026020016040519081016040528093929190818152602001838380828437600081840152601f19601f82011690508083019250505050505050919291929050505061252f565b005b348015610ae657600080fd5b50610ba060048036036020811015610afd57600080fd5b8101908080359060200190640100000000811115610b1a57600080fd5b820183602082011115610b2c57600080fd5b80359060200191846001830284011164010000000083111715610b4e57600080fd5b91908080601f016020809104026020016040519081016040528093929190818152602001838380828437600081840152601f19601f8201169050808301925050505050505091929192905050506126bc565b6040518082815260200191505060405180910390f35b348015610bc257600080fd5b50610bef60048036036020811015610bd957600080fd5b8101908080359060200190929190505050612731565b604051808573ffffffffffffffffffffffffffffffffffffffff1673ffffffffffffffffffffffffffffffffffffffff1681526020018481526020018381526020018215151515815260200194505050505060405180910390f35b348015610c5657600080fd5b50610d2460048036036060811015610c6d57600080fd5b81019080803590602001909291908035906020019092919080359060200190640100000000811115610c9e57600080fd5b820183602082011115610cb057600080fd5b80359060200191846001830284011164010000000083111715610cd257600080fd5b91908080601f016020809104026020016040519081016040528093929190818152602001838380828437600081840152601f19601f82011690508083019250505050505050919291929050505061279d565b604051808215151515815260200191505060405180910390f35b348015610d4a57600080fd5b50610d7760048036036020811015610d6157600080fd5b8101908080359060200190929190505050612804565b6040518080602001828103825283818151815260200191508051906020019060200280838360005b83811015610dba578082015181840152602081019050610d9f565b505050509050019250505060405180910390f35b348015610dda57600080fd5b50610e1160048036036040811015610df157600080fd5b810190808035906020019092919080359060200190929190505050612907565b6040518082815260200191505060405180910390f35b348015610e3357600080fd5b50610e7660048036036020811015610e4a57600080fd5b81019080803573ffffffffffffffffffffffffffffffffffffffff169060200190929190505050612a7e565b6040518080602001828103825283818151815260200191508051906020019080838360005b83811015610eb6578082015181840152602081019050610e9b565b50505050905090810190601f168015610ee35780820380516001836020036101000a031916815260200191505b509250505060405180910390f35b348015610efd57600080fd5b50610f2a60048036036020811015610f1457600080fd5b8101908080359060200190929190505050612b34565b6040518080602001828103825283818151815260200191508051906020019080838360005b83811015610f6a578082015181840152602081019050610f4f565b50505050905090810190601f168015610f975780820380516001836020036101000a031916815260200191505b509250505060405180910390f35b348015610fb157600080fd5b50610fde60048036036020811015610fc857600080fd5b8101908080359060200190929190505050612be4565b6040518082815260200191505060405180910390f35b34801561100057600080fd5b506110c46004803603604081101561101757600080fd5b81019080803590602001909291908035906020019064010000000081111561103e57600080fd5b82018360208201111561105057600080fd5b8035906020019184600183028401116401000000008311171561107257600080fd5b91908080601f016020809104026020016040519081016040528093929190818152602001838380828437600081840152601f19601f820116905080830192505050505050509192919290505050612bfc565b005b3480156110d257600080fd5b5061111f600480360360408110156110e957600080fd5b8101908080359060200190929190803573ffffffffffffffffffffffffffffffffffffffff169060200190929190505050612c28565b005b34801561112d57600080fd5b506114ef600480360361010081101561114557600080fd5b81019080803590602001909291908035906020019064010000000081111561116c57600080fd5b82018360208201111561117e57600080fd5b803590602001918460018302840111640100000000831117156111a057600080fd5b91908080601f016020809104026020016040519081016040528093929190818152602001838380828437600081840152601f19601f820116905080830192505050505050509192919290803590602001909291908035906020019064010000000081111561120d57600080fd5b82018360208201111561121f57600080fd5b8035906020019184600183028401116401000000008311171561124157600080fd5b91908080601f016020809104026020016040519081016040528093929190818152602001838380828437600081840152601f19601f820116905080830192505050505050509192919290803590602001906401000000008111156112a457600080fd5b8201836020820111156112b657600080fd5b803590602001918460018302840111640100000000831117156112d857600080fd5b91908080601f016020809104026020016040519081016040528093929190818152602001838380828437600081840152601f19601f8201169050808301925050505050505091929192908035906020019064010000000081111561133b57600080fd5b82018360208201111561134d57600080fd5b8035906020019184600183028401116401000000008311171561136f57600080fd5b91908080601f016020809104026020016040519081016040528093929190818152602001838380828437600081840152601f19601f820116905080830192505050505050509192919290803590602001906401000000008111156113d257600080fd5b8201836020820111156113e457600080fd5b8035906020019184600183028401116401000000008311171561140657600080fd5b91908080601f016020809104026020016040519081016040528093929190818152602001838380828437600081840152601f19601f8201169050808301925050505050505091929192908035906020019064010000000081111561146957600080fd5b82018360208201111561147b57600080fd5b8035906020019184600183028401116401000000008311171561149d57600080fd5b91908080601f016020809104026020016040519081016040528093929190818152602001838380828437600081840152601f19601f820116905080830192505050505050509192919290505050612f7a565b6040518082815260200191505060405180910390f35b60606005826040518082805190602001908083835b60208310151561153f578051825260208201915060208101905060208303925061151a565b6001836020036101000a03801982511681845116808217855250505050505090500191505090815260200160405180910390208054600181600116156101000203166002900480601f0160208091040260200160405190810160405280929190818152602001828054600181600116156101000203166002900480156116065780601f106115db57610100808354040283529160200191611606565b820191906000526020600020905b8154815290600101906020018083116115e957829003601f168201915b50505050509050919050565b813373ffffffffffffffffffffffffffffffffffffffff1660018281548110151561163957fe5b906000526020600020906009020160000160009054906101000a900473ffffffffffffffffffffffffffffffffffffffff1673ffffffffffffffffffffffffffffffffffffffff161415156116f6576040517f08c379a00000000000000000000000000000000000000000000000000000000081526004018080602001828103825260158152602001807f4f6e6c7920666f7220646576696365206f776e6572000000000000000000000081525060200191505060405180910390fd5b8260006007600083815260200190815260200160002054141515611782576040517f08c379a00000000000000000000000000000000000000000000000000000000081526004018080602001828103825260128152602001807f4d757374206e6f74206265207369676e6564000000000000000000000000000081525060200191505060405180910390fd5b8260018581548110151561179257fe5b906000526020600020906009020160020190805190602001906117b692919061357c565b5050505050565b60006001828154811015156117ce57fe5b9060005260206000209060090201600101546001900473ffffffffffffffffffffffffffffffffffffffff1660018381548110151561180957fe5b906000526020600020906009020160000160009054906101000a900473ffffffffffffffffffffffffffffffffffffffff1673ffffffffffffffffffffffffffffffffffffffff16149050919050565b60018181548110151561186857fe5b90600052602060002090600902016000915090508060000160009054906101000a900473ffffffffffffffffffffffffffffffffffffffff1690806001015490806002018054600181600116156101000203166002900480601f0160208091040260200160405190810160405280929190818152602001828054600181600116156101000203166002900480156119405780601f1061191557610100808354040283529160200191611940565b820191906000526020600020905b81548152906001019060200180831161192357829003601f168201915b505050505090806003015490806004018054600181600116156101000203166002900480601f0160208091040260200160405190810160405280929190818152602001828054600181600116156101000203166002900480156119e45780601f106119b9576101008083540402835291602001916119e4565b820191906000526020600020905b8154815290600101906020018083116119c757829003601f168201915b505050505090806005018054600181600116156101000203166002900480601f016020809104026020016040519081016040528092919081815260200182805460018160011615610100020316600290048015611a825780601f10611a5757610100808354040283529160200191611a82565b820191906000526020600020905b815481529060010190602001808311611a6557829003601f168201915b5050505050908060060160009054906101000a900460ff1690806007015490806008018054600181600116156101000203166002900480601f016020809104026020016040519081016040528092919081815260200182805460018160011615610100020316600290048015611b395780601f10611b0e57610100808354040283529160200191611b39565b820191906000526020600020905b815481529060010190602001808311611b1c57829003601f168201915b5050505050905089565b813373ffffffffffffffffffffffffffffffffffffffff16600182815481101515611b6a57fe5b906000526020600020906009020160000160009054906101000a900473ffffffffffffffffffffffffffffffffffffffff1673ffffffffffffffffffffffffffffffffffffffff16141515611c27576040517f08c379a00000000000000000000000000000000000000000000000000000000081526004018080602001828103825260158152602001807f4f6e6c7920666f7220646576696365206f776e6572000000000000000000000081525060200191505060405180910390fd5b8260006007600083815260200190815260200160002054141515611cb3576040517f08c379a00000000000000000000000000000000000000000000000000000000081526004018080602001828103825260128152602001807f4d757374206e6f74206265207369676e6564000000000000000000000000000081525060200191505060405180910390fd5b82600185815481101515611cc357fe5b90600052602060002090600902016003018190555050505050565b60026020528060005260406000206000915090505481565b3373ffffffffffffffffffffffffffffffffffffffff16600682815481101515611d1c57fe5b906000526020600020906004020160000160009054906101000a900473ffffffffffffffffffffffffffffffffffffffff1673ffffffffffffffffffffffffffffffffffffffff16141515611dff576040517f08c379a00000000000000000000000000000000000000000000000000000000081526004018080602001828103825260218152602001807f4f6e6c7920666f722063726561746f72206f6620746865207369676e6174757281526020017f650000000000000000000000000000000000000000000000000000000000000081525060400191505060405180910390fd5b60001515600682815481101515611e1257fe5b906000526020600020906004020160030160009054906101000a900460ff161515141515611ece576040517f08c379a00000000000000000000000000000000000000000000000000000000081526004018080602001828103825260248152602001807f5369676e6174757265206d7573746e2774206265207265766f6b656420616c7281526020017f656164790000000000000000000000000000000000000000000000000000000081525060400191505060405180910390fd5b6000600682815481101515611edf57fe5b9060005260206000209060040201905060018160030160006101000a81548160ff021916908315150217905550600760008260010154815260200190815260200160002060008154809291906001900391905055508060010154827ff93d5095ac7696e643e1fa0aa35d622f4a13e11f4e199f30794679dcdcdb973760405160405180910390a35050565b606080600260008473ffffffffffffffffffffffffffffffffffffffff1673ffffffffffffffffffffffffffffffffffffffff16815260200190815260200160002054604051908082528060200260200182016040528015611fdb5781602001602082028038833980820191505090505b509050600080905060008090505b60018054905081101561209d578473ffffffffffffffffffffffffffffffffffffffff1660018281548110151561201c57fe5b906000526020600020906009020160000160009054906101000a900473ffffffffffffffffffffffffffffffffffffffff1673ffffffffffffffffffffffffffffffffffffffff1614156120905780838381518110151561207957fe5b906020019060200201818152505081806001019250505b8080600101915050611fe9565b508192505050919050565b6001818154811015156120b757fe5b906000526020600020906009020160060160009054906101000a900460ff16156001828154811015156120e657fe5b906000526020600020906009020160060160006101000a81548160ff021916908315150217905550807fc42d776a60a63800640db76194dbf8c0dfa12284194ce44fdc2e0248ccc40f4860018381548110151561213f57fe5b906000526020600020906009020160060160009054906101000a900460ff16604051808215151515815260200191505060405180910390a250565b813373ffffffffffffffffffffffffffffffffffffffff166001828154811015156121a157fe5b906000526020600020906009020160000160009054906101000a900473ffffffffffffffffffffffffffffffffffffffff1673ffffffffffffffffffffffffffffffffffffffff1614151561225e576040517f08c379a00000000000000000000000000000000000000000000000000000000081526004018080602001828103825260158152602001807f4f6e6c7920666f7220646576696365206f776e6572000000000000000000000081525060200191505060405180910390fd5b82600060076000838152602001908152602001600020541415156122ea576040517f08c379a00000000000000000000000000000000000000000000000000000000081526004018080602001828103825260128152602001807f4d757374206e6f74206265207369676e6564000000000000000000000000000081525060200191505060405180910390fd5b826001858154811015156122fa57fe5b9060005260206000209060090201600101819055507f6964656e74696669657200000000000000000000000000000000000000000000847f67ace838aca3988a026b61036d72b93a8316d05feecb6ee10316e8d59f0e687f856040518082815260200191505060405180910390a350505050565b806000803373ffffffffffffffffffffffffffffffffffffffff1673ffffffffffffffffffffffffffffffffffffffff16815260200190815260200160002060000190805190602001906123c392919061357c565b503373ffffffffffffffffffffffffffffffffffffffff167f53d207b6cf416d44764c48a52a7e64ffa2793f67215d452a032a11e0dd34bd2c826040518080602001828103825283818151815260200191508051906020019080838360005b8381101561243d578082015181840152602081019050612422565b50505050905090810190601f16801561246a5780820380516001836020036101000a031916815260200191505b509250505060405180910390a250565b6060600360008381526020019081526020016000208054600181600116156101000203166002900480601f0160208091040260200160405190810160405280929190818152602001828054600181600116156101000203166002900480156125235780601f106124f857610100808354040283529160200191612523565b820191906000526020600020905b81548152906001019060200180831161250657829003601f168201915b50505050509050919050565b806005836040518082805190602001908083835b6020831015156125685780518252602082019150602081019050602083039250612543565b6001836020036101000a038019825116818451168082178552505050505050905001915050908152602001604051809103902090805190602001906125ae92919061357c565b507f8ab7462887e72031231781c66c0911075d2f0462c62458c9befdb4a44cfdfaa78282604051808060200180602001838103835285818151815260200191508051906020019080838360005b838110156126165780820151818401526020810190506125fb565b50505050905090810190601f1680156126435780820380516001836020036101000a031916815260200191505b50838103825284818151815260200191508051906020019080838360005b8381101561267c578082015181840152602081019050612661565b50505050905090810190601f1680156126a95780820380516001836020036101000a031916815260200191505b5094505050505060405180910390a15050565b60006004826040518082805190602001908083835b6020831015156126f657805182526020820191506020810190506020830392506126d1565b6001836020036101000a0380198251168184511680821785525050505050509050019150509081526020016040518091039020549050919050565b60068181548110151561274057fe5b90600052602060002090600402016000915090508060000160009054906101000a900473ffffffffffffffffffffffffffffffffffffffff16908060010154908060020154908060030160009054906101000a900460ff16905084565b60006001848154811015156127ae57fe5b9060005260206000209060090201600101546001900473ffffffffffffffffffffffffffffffffffffffff166127e48484613498565b73ffffffffffffffffffffffffffffffffffffffff161490509392505050565b60608060076000848152602001908152602001600020546040519080825280602002602001820160405280156128495781602001602082028038833980820191505090505b509050600080905060008090505b6006805490508110156128fc578460068281548110151561287457fe5b9060005260206000209060040201600101541480156128c45750600015156006828154811015156128a157fe5b906000526020600020906004020160030160009054906101000a900460ff161515145b156128ef578083838151811015156128d857fe5b906020019060200201818152505081806001019250505b8080600101915050612857565b508192505050919050565b60006129116135fc565b6080604051908101604052803373ffffffffffffffffffffffffffffffffffffffff168152602001858152602001848152602001600015158152509050600060016006839080600181540180825580915050906001820390600052602060002090600402016000909192909190915060008201518160000160006101000a81548173ffffffffffffffffffffffffffffffffffffffff021916908373ffffffffffffffffffffffffffffffffffffffff160217905550602082015181600101556040820151816002015560608201518160030160006101000a81548160ff021916908315150217905550505003905060076000868152602001908152602001600020600081548092919060010191905055503373ffffffffffffffffffffffffffffffffffffffff1685827f3739f348a11e3a029a385b4746ea6edba7f01ceec207010638e9d17862b78c40876040518082815260200191505060405180910390a4809250505092915050565b6000602052806000526040600020600091509050806000018054600181600116156101000203166002900480601f016020809104026020016040519081016040528092919081815260200182805460018160011615610100020316600290048015612b2a5780601f10612aff57610100808354040283529160200191612b2a565b820191906000526020600020905b815481529060010190602001808311612b0d57829003601f168201915b5050505050905081565b60036020528060005260406000206000915090508054600181600116156101000203166002900480601f016020809104026020016040519081016040528092919081815260200182805460018160011615610100020316600290048015612bdc5780601f10612bb157610100808354040283529160200191612bdc565b820191906000526020600020905b815481529060010190602001808311612bbf57829003601f168201915b505050505081565b60076020528060005260406000206000915090505481565b80600360008481526020019081526020016000209080519060200190612c2392919061357c565b505050565b813373ffffffffffffffffffffffffffffffffffffffff16600182815481101515612c4f57fe5b906000526020600020906009020160000160009054906101000a900473ffffffffffffffffffffffffffffffffffffffff1673ffffffffffffffffffffffffffffffffffffffff16141515612d0c576040517f08c379a00000000000000000000000000000000000000000000000000000000081526004018080602001828103825260158152602001807f4f6e6c7920666f7220646576696365206f776e6572000000000000000000000081525060200191505060405180910390fd5b8260006007600083815260200190815260200160002054141515612d98576040517f08c379a00000000000000000000000000000000000000000000000000000000081526004018080602001828103825260128152602001807f4d757374206e6f74206265207369676e6564000000000000000000000000000081525060200191505060405180910390fd5b6000600185815481101515612da957fe5b906000526020600020906009020160000160009054906101000a900473ffffffffffffffffffffffffffffffffffffffff16905083600186815481101515612ded57fe5b906000526020600020906009020160000160006101000a81548173ffffffffffffffffffffffffffffffffffffffff021916908373ffffffffffffffffffffffffffffffffffffffff160217905550600260003373ffffffffffffffffffffffffffffffffffffffff1673ffffffffffffffffffffffffffffffffffffffff1681526020019081526020016000206000815480929190600190039190505550600260008573ffffffffffffffffffffffffffffffffffffffff1673ffffffffffffffffffffffffffffffffffffffff16815260200190815260200160002060008154809291906001019190505550847f848155b8e733cfd6e7258639111d906437ddb051818f4061fc4c7cfbc575cb2e8286604051808373ffffffffffffffffffffffffffffffffffffffff1673ffffffffffffffffffffffffffffffffffffffff1681526020018273ffffffffffffffffffffffffffffffffffffffff1673ffffffffffffffffffffffffffffffffffffffff1681526020019250505060405180910390a25050505050565b6000612f8461363d565b610120604051908101604052803373ffffffffffffffffffffffffffffffffffffffff1681526020018b81526020018a81526020018981526020018881526020018781526020016000151581526020016001805490508152602001858152509050876004876040518082805190602001908083835b60208310151561301e5780518252602082019150602081019050602083039250612ff9565b6001836020036101000a03801982511681845116808217855250505050505090500191505090815260200160405180910390208190555084600360008a8152602001908152602001600020908051906020019061307c92919061357c565b50826005876040518082805190602001908083835b6020831015156130b65780518252602082019150602081019050602083039250613091565b6001836020036101000a038019825116818451168082178552505050505050905001915050908152602001604051809103902090805190602001906130fc92919061357c565b506000600180839080600181540180825580915050906001820390600052602060002090600902016000909192909190915060008201518160000160006101000a81548173ffffffffffffffffffffffffffffffffffffffff021916908373ffffffffffffffffffffffffffffffffffffffff16021790555060208201518160010155604082015181600201908051906020019061319b9291906136a8565b506060820151816003015560808201518160040190805190602001906131c29291906136a8565b5060a08201518160050190805190602001906131df9291906136a8565b5060c08201518160060160006101000a81548160ff02191690831515021790555060e082015181600701556101008201518160080190805190602001906132279291906136a8565b505050039050600260003373ffffffffffffffffffffffffffffffffffffffff1673ffffffffffffffffffffffffffffffffffffffff168152602001908152602001600020600081548092919060010191905055503373ffffffffffffffffffffffffffffffffffffffff16817fde4ee6b3ca944eadd6dffc1090db8df6b871245d6fedeee94222fa27798479538d8d8d8d8d8d604051808781526020018060200186815260200180602001806020018060200185810385528a818151815260200191508051906020019080838360005b838110156133135780820151818401526020810190506132f8565b50505050905090810190601f1680156133405780820380516001836020036101000a031916815260200191505b50858103845288818151815260200191508051906020019080838360005b8381101561337957808201518184015260208101905061335e565b50505050905090810190601f1680156133a65780820380516001836020036101000a031916815260200191505b50858103835287818151815260200191508051906020019080838360005b838110156133df5780820151818401526020810190506133c4565b50505050905090810190601f16801561340c5780820380516001836020036101000a031916815260200191505b50858103825286818151815260200191508051906020019080838360005b8381101561344557808201518184015260208101905061342a565b50505050905090810190601f1680156134725780820380516001836020036101000a031916815260200191505b509a505050505050505050505060405180910390a3809250505098975050505050505050565b600080600080604185511415156134b55760009350505050613576565b6020850151925060408501519150606085015160001a9050601b8160ff1610156134e057601b810190505b601b8160ff16141580156134f85750601c8160ff1614155b156135095760009350505050613576565b60018682858560405160008152602001604052604051808581526020018460ff1660ff1681526020018381526020018281526020019450505050506020604051602081039080840390855afa158015613566573d6000803e3d6000fd5b5050506020604051035193505050505b92915050565b828054600181600116156101000203166002900490600052602060002090601f016020900481019282601f106135bd57805160ff19168380011785556135eb565b828001600101855582156135eb579182015b828111156135ea5782518255916020019190600101906135cf565b5b5090506135f89190613728565b5090565b608060405190810160405280600073ffffffffffffffffffffffffffffffffffffffff16815260200160008152602001600081526020016000151581525090565b61012060405190810160405280600073ffffffffffffffffffffffffffffffffffffffff168152602001600080191681526020016060815260200160008019168152602001606081526020016060815260200160001515815260200160008152602001606081525090565b828054600181600116156101000203166002900490600052602060002090601f016020900481019282601f106136e957805160ff1916838001178555613717565b82800160010185558215613717579182015b828111156137165782518255916020019190600101906136fb565b5b5090506137249190613728565b5090565b61374a91905b8082111561374657600081600090555060010161372e565b5090565b9056fea165627a7a72305820633240b09ae7f301e022a6e2c5bd5a7ade3d84406a2b872c5021f569ea5197c10029",
  "source": "pragma solidity ^0.5.0;\n\nimport \"./MerkleProof.sol\";\nimport \"./ECRecovery.sol\";\n\n/**\n * @title Provides base functionalities for entities.\n */\ncontract EntityBase {\n    /// @dev Entity in the device management system.\n    struct Entity {\n        // Arbitary data in case entity wants to have some public information available.\n        string data;\n    }\n\n    /// @notice Maps owner to an Entity structure.\n    mapping (address => Entity) public ownerToEntity;\n\n    /// @dev Fired on entity data update.\n    event EntityDataUpdated(address indexed owner, string newData);\n\n    /**\n     * @notice Update entity data.\n     * @param _data Entity data.\n     */\n    function updateEntityData(string memory _data) public {\n        ownerToEntity[msg.sender].data = _data;\n\n        emit EntityDataUpdated(msg.sender, _data);\n    }\n}\n\n/**\n * @title Provides base functionalities for devices.\n */\ncontract DeviceBase {\n    /// @dev Main device structucture.\n    struct Device {\n        // Ethereum address of a device owner.\n        address owner;\n\n        // Unique device identifier. Can hold anything that fits into 32 bytes. Different from device ID.\n        // Supposed to be a public key or a representation of one, such as fingerprint of RSA/ECC\n        // public key or simply an Ethereum address. To make identifier be an Ethereum address,\n        // use secp256k1 curve to generate public and private key pair, run keccak256 hash function\n        // on public key and take last 20 bytes of generated hash to get Ethereum address.\n        // If a device wants to be it's own entity, use same address as in owner property.\n        bytes32 identifier;\n\n        // Merkle root hash of metadata or simple hash of concatenated data.\n        // It is recommended to use Merkle tree to store information on device as it enables to\n        // prove membership of specific data by providing Merkle proof without revealing whole dataset.\n        string publicKey;\n\n        // Holds a hash of actual firmware hash. Actual firmware hash is not supposed to be stored.\n        // Plain text or hash would expose data that is meant to be private, so \"hash of hash\" principle\n        // gives privacy and makes integrity verification possible.\n        bytes32 applicationId;\n        string applicationName;\n\n        string endpointClientName;\n        bool deactivated;\n        // Additional data linked to device. Can be used to store hash of encrypted firmware on IPFS.\n        //string offchainLink;\n\n        // Full public key (even though parties can exchange public key other ways then use\n        // blockchain to verify.)\n        //string publicKey;\n        uint index;\n        string deviceType;\n    }\n\n    /// @notice State variable for storing devices. Index in the array is also a device ID.\n    /// Array can hold a maximum of 2^256-1 entries.\n    Device[] public devices;\n\n    /// @notice Keeps track of total devices for each owner.\n    mapping (address => uint) public ownerDeviceCount;\n\n    /// @notice Keeps track of total devices for each owner.\n    mapping (bytes32 => string) public applicationToLinkedDevices;\n\n    /// @notice deviceClientName to linkedAPP id\n    mapping (string => bytes32) deviceClientNameToAppId;\n\n    /// @notice deviceClientName to threshold string\n    mapping (string => string) deviceClientNameToThreshold;\n    /// @dev Fired on creation of new device.\n    event DeviceCreated(uint indexed deviceId, address indexed owner, bytes32 identifier, string publicKey, bytes32 applicationId, string applicationName, string endpointClientName, string allDevices);\n\n    /// @dev Modifier for ensuring that the message sender is owner of provided device ID.\n    modifier onlyOwnerOf(uint _deviceId) {\n        require(devices[_deviceId].owner == msg.sender, \"Only for device owner\");\n        _;\n    }\n\n    /**\n     * @notice Creates and saves device into storage. Emits DeviceCreated.\n     * @param _identifier Unique device identifier, such as fingerprint of RSA/ECC public key or Ethereum address (recommended).\n     * @param _publicKey Merkle root hash of metadata (recommended) or simple hash of concatenated metadata.\n     * @param _applicationId App linked to.\n     * @param _endpointClientName Endpoint Client Name.\n     * @return Created device ID.\n     */\n    function createDevice(bytes32 _identifier, string memory _publicKey, bytes32 _applicationId, string memory _applicationName, string memory _endpointClientName, string memory _allDevices, string memory _type, string memory _threshold) public returns (uint) {\n        Device memory newDevice = Device(msg.sender, _identifier, _publicKey, _applicationId, _applicationName, _endpointClientName, false, devices.length, _type);\n        //        applicationToLinkedDevices[_applicationId] = _applicationName;\n        deviceClientNameToAppId[_endpointClientName] = _applicationId;\n        applicationToLinkedDevices[_applicationId] = _allDevices;\n        deviceClientNameToThreshold[_endpointClientName] = _threshold;\n        uint deviceId = devices.push(newDevice) - 1;\n        ownerDeviceCount[msg.sender]++;\n        emit DeviceCreated(deviceId, msg.sender, _identifier, _publicKey, _applicationId, _applicationName, _endpointClientName, _allDevices);\n        return deviceId;\n    }\n\n    function getDevicesByAppId(bytes32 _appId) public view returns (string memory) {\n        return applicationToLinkedDevices[_appId];\n    }\n    function getAppIdByDeviceClientName(string memory _deviceClientName) public view returns (bytes32) {\n        return deviceClientNameToAppId[_deviceClientName];\n    }\n    function getThresholdByDeviceClientName(string memory _deviceClientName) public view returns (string memory) {\n        return deviceClientNameToThreshold[_deviceClientName];\n    }\n}\n\n/**\n * @title Provides extra functionalities for devices.\n */\ncontract DeviceHelper is DeviceBase {\n    /**\n      * @notice Gets all devices owned by specified address.\n      * @dev Use this function instead of filtering DeviceCreated event since devices could have been transferred between owners.\n      * @param _owner Owner address.\n      * @return Array of device IDs.\n      */\n    function getDevicesByOwner(address _owner) public view returns (uint[] memory) {\n        uint[] memory deviceIds = new uint[](ownerDeviceCount[_owner]);\n        uint counter = 0;\n        for (uint i = 0; i < devices.length; i++) {\n            if (devices[i].owner == _owner) {\n                deviceIds[counter] = i;\n                counter++;\n            }\n        }\n        return deviceIds;\n    }\n\n    /**\n     * @notice Checks if device is also an entity.\n     * @param _deviceId ID of a  device.\n     * @return Boolean status.\n     */\n    function isDeviceAnEntity(uint _deviceId) public view returns (bool) {\n        return devices[_deviceId].owner == address(uint160(uint256(devices[_deviceId].identifier)));\n    }\n\n    function isValidEthMessage(uint _deviceId, bytes32 _messageHash, bytes memory _signature) public view returns (bool) {\n        return ECRecovery.recover(_messageHash, _signature) == address(uint160(uint256(devices[_deviceId].identifier)));\n    }\n}\n\n/**\n * @title Provides base functionalities for signatures.\n */\ncontract SignatureBase {\n    /// @dev Main signature structucture.\n    struct Signature {\n        // Ethereum address of the signer.\n        address signer;\n\n        // ID of device to sign.\n        uint deviceId;\n\n        // Using 256 bits ensures no overflow on year 2038 (Unix seconds).\n        uint expiryTime;\n\n        // Updates to true once signer decides to revoke signature.\n        bool revoked;\n    }\n\n    /// @notice State variable for storing signatures. Index in the array is also a signature ID.\n    /// Array can hold a maximum of 2^256-1 entries.\n    Signature[] public signatures;\n\n    /// @notice Keeps track of total signatures for each device.\n    mapping (uint => uint) public deviceSignatureCount;\n\n    /// @dev Fired when an address signs a device.\n    event DeviceSigned(uint indexed signatureId, uint indexed deviceId, address indexed signer, uint expiryTime);\n\n    /// @dev Fired when signature is revoked.\n    event SignatureRevoked(uint indexed signatureId, uint indexed deviceId);\n\n    /// @dev Modifier for ensuring that the device hasn't been signed already.\n    modifier notSigned(uint _deviceId) {\n        require(deviceSignatureCount[_deviceId] == 0, \"Must not be signed\");\n        _;\n    }\n\n    /**\n     * @notice Signs a device and signature into storage. Emits DeviceSigned.\n     * @param _deviceId ID of to be signed device.\n     * @param _expiryTime Expiry time in Unix seconds.\n     * @return Created signature ID.\n     */\n    function signDevice(uint _deviceId, uint _expiryTime) public returns (uint) {\n        Signature memory signature = Signature(msg.sender, _deviceId, _expiryTime, false);\n        uint signatureId = signatures.push(signature) - 1;\n        deviceSignatureCount[_deviceId]++;\n\n        emit DeviceSigned(signatureId, _deviceId, msg.sender, _expiryTime);\n        return signatureId;\n    }\n\n    /**\n     * @notice Revokes a signature. Emits SignatureRevoked.\n     * @param _signatureId ID of to be revoked signature.\n     */\n    function revokeSignature(uint _signatureId) public {\n        require(signatures[_signatureId].signer == msg.sender, \"Only for creator of the signature\");\n        require(signatures[_signatureId].revoked == false, \"Signature mustn't be revoked already\");\n        Signature storage signature = signatures[_signatureId];\n        signature.revoked = true;\n        deviceSignatureCount[signature.deviceId]--;\n\n        emit SignatureRevoked(_signatureId, signature.deviceId);\n    }\n}\n\n/**\n * @title Provides extra functionalities for signatures.\n */\ncontract SignatureHelper is SignatureBase {\n    /**\n     * @notice Gets all signatures for specific device.\n     * @dev Use this function instead of filtering DeviceSigned event since signatures could have been revoked.\n     * @param _deviceId ID of a device.\n     * @return Array of signature IDs.\n     */\n    function getActiveSignaturesForDevice(uint _deviceId) public view returns (uint[] memory) {\n        uint[] memory signatureIds = new uint[](deviceSignatureCount[_deviceId]);\n        uint counter = 0;\n        for (uint i = 0; i < signatures.length; i++) {\n            if (signatures[i].deviceId == _deviceId && signatures[i].revoked == false) {\n                signatureIds[counter] = i;\n                counter++;\n            }\n        }\n        return signatureIds;\n    }\n}\n\n/**\n * @title Enriches devices giving them option to be updated only if not signed already.\n */\ncontract DeviceUpdatable is DeviceHelper, SignatureHelper {\n    /// @dev Fired on device ownership transfer, keeps track of historical device owners.\n    event DeviceTransfered(uint indexed deviceId, address oldOwner, address newOwner);\n\n    /// @dev Fired on device property update, keeps track of historical property values.\n    event DevicePropertyUpdated(uint indexed deviceId, bytes32 indexed property, bytes32 newValue);\n\n    /// @dev Fired on device property update, keeps track of historical property values.\n    event DeviceActivityStatusUpdated(uint indexed deviceId, bool newValue);\n\n    event DeviceThresholdUpdated(string clientName, string thresholdStr);\n    /**\n     * @notice Transfer device ownership from one external account to another. Emits DeviceTransfered.\n     * @param _deviceId ID of to be transfered device.\n     * @param _to Address of new owner.\n     */\n    function transferDevice(uint _deviceId, address _to) public onlyOwnerOf(_deviceId) notSigned(_deviceId) {\n        address currentOwner = devices[_deviceId].owner;\n        devices[_deviceId].owner = _to;\n        ownerDeviceCount[msg.sender]--;\n        ownerDeviceCount[_to]++;\n\n        emit DeviceTransfered(_deviceId, currentOwner, _to);\n    }\n\n    function changeActivityStatus(uint _deviceId) public {\n        devices[_deviceId].deactivated = !devices[_deviceId].deactivated;\n        emit DeviceActivityStatusUpdated(_deviceId, devices[_deviceId].deactivated);\n    }\n\n    function updateAppConnectedDevices(bytes32 _applicationId, string memory _allDevices) public {\n        applicationToLinkedDevices[_applicationId] = _allDevices;\n    }\n\n    function updateThreshold(string memory _deviceClientName, string memory _threshold) public {\n        deviceClientNameToThreshold[_deviceClientName] = _threshold;\n        emit DeviceThresholdUpdated(_deviceClientName, _threshold);\n    }\n    /**\n     * @notice Update device with new identifier. Emits DevicePropertyUpdated.\n     * @param _deviceId ID of a device.\n     * @param _newIdentifier New identifier.\n     */\n    function updateIdentifier(uint _deviceId, bytes32 _newIdentifier) public onlyOwnerOf(_deviceId) notSigned(_deviceId) {\n        devices[_deviceId].identifier = _newIdentifier;\n\n        emit DevicePropertyUpdated(_deviceId, \"identifier\", _newIdentifier);\n    }\n\n    /**\n     * @notice Update device with new metadata hash. Emits DevicePropertyUpdated.\n     * @param _deviceId ID of a device.\n     * @param _newPublicKey New PublicKey\n     */\n    function updateMetadataHash(uint _deviceId, string memory _newPublicKey) public onlyOwnerOf(_deviceId) notSigned(_deviceId) {\n        devices[_deviceId].publicKey = _newPublicKey;\n\n//        emit DevicePropertyUpdated(_deviceId, \"metadata\", _newMetadataHash);\n    }\n\n    /**\n     * @notice Update device with new firmware hash. Emits DevicePropertyUpdated.\n     * @param _deviceId ID of a device.\n     * @param _newApplicationId New _newApplicationId.\n     */\n    function updateApplicationId(uint _deviceId, bytes32 _newApplicationId) public onlyOwnerOf(_deviceId) notSigned(_deviceId) {\n        devices[_deviceId].applicationId = _newApplicationId;\n\n//        emit DevicePropertyUpdated(_deviceId, \"firmware\", _newFirmwareHash);\n    }\n}\n\n/// @title Device manager core contract.\ncontract Application is EntityBase, DeviceUpdatable {\n    /// @dev Merges contracts.\n}",
  "sourcePath": "/Users/kimwang/Desktop/895/leshan/blockchain-integration/contracts/Application.sol",
  "compiler": {
    "name": "solc",
    "version": "0.5.0+commit.1d4f565a.Emscripten.clang"
  },
  "schemaVersion": "3.0.20",
  "updatedAt": "2020-06-17T07:34:49.256Z",
  "networkType": "ethereum",
  "devdoc": {
    "methods": {
      "createDevice(bytes32,string,bytes32,string,string,string,string,string)": {
        "params": {
          "_applicationId": "App linked to.",
          "_endpointClientName": "Endpoint Client Name.",
          "_identifier": "Unique device identifier, such as fingerprint of RSA/ECC public key or Ethereum address (recommended).",
          "_publicKey": "Merkle root hash of metadata (recommended) or simple hash of concatenated metadata."
        },
        "return": "Created device ID."
      },
      "getActiveSignaturesForDevice(uint256)": {
        "details": "Use this function instead of filtering DeviceSigned event since signatures could have been revoked.",
        "params": {
          "_deviceId": "ID of a device."
        },
        "return": "Array of signature IDs."
      },
      "getDevicesByOwner(address)": {
        "details": "Use this function instead of filtering DeviceCreated event since devices could have been transferred between owners.",
        "params": {
          "_owner": "Owner address."
        },
        "return": "Array of device IDs."
      },
      "isDeviceAnEntity(uint256)": {
        "params": {
          "_deviceId": "ID of a  device."
        },
        "return": "Boolean status."
      },
      "revokeSignature(uint256)": {
        "params": {
          "_signatureId": "ID of to be revoked signature."
        }
      },
      "signDevice(uint256,uint256)": {
        "params": {
          "_deviceId": "ID of to be signed device.",
          "_expiryTime": "Expiry time in Unix seconds."
        },
        "return": "Created signature ID."
      },
      "transferDevice(uint256,address)": {
        "params": {
          "_deviceId": "ID of to be transfered device.",
          "_to": "Address of new owner."
        }
      },
      "updateApplicationId(uint256,bytes32)": {
        "params": {
          "_deviceId": "ID of a device.",
          "_newApplicationId": "New _newApplicationId."
        }
      },
      "updateEntityData(string)": {
        "params": {
          "_data": "Entity data."
        }
      },
      "updateIdentifier(uint256,bytes32)": {
        "params": {
          "_deviceId": "ID of a device.",
          "_newIdentifier": "New identifier."
        }
      },
      "updateMetadataHash(uint256,string)": {
        "params": {
          "_deviceId": "ID of a device.",
          "_newPublicKey": "New PublicKey"
        }
      }
    },
    "title": "Device manager core contract."
  },
  "userdoc": {
    "methods": {
      "createDevice(bytes32,string,bytes32,string,string,string,string,string)": {
        "notice": "Creates and saves device into storage. Emits DeviceCreated."
      },
      "getActiveSignaturesForDevice(uint256)": {
        "notice": "Gets all signatures for specific device."
      },
      "getDevicesByOwner(address)": {
        "notice": "Gets all devices owned by specified address."
      },
      "isDeviceAnEntity(uint256)": {
        "notice": "Checks if device is also an entity."
      },
      "revokeSignature(uint256)": {
        "notice": "Revokes a signature. Emits SignatureRevoked."
      },
      "signDevice(uint256,uint256)": {
        "notice": "Signs a device and signature into storage. Emits DeviceSigned."
      },
      "transferDevice(uint256,address)": {
        "notice": "Transfer device ownership from one external account to another. Emits DeviceTransfered."
      },
      "updateApplicationId(uint256,bytes32)": {
        "notice": "Update device with new firmware hash. Emits DevicePropertyUpdated."
      },
      "updateEntityData(string)": {
        "notice": "Update entity data."
      },
      "updateIdentifier(uint256,bytes32)": {
        "notice": "Update device with new identifier. Emits DevicePropertyUpdated."
      },
      "updateMetadataHash(uint256,string)": {
        "notice": "Update device with new metadata hash. Emits DevicePropertyUpdated."
      }
    }
  }
}