{
  "contractName": "Application",
  "abi": [
    {
      "constant": false,
      "inputs": [
        {
          "name": "_deviceId",
          "type": "uint256"
        },
        {
          "name": "_newPublicKey",
          "type": "string"
        }
      ],
      "name": "updateMetadataHash",
      "outputs": [],
      "payable": false,
      "stateMutability": "nonpayable",
      "type": "function"
    },
    {
      "constant": true,
      "inputs": [
        {
          "name": "_deviceId",
          "type": "uint256"
        }
      ],
      "name": "isDeviceAnEntity",
      "outputs": [
        {
          "name": "",
          "type": "bool"
        }
      ],
      "payable": false,
      "stateMutability": "view",
      "type": "function"
    },
    {
      "constant": true,
      "inputs": [
        {
          "name": "",
          "type": "uint256"
        }
      ],
      "name": "devices",
      "outputs": [
        {
          "name": "owner",
          "type": "address"
        },
        {
          "name": "identifier",
          "type": "bytes32"
        },
        {
          "name": "publicKey",
          "type": "string"
        },
        {
          "name": "applicationId",
          "type": "bytes32"
        },
        {
          "name": "applicationName",
          "type": "string"
        },
        {
          "name": "endpointClientName",
          "type": "string"
        }
      ],
      "payable": false,
      "stateMutability": "view",
      "type": "function"
    },
    {
      "constant": false,
      "inputs": [
        {
          "name": "_deviceId",
          "type": "uint256"
        },
        {
          "name": "_newApplicationId",
          "type": "bytes32"
        }
      ],
      "name": "updateApplicationId",
      "outputs": [],
      "payable": false,
      "stateMutability": "nonpayable",
      "type": "function"
    },
    {
      "constant": true,
      "inputs": [
        {
          "name": "",
          "type": "address"
        }
      ],
      "name": "ownerDeviceCount",
      "outputs": [
        {
          "name": "",
          "type": "uint256"
        }
      ],
      "payable": false,
      "stateMutability": "view",
      "type": "function"
    },
    {
      "constant": false,
      "inputs": [
        {
          "name": "_signatureId",
          "type": "uint256"
        }
      ],
      "name": "revokeSignature",
      "outputs": [],
      "payable": false,
      "stateMutability": "nonpayable",
      "type": "function"
    },
    {
      "constant": true,
      "inputs": [
        {
          "name": "_owner",
          "type": "address"
        }
      ],
      "name": "getDevicesByOwner",
      "outputs": [
        {
          "name": "",
          "type": "uint256[]"
        }
      ],
      "payable": false,
      "stateMutability": "view",
      "type": "function"
    },
    {
      "constant": false,
      "inputs": [
        {
          "name": "_deviceId",
          "type": "uint256"
        },
        {
          "name": "_newIdentifier",
          "type": "bytes32"
        }
      ],
      "name": "updateIdentifier",
      "outputs": [],
      "payable": false,
      "stateMutability": "nonpayable",
      "type": "function"
    },
    {
      "constant": false,
      "inputs": [
        {
          "name": "_data",
          "type": "string"
        }
      ],
      "name": "updateEntityData",
      "outputs": [],
      "payable": false,
      "stateMutability": "nonpayable",
      "type": "function"
    },
    {
      "constant": true,
      "inputs": [
        {
          "name": "_appId",
          "type": "bytes32"
        }
      ],
      "name": "getDevicesByAppId",
      "outputs": [
        {
          "name": "",
          "type": "string"
        }
      ],
      "payable": false,
      "stateMutability": "view",
      "type": "function"
    },
    {
      "constant": true,
      "inputs": [
        {
          "name": "_deviceClientName",
          "type": "string"
        }
      ],
      "name": "getAppIdByDeviceClientName",
      "outputs": [
        {
          "name": "",
          "type": "bytes32"
        }
      ],
      "payable": false,
      "stateMutability": "view",
      "type": "function"
    },
    {
      "constant": true,
      "inputs": [
        {
          "name": "",
          "type": "uint256"
        }
      ],
      "name": "signatures",
      "outputs": [
        {
          "name": "signer",
          "type": "address"
        },
        {
          "name": "deviceId",
          "type": "uint256"
        },
        {
          "name": "expiryTime",
          "type": "uint256"
        },
        {
          "name": "revoked",
          "type": "bool"
        }
      ],
      "payable": false,
      "stateMutability": "view",
      "type": "function"
    },
    {
      "constant": true,
      "inputs": [
        {
          "name": "_deviceId",
          "type": "uint256"
        },
        {
          "name": "_messageHash",
          "type": "bytes32"
        },
        {
          "name": "_signature",
          "type": "bytes"
        }
      ],
      "name": "isValidEthMessage",
      "outputs": [
        {
          "name": "",
          "type": "bool"
        }
      ],
      "payable": false,
      "stateMutability": "view",
      "type": "function"
    },
    {
      "constant": true,
      "inputs": [
        {
          "name": "_deviceId",
          "type": "uint256"
        }
      ],
      "name": "getActiveSignaturesForDevice",
      "outputs": [
        {
          "name": "",
          "type": "uint256[]"
        }
      ],
      "payable": false,
      "stateMutability": "view",
      "type": "function"
    },
    {
      "constant": false,
      "inputs": [
        {
          "name": "_deviceId",
          "type": "uint256"
        },
        {
          "name": "_expiryTime",
          "type": "uint256"
        }
      ],
      "name": "signDevice",
      "outputs": [
        {
          "name": "",
          "type": "uint256"
        }
      ],
      "payable": false,
      "stateMutability": "nonpayable",
      "type": "function"
    },
    {
      "constant": true,
      "inputs": [
        {
          "name": "",
          "type": "address"
        }
      ],
      "name": "ownerToEntity",
      "outputs": [
        {
          "name": "data",
          "type": "string"
        }
      ],
      "payable": false,
      "stateMutability": "view",
      "type": "function"
    },
    {
      "constant": true,
      "inputs": [
        {
          "name": "",
          "type": "bytes32"
        }
      ],
      "name": "applicationToLinkedDevices",
      "outputs": [
        {
          "name": "",
          "type": "string"
        }
      ],
      "payable": false,
      "stateMutability": "view",
      "type": "function"
    },
    {
      "constant": true,
      "inputs": [
        {
          "name": "",
          "type": "uint256"
        }
      ],
      "name": "deviceSignatureCount",
      "outputs": [
        {
          "name": "",
          "type": "uint256"
        }
      ],
      "payable": false,
      "stateMutability": "view",
      "type": "function"
    },
    {
      "constant": false,
      "inputs": [
        {
          "name": "_deviceId",
          "type": "uint256"
        },
        {
          "name": "_to",
          "type": "address"
        }
      ],
      "name": "transferDevice",
      "outputs": [],
      "payable": false,
      "stateMutability": "nonpayable",
      "type": "function"
    },
    {
      "constant": false,
      "inputs": [
        {
          "name": "_identifier",
          "type": "bytes32"
        },
        {
          "name": "_publicKey",
          "type": "string"
        },
        {
          "name": "_applicationId",
          "type": "bytes32"
        },
        {
          "name": "_applicationName",
          "type": "string"
        },
        {
          "name": "_endpointClientName",
          "type": "string"
        },
        {
          "name": "_allDevices",
          "type": "string"
        }
      ],
      "name": "createDevice",
      "outputs": [
        {
          "name": "",
          "type": "uint256"
        }
      ],
      "payable": false,
      "stateMutability": "nonpayable",
      "type": "function"
    },
    {
      "anonymous": false,
      "inputs": [
        {
          "indexed": true,
          "name": "deviceId",
          "type": "uint256"
        },
        {
          "indexed": false,
          "name": "oldOwner",
          "type": "address"
        },
        {
          "indexed": false,
          "name": "newOwner",
          "type": "address"
        }
      ],
      "name": "DeviceTransfered",
      "type": "event"
    },
    {
      "anonymous": false,
      "inputs": [
        {
          "indexed": true,
          "name": "deviceId",
          "type": "uint256"
        },
        {
          "indexed": true,
          "name": "property",
          "type": "bytes32"
        },
        {
          "indexed": false,
          "name": "newValue",
          "type": "bytes32"
        }
      ],
      "name": "DevicePropertyUpdated",
      "type": "event"
    },
    {
      "anonymous": false,
      "inputs": [
        {
          "indexed": true,
          "name": "signatureId",
          "type": "uint256"
        },
        {
          "indexed": true,
          "name": "deviceId",
          "type": "uint256"
        },
        {
          "indexed": true,
          "name": "signer",
          "type": "address"
        },
        {
          "indexed": false,
          "name": "expiryTime",
          "type": "uint256"
        }
      ],
      "name": "DeviceSigned",
      "type": "event"
    },
    {
      "anonymous": false,
      "inputs": [
        {
          "indexed": true,
          "name": "signatureId",
          "type": "uint256"
        },
        {
          "indexed": true,
          "name": "deviceId",
          "type": "uint256"
        }
      ],
      "name": "SignatureRevoked",
      "type": "event"
    },
    {
      "anonymous": false,
      "inputs": [
        {
          "indexed": true,
          "name": "deviceId",
          "type": "uint256"
        },
        {
          "indexed": true,
          "name": "owner",
          "type": "address"
        },
        {
          "indexed": false,
          "name": "identifier",
          "type": "bytes32"
        },
        {
          "indexed": false,
          "name": "publicKey",
          "type": "string"
        },
        {
          "indexed": false,
          "name": "applicationId",
          "type": "bytes32"
        },
        {
          "indexed": false,
          "name": "applicationName",
          "type": "string"
        },
        {
          "indexed": false,
          "name": "endpointClientName",
          "type": "string"
        },
        {
          "indexed": false,
          "name": "allDevices",
          "type": "string"
        }
      ],
      "name": "DeviceCreated",
      "type": "event"
    },
    {
      "anonymous": false,
      "inputs": [
        {
          "indexed": true,
          "name": "owner",
          "type": "address"
        },
        {
          "indexed": false,
          "name": "newData",
          "type": "string"
        }
      ],
      "name": "EntityDataUpdated",
      "type": "event"
    }
  ],
  "bytecode": "0x608060405234801561001057600080fd5b50612ca7806100206000396000f3fe608060405260043610610112576000357c0100000000000000000000000000000000000000000000000000000000900463ffffffff16806307d88a8b146101175780630bcb88e8146101e957806310ff8e311461023c5780631b44ac70146104095780632a08e6011461044e5780633da1f79a146104b357806351b0e987146104ee578063533293ab146105945780635a3f79d2146105d95780635bbd710b146106a157806367bcfdf1146107555780638be10194146108315780638e9075be146108c55780639de9662d146109b9578063aa554c9d14610a49578063acbcb50714610aa2578063ad352e0914610b6c578063b0bd9fda14610c20578063ee23578314610c6f578063fe227ff914610cca575b600080fd5b34801561012357600080fd5b506101e76004803603604081101561013a57600080fd5b81019080803590602001909291908035906020019064010000000081111561016157600080fd5b82018360208201111561017357600080fd5b8035906020019184600183028401116401000000008311171561019557600080fd5b91908080601f016020809104026020016040519081016040528093929190818152602001838380828437600081840152601f19601f820116905080830192505050505050509192919290505050610f7f565b005b3480156101f557600080fd5b506102226004803603602081101561020c57600080fd5b810190808035906020019092919050505061112a565b604051808215151515815260200191505060405180910390f35b34801561024857600080fd5b506102756004803603602081101561025f57600080fd5b81019080803590602001909291905050506111c6565b604051808773ffffffffffffffffffffffffffffffffffffffff1673ffffffffffffffffffffffffffffffffffffffff168152602001868152602001806020018581526020018060200180602001848103845288818151815260200191508051906020019080838360005b838110156102fb5780820151818401526020810190506102e0565b50505050905090810190601f1680156103285780820380516001836020036101000a031916815260200191505b50848103835286818151815260200191508051906020019080838360005b83811015610361578082015181840152602081019050610346565b50505050905090810190601f16801561038e5780820380516001836020036101000a031916815260200191505b50848103825285818151815260200191508051906020019080838360005b838110156103c75780820151818401526020810190506103ac565b50505050905090810190601f1680156103f45780820380516001836020036101000a031916815260200191505b50995050505050505050505060405180910390f35b34801561041557600080fd5b5061044c6004803603604081101561042c57600080fd5b8101908080359060200190929190803590602001909291905050506113f9565b005b34801561045a57600080fd5b5061049d6004803603602081101561047157600080fd5b81019080803573ffffffffffffffffffffffffffffffffffffffff169060200190929190505050611594565b6040518082815260200191505060405180910390f35b3480156104bf57600080fd5b506104ec600480360360208110156104d657600080fd5b81019080803590602001909291905050506115ac565b005b3480156104fa57600080fd5b5061053d6004803603602081101561051157600080fd5b81019080803573ffffffffffffffffffffffffffffffffffffffff169060200190929190505050611820565b6040518080602001828103825283818151815260200191508051906020019060200280838360005b83811015610580578082015181840152602081019050610565565b505050509050019250505060405180910390f35b3480156105a057600080fd5b506105d7600480360360408110156105b757600080fd5b81019080803590602001909291908035906020019092919050505061195e565b005b3480156105e557600080fd5b5061069f600480360360208110156105fc57600080fd5b810190808035906020019064010000000081111561061957600080fd5b82018360208201111561062b57600080fd5b8035906020019184600183028401116401000000008311171561064d57600080fd5b91908080601f016020809104026020016040519081016040528093929190818152602001838380828437600081840152601f19601f820116905080830192505050505050509192919290505050611b52565b005b3480156106ad57600080fd5b506106da600480360360208110156106c457600080fd5b8101908080359060200190929190505050611c5e565b6040518080602001828103825283818151815260200191508051906020019080838360005b8381101561071a5780820151818401526020810190506106ff565b50505050905090810190601f1680156107475780820380516001836020036101000a031916815260200191505b509250505060405180910390f35b34801561076157600080fd5b5061081b6004803603602081101561077857600080fd5b810190808035906020019064010000000081111561079557600080fd5b8201836020820111156107a757600080fd5b803590602001918460018302840111640100000000831117156107c957600080fd5b91908080601f016020809104026020016040519081016040528093929190818152602001838380828437600081840152601f19601f820116905080830192505050505050509192919290505050611d13565b6040518082815260200191505060405180910390f35b34801561083d57600080fd5b5061086a6004803603602081101561085457600080fd5b8101908080359060200190929190505050611d88565b604051808573ffffffffffffffffffffffffffffffffffffffff1673ffffffffffffffffffffffffffffffffffffffff1681526020018481526020018381526020018215151515815260200194505050505060405180910390f35b3480156108d157600080fd5b5061099f600480360360608110156108e857600080fd5b8101908080359060200190929190803590602001909291908035906020019064010000000081111561091957600080fd5b82018360208201111561092b57600080fd5b8035906020019184600183028401116401000000008311171561094d57600080fd5b91908080601f016020809104026020016040519081016040528093929190818152602001838380828437600081840152601f19601f820116905080830192505050505050509192919290505050611df4565b604051808215151515815260200191505060405180910390f35b3480156109c557600080fd5b506109f2600480360360208110156109dc57600080fd5b8101908080359060200190929190505050611e5b565b6040518080602001828103825283818151815260200191508051906020019060200280838360005b83811015610a35578082015181840152602081019050610a1a565b505050509050019250505060405180910390f35b348015610a5557600080fd5b50610a8c60048036036040811015610a6c57600080fd5b810190808035906020019092919080359060200190929190505050611f5e565b6040518082815260200191505060405180910390f35b348015610aae57600080fd5b50610af160048036036020811015610ac557600080fd5b81019080803573ffffffffffffffffffffffffffffffffffffffff1690602001909291905050506120d5565b6040518080602001828103825283818151815260200191508051906020019080838360005b83811015610b31578082015181840152602081019050610b16565b50505050905090810190601f168015610b5e5780820380516001836020036101000a031916815260200191505b509250505060405180910390f35b348015610b7857600080fd5b50610ba560048036036020811015610b8f57600080fd5b810190808035906020019092919050505061218b565b6040518080602001828103825283818151815260200191508051906020019080838360005b83811015610be5578082015181840152602081019050610bca565b50505050905090810190601f168015610c125780820380516001836020036101000a031916815260200191505b509250505060405180910390f35b348015610c2c57600080fd5b50610c5960048036036020811015610c4357600080fd5b810190808035906020019092919050505061223b565b6040518082815260200191505060405180910390f35b348015610c7b57600080fd5b50610cc860048036036040811015610c9257600080fd5b8101908080359060200190929190803573ffffffffffffffffffffffffffffffffffffffff169060200190929190505050612253565b005b348015610cd657600080fd5b50610f69600480360360c0811015610ced57600080fd5b810190808035906020019092919080359060200190640100000000811115610d1457600080fd5b820183602082011115610d2657600080fd5b80359060200191846001830284011164010000000083111715610d4857600080fd5b91908080601f016020809104026020016040519081016040528093929190818152602001838380828437600081840152601f19601f8201169050808301925050505050505091929192908035906020019092919080359060200190640100000000811115610db557600080fd5b820183602082011115610dc757600080fd5b80359060200191846001830284011164010000000083111715610de957600080fd5b91908080601f016020809104026020016040519081016040528093929190818152602001838380828437600081840152601f19601f82011690508083019250505050505050919291929080359060200190640100000000811115610e4c57600080fd5b820183602082011115610e5e57600080fd5b80359060200191846001830284011164010000000083111715610e8057600080fd5b91908080601f016020809104026020016040519081016040528093929190818152602001838380828437600081840152601f19601f82011690508083019250505050505050919291929080359060200190640100000000811115610ee357600080fd5b820183602082011115610ef557600080fd5b80359060200191846001830284011164010000000083111715610f1757600080fd5b91908080601f016020809104026020016040519081016040528093929190818152602001838380828437600081840152601f19601f8201169050808301925050505050505091929192905050506125a5565b6040518082815260200191505060405180910390f35b813373ffffffffffffffffffffffffffffffffffffffff16600182815481101515610fa657fe5b906000526020600020906006020160000160009054906101000a900473ffffffffffffffffffffffffffffffffffffffff1673ffffffffffffffffffffffffffffffffffffffff16141515611063576040517f08c379a00000000000000000000000000000000000000000000000000000000081526004018080602001828103825260158152602001807f4f6e6c7920666f7220646576696365206f776e6572000000000000000000000081525060200191505060405180910390fd5b82600060066000838152602001908152602001600020541415156110ef576040517f08c379a00000000000000000000000000000000000000000000000000000000081526004018080602001828103825260128152602001807f4d757374206e6f74206265207369676e6564000000000000000000000000000081525060200191505060405180910390fd5b826001858154811015156110ff57fe5b90600052602060002090600602016002019080519060200190611123929190612ac2565b5050505050565b600060018281548110151561113b57fe5b9060005260206000209060060201600101546001900473ffffffffffffffffffffffffffffffffffffffff1660018381548110151561117657fe5b906000526020600020906006020160000160009054906101000a900473ffffffffffffffffffffffffffffffffffffffff1673ffffffffffffffffffffffffffffffffffffffff16149050919050565b6001818154811015156111d557fe5b90600052602060002090600602016000915090508060000160009054906101000a900473ffffffffffffffffffffffffffffffffffffffff1690806001015490806002018054600181600116156101000203166002900480601f0160208091040260200160405190810160405280929190818152602001828054600181600116156101000203166002900480156112ad5780601f10611282576101008083540402835291602001916112ad565b820191906000526020600020905b81548152906001019060200180831161129057829003601f168201915b505050505090806003015490806004018054600181600116156101000203166002900480601f0160208091040260200160405190810160405280929190818152602001828054600181600116156101000203166002900480156113515780601f1061132657610100808354040283529160200191611351565b820191906000526020600020905b81548152906001019060200180831161133457829003601f168201915b505050505090806005018054600181600116156101000203166002900480601f0160208091040260200160405190810160405280929190818152602001828054600181600116156101000203166002900480156113ef5780601f106113c4576101008083540402835291602001916113ef565b820191906000526020600020905b8154815290600101906020018083116113d257829003601f168201915b5050505050905086565b813373ffffffffffffffffffffffffffffffffffffffff1660018281548110151561142057fe5b906000526020600020906006020160000160009054906101000a900473ffffffffffffffffffffffffffffffffffffffff1673ffffffffffffffffffffffffffffffffffffffff161415156114dd576040517f08c379a00000000000000000000000000000000000000000000000000000000081526004018080602001828103825260158152602001807f4f6e6c7920666f7220646576696365206f776e6572000000000000000000000081525060200191505060405180910390fd5b8260006006600083815260200190815260200160002054141515611569576040517f08c379a00000000000000000000000000000000000000000000000000000000081526004018080602001828103825260128152602001807f4d757374206e6f74206265207369676e6564000000000000000000000000000081525060200191505060405180910390fd5b8260018581548110151561157957fe5b90600052602060002090600602016003018190555050505050565b60026020528060005260406000206000915090505481565b3373ffffffffffffffffffffffffffffffffffffffff166005828154811015156115d257fe5b906000526020600020906004020160000160009054906101000a900473ffffffffffffffffffffffffffffffffffffffff1673ffffffffffffffffffffffffffffffffffffffff161415156116b5576040517f08c379a00000000000000000000000000000000000000000000000000000000081526004018080602001828103825260218152602001807f4f6e6c7920666f722063726561746f72206f6620746865207369676e6174757281526020017f650000000000000000000000000000000000000000000000000000000000000081525060400191505060405180910390fd5b600015156005828154811015156116c857fe5b906000526020600020906004020160030160009054906101000a900460ff161515141515611784576040517f08c379a00000000000000000000000000000000000000000000000000000000081526004018080602001828103825260248152602001807f5369676e6174757265206d7573746e2774206265207265766f6b656420616c7281526020017f656164790000000000000000000000000000000000000000000000000000000081525060400191505060405180910390fd5b600060058281548110151561179557fe5b9060005260206000209060040201905060018160030160006101000a81548160ff021916908315150217905550600660008260010154815260200190815260200160002060008154809291906001900391905055508060010154827ff93d5095ac7696e643e1fa0aa35d622f4a13e11f4e199f30794679dcdcdb973760405160405180910390a35050565b606080600260008473ffffffffffffffffffffffffffffffffffffffff1673ffffffffffffffffffffffffffffffffffffffff168152602001908152602001600020546040519080825280602002602001820160405280156118915781602001602082028038833980820191505090505b509050600080905060008090505b600180549050811015611953578473ffffffffffffffffffffffffffffffffffffffff166001828154811015156118d257fe5b906000526020600020906006020160000160009054906101000a900473ffffffffffffffffffffffffffffffffffffffff1673ffffffffffffffffffffffffffffffffffffffff1614156119465780838381518110151561192f57fe5b906020019060200201818152505081806001019250505b808060010191505061189f565b508192505050919050565b813373ffffffffffffffffffffffffffffffffffffffff1660018281548110151561198557fe5b906000526020600020906006020160000160009054906101000a900473ffffffffffffffffffffffffffffffffffffffff1673ffffffffffffffffffffffffffffffffffffffff16141515611a42576040517f08c379a00000000000000000000000000000000000000000000000000000000081526004018080602001828103825260158152602001807f4f6e6c7920666f7220646576696365206f776e6572000000000000000000000081525060200191505060405180910390fd5b8260006006600083815260200190815260200160002054141515611ace576040517f08c379a00000000000000000000000000000000000000000000000000000000081526004018080602001828103825260128152602001807f4d757374206e6f74206265207369676e6564000000000000000000000000000081525060200191505060405180910390fd5b82600185815481101515611ade57fe5b9060005260206000209060060201600101819055507f6964656e74696669657200000000000000000000000000000000000000000000847f67ace838aca3988a026b61036d72b93a8316d05feecb6ee10316e8d59f0e687f856040518082815260200191505060405180910390a350505050565b806000803373ffffffffffffffffffffffffffffffffffffffff1673ffffffffffffffffffffffffffffffffffffffff1681526020019081526020016000206000019080519060200190611ba7929190612ac2565b503373ffffffffffffffffffffffffffffffffffffffff167f53d207b6cf416d44764c48a52a7e64ffa2793f67215d452a032a11e0dd34bd2c826040518080602001828103825283818151815260200191508051906020019080838360005b83811015611c21578082015181840152602081019050611c06565b50505050905090810190601f168015611c4e5780820380516001836020036101000a031916815260200191505b509250505060405180910390a250565b6060600360008381526020019081526020016000208054600181600116156101000203166002900480601f016020809104026020016040519081016040528092919081815260200182805460018160011615610100020316600290048015611d075780601f10611cdc57610100808354040283529160200191611d07565b820191906000526020600020905b815481529060010190602001808311611cea57829003601f168201915b50505050509050919050565b60006004826040518082805190602001908083835b602083101515611d4d5780518252602082019150602081019050602083039250611d28565b6001836020036101000a0380198251168184511680821785525050505050509050019150509081526020016040518091039020549050919050565b600581815481101515611d9757fe5b90600052602060002090600402016000915090508060000160009054906101000a900473ffffffffffffffffffffffffffffffffffffffff16908060010154908060020154908060030160009054906101000a900460ff16905084565b6000600184815481101515611e0557fe5b9060005260206000209060060201600101546001900473ffffffffffffffffffffffffffffffffffffffff16611e3b84846129de565b73ffffffffffffffffffffffffffffffffffffffff161490509392505050565b6060806006600084815260200190815260200160002054604051908082528060200260200182016040528015611ea05781602001602082028038833980820191505090505b509050600080905060008090505b600580549050811015611f535784600582815481101515611ecb57fe5b906000526020600020906004020160010154148015611f1b575060001515600582815481101515611ef857fe5b906000526020600020906004020160030160009054906101000a900460ff161515145b15611f4657808383815181101515611f2f57fe5b906020019060200201818152505081806001019250505b8080600101915050611eae565b508192505050919050565b6000611f68612b42565b6080604051908101604052803373ffffffffffffffffffffffffffffffffffffffff168152602001858152602001848152602001600015158152509050600060016005839080600181540180825580915050906001820390600052602060002090600402016000909192909190915060008201518160000160006101000a81548173ffffffffffffffffffffffffffffffffffffffff021916908373ffffffffffffffffffffffffffffffffffffffff160217905550602082015181600101556040820151816002015560608201518160030160006101000a81548160ff021916908315150217905550505003905060066000868152602001908152602001600020600081548092919060010191905055503373ffffffffffffffffffffffffffffffffffffffff1685827f3739f348a11e3a029a385b4746ea6edba7f01ceec207010638e9d17862b78c40876040518082815260200191505060405180910390a4809250505092915050565b6000602052806000526040600020600091509050806000018054600181600116156101000203166002900480601f0160208091040260200160405190810160405280929190818152602001828054600181600116156101000203166002900480156121815780601f1061215657610100808354040283529160200191612181565b820191906000526020600020905b81548152906001019060200180831161216457829003601f168201915b5050505050905081565b60036020528060005260406000206000915090508054600181600116156101000203166002900480601f0160208091040260200160405190810160405280929190818152602001828054600181600116156101000203166002900480156122335780601f1061220857610100808354040283529160200191612233565b820191906000526020600020905b81548152906001019060200180831161221657829003601f168201915b505050505081565b60066020528060005260406000206000915090505481565b813373ffffffffffffffffffffffffffffffffffffffff1660018281548110151561227a57fe5b906000526020600020906006020160000160009054906101000a900473ffffffffffffffffffffffffffffffffffffffff1673ffffffffffffffffffffffffffffffffffffffff16141515612337576040517f08c379a00000000000000000000000000000000000000000000000000000000081526004018080602001828103825260158152602001807f4f6e6c7920666f7220646576696365206f776e6572000000000000000000000081525060200191505060405180910390fd5b82600060066000838152602001908152602001600020541415156123c3576040517f08c379a00000000000000000000000000000000000000000000000000000000081526004018080602001828103825260128152602001807f4d757374206e6f74206265207369676e6564000000000000000000000000000081525060200191505060405180910390fd5b60006001858154811015156123d457fe5b906000526020600020906006020160000160009054906101000a900473ffffffffffffffffffffffffffffffffffffffff1690508360018681548110151561241857fe5b906000526020600020906006020160000160006101000a81548173ffffffffffffffffffffffffffffffffffffffff021916908373ffffffffffffffffffffffffffffffffffffffff160217905550600260003373ffffffffffffffffffffffffffffffffffffffff1673ffffffffffffffffffffffffffffffffffffffff1681526020019081526020016000206000815480929190600190039190505550600260008573ffffffffffffffffffffffffffffffffffffffff1673ffffffffffffffffffffffffffffffffffffffff16815260200190815260200160002060008154809291906001019190505550847f848155b8e733cfd6e7258639111d906437ddb051818f4061fc4c7cfbc575cb2e8286604051808373ffffffffffffffffffffffffffffffffffffffff1673ffffffffffffffffffffffffffffffffffffffff1681526020018273ffffffffffffffffffffffffffffffffffffffff1673ffffffffffffffffffffffffffffffffffffffff1681526020019250505060405180910390a25050505050565b60006125af612b83565b60c0604051908101604052803373ffffffffffffffffffffffffffffffffffffffff168152602001898152602001888152602001878152602001868152602001858152509050856004856040518082805190602001908083835b60208310151561262e5780518252602082019150602081019050602083039250612609565b6001836020036101000a0380198251168184511680821785525050505050509050019150509081526020016040518091039020819055508260036000888152602001908152602001600020908051906020019061268c929190612ac2565b506000600180839080600181540180825580915050906001820390600052602060002090600602016000909192909190915060008201518160000160006101000a81548173ffffffffffffffffffffffffffffffffffffffff021916908373ffffffffffffffffffffffffffffffffffffffff16021790555060208201518160010155604082015181600201908051906020019061272b929190612bd6565b50606082015181600301556080820151816004019080519060200190612752929190612bd6565b5060a082015181600501908051906020019061276f929190612bd6565b505050039050600260003373ffffffffffffffffffffffffffffffffffffffff1673ffffffffffffffffffffffffffffffffffffffff168152602001908152602001600020600081548092919060010191905055503373ffffffffffffffffffffffffffffffffffffffff16817fde4ee6b3ca944eadd6dffc1090db8df6b871245d6fedeee94222fa27798479538b8b8b8b8b8b604051808781526020018060200186815260200180602001806020018060200185810385528a818151815260200191508051906020019080838360005b8381101561285b578082015181840152602081019050612840565b50505050905090810190601f1680156128885780820380516001836020036101000a031916815260200191505b50858103845288818151815260200191508051906020019080838360005b838110156128c15780820151818401526020810190506128a6565b50505050905090810190601f1680156128ee5780820380516001836020036101000a031916815260200191505b50858103835287818151815260200191508051906020019080838360005b8381101561292757808201518184015260208101905061290c565b50505050905090810190601f1680156129545780820380516001836020036101000a031916815260200191505b50858103825286818151815260200191508051906020019080838360005b8381101561298d578082015181840152602081019050612972565b50505050905090810190601f1680156129ba5780820380516001836020036101000a031916815260200191505b509a505050505050505050505060405180910390a380925050509695505050505050565b600080600080604185511415156129fb5760009350505050612abc565b6020850151925060408501519150606085015160001a9050601b8160ff161015612a2657601b810190505b601b8160ff1614158015612a3e5750601c8160ff1614155b15612a4f5760009350505050612abc565b60018682858560405160008152602001604052604051808581526020018460ff1660ff1681526020018381526020018281526020019450505050506020604051602081039080840390855afa158015612aac573d6000803e3d6000fd5b5050506020604051035193505050505b92915050565b828054600181600116156101000203166002900490600052602060002090601f016020900481019282601f10612b0357805160ff1916838001178555612b31565b82800160010185558215612b31579182015b82811115612b30578251825591602001919060010190612b15565b5b509050612b3e9190612c56565b5090565b608060405190810160405280600073ffffffffffffffffffffffffffffffffffffffff16815260200160008152602001600081526020016000151581525090565b60c060405190810160405280600073ffffffffffffffffffffffffffffffffffffffff16815260200160008019168152602001606081526020016000801916815260200160608152602001606081525090565b828054600181600116156101000203166002900490600052602060002090601f016020900481019282601f10612c1757805160ff1916838001178555612c45565b82800160010185558215612c45579182015b82811115612c44578251825591602001919060010190612c29565b5b509050612c529190612c56565b5090565b612c7891905b80821115612c74576000816000905550600101612c5c565b5090565b9056fea165627a7a723058201455e5247cecff922dbbad3485b535daf68a939886794e7e304016ff0c8186cb0029",
  "source": "pragma solidity ^0.5.0;\n\nimport \"./MerkleProof.sol\";\nimport \"./ECRecovery.sol\";\n\n/**\n * @title Provides base functionalities for entities.\n */\ncontract EntityBase {\n    /// @dev Entity in the device management system.\n    struct Entity {\n        // Arbitary data in case entity wants to have some public information available.\n        string data;\n    }\n\n    /// @notice Maps owner to an Entity structure.\n    mapping (address => Entity) public ownerToEntity;\n\n    /// @dev Fired on entity data update.\n    event EntityDataUpdated(address indexed owner, string newData);\n\n    /**\n     * @notice Update entity data.\n     * @param _data Entity data.\n     */\n    function updateEntityData(string memory _data) public {\n        ownerToEntity[msg.sender].data = _data;\n\n        emit EntityDataUpdated(msg.sender, _data);\n    }\n}\n\n/**\n * @title Provides base functionalities for devices.\n */\ncontract DeviceBase {\n    /// @dev Main device structucture.\n    struct Device {\n        // Ethereum address of a device owner.\n        address owner;\n\n        // Unique device identifier. Can hold anything that fits into 32 bytes. Different from device ID.\n        // Supposed to be a public key or a representation of one, such as fingerprint of RSA/ECC\n        // public key or simply an Ethereum address. To make identifier be an Ethereum address,\n        // use secp256k1 curve to generate public and private key pair, run keccak256 hash function\n        // on public key and take last 20 bytes of generated hash to get Ethereum address.\n        // If a device wants to be it's own entity, use same address as in owner property.\n        bytes32 identifier;\n\n        // Merkle root hash of metadata or simple hash of concatenated data.\n        // It is recommended to use Merkle tree to store information on device as it enables to\n        // prove membership of specific data by providing Merkle proof without revealing whole dataset.\n        string publicKey;\n\n        // Holds a hash of actual firmware hash. Actual firmware hash is not supposed to be stored.\n        // Plain text or hash would expose data that is meant to be private, so \"hash of hash\" principle\n        // gives privacy and makes integrity verification possible.\n        bytes32 applicationId;\n        string applicationName;\n\n        string endpointClientName;\n\n        // Additional data linked to device. Can be used to store hash of encrypted firmware on IPFS.\n        //string offchainLink;\n\n        // Full public key (even though parties can exchange public key other ways then use\n        // blockchain to verify.)\n        //string publicKey;\n    }\n\n    /// @notice State variable for storing devices. Index in the array is also a device ID.\n    /// Array can hold a maximum of 2^256-1 entries.\n    Device[] public devices;\n\n    /// @notice Keeps track of total devices for each owner.\n    mapping (address => uint) public ownerDeviceCount;\n\n    /// @notice Keeps track of total devices for each owner.\n    mapping (bytes32 => string) public applicationToLinkedDevices;\n\n    /// @notice deviceClientName to linkedAPP id\n    mapping (string => bytes32) deviceClientNameToAppId;\n    /// @dev Fired on creation of new device.\n    event DeviceCreated(uint indexed deviceId, address indexed owner, bytes32 identifier, string publicKey, bytes32 applicationId, string applicationName, string endpointClientName, string allDevices);\n\n    /// @dev Modifier for ensuring that the message sender is owner of provided device ID.\n    modifier onlyOwnerOf(uint _deviceId) {\n        require(devices[_deviceId].owner == msg.sender, \"Only for device owner\");\n        _;\n    }\n\n    /**\n     * @notice Creates and saves device into storage. Emits DeviceCreated.\n     * @param _identifier Unique device identifier, such as fingerprint of RSA/ECC public key or Ethereum address (recommended).\n     * @param _publicKey Merkle root hash of metadata (recommended) or simple hash of concatenated metadata.\n     * @param _applicationId App linked to.\n     * @param _endpointClientName Endpoint Client Name.\n     * @return Created device ID.\n     */\n    function createDevice(bytes32 _identifier, string memory _publicKey, bytes32 _applicationId, string memory _applicationName, string memory _endpointClientName, string memory _allDevices) public returns (uint) {\n        Device memory newDevice = Device(msg.sender, _identifier, _publicKey, _applicationId, _applicationName, _endpointClientName);\n//        applicationToLinkedDevices[_applicationId] = _applicationName;\n        deviceClientNameToAppId[_endpointClientName] = _applicationId;\n        applicationToLinkedDevices[_applicationId] = _allDevices;\n        uint deviceId = devices.push(newDevice) - 1;\n        ownerDeviceCount[msg.sender]++;\n        emit DeviceCreated(deviceId, msg.sender, _identifier, _publicKey, _applicationId, _applicationName, _endpointClientName, _allDevices);\n        return deviceId;\n    }\n    function getDevicesByAppId(bytes32 _appId) public view returns (string memory) {\n        return applicationToLinkedDevices[_appId];\n    }\n    function getAppIdByDeviceClientName(string memory _deviceClientName) public view returns (bytes32) {\n        return deviceClientNameToAppId[_deviceClientName];\n    }\n}\n\n/**\n * @title Provides extra functionalities for devices.\n */\ncontract DeviceHelper is DeviceBase {\n    /**\n      * @notice Gets all devices owned by specified address.\n      * @dev Use this function instead of filtering DeviceCreated event since devices could have been transferred between owners.\n      * @param _owner Owner address.\n      * @return Array of device IDs.\n      */\n    function getDevicesByOwner(address _owner) public view returns (uint[] memory) {\n        uint[] memory deviceIds = new uint[](ownerDeviceCount[_owner]);\n        uint counter = 0;\n        for (uint i = 0; i < devices.length; i++) {\n            if (devices[i].owner == _owner) {\n                deviceIds[counter] = i;\n                counter++;\n            }\n        }\n        return deviceIds;\n    }\n\n    /**\n     * @notice Checks if device is also an entity.\n     * @param _deviceId ID of a  device.\n     * @return Boolean status.\n     */\n    function isDeviceAnEntity(uint _deviceId) public view returns (bool) {\n        return devices[_deviceId].owner == address(uint160(uint256(devices[_deviceId].identifier)));\n    }\n\n    /**\n     * @notice Checks if provided leaf is a member of metadata contained in Merkle tree.\n     * Assumes that each pair of leaves and each pair of pre-images are sorted.\n     * @param _deviceId ID of a device containing metadata hash.\n     * @param _proof Merkle proof containing sibling hashes on the branch from the leaf to the root of the Merkle tree.\n     * @param _leaf Leaf of Merkle tree.\n     * @return Boolean status.\n     */\n//    function isValidMetadataMember(uint _deviceId, bytes32[] memory _proof, bytes32 _leaf) public view returns (bool) {\n//        return MerkleProof.verifyProof(_proof, devices[_deviceId].metadataHash, _leaf);\n//    }\n\n    /**\n     * @notice Checks if provided firmware hash is equal to firmware hash device property.\n     * @param _deviceId ID of a device containing firmware hash.\n     * @param _firmwareHash Firmware hash (not the actual hash).\n     * @return Boolean status.\n     */\n//    function isValidFirmwareHash(uint _deviceId, string memory _firmwareHash) public view returns (bool) {\n//        return devices[_deviceId].firmwareHash == _firmwareHash;\n//    }\n\n    /**\n     * @notice Validate authenticity of message signed by Etherium private key.\n     * On-chain validation is available only for Ethereum signed messages.\n     * @param _deviceId ID of a device that signed the message.\n     * @param _messageHash Hash of sent message.\n     * @param _signature Signature generated using web3.eth.sign().\n     * @return Boolean status.\n     */\n    function isValidEthMessage(uint _deviceId, bytes32 _messageHash, bytes memory _signature) public view returns (bool) {\n        return ECRecovery.recover(_messageHash, _signature) == address(uint160(uint256(devices[_deviceId].identifier)));\n    }\n}\n\n/**\n * @title Provides base functionalities for signatures.\n */\ncontract SignatureBase {\n    /// @dev Main signature structucture.\n    struct Signature {\n        // Ethereum address of the signer.\n        address signer;\n\n        // ID of device to sign.\n        uint deviceId;\n\n        // Using 256 bits ensures no overflow on year 2038 (Unix seconds).\n        uint expiryTime;\n\n        // Updates to true once signer decides to revoke signature.\n        bool revoked;\n    }\n\n    /// @notice State variable for storing signatures. Index in the array is also a signature ID.\n    /// Array can hold a maximum of 2^256-1 entries.\n    Signature[] public signatures;\n\n    /// @notice Keeps track of total signatures for each device.\n    mapping (uint => uint) public deviceSignatureCount;\n\n    /// @dev Fired when an address signs a device.\n    event DeviceSigned(uint indexed signatureId, uint indexed deviceId, address indexed signer, uint expiryTime);\n\n    /// @dev Fired when signature is revoked.\n    event SignatureRevoked(uint indexed signatureId, uint indexed deviceId);\n\n    /// @dev Modifier for ensuring that the device hasn't been signed already.\n    modifier notSigned(uint _deviceId) {\n        require(deviceSignatureCount[_deviceId] == 0, \"Must not be signed\");\n        _;\n    }\n\n    /**\n     * @notice Signs a device and signature into storage. Emits DeviceSigned.\n     * @param _deviceId ID of to be signed device.\n     * @param _expiryTime Expiry time in Unix seconds.\n     * @return Created signature ID.\n     */\n    function signDevice(uint _deviceId, uint _expiryTime) public returns (uint) {\n        Signature memory signature = Signature(msg.sender, _deviceId, _expiryTime, false);\n        uint signatureId = signatures.push(signature) - 1;\n        deviceSignatureCount[_deviceId]++;\n\n        emit DeviceSigned(signatureId, _deviceId, msg.sender, _expiryTime);\n        return signatureId;\n    }\n\n    /**\n     * @notice Revokes a signature. Emits SignatureRevoked.\n     * @param _signatureId ID of to be revoked signature.\n     */\n    function revokeSignature(uint _signatureId) public {\n        require(signatures[_signatureId].signer == msg.sender, \"Only for creator of the signature\");\n        require(signatures[_signatureId].revoked == false, \"Signature mustn't be revoked already\");\n        Signature storage signature = signatures[_signatureId];\n        signature.revoked = true;\n        deviceSignatureCount[signature.deviceId]--;\n\n        emit SignatureRevoked(_signatureId, signature.deviceId);\n    }\n}\n\n/**\n * @title Provides extra functionalities for signatures.\n */\ncontract SignatureHelper is SignatureBase {\n    /**\n     * @notice Gets all signatures for specific device.\n     * @dev Use this function instead of filtering DeviceSigned event since signatures could have been revoked.\n     * @param _deviceId ID of a device.\n     * @return Array of signature IDs.\n     */\n    function getActiveSignaturesForDevice(uint _deviceId) public view returns (uint[] memory) {\n        uint[] memory signatureIds = new uint[](deviceSignatureCount[_deviceId]);\n        uint counter = 0;\n        for (uint i = 0; i < signatures.length; i++) {\n            if (signatures[i].deviceId == _deviceId && signatures[i].revoked == false) {\n                signatureIds[counter] = i;\n                counter++;\n            }\n        }\n        return signatureIds;\n    }\n}\n\n/**\n * @title Enriches devices giving them option to be updated only if not signed already.\n */\ncontract DeviceUpdatable is DeviceHelper, SignatureHelper {\n    /// @dev Fired on device ownership transfer, keeps track of historical device owners.\n    event DeviceTransfered(uint indexed deviceId, address oldOwner, address newOwner);\n\n    /// @dev Fired on device property update, keeps track of historical property values.\n    event DevicePropertyUpdated(uint indexed deviceId, bytes32 indexed property, bytes32 newValue);\n\n    /**\n     * @notice Transfer device ownership from one external account to another. Emits DeviceTransfered.\n     * @param _deviceId ID of to be transfered device.\n     * @param _to Address of new owner.\n     */\n    function transferDevice(uint _deviceId, address _to) public onlyOwnerOf(_deviceId) notSigned(_deviceId) {\n        address currentOwner = devices[_deviceId].owner;\n        devices[_deviceId].owner = _to;\n        ownerDeviceCount[msg.sender]--;\n        ownerDeviceCount[_to]++;\n\n        emit DeviceTransfered(_deviceId, currentOwner, _to);\n    }\n\n    /**\n     * @notice Update device with new identifier. Emits DevicePropertyUpdated.\n     * @param _deviceId ID of a device.\n     * @param _newIdentifier New identifier.\n     */\n    function updateIdentifier(uint _deviceId, bytes32 _newIdentifier) public onlyOwnerOf(_deviceId) notSigned(_deviceId) {\n        devices[_deviceId].identifier = _newIdentifier;\n\n        emit DevicePropertyUpdated(_deviceId, \"identifier\", _newIdentifier);\n    }\n\n    /**\n     * @notice Update device with new metadata hash. Emits DevicePropertyUpdated.\n     * @param _deviceId ID of a device.\n     * @param _newPublicKey New PublicKey\n     */\n    function updateMetadataHash(uint _deviceId, string memory _newPublicKey) public onlyOwnerOf(_deviceId) notSigned(_deviceId) {\n        devices[_deviceId].publicKey = _newPublicKey;\n\n//        emit DevicePropertyUpdated(_deviceId, \"metadata\", _newMetadataHash);\n    }\n\n    /**\n     * @notice Update device with new firmware hash. Emits DevicePropertyUpdated.\n     * @param _deviceId ID of a device.\n     * @param _newApplicationId New _newApplicationId.\n     */\n    function updateApplicationId(uint _deviceId, bytes32 _newApplicationId) public onlyOwnerOf(_deviceId) notSigned(_deviceId) {\n        devices[_deviceId].applicationId = _newApplicationId;\n\n//        emit DevicePropertyUpdated(_deviceId, \"firmware\", _newFirmwareHash);\n    }\n}\n\n/// @title Device manager core contract.\ncontract Application is EntityBase, DeviceUpdatable {\n    /// @dev Merges contracts.\n}\n//pragma solidity ^0.5.0;\n//\n//import \"./MerkleProof.sol\";\n//import \"./ECRecovery.sol\";\n//\n///**\n// * @title Provides base functionalities for entities.\n// */\n//contract EntityBase {\n//    /// @dev Entity in the device management system.\n//    struct Entity {\n//        // Arbitary data in case entity wants to have some public information available.\n//        string data;\n//    }\n//\n//    /// @notice Maps owner to an Entity structure.\n//    mapping (address => Entity) public ownerToEntity;\n//\n//    /// @dev Fired on entity data update.\n//    event EntityDataUpdated(address indexed owner, string newData);\n//\n//    /**\n//     * @notice Update entity data.\n//     * @param _data Entity data.\n//     */\n//    function updateEntityData(string memory _data) public {\n//        ownerToEntity[msg.sender].data = _data;\n//\n//        emit EntityDataUpdated(msg.sender, _data);\n//    }\n//}\n//\n///**\n// * @title Provides base functionalities for devices.\n// */\n//contract DeviceBase {\n//    /// @dev Main device structucture.\n//    struct Device {\n//        // Ethereum address of a device owner.\n//        address owner;\n//\n//        // Unique device identifier. Can hold anything that fits into 32 bytes. Different from device ID.\n//        // Supposed to be a public key or a representation of one, such as fingerprint of RSA/ECC\n//        // public key or simply an Ethereum address. To make identifier be an Ethereum address,\n//        // use secp256k1 curve to generate public and private key pair, run keccak256 hash function\n//        // on public key and take last 20 bytes of generated hash to get Ethereum address.\n//        // If a device wants to be it's own entity, use same address as in owner property.\n//        bytes32 identifier;\n//\n//        // Merkle root hash of metadata or simple hash of concatenated data.\n//        // It is recommended to use Merkle tree to store information on device as it enables to\n//        // prove membership of specific data by providing Merkle proof without revealing whole dataset.\n//        string metadataHash;\n//\n//        // Holds a hash of actual firmware hash. Actual firmware hash is not supposed to be stored.\n//        // Plain text or hash would expose data that is meant to be private, so \"hash of hash\" principle\n//        // gives privacy and makes integrity verification possible.\n//        string firmwareHash;\n//\n//        //product ID that the device is linked to\n////        bytes32 productID;\n//        string endpointClientName;\n//\n//        // Additional data linked to device. Can be used to store hash of encrypted firmware on IPFS.\n//        //string offchainLink;\n//\n//        // Full public key (even though parties can exchange public key other ways then use\n//        // blockchain to verify.)\n//        //string publicKey;\n//    }\n//\n//    /// @notice State variable for storing devices. Index in the array is also a device ID.\n//    /// Array can hold a maximum of 2^256-1 entries.\n//    Device[] public devices;\n//\n//    /// @notice Keeps track of total devices for each owner.\n//    mapping (address => uint) public ownerDeviceCount;\n//\n//    /// @dev Fired on creation of new device.\n//    event DeviceCreated(uint indexed deviceId, address indexed owner, bytes32 identifier, string metadataHash, string firmwareHash, string endpointClientName);\n//\n//    /// @dev Modifier for ensuring that the message sender is owner of provided device ID.\n//    modifier onlyOwnerOf(uint _deviceId) {\n//        require(devices[_deviceId].owner == msg.sender, \"Only for device owner\");\n//        _;\n//    }\n//\n//    /**\n//     * @notice Creates and saves device into storage. Emits DeviceCreated.\n//     * @param _identifier Unique device identifier, such as fingerprint of RSA/ECC public key or Ethereum address (recommended).\n//     * @param _metadataHash Merkle root hash of metadata (recommended) or simple hash of concatenated metadata.\n//     * @param _firmwareHash Hash of actual firmware hash.\n//     * @return Created device ID.\n//     */\n//    function createDevice(bytes32 _identifier, string memory _metadataHash, string memory _firmwareHash, string memory _endpointClientName) public returns (uint deviceID) {\n////        Device memory newDevice = Device(msg.sender, _identifier, _metadataHash, _firmwareHash, _productID, _endpointClientName);\n//        Device storage newDevice = DeviceClientNameToDeviceStruct[_endpointClientName];\n//        newDevice.identifier = _identifier;\n//        newDevice.metadataHash = _metadataHash;\n//        newDevice.firmwareHash = _firmwareHash;\n//        newDevice.endpointClientName = _endpointClientName;\n//        uint deviceId = devices.push(newDevice) - 1;\n//        ownerDeviceCount[msg.sender]++;\n////        DeviceClientNameToDeviceStruct[_endpointClientName] = newDevice;\n//        emit DeviceCreated(deviceId, msg.sender, _identifier, _metadataHash, _firmwareHash, _endpointClientName);\n//        return deviceId;\n//    }\n//    mapping (string => Device) public DeviceClientNameToDeviceStruct; // access a Device struct directly from an ID\n////    function getProductidByClientName(string memory _clientname) public view returns (bytes32 productID) {\n//////        uint[] memory deviceIds = new uint[](ownerDeviceCount[_owner]);\n////        Device memory device = DeviceClientNameToDeviceStruct[_clientname];\n////        return device.productID;\n////    }\n////    function getdeviceFirmByClientName(string memory _clientname) public view returns (string memory firmware) {\n////        Device memory device = DeviceClientNameToDeviceStruct[_clientname];\n////        return device.firmwareHash;\n////    }\n//\n//}\n//\n///**\n// * @title Provides extra functionalities for devices.\n// */\n//contract DeviceHelper is DeviceBase {\n//   /**\n//     * @notice Gets all devices owned by specified address.\n//     * @dev Use this function instead of filtering DeviceCreated event since devices could have been transferred between owners.\n//     * @param _owner Owner address.\n//     * @return Array of device IDs.\n//     */\n//    function getDevicesByOwner(address _owner) public view returns (uint[] memory) {\n//        uint[] memory deviceIds = new uint[](ownerDeviceCount[_owner]);\n//        uint counter = 0;\n//        for (uint i = 0; i < devices.length; i++) {\n//            if (devices[i].owner == _owner) {\n//                deviceIds[counter] = i;\n//                counter++;\n//            }\n//        }\n//        return deviceIds;\n//    }\n//\n////    function getLinkedProductId(uint _deviceId) public view returns (bytes32) {\n////        return devices[_deviceId].productID;\n////    }\n//\n//    function getFirmwarehash(uint _deviceId) public view returns (string memory) {\n//        return devices[_deviceId].firmwareHash;\n//    }\n//    /**\n//     * @notice Checks if device is also an entity.\n//     * @param _deviceId ID of a  device.\n//     * @return Boolean status.\n//     */\n//    function isDeviceAnEntity(uint _deviceId) public view returns (bool) {\n//        return devices[_deviceId].owner == address(uint160(uint256(devices[_deviceId].identifier)));\n//    }\n//\n//\n//    /**\n//     * @notice Checks if provided leaves are members of metadata contained in Merkle tree.\n//     * Assumes that each pair of leaves and each pair of pre-images are sorted.\n//     * @param _deviceId ID of a device containing metadata hash.\n//     * @param _proof Merkle proof containing sibling hashes on the branch from the leaf to the root of the Merkle tree.\n//     * @param _leaf Leaf of Merkle tree.\n//     * @return Boolean status.\n//     */\n////    function isValidMetadataMember(uint _deviceId, bytes32[] memory _proof, bytes32 _leaf) public view returns (bool) {\n////        return MerkleProof.verifyProof(_proof, devices[_deviceId].metadataHash, _leaf);\n////    }\n//\n//    /**\n//     * @notice Checks if provided firmware hash is equal to firmware hash device property.\n//     * @param _deviceId ID of a device containing firmware hash.\n//     * @param _firmwareHash Firmware hash (not the actual hash).\n//     * @return Boolean status.\n//     */\n////    function isValidFirmwareHash(uint _deviceId,  _firmwareHash) public view returns (bool) {\n////        bytes32 current = devices[_deviceId].firmwareHash;\n////        return devices[_deviceId].firmwareHash != _firmwareHash;\n////    }\n//\n////\n////    function printFirmwareHashCurrent(uint _deviceId, bytes32 _firmwareHash) public view returns (bytes32) {\n////        bytes32 current = devices[_deviceId].firmwareHash;\n////        return current;\n////    }\n////    function printFirmwareHash(uint _deviceId, bytes32 _firmwareHash) public view returns (bytes32) {\n////        return _firmwareHash;\n////    }\n//\n//    /**\n//     * @notice Validate authenticity of message signed by Etherium private key.\n//     * On-chain validation is available only for Ethereum signed messages.\n//     * @param _deviceId ID of a device that signed the message.\n//     * @param _messageHash Hash of sent message.\n//     * @param _signature Signature generated using web3.eth.sign().\n//     * @return Boolean status.\n//     */\n//    function isValidEthMessage(uint _deviceId, bytes32 _messageHash, bytes memory _signature) public view returns (bool) {\n//        return ECRecovery.recover(_messageHash, _signature) == address(uint160(uint256(devices[_deviceId].identifier)));\n//    }\n//}\n//\n///**\n// * @title Provides base functionalities for signatures.\n// */\n//contract SignatureBase {\n//    /// @dev Main signature structucture.\n//    struct Signature {\n//        // Ethereum address of the signer.\n//        address signer;\n//\n//        // ID of device to sign.\n//        uint deviceId;\n//\n//        // Using 256 bits ensures no overflow on year 2038 (Unix seconds).\n//        uint expiryTime;\n//\n//        // Updates to true once signer decides to revoke signature.\n//        bool revoked;\n//    }\n//\n//    /// @notice State variable for storing signatures. Index in the array is also a signature ID.\n//    /// Array can hold a maximum of 2^256-1 entries.\n//    Signature[] public signatures;\n//\n//    /// @notice Keeps track of total signatures for each device.\n//    mapping (uint => uint) public deviceSignatureCount;\n//\n//    /// @dev Fired when an address signs a device.\n//    event DeviceSigned(uint indexed signatureId, uint indexed deviceId, address indexed signer, uint expiryTime);\n//\n//    /// @dev Fired when signature is revoked.\n//    event SignatureRevoked(uint indexed signatureId, uint indexed deviceId);\n//\n//    /// @dev Modifier for ensuring that the device hasn't been signed already.\n//    modifier notSigned(uint _deviceId) {\n//        require(deviceSignatureCount[_deviceId] == 0, \"Must not be signed\");\n//        _;\n//    }\n//\n//    /**\n//     * @notice Signs a device and signature into storage. Emits DeviceSigned.\n//     * @param _deviceId ID of to be signed device.\n//     * @param _expiryTime Expiry time in Unix seconds.\n//     * @return Created signature ID.\n//     */\n//    function signDevice(uint _deviceId, uint _expiryTime) public returns (uint) {\n//        Signature memory signature = Signature(msg.sender, _deviceId, _expiryTime, false);\n//        uint signatureId = signatures.push(signature) - 1;\n//        deviceSignatureCount[_deviceId]++;\n//\n//        emit DeviceSigned(signatureId, _deviceId, msg.sender, _expiryTime);\n//        return signatureId;\n//    }\n//\n//    /**\n//     * @notice Revokes a signature. Emits SignatureRevoked.\n//     * @param _signatureId ID of to be revoked signature.\n//     */\n//    function revokeSignature(uint _signatureId) public {\n//        require(signatures[_signatureId].signer == msg.sender, \"Only for creator of the signature\");\n//        require(signatures[_signatureId].revoked == false, \"Signature mustn't be revoked already\");\n//        Signature storage signature = signatures[_signatureId];\n//        signature.revoked = true;\n//        deviceSignatureCount[signature.deviceId]--;\n//\n//        emit SignatureRevoked(_signatureId, signature.deviceId);\n//    }\n//}\n//\n///**\n// * @title Provides extra functionalities for signatures.\n// */\n//contract SignatureHelper is SignatureBase {\n//    /**\n//     * @notice Gets all signatures for specific device.\n//     * @dev Use this function instead of filtering DeviceSigned event since signatures could have been revoked.\n//     * @param _deviceId ID of a device.\n//     * @return Array of signature IDs.\n//     */\n//    function getActiveSignaturesForDevice(uint _deviceId) public view returns (uint[] memory) {\n//        uint[] memory signatureIds = new uint[](deviceSignatureCount[_deviceId]);\n//        uint counter = 0;\n//        for (uint i = 0; i < signatures.length; i++) {\n//            if (signatures[i].deviceId == _deviceId && signatures[i].revoked == false) {\n//                signatureIds[counter] = i;\n//                counter++;\n//            }\n//        }\n//        return signatureIds;\n//    }\n//}\n//\n///**\n// * @title Enriches devices giving them option to be updated only if not signed already.\n// */\n//contract DeviceUpdatable is DeviceHelper, SignatureHelper {\n//    /// @dev Fired on device ownership transfer, keeps track of historical device owners.\n//    event DeviceTransfered(uint indexed deviceId, address oldOwner, address newOwner);\n//\n//    /// @dev Fired on device property update, keeps track of historical property values.\n//    event DevicePropertyUpdated(uint indexed deviceId, bytes32 indexed property, string newValue);\n//\n//    /**\n//     * @notice Transfer device ownership from one external account to another. Emits DeviceTransfered.\n//     * @param _deviceId ID of to be transfered device.\n//     * @param _to Address of new owner.\n//     */\n//    function transferDevice(uint _deviceId, address _to) public onlyOwnerOf(_deviceId) notSigned(_deviceId) {\n//        address currentOwner = devices[_deviceId].owner;\n//        devices[_deviceId].owner = _to;\n//        ownerDeviceCount[msg.sender]--;\n//        ownerDeviceCount[_to]++;\n//\n//        emit DeviceTransfered(_deviceId, currentOwner, _to);\n//    }\n//\n//    /**\n//     * @notice Update device with new identifier. Emits DevicePropertyUpdated.\n//     * @param _deviceId ID of a device.\n//     * @param _newIdentifier New identifier.\n//     */\n//    function updateIdentifier(uint _deviceId, bytes32 _newIdentifier) public onlyOwnerOf(_deviceId) notSigned(_deviceId) {\n//        devices[_deviceId].identifier = _newIdentifier;\n//\n////        emit DevicePropertyUpdated(_deviceId, \"identifier\", _newIdentifier);\n//    }\n//\n//\n//    /**\n//     * @notice Update device with new metadata hash. Emits DevicePropertyUpdated.\n//     * @param _deviceId ID of a device.\n//     * @param _newMetadataHash New metadata hash.\n//     */\n//    function updateMetadataHash(uint _deviceId, string memory _newMetadataHash) public onlyOwnerOf(_deviceId) notSigned(_deviceId) {\n//        devices[_deviceId].metadataHash = _newMetadataHash;\n//\n//        emit DevicePropertyUpdated(_deviceId, \"metadata\", _newMetadataHash);\n//    }\n//\n//    /**\n//     * @notice Update device with new firmware hash. Emits DevicePropertyUpdated.\n//     * @param _deviceId ID of a device.\n//     * @param _newFirmwareHash New firmware hash.\n//     */\n//    function updateFirmwareHash(uint _deviceId, string memory _newFirmwareHash) public onlyOwnerOf(_deviceId) notSigned(_deviceId) {\n//        devices[_deviceId].firmwareHash = _newFirmwareHash;\n//\n//        emit DevicePropertyUpdated(_deviceId, \"firmware\", _newFirmwareHash);\n//    }\n//\n////    function updateProductID(uint _deviceId, bytes32 _newProductID) public onlyOwnerOf(_deviceId) notSigned(_deviceId) {\n////        devices[_deviceId].productID = _newProductID;\n////\n////    }\n//\n//}\n//\n///// @title Device manager core contract.\n//contract DeviceManager is EntityBase, DeviceUpdatable {\n//    /// @dev Merges contracts.\n//}\n",
  "sourcePath": "/Users/kimwang/Desktop/895/leshan/blockchain-integration/contracts/Application.sol",
  "compiler": {
    "name": "solc",
    "version": "0.5.0+commit.1d4f565a.Emscripten.clang"
  },
  "schemaVersion": "3.0.20",
  "updatedAt": "2020-06-06T03:23:56.878Z",
  "networkType": "ethereum",
  "devdoc": {
    "methods": {
      "createDevice(bytes32,string,bytes32,string,string,string)": {
        "params": {
          "_applicationId": "App linked to.",
          "_endpointClientName": "Endpoint Client Name.",
          "_identifier": "Unique device identifier, such as fingerprint of RSA/ECC public key or Ethereum address (recommended).",
          "_publicKey": "Merkle root hash of metadata (recommended) or simple hash of concatenated metadata."
        },
        "return": "Created device ID."
      },
      "getActiveSignaturesForDevice(uint256)": {
        "details": "Use this function instead of filtering DeviceSigned event since signatures could have been revoked.",
        "params": {
          "_deviceId": "ID of a device."
        },
        "return": "Array of signature IDs."
      },
      "getDevicesByOwner(address)": {
        "details": "Use this function instead of filtering DeviceCreated event since devices could have been transferred between owners.",
        "params": {
          "_owner": "Owner address."
        },
        "return": "Array of device IDs."
      },
      "isDeviceAnEntity(uint256)": {
        "params": {
          "_deviceId": "ID of a  device."
        },
        "return": "Boolean status."
      },
      "isValidEthMessage(uint256,bytes32,bytes)": {
        "params": {
          "_deviceId": "ID of a device that signed the message.",
          "_messageHash": "Hash of sent message.",
          "_signature": "Signature generated using web3.eth.sign()."
        },
        "return": "Boolean status."
      },
      "revokeSignature(uint256)": {
        "params": {
          "_signatureId": "ID of to be revoked signature."
        }
      },
      "signDevice(uint256,uint256)": {
        "params": {
          "_deviceId": "ID of to be signed device.",
          "_expiryTime": "Expiry time in Unix seconds."
        },
        "return": "Created signature ID."
      },
      "transferDevice(uint256,address)": {
        "params": {
          "_deviceId": "ID of to be transfered device.",
          "_to": "Address of new owner."
        }
      },
      "updateApplicationId(uint256,bytes32)": {
        "params": {
          "_deviceId": "ID of a device.",
          "_newApplicationId": "New _newApplicationId."
        }
      },
      "updateEntityData(string)": {
        "params": {
          "_data": "Entity data."
        }
      },
      "updateIdentifier(uint256,bytes32)": {
        "params": {
          "_deviceId": "ID of a device.",
          "_newIdentifier": "New identifier."
        }
      },
      "updateMetadataHash(uint256,string)": {
        "params": {
          "_deviceId": "ID of a device.",
          "_newPublicKey": "New PublicKey"
        }
      }
    },
    "title": "Device manager core contract."
  },
  "userdoc": {
    "methods": {
      "createDevice(bytes32,string,bytes32,string,string,string)": {
        "notice": "Creates and saves device into storage. Emits DeviceCreated."
      },
      "getActiveSignaturesForDevice(uint256)": {
        "notice": "Gets all signatures for specific device."
      },
      "getDevicesByOwner(address)": {
        "notice": "Gets all devices owned by specified address."
      },
      "isDeviceAnEntity(uint256)": {
        "notice": "Checks if device is also an entity."
      },
      "isValidEthMessage(uint256,bytes32,bytes)": {
        "notice": "Validate authenticity of message signed by Etherium private key. On-chain validation is available only for Ethereum signed messages."
      },
      "revokeSignature(uint256)": {
        "notice": "Revokes a signature. Emits SignatureRevoked."
      },
      "signDevice(uint256,uint256)": {
        "notice": "Signs a device and signature into storage. Emits DeviceSigned."
      },
      "transferDevice(uint256,address)": {
        "notice": "Transfer device ownership from one external account to another. Emits DeviceTransfered."
      },
      "updateApplicationId(uint256,bytes32)": {
        "notice": "Update device with new firmware hash. Emits DevicePropertyUpdated."
      },
      "updateEntityData(string)": {
        "notice": "Update entity data."
      },
      "updateIdentifier(uint256,bytes32)": {
        "notice": "Update device with new identifier. Emits DevicePropertyUpdated."
      },
      "updateMetadataHash(uint256,string)": {
        "notice": "Update device with new metadata hash. Emits DevicePropertyUpdated."
      }
    }
  }
}