{
  "contractName": "EventManager",
  "abi": [
    {
      "constant": false,
      "inputs": [
        {
          "name": "deviceId",
          "type": "bytes32"
        },
        {
          "name": "applicationId",
          "type": "bytes32"
        },
        {
          "name": "curCategory",
          "type": "string"
        },
        {
          "name": "message",
          "type": "string"
        },
        {
          "name": "timestamp",
          "type": "string"
        },
        {
          "name": "allCategories",
          "type": "string"
        },
        {
          "name": "appCategory",
          "type": "string"
        }
      ],
      "name": "addAlert",
      "outputs": [],
      "payable": false,
      "stateMutability": "nonpayable",
      "type": "function"
    },
    {
      "constant": true,
      "inputs": [
        {
          "name": "applicationId",
          "type": "bytes32"
        }
      ],
      "name": "getAlertCategoriesByApplicationId",
      "outputs": [
        {
          "name": "categories",
          "type": "string"
        }
      ],
      "payable": false,
      "stateMutability": "view",
      "type": "function"
    },
    {
      "constant": true,
      "inputs": [
        {
          "name": "appCategory",
          "type": "string"
        }
      ],
      "name": "getAlertMessageByAppCategory",
      "outputs": [
        {
          "name": "messages",
          "type": "string"
        },
        {
          "name": "timestamp",
          "type": "string"
        }
      ],
      "payable": false,
      "stateMutability": "view",
      "type": "function"
    }
  ],
  "bytecode": "0x608060405234801561001057600080fd5b506109cf806100206000396000f3fe608060405260043610610057576000357c0100000000000000000000000000000000000000000000000000000000900463ffffffff16806360e207801461005c5780636c4bfed1146101105780637440d97d14610448575b600080fd5b34801561006857600080fd5b506100956004803603602081101561007f57600080fd5b81019080803590602001909291905050506105b3565b6040518080602001828103825283818151815260200191508051906020019080838360005b838110156100d55780820151818401526020810190506100ba565b50505050905090810190601f1680156101025780820380516001836020036101000a031916815260200191505b509250505060405180910390f35b34801561011c57600080fd5b50610446600480360360e081101561013357600080fd5b8101908080359060200190929190803590602001909291908035906020019064010000000081111561016457600080fd5b82018360208201111561017657600080fd5b8035906020019184600183028401116401000000008311171561019857600080fd5b91908080601f016020809104026020016040519081016040528093929190818152602001838380828437600081840152601f19601f820116905080830192505050505050509192919290803590602001906401000000008111156101fb57600080fd5b82018360208201111561020d57600080fd5b8035906020019184600183028401116401000000008311171561022f57600080fd5b91908080601f016020809104026020016040519081016040528093929190818152602001838380828437600081840152601f19601f8201169050808301925050505050505091929192908035906020019064010000000081111561029257600080fd5b8201836020820111156102a457600080fd5b803590602001918460018302840111640100000000831117156102c657600080fd5b91908080601f016020809104026020016040519081016040528093929190818152602001838380828437600081840152601f19601f8201169050808301925050505050505091929192908035906020019064010000000081111561032957600080fd5b82018360208201111561033b57600080fd5b8035906020019184600183028401116401000000008311171561035d57600080fd5b91908080601f016020809104026020016040519081016040528093929190818152602001838380828437600081840152601f19601f820116905080830192505050505050509192919290803590602001906401000000008111156103c057600080fd5b8201836020820111156103d257600080fd5b803590602001918460018302840111640100000000831117156103f457600080fd5b91908080601f016020809104026020016040519081016040528093929190818152602001838380828437600081840152601f19601f820116905080830192505050505050509192919290505050610667565b005b34801561045457600080fd5b506104cc6004803603602081101561046b57600080fd5b810190808035906020019064010000000081111561048857600080fd5b82018360208201111561049a57600080fd5b803590602001918460018302840111640100000000831117156104bc57600080fd5b9091929391929390505050610764565b604051808060200180602001838103835285818151815260200191508051906020019080838360005b838110156105105780820151818401526020810190506104f5565b50505050905090810190601f16801561053d5780820380516001836020036101000a031916815260200191505b50838103825284818151815260200191508051906020019080838360005b8381101561057657808201518184015260208101905061055b565b50505050905090810190601f1680156105a35780820380516001836020036101000a031916815260200191505b5094505050505060405180910390f35b60606000808381526020019081526020016000208054600181600116156101000203166002900480601f01602080910402602001604051908101604052809291908181526020018280546001816001161561010002031660029004801561065b5780601f106106305761010080835404028352916020019161065b565b820191906000526020600020905b81548152906001019060200180831161063e57829003601f168201915b50505050509050919050565b81600080888152602001908152602001600020908051906020019061068d9291906108fe565b5060006001826040518082805190602001908083835b6020831015156106c857805182526020820191506020810190506020830392506106a3565b6001836020036101000a03801982511681845116808217855250505050505090500191505090815260200160405180910390209050878160000181905550868160010181905550858160020190805190602001906107279291906108fe565b50848160030190805190602001906107409291906108fe565b50838160040190805190602001906107599291906108fe565b505050505050505050565b606080600184846040518083838082843780830192505050925050509081526020016040518091039020600301600185856040518083838082843780830192505050925050509081526020016040518091039020600401818054600181600116156101000203166002900480601f0160208091040260200160405190810160405280929190818152602001828054600181600116156101000203166002900480156108505780601f1061082557610100808354040283529160200191610850565b820191906000526020600020905b81548152906001019060200180831161083357829003601f168201915b50505050509150808054600181600116156101000203166002900480601f0160208091040260200160405190810160405280929190818152602001828054600181600116156101000203166002900480156108ec5780601f106108c1576101008083540402835291602001916108ec565b820191906000526020600020905b8154815290600101906020018083116108cf57829003601f168201915b50505050509050915091509250929050565b828054600181600116156101000203166002900490600052602060002090601f016020900481019282601f1061093f57805160ff191683800117855561096d565b8280016001018555821561096d579182015b8281111561096c578251825591602001919060010190610951565b5b50905061097a919061097e565b5090565b6109a091905b8082111561099c576000816000905550600101610984565b5090565b9056fea165627a7a723058206e09fae2db1d5363095870cba7a555fa5d9c7973dde7a573f822fed70f87bd850029",
  "source": "pragma solidity ^0.5.0;\n\ncontract EventManager {\n\n    struct AlertEvent {\n        bytes32 deviceId;\n        bytes32 applicationId;\n        string category;\n        string message;\n        string timestamp;\n    }\n    /// @notice Maps app to a category string.\n    mapping (bytes32 => string) appToCategories;\n\n    /// @notice Maps app+category string to an AlertEvent struct.\n    mapping (string => AlertEvent) appCategoryToMessage;\n\n    ///curCategory is the current category\n    ///allCategories is the string of all categories\n    ///appCategory is the combination of appId and curCategory\n    function addAlert (bytes32 deviceId, bytes32 applicationId, string memory curCategory, string memory message, string memory timestamp, string memory allCategories, string memory appCategory) public {\n        appToCategories[applicationId] = allCategories;\n        // Create alertEvent\n        AlertEvent storage alertEvent = appCategoryToMessage[appCategory];\n        alertEvent.deviceId = deviceId;\n        alertEvent.applicationId = applicationId;\n        alertEvent.category = curCategory;\n        alertEvent.message = message;\n        alertEvent.timestamp = timestamp;\n    }\n    function getAlertCategoriesByApplicationId (bytes32 applicationId) external view returns (string memory categories) {\n        return appToCategories[applicationId];\n    }\n    function getAlertMessageByAppCategory (string calldata appCategory) external view returns (string memory messages, string memory timestamp){\n        return (appCategoryToMessage[appCategory].message, appCategoryToMessage[appCategory].timestamp);\n    }\n}\n",
  "sourcePath": "/Users/kimwang/Desktop/895/leshan/blockchain-integration/contracts/EventManager.sol",
  "compiler": {
    "name": "solc",
    "version": "0.5.0+commit.1d4f565a.Emscripten.clang"
  },
  "schemaVersion": "3.0.20",
  "updatedAt": "2020-06-07T07:36:47.213Z",
  "devdoc": {
    "methods": {}
  },
  "userdoc": {
    "methods": {
      "addAlert(bytes32,bytes32,string,string,string,string,string)": {
        "notice": "curCategory is the current category allCategories is the string of all categories appCategory is the combination of appId and curCategory"
      }
    }
  }
}